:020000040800F2
:1000000028040020450100084D0100084F010008A8
:1000100051010008530100085501000800000000CC
:100020000000000000000000000000005701000870
:1000300059010008000000005B0100085D01000894
:100040005F0100085F0100085F0100085F01000810
:100050005F0100085F0100085F0100085F01000800
:100060005F0100085F0100085F0100085F010008F0
:100070005F0100085F0100085F0100085F010008E0
:100080005F0100085F0100085F0100085F010008D0
:100090005F0100085F0100085F0100085F010008C0
:1000A0005F0100085F0100085F0100085F010008B0
:1000B0005F0100085F0100085F0100085F010008A0
:1000C0005F0100085F0100085F0100085F01000890
:1000D0005F0100085F0100085F0100085F01000880
:1000E0005F0100085F0100085F0100085F01000870
:1000F0005F0100085F0100085F0100085F01000860
:100100005F0100085F0100085F0100085F0100084F
:100110005F0100085F0100085F0100085F0100083F
:100120005F0100085F0100085F0100085F0100082F
:10013000DFF80CD001F0CCF90048004705060008B4
:10014000280400200648804706480047FEE7FEE7EF
:10015000FEE7FEE7FEE7FEE7FEE7FEE7FEE7FEE777
:10016000D113000831010008DD4A108070474FF0BC
:10017000C0431880DA4B1980704700E0401E002809
:10018000FCD1704710B500240221D64801F022F8B6
:10019000D548FFF7F2FF0221D24801F019F8D24802
:1001A000FFF7EBFF00210846FFF7E1FF00210846BB
:1001B000FFF7DDFF00210846FFF7D9FF00210846C1
:1001C000FFF7D5FF4FF4C4414FF48060FFF7CFFF36
:1001D00040F608010820FFF7CAFF4FF4406188107D
:1001E000FFF7C5FF45F60B2140F20130FFF7BFFFD7
:1001F00040F6061140F20230FFF7B9FF41F2170155
:1002000040F20330FFF7B3FF4FF40C514FF441704D
:10021000FFF7ADFF4FF4B85140F20530FFF7A7FFED
:1002200046F2093140F20630FFF7A1FF40F60941DE
:1002300040F20730FFF79BFF41F20C014FF4427090
:10024000FFF795FF42F2322140F20930FFF78FFFAE
:1002500016211020FFF78BFF40F201111120FFF74C
:1002600086FF00211220FFF782FF01211320FFF7F4
:100270007EFF4FF44C714FF48070FFF778FF40F22F
:10028000372140F20110FFF772FF4FF4706140F226
:100290000310FFF76CFF4FF4C2414FF42070FFF7DB
:1002A00066FF4CF2B0114FF48170FFF760FF4FF41E
:1002B00080710120FFF75BFF4FF480710220FFF790
:1002C00056FF41F230010320FFF751FF01210920C1
:1002D000FFF74DFF00210C20FFF749FF4FF40041CD
:1002E0009020FFF744FF00210F20FFF740FF00217F
:1002F0004FF40470FFF73BFFEF2140F21120FFF7AE
:1003000036FF002140F21220FFF731FF40F28F113B
:1003100040F21320FFF72BFF00214FF4A060FFF7FE
:1003200026FF002140F20150FFF721FF5F2140F23C
:100330000250FFF71CFF012140F20140FFF717FFB9
:10034000002140F20440FFF712FF4FF480710720B4
:10035000FFF70DFF00214FF40070FFF708FF0021A9
:1003600040F20120FFF703FF00214FF40070FFF778
:10037000FEFE002140F20120FFF7F9FE40F20220CC
:100380004FF0C041088000BF05E04FF6FF70FFF757
:10039000EBFE601C84B2B4F5165FF6DB10BD4FF0C7
:1003A000C042108070472DE9F84F04460D461646AE
:1003B0001F464FF00009CA464FF0080B002000907E
:1003C000B878F97801EB0020401E1FFA80F93879DF
:1003D000797901EB0020401E1FFA80FA2EBB41F212
:1003E00030010320FFF7C3FE21464FF40470FFF7EE
:1003F000BEFE04EB090140F21120FFF7B8FE2946CA
:1004000040F21220FFF7B3FE05EB0A0140F2132081
:10041000FFF7ADFE21464FF40070FFF7A8FE294616
:1004200040F20120FFF7A3FE26E0012E24D141F285
:1004300018010320FFF79BFE29464FF40470FFF7D5
:1004400096FE05EB0A0140F21120FFF790FE2146CF
:1004500040F21220FFF78BFE04EB090140F213205B
:10046000FFF785FE29467002FFF781FE04EB0901C4
:1004700040F20120FFF77BFE40F20220FFF78FFFE2
:1004800009F1010041000AF10100414300910DE032
:100490000BF10100385C17F80B1000EB01201FFA7C
:1004A00080F84046FFF760FE0BF1020B0098083021
:1004B0008345EDD3BDE8F88F10B50C4B00221146F3
:1004C0001046FFF770FF0A48FFF757FE094B01225D
:1004D00000210846FFF767FF0548FFF74EFE10BDF5
:1004E0000000026000180140FFAF0100FAFF02089F
:1004F000FFFFAF011215000800B597B00220019070
:1005000000200290052003900020049005900690A2
:100510004FF08050079000200890099008200A9022
:1005200010200B9000200C900E900F9010904FF424
:1005300080501190002012901390149001A81590F3
:10054000169008A800F085FA0121002000F0E6FBD3
:1005500017B000BD08B54FF40050ADF800001020F2
:100560008DF8030003208DF8020069462C4800F046
:1005700087FD0220ADF8000010208DF80300032055
:100580008DF802006946274800F07AFD4CF20370AE
:10059000ADF8000018208DF8030003208DF802004C
:1005A00069461F4800F06CFD4FF68070ADF8000002
:1005B00018208DF8030003208DF8020069461948C1
:1005C00000F05EFD4FF40B60ADF8000018208DF8D0
:1005D000030003208DF802006946114800F050FD29
:1005E0004FF400510E4800F0F3FD08BD10B500F0C7
:1005F000EFFE0121080200F070F90121612000F0F6
:1006000079F910BD10B5FFF7F1FFFFF7A3FFFFF772
:1006100073FFFFF7B7FD01E0FFF74EFFFCE70000B7
:100620000014014000180140DB48006840F0010060
:10063000D949086008464068D8490840D64948600A
:1006400008460068D6490840D34908600846006853
:1006500020F4802008600846406820F4FE004860CE
:100660004FF41F0088607047CB49096821F480313E
:10067000C94A11601146096821F480211160B0F562
:10068000803F03D0B0F5802F0ED106E0C249096843
:1006900041F48031C04A116007E0BF49096841F464
:1006A000A021BD4A116000E000BF00BF704710B537
:1006B00001460022002300204A11012A02D1B64C33
:1006C000236806E0022A02D1B34C236A01E0B24C4F
:1006D000636A01F01F02012494401C4201D00120F2
:1006E00000E0002010BD70B500240025002600BFEA
:1006F0003120FFF7DCFF0646641CB4F5A06F01D083
:10070000002EF5D03120FFF7D2FF08B1012500E01F
:100710000025284670BD00219F4A116821F0F8018C
:1007200041EAC001116070479E490860704700228D
:10073000994B5A6822F47C1240EA01031A43964B03
:100740005A6070479749086670470021924A51687D
:1007500021F003010143516070478F48406800F069
:100760000C00704700218C4A516821F0F0010143D0
:10077000516070470021884A516821F4E0610143CB
:10078000516070470021844A516821F4605141EA68
:10079000C0015160704729B17F4A527A02437E4BB3
:1007A0005A7206E07C4A527AC343DBB21A407A4B53
:1007B0005A7270477B49D831086070470021764AE9
:1007C000516821F440410143516070470021724A51
:1007D00020321170704A82F82010012802D00428BB
:1007E0000AD104E001216C4A2032117005E0052194
:1007F000694A2032117000E000BF00BF70476A49AB
:10080000086070476449096A0143634A116270478E
:10081000654944390860704730B500210022002343
:1008200000245D4D6D6805F00C0121B1042905D04F
:10083000082923D105E05D4D056022E05B4D056090
:100840001FE0554D6D6805F47012534D6D6805F449
:100850008033022505EB92421BB9554D5543056087
:100860000BE04D4D6D6815F4003F03D0504D5543DE
:10087000056002E04D4D5543056002E04B4D0560BB
:1008800000BF00BF444D6D6805F0F0010909494DF6
:100890006C5C0568E54045603F4D6D6805F4E061BE
:1008A000090A444D6C5C4568E54085603A4D6D68C9
:1008B00005F46051C90A3F4D6C5C4568E540C56070
:1008C000354D6D6805F44041890B3A4D10356C5C2F
:1008D000C568B5FBF4F5056130BD29B12E4A5269F2
:1008E00002432D4B5A6104E02B4A526982432A4B42
:1008F0005A61704729B1284A92690243264B9A618E
:1009000004E0254A92698243234B9A61704729B1DA
:10091000214AD2690243204BDA6104E01E4AD269BF
:1009200082431D4BDA61704729B11B4AD2680243EA
:10093000194BDA6004E0184AD2688243164BDA6039
:10094000704729B1144A12690243134B1A6104E03B
:10095000114A12698243104B1A617047124940399B
:10096000086070470F49C86470470B49C8717047E9
:100970000948406A40F08070074948627047014664
:100980000020054A92680A4201D0012000E00020C0
:100990007047014988727047001002400000FFF85C
:1009A000FFFFF6FE000042428004424200127A003D
:1009B00000093D000000002030B943F2DB014FF098
:1009C000204242F8201005E043F2D2014FF02042CD
:1009D00042F820106FF07042411C4FF0204343F862
:1009E000212011461A4602EB8002C2F8041170471A
:1009F00010280AD118214FF020421166402151667B
:100A00004FF0FC319166D16610E01821FA4A11606E
:100A100040214FF02042C2F884104FF0FC31F64ADA
:100A2000083211604FF02042C2F88C107047182035
:100A3000F1492031086000200906C1F8A4004FF0F8
:100A4000FC30ED4928310860091D0860091D086067
:100A50007047D0E901121143C26811430269114382
:100A60004269114382691143C2691143026A114309
:100A7000426A1143826A1143C26A1143026B1143F5
:100A80004FF02043026843F822108168082908D1FA
:100A90001A46016852F8211041F04001026843F8FB
:100AA0002210416B0968426B526841EA0211426BA5
:100AB000926841EA0221426BD26841EA0241426BEC
:100AC000126941EA0251426B526941EA0261426B8A
:100AD000926911430268521C4FF0204343F82210E0
:100AE000C16AB1F5804F1AD1816B0968826B526877
:100AF00041EA0211826B926841EA0221826B12691B
:100B000041EA0251826B526941EA0261826B926949
:100B10001143026803EB8202C2F8041108E06FF08F
:100B200070414FF02043026803EB8202C2F80411C7
:100B3000704730B5002100220023446844F00804C7
:100B400085682C43C5682C4305692C43456944EAF4
:100B50004524856944EA4531C4692468C5696D68DE
:100B600044EA0524C569AD6844EA0544C569ED68F1
:100B700044EA0562046A2468056A6D6844EA05244B
:100B8000056AAD6844EA0544056AED6844EA056310
:100B90000468102C05D14FF020442166A266E3665C
:100BA00008E0954C21604FF02044C4F88820924C16
:100BB0000C34236030BD016841F01001426841EA05
:100BC0004221826841EA42318B4A20321160C16879
:100BD0000968C268526841EA0221C268926841EA23
:100BE0000241C268D26841EA0261834A2832116038
:100BF000016909680269526841EA02210269926842
:100C000041EA02410269D26841EA02617A4A2C3221
:100C10001160416909684269526841EA02214269EA
:100C2000926841EA02414269D26841EA02614FF0AA
:100C30002042C2F8B01070470021016002214160DB
:100C400000218160C160016141618161C161016216
:100C50004FF480514162490081620021C162016309
:100C60000F21426B1160426B5160FF21426B91601A
:100C70000F21426BD160426B1161426B51610021C7
:100C8000426B91610F21826B1160826B5160FF2179
:100C9000826B91600F21826BD160826B1161826BDC
:100CA00051610021826B9161704710210160002128
:100CB00041608160C160016141618161FC21C26963
:100CC0001160C2695160C2699160C269D160026AF3
:100CD0001160026A5160026A9160026AD1607047D5
:100CE0000021016041608160FC21C2681160C2681E
:100CF0005160C2689160C268D16002691160026986
:100D00005160026991600269D16042691160426973
:100D10005160426991604269D160704751B14FF0B2
:100D2000204252F8202042F001024FF0204343F8C5
:100D3000202009E04FF0204252F820202F4B1A408B
:100D40004FF0204343F82020704799B1102808D174
:100D50004FF02042126E42F004024FF020431A6618
:100D60001DE0254A126842F004024FF02043C3F808
:100D7000802014E0102809D14FF02042126E1F4B42
:100D8000DB1E1A404FF020431A6608E01A4A126828
:100D90001A4BDB1E1A404FF02043C3F880207047E7
:100DA00048B115492031096841F004014FF0204253
:100DB000C2F8A01009E01049203109680F4AD21E7C
:100DC00011404FF02042C2F8A0107047C1B1102866
:100DD00008D14FF02042126E42F040024FF0204303
:100DE0001A6620E0044A126842F040024FF02043A5
:100DF000C3F8802017E00000800000A0FEFF0F0075
:100E0000102808D14FF02042126E6B4B1A404FF061
:100E100020431A6607E0694A1268674B1A404FF090
:100E20002043C3F88020704701460020102903D1D9
:100E30004FF02042506F02E0604A14321068704751
:100E400010B5F2B1102807D14FF020435B6E0B4371
:100E50004FF02044636632E0B0F5807F08D1574BF5
:100E60001B1D1B680B434FF02044C4F8843026E060
:100E7000524B24331B680B434FF02044C4F8A4307A
:100E80001DE0102807D14FF020435B6E8B434FF0DD
:100E90002044636613E0B0F5807F08D1474B1B1DEB
:100EA0001B688B434FF02044C4F8843007E0434B69
:100EB00024331B688B434FF02044C4F8A43010BD8A
:100EC00010B5034600200022102B03D14FF0204420
:100ED000626E09E0B3F5807F03D1384C241D22688F
:100EE00002E0364C243422680A4201D0012000E09E
:100EF000002010BD102807D14FF02042526E8A43C7
:100F00004FF020435A6613E0B0F5807F08D12B4A9A
:100F1000121D12688A434FF02043C3F8842007E073
:100F2000264A243212688A434FF02043C3F8A42093
:100F3000704770B502460020002300240025102AC7
:100F400003D14FF02046736E09E0B2F5807F03D1E4
:100F50001A4E361D336802E0184E2436336803EA11
:100F6000010403EAD10514B10DB1012000E0002015
:100F700070BD102808D14FF02042526E22EAD102F3
:100F80004FF020435A6615E0B0F5807F09D10B4A37
:100F9000121D126822EAD1024FF02043C3F88420C8
:100FA00008E0064A2432126822EAD1024FF02043B8
:100FB000C3F8A42070470000BFFF0F00800000A00E
:100FC00010B50446C748844208D101210420FFF728
:100FD000ABFC00210420FFF7A7FC46E0C248844296
:100FE00008D101210820FFF79FFC00210820FFF70E
:100FF0009BFC3AE0BD48844208D101211020FFF754
:1010000093FC00211020FFF78FFC2EE0B8488442AB
:1010100008D101212020FFF787FC00212020FFF7C5
:1010200083FC22E0B348844208D101214020FFF72D
:101030007BFC00214020FFF777FC16E0AE4884429D
:1010400008D101218020FFF76FFC00218020FFF7ED
:101050006BFC0AE0A948844207D101218015FFF703
:1010600063FC0021A015FFF75FFC10BD10B5012146
:101070000846FFF759FC00210120FFF755FC10BD81
:10108000F0B500220023002400250026002791F857
:1010900003C00CF00F0291F803C01CF0100F03D036
:1010A00091F802C04CEA0202B1F800C01CF0FF0F38
:1010B00031D0066800242BE04FF0010C0CFA04F547
:1010C000B1F800C00CEA0503AB4220D1A5004FF0F7
:1010D0000F0C0CFA05F7BE4302FA05FC4CEA0606B3
:1010E00091F803C0BCF1280F06D14FF0010C0CFAA7
:1010F00004FCC0F814C00AE091F803C0BCF1480F2A
:1011000005D14FF0010C0CFA04FCC0F810C0641CAF
:10111000082CD1D30660B1F800C0BCF1FF0F34DD5C
:10112000466800242EE004F1080C4FF0010E0EFA80
:101130000CF5B1F800C00CEA0503AB4221D1A500C3
:101140004FF00F0C0CFA05F7BE4302FA05FC4CEA0F
:10115000060691F803C0BCF1280F05D104F1080C74
:101160000EFA0CFEC0F814E091F803C0BCF1480F71
:1011700007D104F1080C4FF0010E0EFA0CFEC0F876
:1011800010E0641C082CCED34660F0BD4FF6FF7112
:101190000180022181700421C17070470246002045
:1011A00093680B4201D0012000E000207047014607
:1011B000886880B2704702460020D3680B4201D095
:1011C000012000E0002070470146C86880B27047E7
:1011D00001617047416170470AB1016100E04161FE
:1011E0007047C16070474FF480320A438261816169
:1011F00082618269826970470022414B1A684FF60A
:1012000080731A4042EA00120A433D4B1A6070474D
:101210003C49C8617047F0B5002200230024002536
:1012200000F00046B6F1004F02D1354EF46901E0FE
:10123000334E7468C0F3034582B200F44016B6F52D
:10124000401F08D124F070642D4E766826F0706639
:101250002B4F7E6012E000F48016B6F5801F06D199
:10126000032606FA05F39C4344F0706406E0460D3D
:10127000360102FA06F6B44344F0706421B1460D1B
:10128000360102FA06F6344300F00046B6F1004F8C
:1012900002D11B4EF46101E0194E7460F0BD30B50F
:1012A00000228B071C0F0F2303FA04F2144B0833A0
:1012B0008C1053F8244094438D1043F825408C1033
:1012C00053F824308C07240F00FA04F423430C4C09
:1012D00008348D1044F8253030BD0A49DC310860EF
:1012E0007047000000080140000C01400010014060
:1012F0000014014000180140001C01400020014082
:10130000000001400000204200200021674A1268CE
:1013100042F48032654B1A6000BF644A126802F4DE
:101320000031401C11B9B0F5A06FF6D15F4A1268C8
:1013300012F4003F01D0012100E00021012942D137
:101340005B4A126842F01002594B1A601A46126842
:1013500022F003021A601A46126842F002021A6072
:10136000524A5268514B5A601A4652685A601A469D
:10137000526842F480625A601A46526822F47C1223
:101380005A601A46526842F4E8125A601A461268C5
:1013900042F080721A6000BF444A126812F0007F67
:1013A000FAD0424A526822F00302404B5A601A4671
:1013B000526842F002025A6000BF3C4A526802F092
:1013C0000C02082AF9D1704710B5FFF79DFF10BD38
:1013D00010B53648006840F00100344908600846FE
:1013E000406834490840314948600846006832493D
:1013F00008402E4908600846006820F480200860F4
:101400000846406820F4FE0048604FF41F008860E2
:10141000FFF7DAFF4FF000602849086010BD10B5F3
:10142000002000210022214B5B6803F00C0020B15A
:10143000042806D0082828D107E0214B214C23603E
:1014400027E01F4B1F4C236023E0184B5B6803F41D
:101450007011164B5B6803F48032022303EB914159
:1014600022B9194B4B43174C23600DE00F4B5B68BF
:1014700013F4003F04D0144B4B43124C236003E0A1
:101480000F4B4B430F4C236003E00D4B0D4C23607F
:1014900000BF00BF054B5B68C3F303130B4CE05C5C
:1014A000084B1B68C340074C236010BD001002406E
:1014B000002002400000FFF8FFFFF6FE08ED00E00C
:1014C00000127A001400002000093D0018000020DE
:1014D000064C074D06E0E06840F0010394E8070081
:1014E00098471034AC42F6D3FEF726FE24EC0508EC
:1014F00044EC050802E008C8121F08C1002AFAD10E
:1015000070477047002001E001C1121F002AFBD183
:1015100070471010019000F0011B6BD06BD06BD0A6
:101520006BD06BD06BD06BD06BD06BD06BD06BD0E3
:101530006BD06BB06BD073D073D073D073D073D0CB
:1015400073D06BB06BD06BD073D073D073F073F17A
:1015500073F1741174117411741174117411741184
:101560007411741174117411741174117411741153
:10157000741174117411741173F16BF06BD06BD022
:101580006BD06BD06BD06BD073D073D073D073D063
:101590006BD06BD073F073D06BB06BB06BD06BD083
:1015A00073D073D06BD06BB06BD06BD06BD06BD073
:1015B00073D073D073D073D073F174117C317C31DC
:1015C0007C317C117C117C31741173F073F073F0F9
:1015D00073D06BD06BD06BD06BD073F0741174116F
:1015E0007C317C317C317C317C31743174117C11E3
:1015F0007C117C317C31741173F06BD073D073F13A
:1016000073F073F073F174117C327C327C327C5253
:101610007C32741173F173F173D173F17BF173F157
:1016200073D073D073F17C117C117C117C117C32EE
:101630007C327C327C327C1173F17C117C327C32C6
:101640007C327C117C117C117C1174117411741129
:10165000741174117411741173F173F173F173F1E6
:1016600073F173F173F173F173F173F173D17BF172
:101670007BF173F173F173D073D073D073D07C119D
:101680007C327C117BF17C117C327C117BF173D03C
:101690007BF17BF173F173F17C117BF173F17BF1E1
:1016A0007BF17BF173F17BF17BF173F173D173D13A
:1016B0007BF17BF17BF17BF17BF17BF173F173F1DA
:1016C00073F174117411741173F173F173F073F099
:1016D00073F073F073F073F073F073D073D073F131
:1016E00073F173F073D073D07411741174117C1191
:1016F0007C527C327C317C327C327C327C31741185
:101700007411741173F173F06BF06BD06BF073F0B4
:10171000741174117C317C317C317C3174317411E1
:10172000741174117C327C327C32741174327C32CC
:101730007C327C327C327C127C117C117C127C11DC
:101740007C117BF17C11741173F173F073F073F001
:1017500073F073D073D073D073D073D073D06BD059
:101760006BD06BD06BF073F073F073F07411741175
:101770007431743174117411741173F17411741122
:101780007411741174117C117C11741173F173D084
:1017900073D06BD06BD06BD06BB06BB06BB06BD0C9
:1017A0006BD073D073F174117C11741174117411B6
:1017B0007411741174117411741174117411741101
:1017C000741173F173F073F06BD06BB06BB06BD0BE
:1017D00073F174117411741174117411741173F123
:1017E00073F16BD06BD06BD073D06BD06BD06BD0F0
:1017F0006BD06BD06BD06BD06BD06BD06BD06BD011
:101800006BD06BD06BD06BD06BD06BD06BD06BD000
:101810006BD06BD06BD06BD06BD06BD06BD06BD0F0
:101820006BD06BD06BD06BD06BD06BD06BD06BD0E0
:101830006BD06BD073D0CEBAFFFF6BD06BD06BD0B8
:101840006BD06BD06BD06BD06BD06BD06BD06BD0C0
:101850006BD06BD073D073D073D073D073D073D080
:1018600073D06BD06BD073D073F073F073F17411CD
:101870007411741174317411741174117411741120
:10188000741174317C317C317C317C317C317C3120
:101890007411741174117411741173F06BF06BD0B6
:1018A0006BD06BD06BD073D073D073D073D073D038
:1018B00073D073D06BD073D073D06BD06BB073F127
:1018C00073D06BD073D073D073F073D073D073D0E8
:1018D00073D073D073D073D073F174117C317C31B9
:1018E0007C317C117C117C31741173F073F073F0D6
:1018F00073D073F06BF06BD06BF073F074117411E4
:101900007C317C317C317C517C517C317C317C312F
:101910007C317C317C11741173F073D073F073F1EE
:1019200073F173F073F174117C327C527C527C52EF
:101930007C1173F173D173D173F173F17BF173F196
:1019400073F173D07BF17C117C327C32843284322F
:1019500084327C327C327C1173F17C117C117BF1FE
:101960007BF17BF173F173F173F173F17411741105
:10197000741174117411741174117411741174113F
:101980007411741174117C1173F173F173F17C1182
:101990007C117C117C117BF173F173F17BF17C1173
:1019A0007C117C1173F17C117C117C117BF17BF13A
:1019B0007C117C117C117C117C117C117C117C11BF
:1019C0007C327C327C117C327C327C127BF17BF16C
:1019D0007C127C327C3284327C327C127C117C1210
:1019E0007C327C317C117411741173F173F173F1D9
:1019F00073F173F173F173F173F173F073F07411A8
:101A00007411741173F173F074117C1174117411E9
:101A10007C317C317411741174117411741174114E
:101A200073F17411741173F173F073F073F173F156
:101A30007411741174317C317C317C317C317C3196
:101A40007C327C327C327C327C3274327C327C322E
:101A50007C327C327C127C117C117C127C127C11D9
:101A60007C117BF173F173F173F073F073D073D069
:101A700073D073D073D073D073D073D073D06BD056
:101A80006BD06BD073F073F073F073F0741174114A
:101A900074317C3174317431741174117C117C3166
:101AA0007C11741174117411741173F173F073D08B
:101AB00073D06BD06BD073D073D073D073D06BD026
:101AC00073F073F17C117C317C317C117C117C31A1
:101AD0007C317C317C317C317C3174117411741116
:101AE000741173F173F06BF073D06BD06BD073F033
:101AF00074117C117C117C117C117411741173F1BF
:101B000073F06BD06BD073D073D073D06BD06BD0BD
:101B10006BD06BD06BD06BD06BD06BD06BD06BD0ED
:101B20006BD06BD06BD06BD06BD06BD06BD06BD0DD
:101B30006BD06BD06BD06BD06BD06BD06BD06BD0CD
:101B40006BD06BD06BD06BD06BD06BD06BD06BD0BD
:101B50006BD073D073D0D6BAFFFF6BD06BD06BD085
:101B60006BD06BD06BD06BD06BD06BD06BD06BD09D
:101B70006BD06BD073D073D073D073D073D073D05D
:101B800073D073D073D073F073F173F17411741157
:101B90007C317C317C317C317C317C3174317431ED
:101BA000743174317C317C317C317C317C317C31DD
:101BB0007431741174117C317C317411741173F0AF
:101BC0006BF06BD073D073D073D073F073F073F08D
:101BD00073F173F06BD073D073F073F06BD07C3112
:101BE00073F06BB06BB073D073D073D073F073F0CD
:101BF00073D073D073F073F074117C117C317C312D
:101C00007C317C117C117C31741173F073F073F0B2
:101C100073F073F073F073F073F0741174117C311E
:101C20007C317C317C317C317C317C517C527C320A
:101C30007C317C117C11741173F073F073F073F1CB
:101C400073F173F174117C1174117C327C527C320B
:101C500073F173F173D073D173F173F173F173F1A5
:101C60007C1173F17C117C32843284328452845230
:101C70008432843284327C117BF17C117BF17BF1E4
:101C80007BF17BF17C117C1174117411741174114E
:101C9000741174117411741174117411741174111C
:101CA00074117C1173F173F173F173F173F17C11A1
:101CB0007C117C117C117C117C117C117C117C11BC
:101CC0007C327C1173F17C117C327C117C117C1193
:101CD000843284327C117C3284327C327C117C11DF
:101CE0007C3284327C32843284327C327C117BF1CF
:101CF0007C127C328432845284327C127C127C329C
:101D0000847284527C327C117411741174117411B8
:101D1000741174117411741174117411741174119B
:101D20007C117C11741174117C117C317C11741143
:101D30007C117C117411741174117411741173F08D
:101D400073F073F174117411741173F173F073F013
:101D500073F07410741174117411741174317C3136
:101D60007C527C527C527C327C327C327C327C32A3
:101D70007C327C117C117C117C127C127C127C11D7
:101D80007C117BF173F173F173F073F073F073F006
:101D900073F073F073F073F073F073F073F073F02B
:101DA0006BF073F073F073F06BF06BF074117411EF
:101DB00074117431743174317C117C117C317C323A
:101DC0007C31741173F173F173F173F073F073D0AC
:101DD0006BD06BD073D073D073D073D073F073F0BB
:101DE00074117C317C317C327C327C317C317C31B1
:101DF0007C317C317C317C317C31743174317411B3
:101E0000741173F06BF06BF073F073D073D073F1E7
:101E10007C117C317C317C317C317C11741173F10B
:101E200073F073D073D073D073D073D073D073D07A
:101E300073D073D073D073D073D073D073D073D08A
:101E400073D073D073D073D073D073D073D073D07A
:101E500073D073D073D073D073D073D073D073D06A
:101E600073D073D073D073D073D073D073D073D05A
:101E700073D073D073D0D6BAFFFF6BD0FF3CFF3C5A
:101E80006BD06BD06BD06BD06BD06BD06BD06BD07A
:101E90006BD06BD073D073D073D073D073D073D03A
:101EA00073D073F073F07411741174117C11741188
:101EB00074317C317C327C527C527C327C31743186
:101EC0007431741174117411741174117411FF3C14
:101ED000FF3CFF3CFF3C7C327C327C31FF3CFF3CD2
:101EE00073F073F073F073F073F073F073F073F0DA
:101EF00073F073F173F173F073F073F073F1847333
:101F00007C11FF3CFF3C73F173F173F073F173F0DC
:101F100073D073F073F174117C117C317C317C319E
:101F20007C317C317C317C31741173F073F173F14D
:101F300073F073F073F173F173F174117C317C31D0
:101F40007C317C317C317C317C517C517C527C52A7
:101F50007C317C117411741173F173F073F174118D
:101F600073F174117C117C327C32847384737C52E3
:101F70007411741173F173F17C1173F173D173F1F6
:101F80007BF173F17C1184328452845284528452E6
:101F90008452845284527C117BF17C117C117C111F
:101FA0007C117C117C117C117C117C317C317C3169
:101FB0007C317C317C317C31741174117411741159
:101FC0007C117C117C1173F173F173F17C117C1223
:101FD0007C127C117C328432845284327C117C32BB
:101FE00084327C327C117C11843284327C117C11ED
:101FF000843284327C118432845284327C117C118C
:102000007C117C117C117C32843284327C1173F11E
:102010007C117C12843284527C327C127C127C32A1
:10202000847384527C327C11741174117411741194
:10203000741174117411741174117C117411741170
:102040007C117C317C317C117C317C527C3174116F
:10205000741174117411741174117411741173F179
:1020600073F173F07411741174117411741173F1AC
:1020700073F17411741173F173F173F074117411BD
:102080007C117C317C317C3174117C327C327C322D
:102090007C327C327C327C327C117C117BF173F19E
:1020A00073F173F173F1741173F173F173F073F1F0
:1020B00073F173F173F173F173F073F073F073F004
:1020C00073F073F173F173F173F073F073F073F1F4
:1020D0007411741174117411741174117C117C31A8
:1020E0007C1173F173F073F073F073F073F073D0CD
:1020F00073D073D073F073D06BD073D073F074114E
:102100007C317C327C327C327C317C317C3174316C
:10211000743174317431743174317C317C317411A7
:10212000741173F073F073F073D073D073D073F1D4
:102130007C117C317C317C317C327C317C1174119E
:1021400073F073D073D073F073F073F073D073D0F7
:1021500073D073D073D073D073D073D073D073D067
:1021600073D073D073D073D073D073D073D073D057
:1021700073D073D073D073D073D073D073D073D047
:1021800073D073D073D073D073D073D073D073D037
:1021900073D073D073D0D6BBFFFF73F1FF3C7BCFFE
:1021A0007BCF73F173F173F16BD073F173F173F152
:1021B00073F173F173F073F073F073F073F073F005
:1021C00073F073F174117C117C317C317C117411CA
:1021D00074317C317C317C327C327C3274117411EC
:1021E0007411741173F073F073F17411FF3CFF3CC0
:1021F0007BCF7BCF7BCF7BCF7C527C32FF3C7BCFB6
:102200007BCF73F073F173F173F073F073F073F0CD
:1022100073F073F1741173F073D073F07C118472E6
:102220007C31FF3C7BCF7BCF73F173F073F073F0A5
:1022300073F073F074117C117C327C327C327C320E
:102240007C327C327C327C31741173F173F173F126
:1022500073F173F174117411741174317C317C5207
:102260007C727C527C527C717C7284728472845247
:102270007C31741174117411741173F173F1741150
:10228000741174117C327C528473847384737C5215
:102290007C1174117C117C127C127C1173F173F12E
:1022A0007BF17BF17C1184328452845284528452BB
:1022B0008473845284527C327C117C117C117C1199
:1022C0007C117C117C117C117C317C327C527C52E3
:1022D0007C527C527C527C327C327C327C327C322E
:1022E0007C327C327C327C127C327C32845284524E
:1022F0008452845284528C938CB48C7384327C329A
:102300008452845284328432845284527C117C32CE
:1023100084327C327C1184328C73847384327C32BC
:102320007C117C117C117C32845284527C127C1191
:102330007C128432845284328432843284528453B4
:10234000845284527C327C117411741174117C118A
:102350007C117C117C117C117C117C117C1174111D
:102360007C117C327C327C117C3284527C527C1118
:102370007411741174117411741174117411741135
:102380007411741174317C327C527C327C31741142
:102390007C327C327C317C317C117411741174116B
:1023A0007411741174117C117C117C327C327C317B
:1023B0007C327C327C327C12741173F173F173D1F4
:1023C00073F173F174117411741173F173F1741169
:1023D0007411741173F173F173F173F073F073F19D
:1023E0007411741174117411741174116BF06BF019
:1023F00073F073F173F173F173F173F173F173F1BE
:1024000073F173F073F073F073F073F073F073F0B3
:1024100073F073F073F173D073D073D074117C3197
:102420007C327C317C317C317C317C317C317C3242
:102430007C327C327C327C327C327C317C31741157
:10244000741173F073F073F173D073D073F074116F
:102450007C117C317C317C317C327C327C3174115A
:1024600073F173D073F073F073F073F073F073D093
:1024700073F073F073F073F073F073F073F073F044
:1024800073F073F073F073F073F073F073F073F034
:1024900073F073F073F073F073F073F073F073F024
:1024A00073F073F073F073F073F073F073F073F014
:1024B00073F073F073F0D6BBFFFF73F1FF3C7BCF7B
:1024C0000000000073F173F173F173F173F173F1B4
:1024D00073F173F173F073F073F073F073F073F0E2
:1024E00073F073F17C117C317C327C327C317C3135
:1024F0007C317C317C3174117411741173F073F17F
:1025000073F174117411741174117431FF3C7BCF29
:102510007BCF00000000000000007C32FF3C7BCF3E
:102520000000000073F173F173F173F173F073F055
:1025300073F173F173F073F073F07411741173F13C
:1025400073F1FF3C7BCF0000000073F073F073D099
:1025500073F073F17C117C3284527C527C527C5239
:102560007C327C327C327C31741173F173F17411E2
:1025700073F174117411741174117C317C527C727A
:10258000847284728472849284728472847284529B
:102590007C31741174117C117C11741174117411DB
:1025A00074117C117C32845284727C527C527C7215
:1025B0007C527C527C327C317C117C117C117C11F0
:1025C0007C117C117C328452847284728472847394
:1025D00084738472847284327C117C317C117C110E
:1025E0007C117C117C117C117C327C327C327C52DF
:1025F0007C527C527C527C527C527C527C527C526B
:102600007C327C3284327C32845284738C73845268
:10261000845284728C9394D494F48CB384527C311D
:1026200084738C93845284528452845284328432D0
:1026300084327C117C1184528C73847384327C329A
:102640007C327C327C327C11845284527C327C110C
:102650007C32845284527C117C3284528473847321
:1026600084527C527C327C327C317C317C117C11F6
:102670007C117C117C117C117C117C327C317C11B1
:102680007C31845284527C327C52847384527C111B
:1026900074117C11741174117411743174317411CA
:1026A000741174117C317C5284727C527C327C3186
:1026B0007C327C327C527C527C527C527C317C312C
:1026C000741174117C117C317C317C317C317C1132
:1026D0007411741174117411741173F173F173F135
:1026E00073F173F1741173F173F173F173F1741188
:1026F00074117411741173F173F173F073F073F159
:1027000074117411743174317431743173F073F065
:1027100073F173F173F173F073F173F173F073F09C
:1027200073F073F173F173F073F073F073F173F18D
:1027300073F173F173F173F174117C117C317C329C
:102740007C327C327C317C317C327C327C327C52FB
:102750007C527C527C527C527C527C32743174119B
:1027600073F173F07411741173F073F073F17C11E1
:102770007C327C327C317C317C327C327C327C110C
:1027800073F173F073F073F073F173F073F073F02F
:1027900073F073F073F073F073F073F073F073F021
:1027A00073F073F073F073F073F073F073F073F011
:1027B00073F073F073F073F073F073F073F073F001
:1027C00073F073F073F073F073F073F073F073F0F1
:1027D00073F073F073F0D6BBFFFF73F1FF3C7BCF58
:1027E00000000000FF3CFF3CFF3CFF3CFF3CFF3C87
:1027F000FF3CFF3CFF3C73F073F073F073F0FF3C61
:10280000FF3CFF3CFF3C7C327C327C327C32FF3C24
:10281000FF3CFF3CFF3CFF3C73F173F073F0FF3C67
:10282000FF3CFF3CFF3C7C327C31741174117BCF48
:1028300000000000FF3C7BCF00000000FF3C7BCF8E
:102840000000000074117411741173F173F1FF3CF6
:10285000FF3CFF3CFF3C73F074117411FF3CFF3CE4
:10286000FF3CFF3C7BCF00000000741173F173F05C
:1028700073F074117C317C528452845284527C52A5
:10288000845284527C527C1174117411741174112D
:10289000741174117411741174317C527C527C72F5
:1028A00084728472847284928472847284727C5280
:1028B0007C1174117C117C317C317C117C117C1178
:1028C0007C117C3184528472847284728472849309
:1028D0008CB38C9384527C317C117C117C327C31A2
:1028E0007C117C318452847284728C738C938C93AF
:1028F0008C938C73847284527C317C317C327C3238
:102900007C327C327C327C327C327C327C527C5217
:102910007C527C527C527C527C527C527C527C5247
:102920007C527C3284527C32845284738C938473C4
:10293000845284528C9394B494D48C9384527C317A
:1029400084728C93847284728472847384528452ED
:1029500084527C117C1184528C7384527C327C11A1
:102960007C3284327C327C11845284527C327C11E1
:102970008432845284527C317C3284738C9384738D
:1029800084527C527C327C527C527C527C327C3130
:102990007C317C317C317C317C317C527C527C526C
:1029A0008452847284727C528452849384727C3206
:1029B0007C317C327C3174317431743174317431D6
:1029C000741174117C317C5284727C527C317C3164
:1029D0007C317C317C32845284527C527C527C31FA
:1029E0007C317C317C317C5184727C517C317C1116
:1029F00073F17411741174117C117C1174117411C0
:102A00007C1174117411741173F173F173F17411F9
:102A10007411741174117411741173F173F17411D0
:102A2000741174117C317C317C327C3274117411DC
:102A300074117411741174117411741173F173F1B0
:102A400073F17411741173F173F173F173F173F124
:102A5000741174117C117C317C327C527C527C323A
:102A60007C327C327C327C327C527C527C527C5276
:102A70007C527C527C527C527C527C327431741178
:102A8000741173F17411741173F173F17C117C3151
:102A90007C527C527C327C317C327C527C527C3148
:102AA000741173F173F173F173F173F173F173F1E5
:102AB00073F173F173F173F173F173F173F173F1F6
:102AC00073F173F073F073F073F073F173F173F1EA
:102AD00073F173F173F173F173F173F173F173F1D6
:102AE00073F173F173F073F073F073F073F073F0CC
:102AF00073F073F073F0D6BBFFFF73F1FF3C7BCF35
:102B000000000000FF3C7BCF7BCF7BCF7BCF7BCF18
:102B10007BCF7BCF7BCF7BCF73F173F1FF3CFF3C4F
:102B20007BCF7BCF7BCF7BCF7C527C32FF3CFF3C8B
:102B30007BCF7BCF7BCF7BCF7BCF7411FF3CFF3C28
:102B40007BCF7BCF7BCF7BCF7C317411741173F142
:102B500000000000FF3C7BCF00000000FF3C7BCF6B
:102B6000000000007C117C117C117411FF3CFF3CC3
:102B70007BCF7BCF7BCF7BCF7411FF3CFF3C7BCFE8
:102B80007BCF7BCF7BCF00000000741174117411D8
:102B900074117C117C328452847284528452845227
:102BA0008472847284527C1174117C117C317C316A
:102BB00074117411743174117C327C7284727C7261
:102BC00084728472847284728492849284727C325D
:102BD0007C117C117C317C327C317C317C317C31CC
:102BE0007C317C328472849384728493849384B322
:102BF0008CB384727C317C317C317C327C317C3191
:102C00007C3184528C93847284528C938C938C93F9
:102C10008C938C9384728452843184528452845273
:102C200084327C327C327C327C327C527C527C52CC
:102C30007C527C527C527C527C527C527C527C5224
:102C40007C527C52845284527C5284528C938C737A
:102C50008452845284728C938C93847284527C311B
:102C600084528C938C938C728C938C938452847347
:102C700084527C327C3284528C938C7384327C32CA
:102C8000845284528432843284728C7384527C31B4
:102C900084528C738C738452845284728C938C9380
:102CA000847384527C327C52845284527C527C32B3
:102CB0007C327C327C327C327C327C5284738493D2
:102CC000847284738473847284738C938493847207
:102CD000847284527C527C327C317C317C317C31F8
:102CE0007C317C317C52847284737C727C527C3166
:102CF0007C317C117C32847284727C5284527C31AF
:102D00007C317C51845184518472847284727C3110
:102D10007C117C317C317C117C317C327C327C11A9
:102D2000741173F17C317C117C11741174117C115C
:102D30007C1174117C117C117C117C117C1174113B
:102D400074117411741174317C327C527C317411A1
:102D500074117411741174117C317C117C11741113
:102D6000741174117C1174117411741173F1741154
:102D70007C117C317C527C527C527C527C527C5245
:102D80007C327C327C527C527C527C527C527C5213
:102D90007C52847284727C727C527C327C317411DD
:102DA0007411741174117431741174117C317C328A
:102DB0007C527C527C527C527C52845284527C32B3
:102DC00074117411741174117411741174117411DB
:102DD00073F173F17411741174117411741173F12E
:102DE00073F173F173F173F173F074117411741161
:102DF000741174117411741173F173F173F173F12F
:102E000073F173F173F173F173F173F173F173F1A2
:102E100073F1741173F0D6BBFFFF7411FF3C7BCFCD
:102E200000000000FF3C7BCF00000000000000001D
:102E30000000000000000000000073F174117BCF5F
:102E40007BCF00000000000000007C52FF3C7BCFE5
:102E50007BCF00000000000000000000FF3C7BCFA3
:102E60007BCF000000000000000073F1741173F1CB
:102E7000FF3CFF3C7BCF7BCF00000000FF3C7BCFC3
:102E8000000000007411741174117411FF3C7BCFA9
:102E90007BCF0000000000000000FF3C7BCF7BCF19
:102EA0000000000000000000000074117411741193
:102EB0007C117C317C52845284728472845284529C
:102EC0008472847284527C117C117C117C317C313F
:102ED0007C117411741174317C52847284727C720E
:102EE00084728472847284728472847284527C329A
:102EF0007C117C117C317C317C117C117C317C31EA
:102F00007C317C32847284938493849384938493FD
:102F100084737C527C317C317C317C317C317C32DD
:102F2000843284728C938C9384728C938C938C9364
:102F30008C938C7284728452845284528452845250
:102F400084528452845284327C327C527C527C5231
:102F50007C527C527C527C527C527C527C527C5201
:102F60007C52845284728472845284728C938473EF
:102F7000845284528C728C938C938C93847284527E
:102F8000845284728C728C938C938C93847384524D
:102F900084528432845284528C938C9384738452EE
:102FA00084528452845284528C938C9384738452BE
:102FB000845284738C9384528432845284728493B6
:102FC000847384527C527C52845284527C527C5250
:102FD0007C527C527C527C527C527C52847384732F
:102FE000847284738493847284738C9384938472C4
:102FF000847384727C527C527C527C527C527C5210
:103000007C527C317C528472849384727C527C32F8
:103010007C327C117C3284528472845284527C31A2
:103020007C3184518451847184928C928C9284522C
:103030007C3184517C317C317C317C327C11741147
:10304000741174117C327C317C317C117C117C11C7
:1030500074117C117C117C117C117C317C317411D8
:10306000741173F173F174117C327C527C317C31B8
:103070007C317C317C31743174117C117411741188
:1030800073F1741174117411741174117C117C1129
:103090007C317C32845284528452845284528452D1
:1030A0007C5284528452845284527C527C527C5290
:1030B0007C527C727C727C527C527C317411741113
:1030C000741174117411741174117C117C327C525E
:1030D00084527C527C527C528452845284527C3280
:1030E0007C117411741174117411741174117411B0
:1030F00073F174117C117C117C117411741173F1D2
:1031000073F173F173F17411741173F173F173F15D
:1031100073F173F173F173F174117411741174110B
:103120007411741173F173F173F173F173F173F13D
:1031300073F174117BF1D6BBFFFF7411FF3C7BCFA1
:1031400000000000FF3C7BCF00000000FF3C7BCF75
:1031500000000000FF3C7BCF000000007411FF3C2A
:10316000000000007BCF7BCF00000000FF3C7BCF46
:1031700000000000FF3C7BCF00000000FF3C7BCF45
:10318000000000007BCF7BCF000000007411FF3CEB
:10319000FF3C7BCF7BCF000000007C52FF3C7BCF0D
:1031A0000000000073F1741174117411FF3C7BCFA7
:1031B0000000000074117411000000007BCF0000BB
:1031C0000000FF3C7BCF0000000074117C117C11DB
:1031D0007C317C32845284728473847284728472EF
:1031E000847384727C527C317C117C317C317C31E3
:1031F0007C11741174117C32847284938472847291
:103200008472847284728492849284727C527C323E
:103210007C317C317C317C317C317C117C317C3166
:103220007C317C32847284938493849384938472FB
:10323000847284527C5284527C52845284528472AE
:1032400084728CB38CB38C938C938C938C938C936F
:103250008C938C938472845284528452845284520C
:103260008452847284728472845284527C527C525E
:103270007C527C527C527C727C727C727C727C723E
:103280008452845284738C938C938C9394B48CB3B7
:103290008C938C938CB394B38CB384728452847269
:1032A000845284728C938CB38CB38CB38C93847360
:1032B000845284738C7384738C938C938C93845218
:1032C0008432843284528C738C938C9384738452B2
:1032D00084528C938C93847284528452847284734B
:1032E0008C938473847284527C527C527C327C52E4
:1032F0007C527C527C527C527C5284528472845226
:10330000845284728473847284738C938473847201
:103310008472847284527C527C527C527C527C52E5
:103320007C527C327C528473849384737C527C32D2
:103330007C327C117C328452847284727C317C3188
:103340007C518471847184728CB28CB28CB38C92F7
:103350008C928492847284527C527C327C327C3295
:103360007C327C327C327C317C327C327C317C1110
:103370007C117C117C117C317C317C317C327C3144
:103380007431741174117C317C527C727C527C5289
:103390007C727C527C527C527C327C317C317C1140
:1033A0007C117C117C317C317C317C327C327C52D2
:1033B000845284528452845284528452845284525D
:1033C0008472847284728472845284527C528472B5
:1033D00084727C727C527C32743174117411741159
:1033E00074117431741174117C117C317C528452CB
:1033F00084528452845284528452845284727C5205
:103400007C1174117411741174117411741174118C
:1034100074117C117C327C327C317411741173F123
:1034200073F1741174117C117C1173F173F173F1E8
:1034300073F173F173F174117411741174117411C7
:103440007411741174117411741174117411741154
:1034500074117C117BF1D6BBFFFF7411FF3C7BCF55
:1034600000000000FF3C7BCF00000000FF3C7BCF52
:1034700000000000FF3C7BCF00000000FF3CFF3C51
:103480007BCF7BCF0000000000000000FF3C7BCF23
:1034900000000000FF3C7BCF00000000FF3C7BCF22
:1034A000000000000000000000000000FF3CFF3CA6
:1034B0007BCF7BCF000000007C527C52FF3C7BCF57
:1034C000000000007411741174117C11FF3C7BCF5B
:1034D00000000000741174117411FF3C7BCF0000D8
:1034E0000000FF3C7BCF000000007C117C117C3190
:1034F0007C3284528472847384738473847384737F
:10350000847384727C527C317C317C317C327C329D
:103510007C1174117C317C728493849384938472C3
:103520008493849384938492849284927C527C3298
:103530007C327C317C317C317C327C327C327C321E
:103540007C327C5284728473849284B38493849397
:1035500084B3849384928472847284728C728C9308
:103560008CB394D38CB38CB38CB38C938C938C929C
:103570008C928C92847284528452845284528452EB
:1035800084528452847284728472847284728472CB
:10359000847284728472847284728472847284727B
:1035A00084728472847284928C938C9394D494D415
:1035B0008CB38C938C938C938C928472845284728F
:1035C0008452845284728C938CB38CB38C938452C7
:1035D000845284738C7384738C938CB48CB48C936A
:1035E0008452845284738CB38CB38C9384528452EF
:1035F0008C728CB38CB38C938472845284728C934F
:103600008CB38CB3849384727C527C327C5284520F
:1036100084528452845284528452845284528452FA
:1036200084528473849384528472849384727C520F
:10363000845284527C527C527C527C527C527C520A
:103640007C527C527C528493849384737C527C326F
:103650007C127C127C328452847284728452845133
:1036600084728C9284928C928CB294D38CB28CB2F1
:103670008CB38CB38C93847284527C527C327C32B7
:103680007C327C327C327C327C527C327C327C31AB
:103690007C117C317C317C317C327C527C527C319F
:1036A0007C317C317C327C327C327C527C52847224
:1036B0008472847384728472847284728452845299
:1036C0008452845284527C527C5284528472847319
:1036D0008473847384728472847284728472847238
:1036E0008473847384738473847284728452849325
:1036F00084727C527C52743174117411741174117F
:10370000743174317C3174317C317C5284528472D6
:1037100084728472845284728452845284727C5281
:103720007C317C1174117411741174117411741141
:103730007C117C317C527C527C327C11741174116E
:1037400074117C117C117C117C1174117411741131
:103750007411741174117411741174117411741141
:10376000741174117C117C117C117C117C117C1101
:103770007C117C117C11D6BBFFFF7411FF3C7BCF09
:1037800000000000FF3C7BCF00000000FF3C7BCF2F
:1037900000000000FF3C7BCF00000000FF3C7BCF1F
:1037A0007BCF000000007BCF00000000FF3C7BCF00
:1037B00000000000FF3C7BCF00000000FF3C7BCFFF
:1037C00000000000FF3CFF3C74117411FF3C7BCFF4
:1037D0007BCF000000007C727C527C52FF3C7BCF90
:1037E000000000007C117C117C117C11FF3C7BCF20
:1037F00000000000FF3CFF3C7C31FF3C7BCF000021
:103800000000FF3C7BCF000000007C317C117C314C
:103810007C5284728473849384938473849384939A
:10382000849384727C527C327C317C317C327C3259
:103830007C317C317C5284938493849384938493ED
:10384000849384B38CB384B3849284727C527C520C
:103850007C527C527C317C317C5284528452845222
:103860007C527C528472847384938CB38CB384B303
:103870008CB38CB38CB38CB38CB38CB38CB38CB350
:103880008CB38CB38C928C928CB38C938C928C92E4
:103890008C728C928C928C928C938CB38CB38C9314
:1038A0008473845284528452847284738493849384
:1038B0008493849384938493849284928492849254
:1038C000849284928472849284728C728CB394D425
:1038D0008CB38472847284728472847284728472EF
:1038E00084728472847284728C938CB38C9384738C
:1038F00084528452847384738C9394B494D494B417
:103900008C938C938C938CB38C938472845284723A
:103910008C938CB38CB38C938C9384728C728C93B9
:103920008C938CB38C93849384728452847284724B
:1039300084728472847284728472845284728472F7
:1039400084738CB38C93845284938C938473845249
:10395000845284527C527C727C527C527C7284727F
:1039600084727C528472849384B3849384727C5274
:103970007C328432845284738C938CB38CB38C925B
:103980008CB28CB28CD29D13A575AD969D1494B358
:1039900094D394D38CB3847284527C527C527C52E4
:1039A0007C527C527C527C527C527C327C327C3207
:1039B0007C317C317C317C327C527C5284527C5212
:1039C0007C527C527C327C317C317C317C527C520A
:1039D0007C72847284938493849384938493847399
:1039E0008473847384738452847284738473849321
:1039F00084938473847384738473847384738473EF
:103A000084738473847384738473847384738472FF
:103A10007C527C527C317431741174317C317C3134
:103A20007C317C317C317C317C5284528472847351
:103A300084738472847284728472847284728452F5
:103A40007C327C317C117C117C117C117C117C11CD
:103A50007C317C32845284527C527C317C117C11CA
:103A60007C117C117C117C117C117C117C117C11EE
:103A70007C117C117C117C117C117C117C117C11DE
:103A80007C117C117C117C117C117C117C117C11CE
:103A90007C117C317C11D6BBFFFF7411FF3C7BCFC6
:103AA00000000000FF3C7BCF00000000FF3C7BCF0C
:103AB00000000000FF3C7BCF000000007C117BCFAA
:103AC00000000000FF3C7BCF0000000084727BCF31
:103AD00000000000FF3C7BCF000000007C317BCF6A
:103AE00000000000FF3C7BCF7BCF7411FF3C7BCFFD
:103AF00000000000FF3CFF3C84738472FF3C7BCFDE
:103B000000000000FF3CFF3CFF3C7C317C317BCF60
:103B100000000000FF3C7BCF7BCF7C327BCF0000DE
:103B20000000FF3C7BCF000000007C327C317C3207
:103B3000845284738493849384938493849384932E
:103B4000849384727C527C327C317C327C527C3215
:103B50007C317C5284738C938CB3849384938C9348
:103B600084938C938CB38CB3849284727C528452F1
:103B7000847284527C327C32845284738473847263
:103B800084527C52847284738C938CD38CB38CB3A8
:103B90008CB38CD38CB38CD394D494D494D494B36A
:103BA0008CB38C93847284728C938C928C728C9272
:103BB0008C9394B394D394F49D149D359D359D15A9
:103BC00094D48C9384738473847384938493849344
:103BD0008493849384938493849284928492849231
:103BE000849284928C938C93849384738CB394D4B6
:103BF00094D48C938C938472847284728C928C9300
:103C00008CB38CB38C928C928CB394D48CB38C93F5
:103C1000847384738C938C938CB494D494D494D400
:103C200094D48CB48CB38C938C938C728472847285
:103C30008C938C938C938CB38C938C728C728C93AE
:103C400084938C938CB38C93847384938C938473BC
:103C5000847384728473847384738472847384938E
:103C60008CB394D48CB484728CB48CD48C938472C2
:103C70008472847284728472847284728472847393
:103C80008493847284938CB38CB48CB38493847245
:103C90008453847384738C938CB394D494F494F38A
:103CA00094D394F3A554BDF7D6B9D6BAB5969CF380
:103CB0009CF49CF494D48CB3847384738493847341
:103CC00084737C5284527C527C527C327C327C5293
:103CD0007C327C317C327C327C528452845284939C
:103CE00084737C527C527C327C527C527C527C525B
:103CF0007C527C52847284938493849384938473DF
:103D0000847384738473845284728473847384731D
:103D1000847284728493849384938493849384932D
:103D200084738473849384938493849384937C5264
:103D30007C527C327C317C317C327C527C527C32B5
:103D40007C317C317C317C32845284528472847325
:103D500084738473847284738472847284728452D0
:103D60007C327C317C317C317C317C317C317C31EA
:103D70007C327C52845284527C527C317C317C3146
:103D80007C317C317C317C117C117C317C317C310B
:103D90007C317C317C317C117C117C117C117C115B
:103DA0007C117C117C317C317C317C317C317C31EB
:103DB0007C317C317C11D6BBFFFF7C327C327BCFE7
:103DC000000000007C327BCF0000000074117BCF2C
:103DD000000000007C117BCF000000007C117C32D1
:103DE000000000007BCF7BCF000000008473847252
:103DF000000000007BCF7BCF000000007C5284726B
:103E0000000000007BCF7BCF000000007C317BCF27
:103E1000000000007BCF7BCF7BCF7C5284527BCFD6
:103E2000000000007BCF7BCF7BCF7BCF7C317C3110
:103E3000000000007BCF7BCF000000007C52000020
:103E400000007BCF7BCF000000007C327C317C32D5
:103E5000845284938C9384938CB3849384928493BC
:103E6000849384727C527C317C327C327C527C52D2
:103E70008452845284738CB38CB48CB38C938C93A3
:103E80008C938C938C938C9384728452845284523E
:103E900084527C527C5284528473849384738472DF
:103EA000845284528472847384938CB38CB38CB4A4
:103EB0008CD48CD494D494D494B48CB38C938C93AD
:103EC0008CB384928472849294D38C928C9294B3A7
:103ED00094D39D149D34A534A555AD76AD96A556C5
:103EE00095148CB3849384938C9384938C938C9348
:103EF000849384738493849284928472849284924F
:103F0000849284928C938C93849384738C9394D4B2
:103F100094F48CD38CB384938493849384938C9300
:103F20008C938C938C938CB394D494D48CB38CB3A7
:103F30008C9384938C938C938C938CB38CB38CB331
:103F40008CB38C938C938C938C728C728C938C939B
:103F50008C938C728C938C938C938C938C728472D4
:103F60008C728C938C938C938C938C938C938C937A
:103F700084738472847284728C73847284728C935E
:103F80008CB38CB38CB38C9394F494D48CB38C9307
:103F90008492847284728472847284938C938493E6
:103FA00084938C938C938CB38CD48CD48C938452C8
:103FB00084528C9394D48CB48CB495159D359CF418
:103FC0009CF3A534BDD6DEB9F77BEF5BC616AD54C6
:103FD000A5149D149CF494B38C7384738C948C738B
:103FE0008452847384528452845284527C527C5210
:103FF0007C527C527C527C527C52845284728473F8
:104000008493849384527C327C527C527C527C52C6
:104010007C528452847384938C93849384928472AC
:10402000847384738473847384738473845284521A
:104030008472847284728CB38C938472847284725E
:10404000847284738C938CB38CB3849284727C312D
:1040500084527C527C317C327C527C527C527C3249
:104060007C317C117C317C528473847384738473BF
:104070008473847384738473847384738473847289
:104080007C527C317C317C317C317C317C317C31A7
:104090007C318452847384727C527C317C317C31DB
:1040A0007C317C317C317C317C317C317C317C31A8
:1040B0007C317C317C317C317C317C317C317C3198
:1040C0007C317C317C317C317C317C317C317C3188
:1040D0007C317C317C31D6BBFFFF7C327C327C3240
:1040E000000000007C327C3200000000741174116A
:1040F000000000007C117C32000000007C327C3229
:10410000845200000000000000000000FF3CFF3C63
:104110007C52000000000000000000007C527C7215
:1041200084930000000000000000845284528452F6
:104130000000000000000000000000008473847391
:1041400000000000000000000000000000007C32C1
:104150007C3200000000000000007C317C317C5289
:10416000000000000000000000007C327C327C5225
:1041700084728C938C9384938C938C9284928C9382
:104180008C9384727C527C317C327C527C5284527F
:104190008452845284738C938C938C938C938C7301
:1041A0008C938C938C938C7384738452845284721A
:1041B000847284527C527C528452847384728452FE
:1041C000845284528452847284738C938C938CB402
:1041D00094D494D48CB48CB48C938C738472847285
:1041E0008C728C928CB38CD394F494D38CB294D381
:1041F0009D14A555AD96B5B6B5D7BDF7B5F7ADB617
:104200009D3594D48CB38C938C938C938C938C939A
:104210008493847384938CB38C9384928C928CB3A8
:104220008CB3849384938C938CB48CB494D494F591
:1042300094F594D48CD48CB38C9384938C938C937A
:10424000849384938C938CB38CD494D48CB38CB39C
:104250008CB38C938C938CB38C9384938C938C932E
:104260008C93849384928C938C938C728C938C9388
:104270008C938C938C938C938C938C938C938C9346
:104280008C728C938C938C938C938C938C938C9357
:104290008C938C728C728C938C938C728C728C73CA
:1042A0008C938C938C938C938C9384928492849231
:1042B00084928493847284728C728C928C938472B4
:1042C00084728C938C9394B494B494B48CB48CB462
:1042D0008CB48CD494F594D58CD494F59D35A535B7
:1042E000AD75BDD6CE37DE98EEF9E6D9CE36BDD562
:1042F000B575AD35A51594B48C948C748C948C7371
:104300008452845284527C527C527C527C527C3245
:104310007C5284527C527C527C52845284728493AC
:104320008C93849384727C527C327C527C527C329B
:104330007C327C528452847284728492849284731C
:104340008473847384738C738C938C938C728C922F
:104350008C928C9284928C9284928C928CB38CB33B
:1043600084938C938C93849384727C517C317C31C4
:104370007C527C317C117C3284527C527C527C3267
:104380007C317C317C318452847384738473847374
:104390008473847384738473847384938493847226
:1043A0007C527C327C317C317C317C317C317C3183
:1043B0007C328472849384737C527C317C317C3176
:1043C0007C317C317C317C317C317C317C317C3185
:1043D0007C317C317C317C317C317C317C317C3175
:1043E0007C317C317C317C317C317C317C317C3165
:1043F0007C317C317C31D6DBFFFF7C327C327C32FD
:104400007C327C327C327C327C327C327C327C323C
:104410007C327C327C327C327C327C327C327C520C
:1044200084728493849384738492849284927BCFE5
:104430007BCFFF3CFF3C7BCF000000007C527C52D6
:10444000847384938493849384938C9384938493CC
:1044500084938C938C938C938C938C93849384729D
:104460007C327C317C527C527C527C527C527C521D
:104470007C527C327C327C327C52845284728452F4
:1044800084527C527C527C327C327C327C5284520C
:1044900084738C938C938C938C938C928CB38CB30D
:1044A0008CB384727C527C327C527C528452845213
:1044B000845284728C738C938CB48C938C938C9375
:1044C0008C938C938C938C938473845284528472D7
:1044D0008473847384728472847384738473847326
:1044E000847284728472847284728C738C938CB3A1
:1044F0008CB38CB48C938C938C938472845284721E
:10450000847294F4A576A555A5559D3594F49D1413
:10451000A555B5B6C638CE9AD6BBD6BBC699BE3859
:10452000ADB69D358CD48CB38C938CB48CB48CB4D8
:104530008C938C938CB38CB38CB38CB38CB38CB3C3
:104540008CB38CB384938C938CD494F494F594F4BE
:1045500094D494F48CD48CB38CB38CB38CB38CB3D0
:104560008CB38CB38CB38CD394D494D48CB38CB3E1
:104570008CB38CB38CB38CB38CB38CB38CD38CD303
:104580008CD38CD38CD394D494D494D494D494D406
:1045900094D494B394D494D494D494D494D494D4FC
:1045A00094B394D494D494D494D494D494B394D40D
:1045B00094D494B394B394D494D494B394B394B360
:1045C0008CB38CB38CB38CB38C938C938C938C9373
:1045D0008CB38CB38CB38C928C928C928C938C9386
:1045E0008C7284738C938CB48C938C938CB494D491
:1045F0008CD48CB48CD48CD48CD494F5A556AD7753
:10460000BDD7CE59DE99E6B9EEFADE98D658C5F791
:10461000B576AD56AD369CF59CD594B48CB48C94DF
:104620008473847284728472845284528452845259
:104630008452847284527C527C5284528472849359
:1046400084938493847384527C327C527C527C5257
:104650007C527C527C527C528452847284938C9320
:104660008C938CB48CB48C938C938C938C938CB3F0
:104670008C928CB28CB2849284928CB38CB38C93D7
:104680008C938C938493847284527C317C317C51E2
:1046900084527C527C318452847284527C527C528B
:1046A0007C317C317C528472849384938493849390
:1046B0008493849384938C938C938C938C93847342
:1046C00084527C327C327C327C327C327C327C3252
:1046D000845284738C93849384527C327C327C32F7
:1046E0007C327C327C327C327C327C327C327C325A
:1046F0007C327C327C327C327C327C327C327C324A
:104700007C327C327C327C327C327C327C327C3239
:104710007C317C317C31D6DBFFFF7C327C327C32D9
:104720007C327C327C327C327C327C327C327C3219
:104730007C327C327C327C527C327C327C328452C1
:1047400084728493849384938493849384938493D2
:10475000000000007BCF7BCF000000007C527C5229
:1047600084728493849384938CB38CB38C938C9352
:104770008C938C938C938C938C938C9384737C52BA
:104780007C327C327C527C527C527C527C527C52F9
:104790007C527C527C327C52847284938C938472DF
:1047A000845284527C527C527C327C528452847378
:1047B0008C938CB38CB38CB38C938CB38CB38CB341
:1047C0008C93847284527C52845284528472847298
:1047D00084728C938CB494B494B48CB48CB494B42C
:1047E0008CB48CB48C938C938C738452845284726A
:1047F0008493849384738473849384938493849341
:10480000849384938493847384738C738C738C9358
:104810008C938C938C938C938C938C938C938CB47F
:1048200094D4A576B618ADD7A5759D359D35AD76D2
:10483000ADB6BE18D6BAE75DEF7EEF7DDF3CCEDACF
:10484000B618A57695148CB48CB38CB48CB48CB497
:104850008CB48CB48CB48CB48CB38CB38CB38CD33C
:104860008CB38CB38CB38CB38CB394D494F48CD4BD
:104870008CB38CB38CB38CB38CB38CB38CB38CB340
:104880008CD38CD394D394D494F494F494F494F47B
:1048900094F494F494F494F494F495149D159D1563
:1048A0009D159D159D159D159D159D159D159D1578
:1048B0009D159D159D159D159D159D159D159D1568
:1048C0009D159D159D159D159D159D159D159D1558
:1048D0009D159D159D159D159D159CF49CF494D4D6
:1048E00094D494D494D494F494F494F494F494F4E8
:1048F00094F494F494D494B394B38CB38CB38CB3F5
:104900008CB38C938C938C938C938C938C938C938F
:104910008CB38CB48CD48CB494D5A557BE1AC63A3B
:10492000D67ADEDBE6FBEEFBF73BEF1BE6BAD639C9
:10493000BD97BD97B577A5169CF694D594D58CD424
:104940008CB4849384938473847284728472847329
:104950008473847384527C527C52847284738493F3
:10496000847284738C9384738452845284728472AC
:104970008472845284527C527C5284528473849315
:104980008C938CB48CB494B48C938CB394D394D314
:1049900094D394F3951394F38CD38CD38CB3847207
:1049A00084738473847284528452845284527C52FD
:1049B0008472847284738C93849384527C527C526C
:1049C0007C327C52847284938CB38CB38CB38CB362
:1049D0008CB38CB38CB38CB38CB38CB38C93849327
:1049E00084527C327C327C327C327C327C327C322F
:1049F000847284938CB38C9384727C527C327C322C
:104A00007C327C327C327C327C327C327C327C3236
:104A10007C327C327C327C327C327C327C327C3226
:104A20007C327C327C327C327C327C327C327C3216
:104A30007C327C318431D6DBFFFF7C327C327C32AD
:104A40007C327C327C327C327C327C327C327C32F6
:104A50007C327C327C327C527C527C327C5284525E
:104A600084738C938C938C938CB38CB38C938C9336
:104A7000849300000000000000007C527C327C52D5
:104A80008452847384938C938CB38C938C938CB367
:104A90008CB38CB38CB38C93849384737C527C32B0
:104AA0007C5284527C527C527C527C527C527C528E
:104AB0007C527C527C527C52845284728473847205
:104AC0008472845284527C527C52845284738C93BC
:104AD0008CB38CB48CB48CB48CB38CB38CD38CB3BB
:104AE0008493847284728452845284728472847334
:104AF00084738C9394B494B48CB48CB48CB494D4E8
:104B000094B48CB48C938C938C73847384738473FB
:104B100084938473847284728472847384738493A0
:104B200084938493849384938C938C73847384731D
:104B30008C738C738C938C938CB394B494D49D1598
:104B40009D35AD97B618ADB79D3594F39D34AD96B0
:104B5000B5D7C659DEFCEF9EF7DFF7BFEF9DD71B39
:104B6000BE58AD969D3594D48CB38C938C948C9414
:104B70008C938C938CB48CB48CB48CB38CB38CB479
:104B80008CB38CB394D48CB38CB38CB38CB38CB304
:104B90008C938C938CB38CB394D394D394D494F49B
:104BA00094F494F4951495149D149D159D359D359C
:104BB0009D359D559D55A5569D359D359D359D35FC
:104BC0009D559D559D359D359D359D359D359D3515
:104BD0009D359D359D159D159D159D159D159D1505
:104BE0009D359D359D159D159D159D359D159D15D5
:104BF0009D159D159D159D159D159D159D159CF546
:104C00009CF49CF49CF494F49D359D159D159D1584
:104C10009D159D359D1494F494F494F494F494F4B7
:104C200094F494F494D48CB48CB494B48CB48C93E5
:104C30008C9394D494D48CB494D5AD98C63BCE7B4D
:104C4000DEBCEF1DF73DF73DFF5DF75EEEFCDE7B62
:104C5000C5F9BDB8AD379CD59CD694D594D58CD428
:104C600084B48493849384738472847284738493ED
:104C70008493847384527C527C5284738C938473A7
:104C80007C5284728CB38C93847284738472847229
:104C90008473847384527C527C327C327C327C52AA
:104CA0008453847384738C938C938CB394D394D3F4
:104CB0009D13A574A5749D5495138CD3847284524E
:104CC0008472847284527C527C527C527C527C521C
:104CD00084728C938CB38CB3849384527C528452B0
:104CE0008452845284738CB38CB38CB38CB38CB3E6
:104CF0008CB38CB38CB38CB38CB38CB38CB38493E4
:104D000084527C527C527C527C527C527C527C522B
:104D100084738C938CB38C9384727C527C527C52BF
:104D20007C527C527C527C527C527C527C527C5213
:104D30007C527C527C527C527C527C527C527C5203
:104D40007C527C527C527C527C527C527C527C52F3
:104D50007C527C318451D6DBFFFF7C527C527C52EA
:104D60007C527C527C527C527C327C327C327C3253
:104D70007C327C327C327C327C527C327C3284527B
:104D800084738C938CB38CB38CB38CB38CB38C93B3
:104D90008493847384527C327C527C527C527C5249
:104DA0008452847284738C938CB38CB38CB38CB325
:104DB0008CB38CB38CB3849384737C527C327C32FE
:104DC0007C527C5284528452845284528452845243
:104DD000845284527C527C527C527C527C5284524B
:104DE00084528452845284528452847284938CB349
:104DF0008CB48CB48CB48CD48CB38CD38CD38CB357
:104E000084928472847284728472847284738473D0
:104E100084738CB494D494B48CB48CB494B494D47B
:104E200094B48CB48C938C938C738C7384738473D0
:104E300084938473847284738C9384938493847333
:104E4000847384938C938C938C938C938C938C939A
:104E50008C938CB38CB494D494D494D494D494F58B
:104E60009D15A596A5969D3594F48CB394D3AD76F7
:104E7000BDF8CE79DF1CEF9EF7DFF7BFEF9DD71BA4
:104E8000BE58ADB69D5594F48CD48C938C948C9470
:104E90008C938C938CB48CB48CB48CB48CB48CD434
:104EA0008CB38CB394D494D38CD38CB38CB28CB39A
:104EB0008CD38CD394D394F394F495149D149D3493
:104EC0009D349D359D359D559D559D359D159D3533
:104ED0009D359D55A556A5569D359D359D559D5590
:104EE0009D359D359D359D159D359D359D359D1572
:104EF0009D359D359D359D359D359D159D159CF4A4
:104F00009D359D159D159D159D159D159D159D15F1
:104F10009D159D159D159D159D159CF59CF59D1543
:104F20009D159D159CF49CF49D159D159D159D3515
:104F30009D359D359D359D149D149CF49CF49D15C7
:104F40009D159D159CF594F594F594F594D494D401
:104F50008CD394F494F494D4A516BDDAC5FAC61A89
:104F6000DE9CEF1EF75EFF7EFF9FFF5EEEBDDE9CC8
:104F7000CE1ABD78A4F69C959CD69D1694F58CD53A
:104F800084B484B3849384738472847284738C93A2
:104F90008C93847284527C52845284738CB3849335
:104FA0007C5284728CD48CB38472847384728493A4
:104FB00084938C93847384527C527C327C327C3216
:104FC0007C3284538473845284528C9294D394F3AD
:104FD000A554B617B616A5959D348CD384727C5211
:104FE0008452845284537C527C327C327C32847270
:104FF00084938C938CB38CB4849384527C5284526B
:10500000845284728C938CB48C938C938C938C93F9
:105010008C938C938CB38CB38CB38CB38C93847340
:1050200084527C527C527C527C527C527C527C5208
:1050300084738C938CB48C9384727C527C527C529B
:105040007C527C527C527C527C527C527C527C52F0
:105050007C527C527C527C527C527C527C527C52E0
:105060007C527C527C527C527C527C527C527C52D0
:105070007C527C528451D6DBFFFF7C527C527C52A6
:105080007C527C527C527C527C327C327C327C3230
:105090007C327C327C327C327C327C327C32845278
:1050A00084728C938CB38CB38CB38CB38CB38CB371
:1050B0008CB3849384728452845284527C527C5286
:1050C0007C528452847384938C938CB38CB48CB450
:1050D0008CB48CB38C93847384527C527C327C521B
:1050E0007C527C5284528452845284528452845220
:1050F0007C527C52845284528472847284728452B0
:105100008452845284528452847284728C938CB4FC
:105110008CD48CB48CB48CD48CD38CD38CD38CB3F3
:10512000849284728492847284728473847384738C
:10513000849394B494D494D494D494B494D494D4C0
:1051400094D494B48C938C938C738C738473847385
:10515000847384938C938CD495158CB38C938493A3
:1051600084938C938CB48CB48C938C938C938C930D
:1051700094B494D494F494F494F494D494B494D4CF
:1051800094D4A5569D1594D494F494D38CB3A5557A
:10519000B5F8C659DEFBEF7DEF9EEF9EE75CCEDAF9
:1051A000BE17AD969D559D1594D48CB38CB48CB41C
:1051B0008CB48CB494D494D494B48CB48CB494D46F
:1051C00094D48CD394D394F494F494F394D394F32C
:1051D00094F495149D149D349D359D359D359D35D4
:1051E0009D55A555A555A555A555A5559D359D3547
:1051F000A556A556A556A556A556A5569D559D3509
:105200009D359D359D359D159D359D359D159D156E
:105210009D359D359D359D359D359D159D159CF480
:105220009D159D159D159D159D159D159D159D15EE
:105230009D159D159D359D159D159CF59CF59D1500
:105240009D159D159D159D159D359D359D159D158E
:105250009D159D359D159D149D149D149D159D15A1
:105260009D3594F49D159D159CF594F59CF59D1523
:105270009D359D359D36A557B5B9CE5CD67CD67C7F
:10528000E69DEEFEF73FFF7FFFBFFF7FEEDDE69D71
:10529000D61BBD78B537A4D6A4F6AD579D368CF590
:1052A0008CD484B48CB38C93849384738C938CB39C
:1052B0008CB3847384527C5284728C938CB48C93A0
:1052C000845284738CD48CB38472847284938CB330
:1052D0008CB48CB48C93847384738473845384539C
:1052E000845384738C93845284728CB39CF39D3466
:1052F000B5F7D6FAD71AB637A5759D148CB3847254
:1053000084528452845384538453845384528C93A0
:105310008CB38CB38CB494D48CB384527C528452AE
:10532000845284728C938CD48CB38CB38CB38CB336
:105330008CB48CB48CB38CB38CB38CB38C938473DB
:1053400084527C527C527C527C527C527C528452DD
:1053500084738C938CB48C9384737C527C527C5277
:105360007C527C527C527C527C527C527C527C52CD
:105370007C527C527C527C527C527C527C527C52BD
:105380007C527C527C527C527C527C527C527C52AD
:105390007C527C528451D6DBFFFF7C527C527C5283
:1053A0007C527C527C527C527C527C527C527C528D
:1053B0007C527C5284527C527C327C327C328452CD
:1053C000847284938C938CB38CB38CB38CB38C9396
:1053D0008C93847384728452845284528452845293
:1053E000845284528452847284728472847284726D
:1053F000847284728472847284728472845284523D
:105400007C527C327C528452845284728452845204
:105410007C528452847284527C528452847284728C
:105420008472847284728472847384938C938CB437
:105430008CD48CD48CD48CB48CD394F494F48CB35E
:1054400084728472847284528473847384528472EA
:105450008CB394D494D494D494F594F594D494D4F3
:1054600094D494D48CB48C938C7384738473849309
:10547000849384938C9394F49D568CD48CD48CD444
:105480008CB48CB48CD494D494D48CB48C938C93EE
:105490008CB394F49D159D159D159D1594F494D48D
:1054A00094F4951494F494D494D494D494D49D14F2
:1054B000AD76B5B7C639D6DBDEFCD6BBCE99BE38E5
:1054C000ADB6A5559D359D1594D48C938CB494B4EC
:1054D00094D494D494D494D494D494D494D494F46C
:1054E0009CF59D159D159D159D359D35A555A5557D
:1054F000A555A555A555A555A575A576A576A5755A
:10550000A575A555A555A555A555A555A556A556A9
:10551000A576AD76A576A576AD76A5569D359D1575
:105520009D159CF494F49D1594F494F494F494F4DF
:1055300094F494D494D494D494D494D494D494D40B
:1055400094D494D494D494D494D494D494D494F4FB
:1055500094D494D494F494F494D494D494D494D4CB
:1055600094D494D494F494F494F494F494F494F43B
:1055700094F494F494F494F49CF49D149D159D1566
:105580009D159D159D159D159D159D159D369D3649
:10559000A556A576A556AD97B598C61BCE1BD63B8E
:1055A000DE7DEEDEF73EFF5FFF5FFF5FEEBDE67C78
:1055B000D61BC5BABD58A4D6A517B598AD989516F3
:1055C0008D158CD48CB48CB38C938C938C938CB4BD
:1055D0008CB48C93847284728CB38CB48CB38493AB
:1055E000847284728C938C93847284528CB38CB446
:1055F0008CB48CB38493847384738C948CB48C94A7
:10560000847384538473847384528C9294D39D14D2
:10561000C679EFBDEFBDCED9ADB69D348CB38472E3
:1056200084528473845384538453847384938CB3DB
:105630008CD48CB48CB48CD48C9384527C52847271
:1056400084738C938CB38CB48C938CB48CB48CB4E6
:1056500094D494D48CB48CD48CB48CB3849384724E
:1056600084527C527C5284527C527C52845284728A
:105670008CB38CB38CB38CB48CB38473845284524B
:10568000845284528452845284528452845284526A
:10569000845284528452845284528452845284525A
:1056A0008452845284528452845284527C527C525A
:1056B0007C527C528431D6DBFFFF7C527C527C5280
:1056C0007C527C527C527C527C527C527C527C526A
:1056D0007C527C52845284527C527C52845284523A
:1056E00084738CB38C938C9384938492849284730C
:1056F0008473847284728452845284528452845299
:1057000084728472847284738473847384738473E4
:1057100084738473847384738473847384728452F3
:105720007C527C5284528452845284528472847299
:105730008472847284738473847284738493847394
:10574000847384738493849384938C938CB48CD467
:1057500094F494F494D494D494F494F494F48CB392
:1057600084928472849284738493849384938CB39C
:1057700094D494F594F594F594F59CF59CF59CF5EA
:105780009CF594F594B48C938C938C938CB38C93FC
:105790008CB38C938C938CD49D1594F594F594F5DF
:1057A000951595159D159D159D1594F594D48CB35F
:1057B0008CB394D494F59D159D1594F49CF59D356A
:1057C0009D359D3594F48CD48CB394D494D49CF4AE
:1057D0009D35AD56B5B7BE18C659C639BDF7ADB67D
:1057E000A5759D359D359D1594D494B494D494D4C9
:1057F00094F494F49CF49CF59D159D159D159D3590
:10580000A555A556A576A576A576A576A576A57502
:10581000A576A576A576A576A576A576A576A576B0
:10582000A556A555A555A555A5359D359D35A53537
:105830009D15AD97BE19B5B7A5569D359D1594F428
:1058400094F494F494F494F494F494D494D494D478
:1058500094D494D494D494D494D494D494D494D408
:1058600094F494F494F494F494F494F494F494D418
:1058700094D494D494D494D494D494D494D494D4E8
:1058800094D494D494D494D494D494D494D494D4D8
:1058900094D494D494D494F494F494F494F494F428
:1058A00094F49D159D159D159CF59D159D15A5368A
:1058B000A576A576AD97B598B598CE1BD65CDE7D5E
:1058C000E69DEEDDF71EF73EF73EF71EE6BDE67CF1
:1058D000D61BCDDAC599B517ACF6BDB9B5D99D368D
:1058E00094F594F58CD48CB48C938C938CB494D420
:1058F00094F48CB4847384738CB38CD48CD48493DC
:10590000847284738CB48CB3847384728CB38C93E0
:105910008C938C938C93849384938CB48CB48C945C
:10592000847384738C938C9384528C7294B39CF3A1
:10593000BE17DF1BDF3BC699ADB695148CB38472DE
:105940008472847384738453847384738CB38CD40F
:1059500094D494D48CD48CD48C93847284728473B5
:105960008C938CB38CD494D48CB48CD494D494F580
:105970009D35951594D494D494D48CD48C938472FE
:105980008452845284728472847284728472849386
:105990008CB38CB38CB48CB48CB3847384728472E7
:1059A0008472847284728472847284728472847247
:1059B0008472847284728472847284728472847237
:1059C0008472847284728472847284728472847227
:1059D000847284528452D6DBFFFF84738473847391
:1059E0008473847384738473847384738473845220
:1059F0007C527C52845284528452845284738472C6
:105A000084728C938493847384728472847284739A
:105A1000847384738473847384738C938C938C9356
:105A20008C938C938CB38CB38CB48CD48CD48CD45A
:105A30008CD48CD48CD48CB48CB48CB38CB38C9329
:105A400084938473847384728472845284728472A3
:105A5000847384738493849384938C938C938473DE
:105A6000849384938C938C938C938CB394D494F47C
:105A700094F594F594F594F494F494F494F48CB32C
:105A80008492849284938C93849384938CB394D4DF
:105A900094F59D159D159D159CF59D159D159CF5E1
:105AA0009D369CF594B48C938CB494B48CB48C9344
:105AB0008CB38CB38CB494D494F594F594F494F49E
:105AC00095159D359D369D369D369D359D1594F4D5
:105AD00094D48CB494B49CF59D1594D494D49D35F1
