:020000040800F2
:10000000E8EC0020450100083523000837230008EC
:10001000392300083B2300083D23000800000000AE
:100020000000000000000000000000003F23000866
:100030004123000800000000432300084523000876
:100040005F0100085F0100085F0100085F01000810
:100050005F0100085F0100085F0100085F01000800
:100060006B2300088D2300085F0100085F01000872
:100070005F0100085F0100085F0100085F010008E0
:100080005F0100085F0100085F0100085F010008D0
:100090005F0100085F0100085F01000849230008B4
:1000A0005F0100085F0100085F0100085F010008B0
:1000B0005F0100085F0100085F0100085F010008A0
:1000C0005F0100085F0100085F0100085F01000890
:1000D0005F0100085F0100085F0100085F01000880
:1000E0005F0100085F0100085F0100085F01000870
:1000F0005F0100085F0100085F0100085F01000860
:100100005F010008AF2300085F0100085F010008DD
:100110005F0100085F0100085F0100085F0100083F
:100120005F0100085F0100085F0100085F0100082F
:10013000DFF80CD007F06CFE00480047D50300083C
:10014000E8EC00200648804706480047FEE7FEE747
:10015000FEE7FEE7FEE7FEE7FEE7FEE7FEE7FEE777
:1001600011590008310100084FF0C0410880704764
:100170004FF0C04210806D48018070476B48018885
:10018000008870476949088070472DE9F04F40F2B8
:10019000112400236549EF25661C4FF0030E4FF034
:1001A000C0404FF4047CA71C40F28F184FF4007934
:1001B00040F2012A40F2022BE2B1012A18BFBDE849
:1001C000F08FA0F800E041F208020A80A0F800C019
:1001D0000B8004800D8006800B800780A1F80080D2
:1001E000A0F800900B80A0F800A00B80A0F800B051
:1001F000BDE8F08FA0F800E041F230020A80A0F8DC
:1002000000C00B8004800D8006800B800780A1F861
:100210000080A0F800900B80A0F800A00B80A0F850
:1002200000B0BDE8F08F2DE9F041012198B008023F
:1002300004F085FD01217C2004F08AFD4FF400507C
:10024000ADF8580003253A4F8DF85A5010248DF818
:100250005B4016A9384604F07EFBDFF8D880022602
:10026000ADF8586016A9404604F075FB4CF23370A7
:10027000ADF858008DF85A5018208DF85B0016A97B
:10028000384604F068FB4FF68070ADF8580016A9A8
:10029000404604F060FB8020ADF8580016A93846AF
:1002A00004F059FBE001ADF8580016A9384604F0F7
:1002B00052FB6102384604F0C2FB00200521CDE963
:1002C00010012106CDE9140112901390082100902D
:1002D000CDE90101CDE90340069049020790CDE93F
:1002E00008010A900B900C900FA8CDE90E060D9016
:1002F000684605F051F80121002005F0A6F918B074
:10030000BDE8F08170B50B4C0221204604F099FB4A
:10031000094D284603F059F90221204604F08FFBCD
:100320002846BDE8704003F050B9000000000260AC
:100330000014014000180140FFFFAF0010B500217C
:10034000012397A2084603F04FF9984C204602F08B
:1003500040F80021012396A2084603F045F9204603
:1003600002F037F80021012393A2084603F03CF97C
:10037000204602F02EF80021012391A2084603F046
:1003800033F9204602F025F8002101238EA2084609
:1003900003F02AF9204602F01CF8002101238CA268
:1003A000084603F021F9204602F013F8002101234A
:1003B00089A2084603F018F9204602F00AF8002145
:1003C000012387A2084603F00FF92046BDE810403C
:1003D00001F0FFBF82B002F00FF801F0EDFF04F072
:1003E0001FF802F0F7F800F038F900F050F94FF676
:1003F000FF740020CDE900040F237DA21E211420EC
:1004000002F04AFE00237EA26421C820009402F07C
:100410001DFD4CF2186400237AA2C82164200094C8
:1004200002F07CFD7DA000210090F0234FF4C87203
:10043000084603F08BFD4FF48260009000237A4A57
:100440003C21322002F09CFC0021012354A20846EA
:1004500003F0CAF80023754A50213220009402F0BC
:100460008FFC0021012352A2084603F0BDF80021B1
:10047000012351A2084603F0B7F84C4C0021012398
:1004800047A2084603F0B0F8204601F0A2FF002181
:10049000012347A2084603F0A7F8204601F099FF80
:1004A0000021012344A2084603F09EF8204601F0F3
:1004B00090FF0021012342A2084603F095F8204650
:1004C00001F087FF002101233FA2084603F08CF8CA
:1004D000204601F07EFF002101233DA2084603F0E3
:1004E00083F8204601F075FF002101233AA2084657
:1004F00003F07AF8204601F06CFF0021012338A2B6
:10050000084603F071F8204601F063FF0021012343
:1005100023A2084603F068F8204601F05AFF0021A4
:10052000012323A2084603F05FF8204601F051FFA3
:100530000021012320A2084603F056F8204601F0CE
:1005400048FF002101231EA2084603F04DF8204673
:1005500001F03FFF002101231BA2084603F044F8ED
:10056000204601F036FF0021012319A2084603F0BE
:100570003BF8204601F02DFF0021012316A208467A
:1005800003F032F8204601F024FF0021012314A2D9
:10059000084603F029F8204601F01BFF6EE7000033
:1005A0002F706963332E626D70000000E0930400C9
:1005B0002F312E626D7000002F322E626D700000A0
:1005C0002F332E626D7000002F342E626D7000008C
:1005D0002F352E626D7000002F362E626D70000078
:1005E0002F6D7953637265656E2E626D7000000029
:1005F000414141414141414141414141412000008E
:10060000BAC30000BAC7BAC7A3ACF1D2CDA4C7BF62
:10061000C4E3D5E6C5A3B1C6000000002F6D795331
:10062000637265656E00000000000020000200207B
:1006300008B54FF4C06003F0BFFF31208DF8000013
:1006400000208DF8010003208DF8020001208DF8B4
:100650000300684603F0B7FF08BD08B54FF4C0605B
:1006600003F0AAFF31208DF8000000208DF8010072
:1006700003208DF8020001208DF80300684603F086
:10068000A2FFBDE80840E749002006F01BBAF8B514
:100690000025E5A007F0FAFB4FF4C06003F08CFFE3
:1006A00031208DF8000000268DF8016003208DF8C0
:1006B000020001278DF80370684603F084FF0020D4
:1006C00007F0F6FAD749002006F0FCF90622E3A16C
:1006D000E64806F007FAE64C2070E6A007F0D6FBE5
:1006E000207850B904F108037A02191DDF4806F09A
:1006F00071FB2070DD4806F0B4FC0122D7A1DB4875
:1007000006F0F0F92070E2A007F0C0FBE9A0C4E910
:10071000016707F0BBFB4FF4007600BF4FF4007198
:10072000EA4807F052FBE949E94B4FF40072A1F5A2
:100730000970666006F074FA2070E449E5A007F0DD
:10074000A5FB20786D1C10B9A0680028E6D12946C9
:10075000E2A007F09BFBBDE8F840C44806F081BC6E
:1007600070B516468EB00D460246DEA1684607F00B
:100770009DFBAC49002006F0A5F906226946BB485E
:1007800006F0B0F9BA4C207028B1082818BF4FF015
:10079000FF300EB070BDCE4B32462946B34806F04E
:1007A00019FB2070B14806F05CFC0EB0002070BD53
:1007B00070B516468EB00D460246CAA1684607F0CF
:1007C00075FB9849002006F07DF902226946A7488A
:1007D00006F088F9A64C207028B1042818BF4FF005
:1007E000FF300EB070BDBA4B324629469F4806F026
:1007F000F1FA20709D4806F034FC0EB0002070BD68
:10080000F0B58FB00E4602460025B6A1684607F047
:100810004DFB4FF4C06003F0CFFE31208DF8340063
:1008200000208DF8350003208DF8360001208DF86A
:1008300037000DA803F0C7FE7A49002006F042F900
:100840007849002006F03EF901226946874806F003
:1008500049F9874C002820700FBF4FF400774FF004
:10086000FF300FB0F0BD00BF4FF40071974807F0A4
:10087000ACFA9649964B4FF40072A1F50970676087
:1008800006F0CEF9207006EB4520904A97A107F0BC
:100890000DFB20786D1C10B9A0680028E4D10FB0C2
:1008A0000020F0BD70B5064608784978B038C0EB36
:1008B000001202EB401001EB40004001A0F5A155F1
:1008C0005849002006F0FEF8012289A1674806F089
:1008D00009F9674C002820701CBF4FF0FF3070BD35
:1008E0002946624806F0C6FB794B202231465F4814
:1008F00006F096F920705D4806F0B3FB002070BD4D
:1009000010B57F4B84B00FCB8DE80F007DA007F0B2
:10091000BDFA4449002006F0D5F8554C010020707E
:1009200004D085A007F0B2FA04B010BD684606F006
:10093000B6FD207001000FD0042908BF88A00FD099
:10094000052908BF8DA00BD081A007F09FFA47486A
:1009500006F087FB04B010BD8CA007F097FAF6E70D
:1009600007F094FAF3E730B5002493B02D49204600
:1009700006F0A8F8010004D06FA007F087FA13B0C2
:1009800030BD59A10AA806F03CFC01006D4610D00C
:1009900085A007F07BFA54A10AA806F032FC0100FA
:1009A00031D081A007F072FA304806F05AFB13B03C
:1009B00030BD89A007F06AFA0BE000BF9DF808007F
:1009C00010F0100F05D0641C05F109018CA007F090
:1009D0005DFA69460AA806F042FC0028DBD19DF8C2
:1009E00009000028EAD1D6E79DF8080010F0100FA2
:1009F00009D10098641C00F50070820A05F1090114
:100A000081A007F043FA69460AA806F028FC18B945
:100A10009DF809000028E7D1002C04BF7EA007F054
:100A200035FAC1E76C0800200D0A20D5E2CAC7D20A
:100A3000BBB8F64D6963726F5344BFA8CEC4BCFE09
:100A4000CFB5CDB3B2E2CAD4CAB5D1E92846415434
:100A500046532052302E3039290A0000303A2F6D8B
:100A6000795F5F44656D6F2E54585400CC0C0020A4
:100A7000000400200D0A206D795F5F44656D6F2EC4
:100A80005458542020B4B4BDA8B3C9B9A60A000074
:100A90000D0A206D795F5F44656D6F2E54585420A8
:100AA000D2D1B4E6D4DAA3ACB4F2BFAAB3C9B9A622
:100AB0000A000000B6C1C8A1B4B4BDA8B5C454585A
:100AC00054CEC4BCFE202D2D2D2D0A00F00E00208A
:100AD000080400200D0A202573200A000D0A202595
:100AE00064200000303A25730000000025730000E8
:100AF000303A2F485A4C49422E62696E000000007D
:100B00006C8A0008706C6561736520696E7075741D
:100B1000207468652066696C65206E616D6520745F
:100B200068617420796F752077616E7420746F200E
:100B300064656C6574650A006D6F6E742066696C1F
:100B4000652073797374656D206572726F722C20E5
:100B50006572726F7220636F64653A2025750A00B2
:100B60006E6F20737563682066696C65206F7220F4
:100B70006469726563746F72790A00006E6F207326
:100B800075636820706174680A00000066696C65AE
:100B90002064656C65746564207375636365737345
:100BA00066756C6C79210A006661696C65642074F5
:100BB0006F206F70656E20726F6F7420646972654C
:100BC00063746F72792C206572726F7220636F6428
:100BD000653A2025750A00002D2D2D2D2D2D2D2D4A
:100BE0002D2D2D2D2066696C65206C697374202D68
:100BF0002D2D2D2D2D2D2D2D2D2D2D0A00000000FC
:100C00002F25730A000000002F2E2531327325375F
:100C10006C64204B42200A006E6F2066696C65216F
:100C20000A00000038B5002004F018F9002004F094
:100C300018F904F0E1F800214FF4806004F07FF827
:100C40004FF4F850ADF8000004248DF803406946D5
:100C5000F84803F080FEADF800406946F64803F01E
:100C60007AFE38BD08B54FF4C06003F0A5FC312012
:100C70008DF8000000208DF801008DF802000120A1
:100C80008DF80300684603F09EFC08BD2DE9F14F86
:100C9000002782B0384604F01BF910F0007F1EBF19
:100CA0000E2003B0BDE8F08F0024E44D009708202B
:100CB0000197286010204FF04008C5E901084FF463
:100CC0008069C5E90379284604F0E5F8DC4E706BCD
:100CD00010F0450FFBD040F2FF5AC6F838A07069FB
:100CE000DFF860B300EA0B0010F0FF001CBF03B098
:100CF000BDE8F08FD4488068000428603720C5E93B
:100D00000108C5E90379CD4804F0C5F8706B10F00F
:100D1000450FFBD0C6F838A0706900EA0B0010F050
:100D2000FF001CBF03B0BDE8F08F4FF0FF31C74894
:100D3000016008214160302181600221C0E9031770
:100D40000121416104F0C7F83320C5E90070C5F8FE
:100D50001090C5E90287B94804F09DF8706B10F057
:100D6000450FFBD040F2FF50B063716911F00800ED
:100D70001CBF03B0BDE8F08F706B40F22A6A10EA26
:100D80000A0F08BFEB460FD14FF4001004F0E8F84B
:100D900030B104F0C1F84BF82400641C012C03D8D6
:100DA000706B10EA0A0FEFD0082004F0D9F830B1C8
:100DB000082004F0DDF803B00420BDE8F08F022025
:100DC00004F0CEF830B1022004F0D2F803B00220D3
:100DD000BDE8F08F202004F0C3F830B1202004F0EB
:100DE000C7F803B00620BDE8F08F4FF4007004F0A0
:100DF000B7F838B14FF4007004F0BAF803B0072028
:100E0000BDE8F08F40F2FF5004F0B2F8009802996C
:100E1000062400BA012938D010F4803F66D08A48F1
:100E20008068000428603720C5E90108C5E9037916
:100E3000824804F030F8706B10F0450FFBD040F2A0
:100E4000FF5AC6F838A07069DFF8F8B100EA0B0065
:100E500010F0FF001CBF03B0BDE8F08FC5E90074BF
:100E6000C5F81090C5E90287744804F014F8706B57
:100E700010F0450FFBD000BFC6F838A0706903B072
:100E800000EA0B00C0B2BDE8F08F10F4802F2DD027
:100E90006D488068000428603720C5E90108C5E96D
:100EA0000379664803F0F7FF706B10F0450FFBD035
:100EB00040F2FF5AC6F838A07069DFF888B100EA3E
:100EC0000B0010F0FF001CBF03B0BDE8F08F022044
:100ED000C5F81090C5E90004C5E90287574803F03A
:100EE000DAFF706B10F0450FFBD0C5E703B025208B
:100EF000BDE8F08F2DE9F0410146534800264068D7
:100F0000032813D000281CBF012802282BD1B1F5DB
:100F1000805F0BD0002401274D4DB1F5006F08D044
:100F20000020FFF7B3FE060014D01CE02720BDE828
:100F3000F0810120FFF7AAFE060014D12F752C6066
:100F40004FF400606C60C5E9024041482C6103F039
:100F500060FF08E02F752C606C60AC60EC603C4872
:100F60002C6103F056FF3046BDE8F081334910B5DF
:100F7000086007204860402088600020C8604FF467
:100F800080600861084603F086FF2D48416B11F030
:100F9000450FFBD040F2FF518163406900F008002B
:100FA00010BD2DE9F00328492A4C4F6880F84E7097
:100FB0008968A0F84C1021680A0E93090370C2F3E7
:100FC0008303437002F0030282700A0CC2700A0AA3
:100FD00002714171D4F804C04FEA1C610901C1805B
:100FE000C288CCF3074142EA1112C28001F00F011E
:100FF0000172CCF30721CA094272C1F380128272D6
:10100000C1F34012C272C1F300120273002646738C
:1010100022460125D2F80880002F4FEA1862C8F353
:101020000743C8F3072918BF012F15D0022F40D05E
:1010300052E000000010014000140140881100201F
:101040000080014008E0FFFD0C0600209C110020FC
:1010500070110020F01000208907090D01610CF0CB
:10106000FF01D0F810C04CEA81010161016941EA39
:1010700092110161C2F3C201017502F007014175CD
:1010800059098175C3F38201C1759907490F01762A
:10109000027E494642EAD11202760269037E521C60
:1010A0009B1C9A40037A05FA03F35A438364426413
:1010B00012E04FEA8C61890A0161016941EA02216B
:1010C000016101691943016102694946521CD20458
:1010D00042644FF400728264C1F380124276890642
:1010E000490E8176827E08F0FF0142EAD1128276B3
:1010F00001F07F01C176E268110ECB090377C1F3DD
:1011000041134377C1F3820383778907090FC177BE
:10111000C37FC2F3074143EA9113C377C1F340137E
:1011200080F8203080F8216001F0010180F8221061
:10113000C2F30721CB0980F82330C1F3801380F874
:101140002430C1F3401380F82530C1F3001380F838
:101150002630C1F3810380F8273001F0030180F8C5
:101160002810C2F3460180F8291080F82A50FE4A60
:1011700011680B0E80F82C30C1F307431B02C385A6
:10118000B0F82EC0C1F307234CEA0303C385090658
:1011900001635168D0F830C00B0E4CEA034303637F
:1011A000D0F830C0C1F307434CEA03230363D0F8FF
:1011B00030C0C1F307234CEA0303036380F8341003
:1011C00091680B0E80F83530C1F307431B0683632B
:1011D000D0F838C0C1F307234CEA03438363836B21
:1011E000C9B243EA01218163D168836B43EA11628A
:1011F000826390F83C30C1F3074243EA121380F84F
:101200003C301207120DC287C38FC1F307221A4365
:10121000C287C1F3460180F8401080F84150304643
:10122000BDE8F00370472DE9F84F0120ADF800004C
:1012300003F020FE002804BF2520BDE8F88FCB4F27
:101240007868042800F0CE80C94C4FF0C00A002610
:101250000220C4F808A0C4E900604FF48068C4E923
:101260000368204603F017FEC24D686B10F0450F6F
:1012700003D1686B10F0450FFBD010F0040F7CD148
:1012800010F0010F7AD140F2FF5003F071FE002000
:1012900003F01EFEDFF8D092C9F80000042003F02E
:1012A00017FEC9F80400082003F012FEC9F8080070
:1012B0000C2003F00DFEC9F80C007868002818BF58
:1012C000012803D0062818BF022847D10320C4E90B
:1012D00000604020C4F81080C4E90206A44803F06E
:1012E000DAFD686B4FF0030BE94610F0450F03D1B0
:1012F000686B10F0450FFBD010F0040F1CBF0324E7
:10130000042002D003F034FE20E010F0010F1CBFD7
:1013100001242046F6D103F0D7FD584515D140F2FF
:10132000FF5003F025FE002003F0D2FD10F4604FC3
:1013300004BF000CA9F8000010D010F4005F18BF23
:10134000132403D110F4804F03D010242046BDE8AD
:10135000F88F10F4004F18BF0F24F7D178680428D5
:1013600040D0BDF80000B860000420600920C4E946
:10137000010AC4E903687E4801E00DE016E003F0CD
:101380008AFD686B10F0450F03D1686B10F0450FB4
:10139000FBD010F0040F06D00324042003F0E8FD76
:1013A0002046BDE8F88F10F0010F06D0012420463A
:1013B00003F0DEFD2046BDE8F88F40F2FF5003F059
:1013C000D7FD002003F084FD6B4C2060042003F067
:1013D0007FFD6060082003F07BFDA0600C2003F01F
:1013E00077FDE0600020BDE8F88F2DE9F05F4FF059
:1013F00000096248B2214F460175C0F80090C0F85C
:101400000490C0F80890C0F80C90CB464D46C0F848
:10141000109003F0FEFC032003F023FD012003F0F5
:101420001DFD534C4FF4806A204625606560A56021
:10143000C4E9035A03F02FFD4FF48036802003F0F7
:101440008FFD00284ED0002E4ED040F2FF5003F00A
:101450008FFD4FF4D570206008204026C4E90106B6
:10146000C4E9035A424803F016FDDFF80881B002D0
:10147000D8F8341011F0450F39D010B111F0040F25
:101480003AD0042003F074FD3720C4E90050C4F8BA
:1014900010A0C4E90265364803F0FDFCD8F834001A
:1014A00010F0450FFAD040F2FF50C8F83800D8F8D5
:1014B00014002F483724C0E90054C0F810A0C0E938
:1014C000026503F0E8FC4046416B11F0450FFBD08C
:1014D00040F2FF528263436929490B4013F0FF0831
:1014E0006BD05AE0761EA9D10320BDE8F09F0028FA
:1014F00018BF401EBCD1C4E711F0400F1CBF4020F4
:1015000003F036FD012119484FF0804B4160D0E7D0
:101510004FF000083720C5E900804FF48069C5F816
:101520001090C5E90268124803F0B5FC606B10F03A
:10153000450FFBD040F2FF50A063616911F0080035
:1015400018BFBDE8F09F2920291DC5F800B0A1E80B
:101550004103074803F09FFC606B4FF0000810F058
:10156000450F12D1606B0DE0001100200C06002029
:101570008811002000800140F01000207011002030
:1015800008E0FFFD10F0450FECD010F0040F07D07D
:101590004FF00308042003F0EBFC4046BDE8F09F49
:1015A00040F2FF5003F0E4FC002003F091FC814680
:1015B000C00F07F1010708D009E0FE4D4BF4801B76
:1015C0004BF0004B04464FF6FF7A5745A0D35745E2
:1015D00024BF1B20BDE8F09F19F0804FDDD0F648F6
:1015E00002214160D9E738B50121302003F0B0FB7A
:1015F0004FF4F850ADF8000003208DF802001820D9
:101600008DF803006946ED4803F0A5F90420ADF814
:1016100000006946EA4803F09EF90121880203F0C0
:101620008EFB0121022003F08AFB03F0E5FBFFF7AC
:10163000DCFE002818BF38BDFFF7F5FD002818BFF5
:1016400038BD0121DF4800240175046044608460D6
:10165000C460046103F0DDFBDB48FFF7A2FC002857
:1016600018BF38BDD848B0F84C000104D14801601B
:10167000072141604021C0E902140901016103F022
:101680000AFCD248416B11F0450FFBD040F2FF51EC
:101690008163406910F0080018BF38BD4FF4006046
:1016A000BDE8384026E40246C348C84980680004C3
:1016B000886040F24D40C860486B10F0450FFBD089
:1016C00040F2FF508863486910F0080004BF496980
:1016D00011607047B84880680104BC48816040F2DE
:1016E0004D41C160416B11F0450FFBD040F2FF51FD
:1016F0008163416911F0080F12BFFF204069C0F3F8
:1017000043207047AC4880680104B048816040F2D3
:101710004D41C160416B11F0450FFBD040F2FF51CC
:101720008163416911F0080F0AD14069C0F3432079
:10173000042804BF00207047FF281CBF0120704709
:101740000220704710B50024204603F08AFB204693
:1017500010BD2DE9F05F0446002003F0B9FB10F046
:10176000007F1CBF0E20BDE8F09F4027914E102047
:101770004FF4806AC6E900704FF00008C6F810A068
:10178000C6E90278304603F086FB904D686B10F096
:10179000450FFBD040F2FF5BC5F838B06869DFF851
:1017A000309200EA090010F0FF0018BFBDE8F09F7A
:1017B0008148311D8068000430603720A1E8810530
:1017C0007C4803F068FB686B10F0450FFBD0C5F850
:1017D00038B0686900EA090010F0FF0018BFBDE8E2
:1017E000F09F4FF0FF317B48C0E900176021816016
:1017F0000221C0E903180121416103F06CFB0D20B7
:10180000C6E90080C6F810A0C6E90278694803F06E
:1018100042FB686B10F0450FFBD0C5F838B0686923
:1018200000EA090010F0FF071CBF3846BDE8F09F32
:10183000686B40F22A6810EA080F13D14FF4004099
:1018400003F08EFB002818BF002607D003F064FBCE
:1018500044F82600761C082EF8D32034686B10EA72
:10186000080FEBD0082003F07BFB28B1082003F021
:101870007FFB0420BDE8F09F022003F071FB28B13C
:10188000022003F075FB0220BDE8F09F202003F04A
:1018900067FB28B1202003F06BFB0620BDE8F09F1A
:1018A0004FF4007003F05CFB30B14FF4007003F0B4
:1018B0005FFB0720BDE8F09F4FF4001003F050FBE2
:1018C00020B103F029FB44F8040BF5E740F2FF5088
:1018D00003F04EFB3846BDE8F09F10B504463E4885
:1018E000FFF737FF010018BF10BD3B48027892098F
:1018F00022700278C2F34012627082781202628013
:10190000C27863881A436280027912066260427963
:10191000636843EA024262608279636843EA0222B2
:101920006260C27963681A436260027A2272427A04
:101930006272827A1209A272C27A1202A281027BB8
:10194000A3891A43A281427B9208A273407B00F0D4
:101950000300E073084610BD2DE9F74F16488CB020
:1019600000258846174605700561C560174CE5627D
:101970004068022804BF4FF400774FEA51280D4E0B
:101980004FF0400B1020C6F808B0C6E90070800187
:10199000C6E90350304603F07EFA606B10F0450F45
:1019A000FBD040F2FF59C4F838906069DFF820A0FE
:1019B00014E00000881100200C06002000100140F7
:1019C000001401407011002020110020008001400F
:1019D00008E0FFFD9C1100201011002000EA0A0021
:1019E00010F0FF001CBF0FB0BDE8F08F4FF0FF31CB
:1019F000FE48C0E90017902181600221C0E903156B
:101A00000121416103F067FA1120C6F808B0C6E968
:101A100000804FF48060C6E90350F54803F03BFABC
:101A2000606B10F0450FFBD0C4F83890606900EA95
:101A30000A0010F0FF001CBF0FB0BDE8F08F0121BD
:101A4000080203F01CFA012003F022FAE9480C9C7A
:101A500002F0D0FEE84E0021304602F0A8FEE74832
:101A6000CDE90004B808CDE902508020CDE904504A
:101A7000800006908000CDE907058000CDE90905CA
:101A80006946304602F05DFE0121304602F08FFECD
:101A90000FB02846BDE8F08F2DE9FF4FD8488BB036
:101AA000002588461746057005614FF0010AC0F809
:101AB0000CA0D44CE5624068022804BF4FF40077C4
:101AC0004FEA5128CA4E10204FF4806BC6E90070CF
:101AD0004020C6F810B0C6E90205304603F0DBF935
:101AE000606B10F0450FFBD040F2FF50A0636069BF
:101AF000DFF8149300EA090010F0FF001CBF0FB0DC
:101B0000BDE8F08F4FF0FF31B84801600E994F43A8
:101B10009021C0E901710221C0F814A0C0E90315A9
:101B200003F0D9F91220C6E900804020C6F810B0B1
:101B3000C6E90205AE4803F0AEF9606B10F0450F40
:101B4000FBD040F2FF50A063606900EA090010F08A
:101B5000FF001CBF0FB0BDE8F08F0121080203F0A9
:101B60008EF9012003F094F9A2480B9C02F042FE8A
:101B7000A14E0021304602F01AFEA048CDE9000433
:101B8000B808CDE902508020CDE9045080000690CD
:101B90008000CDE907058000CDE90905694630469A
:101BA00002F0CFFD0121304602F001FE0FB02846C1
:101BB000BDE8F08F70B5954E914C0025304602F08F
:101BC0000DFE002801BF2069002820780028F5D0EC
:101BD0002078002814BF2078284670BD2DE9F74FE3
:101BE00087488CB000258846174605700561C5609A
:101BF000844CE5624068022804BF4FF400774FEA46
:101C000051287B4E4FF4806B1020C6F810B0C6E907
:101C100000704FF0400AC6E902A5304603F03BF9D8
:101C2000606B10F0450FFBD040F2FF59C4F83890BC
:101C3000616911F008001CBF0FB0BDE8F08F1820DB
:101C4000C6F810B0C6E90080C6E902A5684803F0EE
:101C500022F9616B11F0450FFBD0C4F8389061692F
:101C600011F008001CBF0FB0BDE8F08F4FF0FF313E
:101C70005E48C0E900179021C0E902150121C0E9C2
:101C8000045103F028F90121080203F0F8F859483B
:101C90000C9C02F0AFFD584E0021304602F087FD4B
:101CA0005648CDE9000410200290B808CDE903059C
:101CB00080200590800006908000CDE90705800017
:101CC000CDE909056946304602F03BFD0121304669
:101CD00002F06DFD012003F0DBF80FB02846BDE8EF
:101CE000F08F2DE9FF4FDFF818818BB000268B466F
:101CF00091469A4688F80060C8F810600120C8F83C
:101D00000C00404CE662D8F80400022804BF4FF4EF
:101D100000794FEA512B364D1020C5E90090402044
:101D200007012F61C5E90206284603F0B4F8606B8D
:101D300010F0450FFBD040F2FF50A063616911F035
:101D400008001CBF0FB0BDE8F08FD8F808004FF0B6
:101D50004008000428603720C5E901084FF480607E
:101D6000C5E90360224803F096F8606B10F0450F58
:101D7000FBD040F2FF50A0636069234F384010F061
:101D8000FF001CBF0FB0BDE8F08F1720C5F800A002
:101D9000C5E901084FF48060C5E90360144803F009
:101DA0007AF8606B10F0450FFBD040F2FF50A06353
:101DB0006069384010F0FF001CBF0FB0BDE8F08F25
:101DC0001920C5F800B0C5E901084FF48060C5E9E5
:101DD0000360074803F05FF8616B11F0450FFBD01B
:101DE00040F2FF50A0636069384011E09C11002070
:101DF0008811002000F0001044040240808001405F
:101E00000C0600200080014008E0FFFD00200010CB
:101E100010F0FF001CBF0FB0BDE8F08F4FF0FF3196
:101E2000FA480AFB09F4C0E900149021C0E902163F
:101E30000121C0E9046103F04EF80121080203F01A
:101E40001EF8012003F024F8F1480B9D02F0D2FCAB
:101E5000F04F0021384602F0AAFCEF48CDE900051A
:101E600010200290A008CDE9030680200590800094
:101E700006908000CDE907068000CDE90906694695
:101E8000384602F05EFC0121384602F090FC0FB0AB
:101E90003046BDE8F08F70B5E04EE14C002530468D
:101EA00002F09CFC002801BF20690028207800284F
:101EB000F5D0207800281CBF207870BD40F2FF507C
:101EC00003F056F8284670BDD648406B10F44050D9
:101ED00018BF012070470021D248816040F24C4178
:101EE000C160416B11F0450FFBD040F2FF5181639F
:101EF000406900F0080070472DE9F84F8346CA4852
:101F000000278DF8007040684FF0200A89461AEAD1
:101F1000105F04BF2520BDE8F88FC24E7068C3492A
:101F2000C0B2801CB1FBF0F4002002F0D1FF10F031
:101F3000007F1CBF0E20BDE8F88FB948BC4D4FF0A4
:101F400040084068022804BF4FEA5B2B4FEA59293A
:101F500004D000281CBF0128022834D1C5F800B0E5
:101F6000C5E901A84FF4806AC5E9037AB04802F0D8
:101F700092FF706B10F0450FFBD040F2FF50B06342
:101F80007069DFF8B0B200EA0B0010F0FF0018BF74
:101F9000BDE8F88F2120C5F80090C5E90108C5E922
:101FA000037AA34802F077FF706B10F0450FFBD067
:101FB00040F2FF50B063706900EA0B0010F0FF00C0
:101FC00018BFBDE8F88F2620C5E900704FF480697E
:101FD000C5F81090C5E90287954802F05CFF706B68
:101FE00010F0450FFBD040F2FF50B0637069DFF88E
:101FF00044A200EA0A0010F0FF0018BFBDE8F88F05
:10200000A04238BF401CFBD3684600F0DBF84FF01D
:102010000D0B002818BFBDE8F88F99E080486C468A
:102020004FF0000A8068C5F810900004C5E9000B65
:10203000C5E902877E4802F02EFF706B10F0450F55
:1020400003D1706B10F0450FFBD010F0040F05D0DA
:102050000324042007E02046BDE8F88F10F0010FAC
:1020600004D00124204602F083FFF4E702F02CFFA5
:102070000D2838D140F2FF5002F07AFF002002F024
:1020800027FFC0F3432121706A4908425FD010F056
:10209000004F01D01C24DEE710F0804F01D009244E
:1020A000D9E710F0005F01D00A24D4E710F0805F78
:1020B00001D00B24CFE710F0006F01D00C24CAE749
:1020C00010F0806F02D05846BDE8F88F10F0807F86
:1020D00001D00E24BFE710F4000F01D00F24BAE79F
:1020E00010F4800F01D01024B5E710F4001F01D0C8
:1020F0001124B0E710F4801F01D01224ABE710F4D4
:10210000002F01D01324A6E710F4802F01D014244F
:10211000A1E710F4003F01D015249CE710F4803FA4
:1021200001D0162497E710F4004F01D0172492E74E
:1021300010F4804F01D018248DE710F4005F01D017
:10214000192488E710F0080F01D01A2483E75046BD
:102150009DF80010072918BF06293FF45FAFBDE8BE
:10216000F88F10B52E4CE0680021012818BF2170AF
:102170000DD000BF4FF4807002F005FF00214FF436
:10218000807002F07CFE01202061207810BD25487F
:10219000816040F24C41C160416B11F0450FFBD0B2
:1021A00040F2FF518163406900F008002070E1E7D0
:1021B0000021012804D0491C4008C9B20128FAD1E5
:1021C0000846704770B5044615480025806801042C
:1021D000174801600D2141604021C56081600901FF
:1021E000016102F058FE0F49486B10F0450F03D112
:1021F000486B10F0450FFBD010F0040F1CD00324E7
:10220000042002F0B5FE204670BD00009C110020A5
:1022100000F00010440402408080014000200010C3
:102220000C06002000800140F0100020C0D4010006
:102230008811002008E0FFFD10F0010F05D00124F7
:10224000204602F095FE204670BD02F03DFE0D28AE
:1022500037D140F2FF5002F08BFE002002F038FE32
:10226000C0F343212170324908425ED010F0004F84
:102270001CBF1C2070BD10F0804F1CBF092070BD1A
:1022800010F0005F1CBF0A2070BD10F0805F1CBF03
:102290000B2070BD10F0006F1CBF0C2070BD10F043
:1022A000806F1CBF0D2070BD10F0807F1CBF0E2002
:1022B00070BD10F4000F1CBF0F2070BD10F4800F14
:1022C00001D0102070BD10F4001F1CBF112070BD84
:1022D00010F4801F1CBF122070BD10F4002F1CBF13
:1022E000132070BD10F4802F1CBF142070BD10F49B
:1022F000003F1CBF152070BD10F4803F1CBF16208E
:1023000070BD10F4004F1CBF172070BD10F4804F3B
:102310001CBF182070BD10F4005F1CBF192070BDD9
:1023200010F0080F1CBF1A2070BD284670BD0000B9
:1023300008E0FFFD7047FEE7FEE7FEE7FEE77047B7
:102340007047704700F04BB810B5202003F0C6FA74
:10235000002808BF10BD01201649087002F009F8D6
:10236000BDE81040202003F0C5BA10B5042003F0EA
:10237000B5FA002808BF10BD02200E49087001F010
:10238000F8FFBDE81040042003F0B4BA10B50820EF
:1023900003F0A4FA002808BF10BD03200549087007
:1023A00001F0E7FFBDE81040082003F0A3BAFFF7F3
:1023B000D8BE00002C0600204FF0E02040F2CF21D4
:1023C00041610B4AF02111700021816107210161F7
:1023D00070470849086008680028FCD17047054824
:1023E0000168002908BF70470168491E01607047F5
:1023F00023ED00E02006002010B586B0012144F254
:10240000040002F0A5FC4FF40070ADF81000182095
:102410008DF8130003206C4C8DF8120004A920469F
:1024200002F099FA2015ADF8100004208DF8130081
:1024300004A9204602F08FFA4FF4E130009000200A
:10244000ADF80400ADF80600ADF80800ADF80C00DA
:102450000C205E4CADF80A006946204602F004FEEE
:102460000121204602F07AFE06B010BD70B5574C2F
:102470000546C1B2204602F0C4FE208810F0800F4D
:10248000FBD0284670BD0FB42DE9F04784B08146DB
:102490000D980EAC0078002802BF04B0BDE8F0072C
:1024A0005DF814FB30274A4E4FF02D0800250D989B
:1024B00001785C2916D000F1010025290D9025D066
:1024C000484602F09EFE4021484602F0F5FE0028F4
:1024D000F9D00D9800780028E9D104B0BDE8F007E4
:1024E0005DF814FB401C0D9001786E2906D072290E
:1024F00009D10D21484602F084FE60E00A214846D9
:1025000002F07FFE5BE0401C0D90DCE7017864295F
:1025100016D07329F7D154F804AB9AF800000028BC
:102520004DD0C1B2484602F06CFE4021484602F050
:10253000C3FE0028F9D01AF8010F0028F1D13EE0BF
:1025400054F8040B69464FF0000C002804BF8DF8C6
:1025500000708DF801501ED005DC8DF8008001F16F
:102560000101C0F1000042F2107200BF90FBF2F3D3
:1025700053EA0C0A07D003F1300C01F801CB03FB3E
:1025800012004FF0010C86FB02329310A3EBE272B3
:10259000002AEBDC0D709DF80000EA4678B100BF20
:1025A0009AF80010484602F02CFE4021484602F0FE
:1025B00083FE0028F9D01AF8010F0028F0D10D98F9
:1025C000401C0D907FE700000008014000380140EA
:1025D0006766666670B5FDF726FEFF4C0221204651
:1025E00002F02FFAFD4D284600F0EFFF02212046B1
:1025F00002F025FA284600F0E8FF00210846FDF722
:10260000B7FD00210846FDF7B3FD00210846FDF7A0
:10261000AFFD00210846FDF7ABFD4FF4C441201586
:10262000FDF7A6FD40F608010820FDF7A1FD4FF4D7
:1026300040618810FDF79CFD45F60B2140F201300A
:10264000FDF796FD40F6061140F20230FDF790FDD1
:1026500041F2170140F20330FDF78AFD4FF40C51AF
:102660004FF44170FDF784FD4FF4B85140F205304E
:10267000FDF77EFD46F2093140F20630FDF778FDA8
:1026800040F6094140F20730FDF772FD41F20C01BE
:102690004FF44270FDF76CFD42F2322140F20930F6
:1026A000FDF766FD16211020FDF762FD40F20111D5
:1026B0001120FDF75DFD00211220FDF759FD0121DC
:1026C0001320FDF755FD4FF44C71A015FDF750FD9B
:1026D00040F2372140F20110FDF74AFD4FF47061DE
:1026E00040F20310FDF744FD4FF4C2414FF4207057
:1026F000FDF73EFD4CF2B0114FF48170FDF738FD4F
:10270000A1150120FDF734FDA1150220FDF730FDD4
:1027100041F230010320FDF72BFD01210920FDF7D7
:1027200027FD00210C20FDF723FD4FF400419020F0
:10273000FDF71EFD00210F20FDF71AFD00214FF4CB
:102740000470FDF715FDEF2140F21120FDF710FD9B
:10275000002140F21220FDF70BFD40F28F1140F2F4
:102760001320FDF705FD00214FF4A060FDF700FDEB
:10277000002140F20150FDF7FBFC5F2140F20250C6
:10278000FDF7F6FC012140F20140FDF7F1FC0021CC
:1027900040F20440FDF7ECFCA1150720FDF7E8FC32
:1027A00000216015FDF7E4FC002140F20120FDF757
:1027B000DFFC00216015FDF7DBFC002140F2012069
:1027C000FDF7D6FCA10440F202200880844D0024CD
:1027D0004FF6FF70FDF7D6FC641CAC42F8D381497C
:1027E0000020086070BD70B5064641F2300103203C
:1027F000FDF7BEFC00214FF40470FDF7B9FCEF219A
:1028000040F21120FDF7B4FC002140F21220FDF748
:10281000AFFC40F28F1140F21320FDF7A9FC00211C
:102820004FF40070FDF7A4FC002140F20120FDF7F9
:102830009FFC40F20220FDF797FC40F28F15002428
:102840003046FDF79FFC641CF02CF9D36D1EF6D2C8
:1028500070BD10B541F230010320FDF789FC002165
:102860004FF40470FDF784FCEF2140F21120FDF7D6
:102870007FFC002140F21220FDF77AFC40F28F111C
:1028800040F21320FDF774FC00214FF40070FDF7B7
:102890006FFC002140F20120FDF76AFCBDE810400A
:1028A00040F20220FDF760BC4F49088070472DE9D7
:1028B000F84F074600240B98894690462646254641
:1028C00002284FD0032854D009EB030107EB080B73
:1028D00008FB03FA0091002852D0012818BFBDE878
:1028E000F88F41F218010320FDF742FC49464FF4EE
:1028F0000470FDF73DFC0098411E40F21120FDF7E9
:1029000037FCCBF5C87140F21220FDF731FC40F2E4
:102910008F1BABEB07000146009040F21320FDF740
:1029200027FC49464FF40070FDF722FC40F20120DD
:102930000099FDF71DFC40F20220FDF715FCCDF8D3
:1029400000A0BAF1000F98BFBDE8F88F0C984FF0C7
:10295000000B10F801AB0C901AF0800F18BF0A980A
:102960007AD17AE0BDE8F84F41F210010320FDF77B
:10297000FFBBBDE8F84F41F228010320FDF7F8BB8B
:1029800041F230010320FDF7F3FB39464FF40470A8
:10299000FDF7EEFBABF1010140F21120FDF7E8FB82
:1029A000494640F21220FDF7E3FB0098411E40F239
:1029B0001320FDF7DDFB39464FF40070FDF7D8FB1F
:1029C000494640F20120FDF7D3FB40F20220FDF71B
:1029D000CBFBCDF800A009E000180140FFAF0100DB
:1029E000007701002406002000000260BAF1000F09
:1029F00098BFBDE8F88F0C984FF0000B10F801ABB2
:102A0000CDF830001AF0800F18BF0A9810D139198C
:102A10004FF40070FDF7ACFB09EB060140F201201A
:102A2000FDF7A6FB40F20220FDF79EFBFDF7A6FB9B
:102A3000FDF7A8FB641C4FEA4A0A444524BF002462
:102A4000761C6D1C0BF1010BBBF1080FDAD300985B
:102A50008542D0D3BDE8F88F13E009EB06014FF4AF
:102A60000070FDF785FB391940F28F10411A40F2D2
:102A70000120FDF77DFB40F20220FDF775FBFDF71D
:102A80007DFBFDF77FFB641C4FEA4A0A444524BFE7
:102A90000024761C6D1C0BF1010BBBF1080FFFF439
:102AA0005BAF00988542FFF451AFBDE8F88F0A286C
:102AB00018D2DFE800F0170507090B0D0F111315E9
:102AC000FE487047FE487047FE487047FE48704712
:102AD000FE487047FE487047FE487047FE48704702
:102AE000FE487047FE487047F0B5FF4C83B00122A6
:102AF0002068FC4980B2CDE9000202910021202328
:102B00004FF48C720846FFF7D2FE206842F210762E
:102B1000B0FBF6F0FFF7CBFF2168002589B2CDE9C5
:102B200000150290202318221E213220FFF7BFFE3D
:102B300020684FF47A77B0FBF6F106FB1100B0FB8A
:102B4000F7F0FFF7B4FF2168029089B2CDE90015D4
:102B5000202318221E214A20FFF7A9FE2068B0FB7F
:102B6000F6F106FB1100B0FBF7F107FB110000EBDB
:102B7000C00101EB4010000BFFF799FF21680290A4
:102B800089B2CDE90015202318221E216220FFF70B
:102B90008EFE2068B0FBF6F106FB1100B0FBF7F1EA
:102BA00007FB1100D149D24EA1FB002149096FF06A
:102BB0001802514300EB8100A6FB0010C008FFF78C
:102BC00076FF2168029089B2CDE9001520231822F2
:102BD0001E217A20FFF76BFE2068A6FB0021C908A2
:102BE000494201EB810100EB4100FFF760FF2168E2
:102BF000029089B2CDE90015202318221E219220CF
:102C0000FFF755FE2068401C2060B0F5803F28BFCC
:102C10002560B84803B0BDE8F04000F0D6BC4FF0E6
:102C2000C0424FF400731380B34B198040F201216E
:102C3000118040F28F11081A1880704710B44FF0BD
:102C4000C04C4FF40474ACF80040AB4C208040F210
:102C50001120ACF800002280401CACF8000021805C
:102C6000401CACF80000238010BC704730B44FF01B
:102C7000C04C4FF40474ACF800409F4C208040F2EC
:102C80001125ACF8005010442080681CACF80000FE
:102C90002180401CACF800005818208030BC7047E0
:102CA00010B5FDF76BFA80B210BD10B54FF0C04201
:102CB0004FF400731380904B198040F20121118072
:102CC00040F28F11081A188040F202201080FDF7A0
:102CD00055FA80B210BD4FF0C0434FF4007CA3F80A
:102CE00000C0DFF814C2ACF8001040F201211980D6
:102CF00040F28F11081AACF8000040F20220188050
:102D0000ACF8002070472DE9FF4F81B0002411017D
:102D1000A1F500710E9E784D4FF4007B4FF0C04C32
:102D200040F2012840F28F1940F2022E00910099E2
:102D30000A19724911F802A0029A002102EB04025A
:102D4000C1F107072AFA07F717F0010F00EB010797
:102D5000ACF800B02A80ACF80080A9EB07072F8000
:102D6000ACF800E014BF2B802E80491C89B20829E2
:102D7000E6D3611C8CB2102CD9D305B0BDE8F08F1E
:102D80002DE9FF4F82B004990978002904BF06B0ED
:102D9000BDE8F08F4FF40078574B4FF0C04240F23F
:102DA000012940F28F1740F2022E00BFB0F59C7F40
:102DB00098BF039904D903990020103189B2039177
:102DC000E02901D90020039003990091049900247F
:102DD0000F9E0978059D0901A1F50071CDF8041039
:102DE00001EB040C454911F80CB0DDF800C00021DE
:102DF0000CEB040CC1F1070A2BFA0AFA1AF0010FC6
:102E000000EB010AA2F80080A3F800C0A2F800902D
:102E1000A7EB0A0AA3F800A0A2F800E014BF1D80E7
:102E20001E80491C89B20829E4D3611C8CB2102C85
:102E300038BF0199D4D304990830491C049109780A
:102E400080B20029B2D106B0BDE8F08F2DE9FF4F66
:102E500089B0074611461E466846DDF85880FDF7E2
:102E600021FD254C00254FF4007B4FF0C04C40F273
:102E7000012340F28F1940F2022E684600EB450014
:102E80001DF81510407840EA012A0A9800214219DD
:102E9000C1F10F002AFA00F010F0010F07EB01005A
:102EA000ACF800B02280ACF80030A9EB0000208024
:102EB000ACF800E018BF268022E00000AA820008DB
:102EC0000A8300086A830008CA8300082A8400086D
:102ED0008A840008EA8400084A850008AA85000858
:102EE0004A8200080A860008240600201F85EB514C
:102EF000CDCCCCCCFFFFAF00000002607C8A000884
:102F000008BFA4F80080481CC1B21029C0D3681CB7
:102F1000C5B2102DB1D30DB0BDE8F08F2DE9FF4F34
:102F200093B015980078002804BF17B0BDE8F08F63
:102F30004FF0C045514C40F2012B40F28F191398CD
:102F4000B0F5987F98BF149805D900201390149875
:102F5000103080B21490E02802D900201490139011
:102F6000DDE913800390DDE9151604A8209FFDF725
:102F700099FC00224FF4007340F2022C04A911F8CE
:102F8000120001EB4201497841EA002A039900202E
:102F900001EB0201C0F10F0E2AFA0EFE1EF0010F26
:102FA00008EB000E2B802180A5F800B0A9EB0E0ED7
:102FB000A4F800E0A5F800C014BF26802780401CBC
:102FC000C0B21028E6D3501CC2B2102AD6D315982E
:102FD000801C15901398103080B2139015980078CB
:102FE0000028ACD117B0BDE8F08F2DE9FF4F89B0B4
:102FF000074611461E466846FDF754FC1F4C00224A
:10300000EE464FF400794FF0C04C40F2012A40F2F6
:103010008F1840F2022B00BF0EEB42011EF8120087
:1030200049780A9B41EA002000219D18C1F10F0355
:1030300020FA03F313F0010F0BD07B18ACF80090CB
:103040002580ACF800A0A8EB03032380ACF800B007
:103050002680491CC9B21029E8D3501CC2B2102ADC
:10306000DAD30DB0BDE8F08FC0F34511C20AC0023B
:1030700000EB4110104480B2704700000000026075
:10308000C0F3C402C0F38521C0F3C440C00200EB0A
:103090004110104480B270472DE9F84F0746DDE932
:1030A0000A988A4615461E1E4FF0000498BFBDE8D8
:1030B000F88F00BFCDF8008007EBC40015F8012B96
:1030C00080B24B465146FFF71EFE601CC4B2A642BA
:1030D000F0D8BDE8F88F2DE9F05F144640F28F1765
:1030E0003A1A1D464FF0C04C4FF4047B4FF0000ECF
:1030F0001FFA82F8A4EB0009A3EB010AFE4B0A9E1B
:10310000A94240D14FF00300ACF8000041F2180092
:103110001880ACF800B0A3F800E040F21120ACF841
:1031200000004FF0EF00188040F21220ACF80000D1
:10313000A3F800E040F21320ACF800001F804FF429
:103140000070ACF80000198040F20120ACF80000DB
:10315000A3F8008040F20220ACF8000019F1010150
:1031600008BFBDE8F09F01F00100012808BF1E80E4
:10317000884228BFBDE8F09F1E801E80801C8842C8
:10318000FAD3BDE8F09F92BF1FFA8AF24A1B92B2AF
:10319000A04240D14FF00300ACF8000041F2100013
:1031A0001880ACF800B0A3F800E040F21120ACF8B1
:1031B00000004FF0EF00188040F21220ACF8000041
:1031C000A3F800E040F21320ACF800001F804FF499
:1031D0000070ACF80000198040F20120ACF800004B
:1031E000A3F8008040F20220ACF800001AF10101BF
:1031F00008BFBDE8F09F01F00100012808BF1E8054
:10320000884228BFBDE8F09F1E801E80801C884237
:10321000FAD3BDE8F09F06D3031BA0462F469BB20E
:1032200004460D4603E01FFA89F380460F46934299
:1032300016D1A04588BFBDE8F09F00BF08F101008E
:103240001FFA80F8AF428CBF781E781C87B23246D6
:1032500039464046FFF73FFDA045EFD9BDE8F09F56
:10326000BD4245D9934223D9C3EB420005B2500079
:103270000FFA80F9D01A40000FFA80FA444598BF3F
:10328000BDE8F09F08F101001FFA80F8002DB1BFE2
:1032900005EB0900781C87B205EB0A0005B232463F
:1032A00039464046FFF717FDA045EBD3BDE8F09F38
:1032B000C2EB430004B258000FFA80F9981A40009C
:1032C0000FFA80FA781C87B2002CB1BF04EB09001A
:1032D00008F101001FFA80F804EB0A0004B232463C
:1032E00039464046FFF7F7FCAF42EBD3BDE8F09F0D
:1032F0009A4223D2C3EB420005B250000FFA80F984
:10330000D01A40000FFA80FAA04528BFBDE8F09F10
:1033100008F101001FFA80F8002DB1BF05EB09008C
:10332000781E87B205EB0A0005B2324639464046A0
:10333000FFF7D1FCA045EBD3BDE8F09FC2EB430003
:1033400004B258000FFA80F9981A40000FFA80FA78
:10335000BD4228BFBDE8F09F781E87B2002CB1BFE8
:1033600004EB090008F101001FFA80F804EB0A00E1
:1033700004B2324639464046FFF7ADFCBD42EBD3BE
:10338000BDE8F09F2DE9F04F83B006460025141EDE
:103390004FF00300DDF830A0A0EB44000F46984644
:1033A0000FFA80F99CBF03B0BDE8F08FBAF1000FAF
:1033B00030D0381983B281B27019CDE90080A6EB04
:1033C000050B1FFA8BF280B2FFF785FE381B83B224
:1033D00081B201981FFA8BF2CDF8008080B2FFF71E
:1033E0007AFE781983B281B23019CDE90080A6EB5C
:1033F000040B1FFA8BF280B2FFF76DFE781B83B2CD
:1034000081B201981FFA8BF2CDF8008080B2FFF7ED
:1034100062FE43E0701907EB040B00901FFA8BF17A
:1034200080B24246FFF757FC1FFA8BF1A6EB050B63
:103430001FFA8BF04246FFF74EFC381B81B2019019
:103440000098424680B2FFF746FC0198424681B29E
:103450001FFA8BF0FFF73FFC301907EB050B0090CC
:103460001FFA8BF180B24246FFF735FC1FFA8BF151
:10347000A6EB040B1FFA8BF04246FFF72CFC781BDF
:1034800081B201900098424680B2FFF724FC019877
:10349000424681B21FFA8BF0FFF71DFC681C85B213
:1034A000B9F1000FBCBF09EB8500801D06DB601E73
:1034B00084B2A800A0EB840048440A300FFA80F9D7
:1034C000AC423FF673AF03B0BDE8F08F2DE9F8438F
:1034D0008146DDE908600F4615469846C0B1A9450A
:1034E00086BF14464D464C46AC4288BFBDE8F883C3
:1034F00043462246394601E000000260104600962D
:10350000FFF7E9FD601C84B2AC42F1D9BDE8F88355
:103510004A4610460096FFF7DEFD43462A46194606
:1035200048460096FFF7D7FD2A463B4641461046DF
:103530000096FFF7D0FD3B464A46194628460096BE
:10354000FFF7C9FDBDE8F8832DE9F8439446064628
:10355000604485B201EB0C00089A88461FFA80F996
:103560001F46AAB1AE4286BF2C4635463446AC4211
:1035700088BFBDE8F8834B46224641461046009777
:10358000FFF7A9FD601C84B2AC42F4D9BDE8F88312
:1035900032464B4610460097FFF79DFD4B462A46A4
:1035A000194630460097FFF796FD2A46434649469E
:1035B00010460097FFF78FFD4346324619462846CE
:1035C0000097FFF788FDBDE8F883002818BF401E6C
:1035D000FBD1704708B50178009143788278E2A169
:1035E000E448FEF750FF08BD2DE9F04794B01D46B2
:1035F000E1A10EA804F05AFCE149002003F062FAB0
:1036000001220EA9DF4803F06DFADF4C00212A46A3
:1036100020700846FCF7B9FD2178D648002918BF6C
:10362000DAA104D0FEF72FFF14B0BDE8F087DCA1CB
:103630008246FEF728FF13AB022203A9D14803F00C
:10364000EFFABDF80C00A0F59A41423906D0DAA194
:103650005046FEF718FF14B0BDE8F087DDA15046D4
:10366000FEF711FF13AB0C226946C64803F0D8FAE7
:10367000DEA15046FEF707FFE0A15046009AFEF794
:1036800002FFBDF80420E1A15046FEF7FCFEBDF8A4
:103690000620DEA15046FEF7F6FEDFA15046029A54
:1036A000FEF7F1FED0A15046FEF7EDFE13AB282247
:1036B00004A9B44803F0B4FADFA15046FEF7E3FED4
:1036C000E1A15046049AFEF7DEFEE4A15046059AB9
:1036D000FEF7D9FEE4A15046069AFEF7D4FEBDF8E7
:1036E0001C20E4A15046FEF7CEFEBDF81E20E6A148
:1036F0005046FEF7C8FEEBA15046089AFEF7C3FEFF
:10370000ECA15046099AFEF7BEFEF5A150460A9A72
:10371000FEF7B9FEF7A150460B9AFEF7B4FEFAA1E8
:1037200050460C9AFEF7AFFEFCA150460D9AFEF7EC
:10373000AAFEADA15046FEF7A6FEDDE90559BDF88B
:103740001E1001FB05F01F30C21700EBD2604011C4
:103750008600B6F5966F06DDF4A15046FEF793FE9F
:1037600014B0BDE8F08718293CBFFAA15046FFF419
:1037700059AF0027B9F1000FC8BFDFF8048428DD76
:103780000024002E0ADD00BF08EB040113AB012268
:103790007C4803F045FA641CA642F5DC0024002DA9
:1037A00014DD00BF04EB440008EB000118F8000032
:1037B0008A784978D208D202890842EA411141EA5E
:1037C000D000FFF771F8641CA542EBDC7F1C4F456D
:1037D000D6DBFFF73EF8EBA15046FEF754FE6948F2
:1037E00003F03FFC14B0BDE8F0872DE9F04F06462A
:1037F0001746ECA00C461A4699B090E82A108DE8BE
:103800002A1000F110010DF1100891E82A10A8E823
:103810002A1000F1200191E82A1088E82A10D0E946
:103820000C10CDE90C1000201890E01704EB9070FC
:1038300020F0030A04FB07F0A4EB0A0100EB4000B0
:103840000E91A2450FBF363000F136010E9807FBEE
:1038500000108DF80200010A8DF80310010C8DF89C
:103860000410000E8DF805008DF81240200A8DF826
:103870001300200C8DF81400200E8DF815008DF823
:103880001670380A8DF81700380C8DF81800380EAD
:103890008DF81900D1A10FA804F008FB38490020C9
:1038A00003F010F906220FA9364803F01BF9DFF8E0
:1038B000D89089F8000030B1082818BF4FF0FF30C9
:1038C00019B0BDE8F08F17AB362269462D4803F0DA
:1038D00081FA89F800004FF00008002F3DDDA24575
:1038E0004FF0000516D1002CC4BF08FB04F000EB1C
:1038F000400B2EDD05EB4500304400EB0B0117AB10
:103900000322204803F066FA6D1C89F80000AC42DF
:10391000F0DC1EE0002CC4BF08FB04F000EB400B01
:103920000FDD00BF05EB4500304400EB0B0117AB8A
:103930000322144803F04EFA6D1C89F80000AC42D3
:10394000F0DC17AB18A90F480E9A03F043FA89F878
:10395000000008F101084745C1DC0A4803F081FB7B
:1039600019B00020BDE8F08F2825642D25642D2591
:103970006429200000380140303A2573000000001F
:1039800064160020C41A00202806002066696C65B1
:10399000206F70656E206661696C210D0A00000061
:1039A0000D204F70656E2066696C652073756363CA
:1039B0006573730D0A00000066696C6520697320E9
:1039C0006E6F74202E626D702066696C65210D0A21
:1039D000000000004F6B2074686973206973202E0B
:1039E000626D702066696C650D0A0000CEBBCDBCAF
:1039F000CEC4BCFECDB73A0D0A000000CEC4BCFE5A
:103A0000B4F3D0A13A25640D0A000000B1A3C1F4BB
:103A1000D7D63A25640D0A00CAB5BCCACEBBCDBC08
:103A2000CAFDBEDDB5C4C6ABD2C6D7D6BDDACAFDA7
:103A30003A25640D0A000000CEBBCDBCD0C5CFA294
:103A4000CDB73A0D0A000000BDE1B9B9CCE5B5C467
:103A5000B3A4B6C83A25640D0A000000CEBBCDBCA5
:103A6000BFED3A25640D0A00CEBBCDBCB8DF3A25C8
:103A7000640D0A006269506C616E6573C6BDC3E671
:103A8000CAFD3A25640D0A006269426974436F7584
:103A90006E74B2C9D3C3D1D5C9ABCEBBCAFD3A256A
:103AA000640D0A00D1B9CBF5B7BDCABD3A25640D86
:103AB0000A000000626953697A65496D616765CAE9
:103AC000B5BCCACEBBCDBCCAFDBEDDD5BCD3C3B56B
:103AD000C4D7D6BDDACAFD3A25640D0A000000003D
:103AE00058B7BDCFF2B7D6B1E6C2CA3A25640D0ABF
:103AF0000000000059B7BDCFF2B7D6B1E6C2CA3A4E
:103B000025640D0A00000000CAB9D3C3B5C4D1D5DD
:103B1000C9ABCAFD3A25640D0A000000D6D8D2AA66
:103B2000D1D5C9ABCAFD3A25640D0A000A534F52DC
:103B300052592C2050494320495320544F4F204282
:103B4000494720283C3D4C43445F5853495A452936
:103B50000A000000534F5252592C20544849532018
:103B6000504943204953204E4F5420412032344283
:103B7000495453205245414C20434F4C4F520A0068
:103B8000B4110020446973706C61792068617320FE
:103B90006265656E2066696E6973686564210A0AEC
:103BA00000000000424D0000000000000000360050
:103BB00000002800000000000000000000000100DC
:103BC00018000000000000000000000000000000DD
:103BD000000000000000000000000000303A2573E3
:103BE0002E626D70000000002DE9F04F164699B06E
:103BF00082460C461A46AFF2540090E82A108DE82F
:103C00002A1000F1100104AF91E82A10A7E82A1049
:103C100000F1200191E82A1087E82A10D0E90C1061
:103C2000CDE90C1000201890E01704EB907020F004
:103C3000030904FB06F0A4EB090100EB40000E9120
:103C4000A1450FBF363000F136010E9806FB00107B
:103C50008DF80200010A8DF80310010C8DF8041094
:103C6000000E8DF805008DF81240200A8DF8130023
:103C7000200C8DF81400200E8DF815008DF81660BC
:103C8000300A8DF81700300C8DF81800300E8DF8C2
:103C90001900AFF2B8010FA804F008F9FE4900209E
:103CA00002F010FF06220FA9FC4802F01BFFDFF80C
:103CB000F08388F8000030B1082818BF4FF0FF30BB
:103CC00019B0BDE8F08F17AB36226946F34803F010
:103CD00081F888F8000022463146F2A004F0D6F8B8
:103CE0000027002E3DDDA1454FF0000517D1002C27
:103CF00034DD07FB04F000EB400000EB0A0B00BFD3
:103D000005EB45000BEB000117AB0322E34803F082
:103D100061F86D1C88F80000A542F1DB1EE0002C64
:103D200014DD07FB04F000EB400000EB0A0B00BFC2
:103D300005EB45000BEB000117AB0322D74803F05E
:103D400049F86D1C88F80000A542F1DB17AB18A9F3
:103D5000D2480E9A03F03EF888F800007F1CBE425D
:103D6000C1DCCE4803F07DF919B00020BDE8F08F2A
:103D70002DE9F04F90469DB082460C461A46AFF2B0
:103D8000DC1090E82A108DE82A1000F1100104AE32
:103D900091E82A10A6E82A1000F1200191E82A10E3
:103DA00086E82A10D0E90C10CDE90C1000201B90F9
:103DB000E01704EB907020F0030904FB08F0A4EB7B
:103DC000090100EB40000E91A1450FBF363000F114
:103DD00036010E9808FB00108DF80200010A8DF8DC
:103DE0000310010C8DF80410000E8DF805008DF8FD
:103DF0001240200A8DF81300200C8DF81400200EBC
:103E00008DF815008DF816804FEA18208DF81700F0
:103E10004FEA18408DF818004FEA18608DF8190025
:103E2000AFF248210FA804F041F89B49002002F0AE
:103E300049FE06220FA9994802F054FE984F3870A7
:103E400030B1082818BF4FF0FF301DB0BDE8F08F2B
:103E500017AB36226946914802F0BCFF0026387045
:103E6000B8F1000F6BDDA1454FF000052ED1002CFD
:103E7000C4BF06FB04F00AEB400B5DDD0BEB450015
:103E800017AB00880122C10AC9008DF86010C0F389
:103E900045118900C0008DF864108DF868001AA9DA
:103EA0007E4802F097FF387017AB012219A97B48B2
:103EB00002F090FF387017AB012218A9774802F082
:103EC00089FF6D1C3870AC42D8DC35E0002CC4BFD3
:103ED00006FB04F00AEB400B27DD00BF0BEB4500AF
:103EE00017AB00880122C10AC9008DF86010C0F329
:103EF00045118900C0008DF864108DF868001AA97A
:103F0000664802F067FF387017AB012219A96348B1
:103F100002F060FF387017AB012218A95F4802F069
:103F200059FF6D1C3870AC42D8DC17AB1BA95B483D
:103F30000E9A02F04FFF3870761CB04593DC57485C
:103F400003F08FF81DB00020BDE8F08F2DE9F04F91
:103F50009BB083460E4614469846AFF2B83090E8C0
:103F60002A10249A8DE82A1000F1100104AF91E87C
:103F70002A10A7E82A1000F1200191E82A1087E80A
:103F80002A10D0E90C10CDE90C1000201A9004FB87
:103F900008F000EB4000363004F0030108FB01009C
:103FA0008DF80200010A8DF80310010C8DF8041041
:103FB000000E8DF805008DF81240200A8DF81300D0
:103FC000200C8DF81400200E8DF815008DF8168049
:103FD0004FEA18208DF817004FEA18408DF81800A6
:103FE0004FEA18608DF81900AFF210410EA803F0E7
:103FF0005DFF2949002002F065FD06220EA9274831
:1040000002F070FD264F387030B1082818BF4FF00D
:10401000FF301BB0BDE8F08F16AB362269461F4853
:1040200002F0D8FE38704FF00009B8F1000F4FDDF4
:1040300014F0030F4FF0000551D0002C3BDDA8EB2E
:1040400009005844A0F1010AA8191FFA8AF180B2A8
:10405000FEF72BFEC10AC9008DF85C10C0F34511B4
:104060008900C0008DF860108DF8640016AB012245
:1040700019A90A4802F0AEFE387016AB012218A941
:10408000064802F0A7FE387016AB012217A90348B4
:1040900002F0A0FE38700BE064160020C41A002065
:1040A000280600202530642D2530640A0000000019
:1040B0006D1CA542C8DB04F0030216AB1AA9214807
:1040C00002F088FE87F8000009F10109C845AFDC5D
:1040D0001C4802F0C6FF1BB00020BDE8F08F002C8A
:1040E000F2DDA8EB09005844A0F1010AA8191FFA53
:1040F0008AF180B2FEF7D9FDC10AC9008DF85C10C3
:10410000C0F345118900C0008DF860108DF864007F
:1041100016AB012219A90B4802F05CFE387016ABF1
:10412000012218A9074802F055FE387016AB01228B
:1041300017A9044802F04EFE6D1C3870A542D5DB6D
:10414000C2E70000C41A002010B501F0E1FB012114
:10415000084600F0FDFD0121BDE810407C2000F084
:10416000F7BD2DE9F8432025ADF800501026DFF803
:1041700028948DF8036003278DF80270694648463D
:1041800000F0E9FBDFF814844824ADF800406946EC
:10419000404600F0E0FB2021484600F050FC48215A
:1041A000404600F04CFCADF80050FD4D8DF803404A
:1041B0006946284600F0CFFB0420ADF800008DF8DA
:1041C00003406946284600F0C6FB0820ADF8000011
:1041D0008DF803406946284600F0BDFB4020ADF84D
:1041E00000008DF803406946EE4800F0B4FB681407
:1041F000ADF800008DF802708DF803606946404606
:1042000000F0A9FB6914404600F01BFCBDE8F883F0
:10421000F0B583B04FF4C06000F0CEF917208DF8F0
:10422000080000248DF809408DF80A4001258DF81A
:104230000B5002A800F0C7F908278DF808708DF818
:1042400009408DF80A508DF80B5002A800F0BBF918
:1042500009208DF808008DF8094002208DF80A0029
:104260008DF80B5002A800F0AEF90521022000F0F5
:104270003AFC0221084600F036FC0321022000F03F
:1042800032FC20208DF804400C2600908DF805604B
:104290008DF80650684601F0C6FA04208DF80440F7
:1042A00000908DF805608DF80650684601F0BBFA65
:1042B0008DF804408DF8056000978DF8065068462B
:1042C00001F0B1FA03B0F0BD002818BF401EFBD1C9
:1042D00070472DE9F041B44E0027B44C7770307828
:1042E000AF4D012804D0022818D003282AD03DE081
:1042F0002021284600F08FFB002837D1641EFDD115
:104300002021284600F087FB80BB2021284600F0B2
:1043100082FB0028F9D00120707027E00421284694
:1043200000F079FB10BB641EFDD10421284600F08B
:1043300072FBD8B90421284600F06DFB0028F9D0A3
:10434000022012E00821284600F065FB70B9641EC7
:10435000FDD10821284600F05EFB38B90821284627
:1043600000F059FB0028F9D0032070703770BDE8C9
:10437000F0812DE9F8438E4DA5F10C04A560FFF7FF
:10438000A8FF60780126002701280ED1A178824875
:1043900011B1012905D030E0202100F052FBA670B8
:1043A00003E0202100F04BFBA7706078DFF8EC8180
:1043B00002280FD1E07810B1012806D01DE040217D
:1043C000404600F03EFBE67004E04021404600F02D
:1043D00036FBE770607803280FD1207910B10128EF
:1043E00006D00AE00821404600F02BFB267104E0CD
:1043F0000821404600F023FB27716E49A0688842DF
:1044000004BFA560BDE8F883411CA16000210090B5
:10441000F0234FF4C8720846FFF798FDBDE8F88313
:104420002DE9F04F83B001F073FA0121084600F046
:104430008FFC01217C2000F08BFC4FF4C06000F069
:10444000BBF817208DF8080000248DF809408DF87E
:104450000A4001258DF80B5002A800F0B4F8082698
:104460008DF808608DF809408DF80A508DF80B50D2
:1044700002A800F0A8F809208DF808008DF809407E
:1044800002208DF80A008DF80B5002A800F09BF86E
:104490000521022000F027FB0221084600F023FB43
:1044A0000321022000F01FFB8DF804404FF00C08A0
:1044B00020278DF8058000978DF80650684601F09A
:1044C000B2F98DF804404FF004098DF80580CDF85D
:1044D00000908DF80650684601F0A5F98DF804406B
:1044E0008DF8058000968DF80650684601F09BF91E
:1044F000ADF800701025DFF8A0A08DF803504FF044
:1045000003088DF802806946504600F024FADFF86F
:104510008CB04824ADF800406946584600F01BFABC
:104520002021504600F08BFA4821584600F087FAC7
:10453000ADF800701A4F8DF803406946384600F018
:104540000AFAADF800908DF803406946384600F04D
:1045500002FAADF800608DF803406946384600F075
:10456000FAF94020ADF800008DF8034069460D4887
:1045700000F0F1F96802ADF800008DF802808DF8C6
:1045800003506946584600F0E6F96902584600F0C3
:1045900058FA03B0BDE8F08F000C01400014014050
:1045A00000100140001801402C060020FFFF03000E
:1045B00038060020380800202A4940F0FD7040F0FD
:1045C00080600860704730B4C278017801234FF0F2
:1045D000E02C02B3234A12680F2502F4E062C2F510
:1045E000E062120AC2F1040425FA02F2457805FAE3
:1045F00004F485782A4022431B4C12010A550078A6
:1046000000F01F0103FA01F140090CEB8000C0F833
:10461000001130BC704701F01F0003FA00F0490997
:104620000CEB8101C1F8800130BC704721F07F01A3
:1046300021F0604108430D49086070470C4A002989
:10464000116814BF084321EA0000106070474FF062
:10465000E021042808690CBF40F0040020F00400A9
:10466000086170470CED00E000E400E008ED00E0B8
:1046700010ED00E001684FF6FE721140016000216C
:10468000016041608160C160684A6949904204BF2D
:10469000486840F00F0022D0664A904204BF486844
:1046A00040F0F0001BD0644A904204BF486840F4D8
:1046B000706014D0614A904204BF486840F4704072
:1046C0000DD05F4A904204BF486840F4702006D085
:1046D0005C4A904204BF486840F4700001D14860D1
:1046E0007047594A904204D1486840F07060486071
:1046F0007047564A111F904204BF086840F00F00EF
:1047000014D0534A904204BF086840F0F0000DD026
:10471000504A904204BF086840F4706006D04E4A88
:10472000904204BF086840F4704001D108607047AF
:104730004A4A904218BF7047086840F470200860E9
:10474000704710B40268D1F820C08B686FF30E1266
:1047500043EA0C03D1E904C44CEA040C43EA0C0319
:10476000D1F818C043EA0C03D1F81CC043EA0C038B
:10477000D1F824C043EA0C03D1F828C043EA0C0363
:104780001A430260CA6842600A6882604968C16070
:1047900010BC70470021016041608160C16001610F
:1047A00041618161C161016241628162704700299A
:1047B000016812BF41F001014FF6FE721140016025
:1047C0007047002A026814BF114322EA0101016008
:1047D000704741607047406880B27047002110F018
:1047E000805F14BF1E4A124A1268024218BF01219C
:1047F0000846704710F0805F19BF1A4908600C49DD
:1048000048607047002110F0805F14BF144A084AC6
:104810001268024218BF01210846704710F0805FFD
:1048200019BF1049086002494860704708000240FB
:10483000000002401C0002403000024044000240E0
:10484000580002406C000240800002400804024010
:104850001C04024030040240440402405804024058
:10486000000402400404024010B5A0F18041B1F5FB
:10487000843109D10121042000F07CFA0021BDE837
:104880001040042000F076BAA0F18041B1F58631E5
:1048900009D10121082000F06DFA0021BDE8104087
:1048A000082000F067BAA0F18041B1F5883109D144
:1048B0000121102000F05EFA0021BDE81040102018
:1048C00000F058BAA0F18041B1F58A3109D1012137
:1048D000202000F04FFA0021BDE81040202000F019
:1048E00049BAA0F18041B1F58C3109D101214020B4
:1048F00000F040FA0021BDE81040402000F03ABA34
:10490000A0F18041B1F58E3109D10121802000F064
:1049100031FA0021BDE81040802000F02BBAA0F150
:104920008041B1F5903118BF10BD0121080200F09F
:1049300021FABDE8104000214FF4807000F01ABA4F
:1049400010B50121084600F015FA0021BDE810401D
:10495000012000F00FBA2DE9F001CB78002203F01E
:104960000F0C13F0100F1CBF8B7843EA0C0C0B8854
:104970004FF00F0613F0FF0F4FF0010518BF04684A
:104980001AD000BF0F8805FA02F31F409F420FD1D3
:10499000970006FA07F824EA08040CFA07F73C43E4
:1049A000CF78282F08BF436102D0482F08BF03618A
:1049B000521C082AE6D304600A88FF2A87BF44688D
:1049C0000022BDE8F001704702F108030F8805FAE4
:1049D00003F31F409F420FD1970006FA07F824EA1D
:1049E00008040CFA07F73C43CF78282F08BF43612F
:1049F000CF78482F08BF0361521C082AE4D34460D3
:104A0000BDE8F00170474FF6FF710180022181700F
:104A10000421C17070470246002092680A4218BF04
:104A200001207047806880B2704702460020D2683B
:104A30000A4218BF01207047C06880B27047016108
:104A4000704741617047002A14BF0161416170479E
:104A5000C160704741F48032826181618261816905
:104A6000806970472B4A13684FF6807C03EA0C0379
:104A700043EA00100843106070472749C861704737
:104A800070B4244A10F0004F14BFD3695368C0F3C8
:104A900003444FF4401C3CEA00054FEA505C4FEAE7
:104AA0000C1C86B206FA0CFC16D010F4801F08BF4E
:104AB00023EA0C0303D0032505FA04F4A34343F0CF
:104AC0007063002918BF4CEA030310F0004F14BFB5
:104AD000D361536070BC7047546823F0706324F056
:104AE00070645460EDE78A0721F0030101F1804111
:104AF00001F58031120F0F23D1F808C093402CEA42
:104B000003038B608B6890401843886070470349AB
:104B1000086070470000014000002042DC00204295
:104B2000AA48016841F0010101604168A84A1140AA
:104B30004160016821F4102121F080710160016859
:104B400021F480210160416821F4FE0141604FF4AD
:104B50001F01816070479D490A6822F480320A6013
:104B60000A6822F480220A60B0F5803F04BF08681A
:104B700040F4803006D0B0F5802F06BF086840F4BE
:104B8000A020704708607047002243098F49012B1D
:104B900008BF096803D0022B0CBF096A496A00F0FC
:104BA0001F00012303FA00F0084218BF012210463B
:104BB0007047864A00200021136813F4003F18BF95
:104BC0000121401CB0F5A06F01D00029F3D010687E
:104BD00010F4003018BF012070477C490A6822F0A9
:104BE000F80242EAC000086070477A4908607047DE
:104BF000764A5368084323F47C1318435060704787
:104C000074490866704771494A6822F003021043EC
:104C1000486070476D48406800F00C0070476B4971
:104C20004A6822F0F00210434860704767494A68BA
:104C300022F4E06210434860704764494A6822F4F5
:104C4000605242EAC00048607047604A0029517AC9
:104C500014BF084321EA0000507270475E490860A3
:104C600070475A494A6822F44042104348607047EE
:104C70005649002281F8202081F82020012803D005
:104C800004280CBF0520704781F820007047534965
:104C9000086070474D490A6A1043086270475049DE
:104CA0000860704749494A6812F00C034D4A18BF22
:104CB000042B01D0082B01D0026015E04A684B6834
:104CC00002F470124FF0020C13F4803F0CEB92428E
:104CD00003D04B6813F4003F03D0434B5A430260A8
:104CE00002E0404B5A4302604A68404B02F0F00237
:104CF00012099A5CD0F800C02CFA02F24260D1F896
:104D000004C00CF4E06C4FEA1C2C13F80CC022FA1F
:104D10000CFCC0F808C0D1F804C00CF4605C4FEA89
:104D2000DC2C13F80C30DA40C2604968304B01F4D7
:104D30004041890B595CB2FBF1F101617047234A94
:104D40000029516914BF084321EA000050617047EF
:104D50001E4A0029916914BF084321EA00009061AE
:104D600070471A4A0029D16914BF084321EA00009C
:104D7000D0617047154A0029D16814BF084321EA61
:104D80000000D0607047114A0029116914BF084320
:104D900021EA0000106170471649086070470D490C
:104DA000C86470470949C87170470848416A41F0B2
:104DB000807141627047054A0146002092680A42AC
:104DC00018BF0120704701498872704700100240E7
:104DD0000000FFF800004242D800424280044242F4
:104DE0003C04424200127A0000093D003C080020C9
:104DF00038080020400442426448002101604160BC
:104E00008160C16041628162C162614A8263C16343
:104E100070475E4910B44A68037DD0F808C0C46882
:104E200043EA0C03D0F804C022F0FF024CEA040C61
:104E300043EA0C03D0F800C0006943EA0C0322F4F3
:104E4000FC4218431043486010BC704700210175B4
:104E5000016041608160C160016170474D49086037
:104E600070474A490A6822F003020A600A68104340
:104E7000086070474548006800F003007047434AE7
:104E80000029D16B14BF084321EA0000D0637047AA
:104E90004149086070473D4902688A60CA68D0E9A4
:104EA000013C43EA0C03D0E903C04CEA00006FF375
:104EB0000A0218431043C860704700210160416036
:104EC0008160C1600161704730480069C0B27047BD
:104ED0003249405870472D4902684A6242688A62E6
:104EE000CA6AD0E9023C43EA0C03D0E904C04CEAA8
:104EF000000022F0F70218431043C86270474FF0D9
:104F0000FF310160002141608160C1600161416148
:104F100070471E48006B7047214800687047204961
:104F2000086070471948806C70471E4908607047D8
:104F30001D49086070471D49086070471C4908609A
:104F400070471C49086070471B4908607047012181
:104F500021EA000019490860704719490860704744
:104F60000A4A01460020526B0A4218BF01207047CE
:104F7000064988637047054A01460020526B0A4281
:104F800018BF0120704701498863704700800140C5
:104F9000FF07C000A00030428C0530421480014061
:104FA00080800140A0053042A4053042A80530426F
:104FB000AC053042AC013042B0013042B401304265
:104FC000B801304210B5A0F18041B1F59C310AD151
:104FD00001218803FFF7CEFEBDE8104000214FF409
:104FE0008040FFF7C7BEA0F18041B1F588410AD1EA
:104FF00001214804FFF7C7FEBDE8104000214FF42F
:105000000030FFF7C0BEA0F18041B1F590410AD158
:1050100001218804FFF7B7FEBDE8104000214FF4DE
:105020008020FFF7B0BEA0F18041B1F598410AD1D0
:105030000121C804FFF7A7FEBDE8104000214FF48E
:105040000020FFF7A0BEA0F18041B1F5A04118BF3C
:1050500010BD01210805FFF796FEBDE810400021B4
:105060004FF48010FFF78FBE30B50446008A85B03C
:105070000D464CF6FF710840E98808432082A0895C
:105080004EF6F3110840A9882A8911436A89104312
:105090000843A081A08A4FF6FF410840A989084330
:1050A000A0826846FFF7FEFDA4F18040B0F59C3079
:1050B0000CBF03980298A18911F4004F00EBC001C6
:1050C00001EB0010296814BF49008900B0FBF1F022
:1050D000954A6FF0180CA2FB0031490909010B0930
:1050E00003FB0CF300EB8300A38913F4004F4FF094
:1050F000320314BF03EBC00003EB0010A2FB00203F
:105100004FEA501014BF00F0070000F00F000843F2
:10511000208105B030BD4FF416510160002181801F
:10512000C18001810C22428181817047028A4FF245
:10513000FF031A400B88B1F802C043EA0C03B1F830
:1051400004C0C9884CEA0101194311430182704728
:105150000021018041808180C180704700298189C0
:1051600014BF41F4005121F4005181817047C1F313
:10517000421301F01F014FF0010C0CFA01F1012B59
:1051800008BF0C3003D0022B0CBF10301430002AA3
:10519000026814BF114322EA010101607047002A2E
:1051A000828A14BF114322EA010181827047028A78
:1051B00022F00F020282028A114301827047828923
:1051C00022F4006282818289114381817047002923
:1051D000818914BF41F0020121F0020181817047F1
:1051E000028A22F020020282028A11430182704761
:1051F0000029018A14BF41F4804121F480410182D9
:105200007047C1F30801818070478088C0F30800AF
:105210007047818941F0010181817047028BD2B2D0
:105220000283028B42EA012101837047028B02F460
:105230007F420283028B1143018370470029818AD8
:1052400014BF41F0200121F0200181827047002924
:10525000818A14BF41F0100121F010018182704752
:105260000029818A14BF41F0080121F008018182E0
:1052700070470029818914BF41F40041C1F30E0138
:10528000818170470029818A14BF41F4006121F4B3
:10529000006181827047828A22F004028282828ABF
:1052A0001143818270470029818A14BF41F00201B5
:1052B00021F00201818270470246002012880A42D2
:1052C00018BF01207047C9430180704710B401F036
:1052D0001F0201240023C1F3421C04FA02F2BCF1B4
:1052E000010F04BFB0F80CC00CEA020208D0BCF1F8
:1052F000020F0CBFB0F810C0B0F814C00CEA0202E4
:10530000090A008804FA01F10840002A1CBF00289D
:105310000123184610BC7047090A012202FA01F164
:10532000C9430180704700001F85EB514FF02042B8
:1053300002EB8001002807BF43F2DB00106043F25C
:10534000D20008606FF070404860C1F804017047F7
:1053500040234FF0180C4FF020414FF0FC32102842
:1053600008D0C1F880C0C1F88430C1F88820C1F8E5
:105370008C207047C1F860C04B668A66CA66704769
:10538000FA48182101604FF0000141604FF0FC31F4
:105390008160C1600161704710B4D0E9011211430E
:1053A000D0E903231A431143426903681143826918
:1053B0001143C2691143026A1143426A1143826A6E
:1053C0001143C26A1143026B11434FF0204242F86D
:1053D00023108168082906D1016802EB81010B685E
:1053E00043F040030B60416BD1E9003C43EA0C13EE
:1053F000D1F808C0CC684FEA0C2C4CEA044C43EAC4
:105400000C03D1F810C043EA0C53D1F814C08969D9
:1054100043EA0C631943036802EB83035960C16AD2
:10542000B1F5804F08D000686FF0704102EB80004A
:10543000C0F8041110BC7047816B0068D1E9003CD2
:1054400043EA0C13D1F808C00C694FEA0C2C4CEA63
:10545000045C43EA0C03D1F814C0896943EA0C6385
:1054600002EB80001943C0F8041110BC704710B45F
:10547000D0E901121143D0E903231A4311434269D1
:1054800041EA4221826941EA423141F00802C169A0
:10549000D1E9003C43EA0C23D1F808C0C9684FEABF
:1054A0000C4C4CEA01610B43016AD1E900C44CEA9F
:1054B000042C8C68C968240444EA01614CEA0101A7
:1054C000D0F800C04FF02040BCF1100F07D0C0F85A
:1054D0008020C0F88830C0F88C1010BC704702667D
:1054E0008366C16610BC7047D0E9001241EA4221D0
:1054F0008268102343EA42320A439C490A60C26828
:10550000D2E9003C43EA0C23D2F808C0D2684FEA43
:105510000C4C4CEA026243EA02028A600269D2E958
:10552000003C43EA0C23D2F808C0D2684FEA0C4C86
:105530004CEA026243EA0202CA604069D0E90023F1
:1055400042EA03228368C0684FEA034343EA0060EB
:1055500042EA00000861704700210222C0E90012FF
:105560008160C160016141618161D202C161C0E9B4
:1055700008125200C0E90A210163436B0F221A602E
:10558000436B5A60D0F834C0FF23CCF80830D0F811
:1055900034C0CCF80C20D0F834C0CCF81020D0F8AF
:1055A00034C0CCF81420D0F834C0CCF81810D0F89F
:1055B00038C0CCF80020D0F838C0CCF80420D0F89F
:1055C00038C0CCF80830836BDA60836B1A61836B68
:1055D0005A61806B81617047102101600021416038
:1055E0008160C160016141618161C269FC2111601A
:1055F000C2695160C2699160C269D160026A11607A
:10560000026A5160026A9160006AC16070470021BD
:10561000016041608160C268FC211160C268516014
:10562000C2689160C268D16002691160026951600C
:10563000026991600269D1604269116042695160FA
:10564000426991604069C16070474FF0204202EBAF
:1056500080000029016812BF41F00101444A114055
:10566000016070474FF0204259B110280CBF106EF6
:10567000D2F8800040F004000CD000BFC2F88000D7
:1056800070473C49102814BFD2F88000106E00EA21
:105690000100F3D1106670474FF020410028D1F887
:1056A000A00012BF40F00400324A1040C1F8A00030
:1056B00070474FF0204251B110280CBF106ED2F845
:1056C000800040F040000BD0C2F8800070472A49AB
:1056D000102814BFD2F88000106E00EA0100F3D148
:1056E000106670474FF0204110280CBF486FD1F86A
:1056F000940070474FF020438AB1102804BF586EC1
:1057000008431ED0B0F5807F0CBFD3F88400D3F8D7
:10571000A40040EA010011D0C3F8A400704710288B
:1057200004BF586E88430CD0B0F5807F0CBFD3F80F
:105730008400D3F8A40020EA0100EDD1C3F884006E
:1057400070475866704700234FF02042102808BF6A
:10575000506E06D0B0F5807F0CBFD2F88400D2F82E
:10576000A400084218BF012318467047A00000A0FB
:10577000FEFF0F00FBFF0F00BFFF0F004FF02042A6
:10578000102808D0B0F5807F09D0D2F8A400884353
:10579000C2F8A4007047506E884350667047D2F834
:1057A00084008843C2F88400704700224FF02043F1
:1057B000102808BF586E06D0B0F5807F0CBFD3F814
:1057C0008400D3F8A400084200EAD1001CBF0028DE
:1057D0000122104670474FF02042102809D0B0F542
:1057E000807F0BD0D2F8A40020EAD100C2F8A40038
:1057F0007047506E20EAD10050667047D2F884009E
:1058000020EAD100C2F88400704700003B49002024
:105810000860091D0860091D0860091D08603949F4
:1058200037480860704782790168002A35D0334ACA
:10583000136823EA01011160111D0A6803689A4385
:105840000A60017901F1804101F582310A6803683B
:105850001A430A602C4B1968026891431960191D9C
:105860000A68D0F800C022EA0C020A604279102AC5
:1058700008D002F1804202F58232116800680843C4
:10588000106070471A68D0F800C042EA0C021A6033
:105890000A680068104308607047007900F1804092
:1058A00000F58230026822EA0101016070470021A0
:1058B000016001710C2242718171704713490A68BD
:1058C0001043086070470F4A0146002012680A42E0
:1058D00018BF012070470B4908607047074A002134
:1058E0001268084B02401B6803421CBF002A0121BA
:1058F00008467047034908607047000000040140F3
:10590000FFFF0F001404014008040140100401408F
:105910004749086840F0010008604868454A10405F
:105920004860086820F4102020F080700860086843
:1059300020F480200860486820F4FE0048604FF49E
:105940001F0088600A68002042F480320A600A68FA
:1059500000F1010012F4003F02D1B0F5A06FF6D1C2
:10596000086810F4003F31D03348026842F010025A
:105970000260026822F003020260026842F0020242
:1059800002604868486048684860486840F4806041
:105990004860486820F47C104860486840F4E8108B
:1059A0004860086840F080700860086810F0007F68
:1059B000FBD0486820F003004860486840F00200CF
:1059C0004860486800F00C000828FAD11B494FF0E5
:1059D00000600860704716494868194A10F00C03C7
:1059E000184818BF042B01D0082B01D0026015E025
:1059F0004A684B6802F470124FF0020C13F4803FB7
:105A00000CEB924203D04B6813F4003F03D00E4BD3
:105A10005A43026002E00A4B5A43026049680B4A4B
:105A2000C1F30311515C026822FA01F10160704771
:105A3000001002400000FFF80020024008ED00E0E6
:105A400000127A004C08002000093D005008002098
:105A5000B2F1004FA2F1010202F1010309D3002BC0
:105A600008BF704711F8013B00F8013B521EF9D204
:105A70007047002BD8BF7047491E401E12F0010F1F
:105A800003D111F8013F00F8013F521C521008BF2A
:105A900070474B78437011F8023F00F8023F521EE6
:105AA000F7D170472DE9F041C56A0F460446BD4263
:105AB0002FD02079F0B1607801232A4604F130011B
:105AC00002F01CF910BB00202071D4E90710084433
:105AD000A84284BFE678012E0CD9E0690123054471
