:020000040800F2
:10000000A8DD002045010008DD1D0008DF1D0008F7
:10001000E11D0008E31D0008E51D000800000000C8
:10002000000000000000000000000000E71D0008C4
:10003000E91D000800000000EB1D0008ED1D000890
:100040005F0100085F0100085F0100085F01000810
:100050005F0100085F0100085F0100085F01000800
:100060005F0100085F0100085F0100085F010008F0
:100070005F0100085F0100085F0100085F010008E0
:100080005F0100085F0100085F0100085F010008D0
:100090005F0100085F0100085F0100085F010008C0
:1000A0005F0100085F0100085F0100085F010008B0
:1000B0005F0100085F0100085F0100085F010008A0
:1000C0005F0100085F0100085F0100085F01000890
:1000D0005F0100085F0100085F0100085F01000880
:1000E0005F0100085F0100085F0100085F01000870
:1000F0005F0100085F0100085F0100085F01000860
:100100005F010008F11D00085F0100085F010008A1
:100110005F0100085F0100085F0100085F0100083F
:100120005F0100085F0100085F0100085F0100082F
:10013000DFF80CD005F082FF00480047A10200085C
:10014000A8DD00200648804706480047FEE7FEE796
:10015000FEE7FEE7FEE7FEE7FEE7FEE7FEE7FEE777
:1001600095410008310100084FF0C04108807047F8
:100170004FF0C042108046480180704744480188D3
:10018000008870474249088070472DE9F0410121FD
:1001900098B0080203F097FA01217C2003F09CFA42
:1001A0004FF40050ADF8580003253A4F8DF85A50DF
:1001B00010248DF85B4016A9384603F090F8DFF85C
:1001C000D8800226ADF8586016A9404603F087F89B
:1001D0004CF23370ADF858008DF85A5018208DF855
:1001E0005B0016A9384603F07AF84FF68070ADF838
:1001F000580016A9404603F072F88020ADF8580068
:1002000016A9384603F06BF8E001ADF8580016A9BE
:10021000384603F064F86102384603F0D4F8002051
:100220000521CDE910012106CDE9140112901390AA
:1002300008210090CDE90101CDE903400690490273
:100240000790CDE908010A900B900C900FA8CDE91A
:100250000E060D90684603F063FD0121002003F0B7
:10026000B8FE18B0BDE8F08170B50B4C02212046F5
:1002700003F0ABF8094D284602F05DFE022120464E
:1002800003F0A1F82846BDE8704002F054BE00001B
:10029000000002600014014000180140FFFFAF00A1
:1002A00082B001F0C7FD01F0A5FD01F0B1FE00F044
:1002B00051F800F068F84FF6FF740020CDE9000413
:1002C0000E230EA21E21142002F09CFB00230FA27D
:1002D0006421C820009402F071FA1F2400230CA2AC
:1002E000C8216420009402F0CFFA00230E4A3C217A
:1002F0003220009402F0FCF9FEE700004141414148
:10030000414141414141414141000000BAC3000027
:10031000BAC7BAC7A3ACF1D2CDA4C7BFC4E3D5E670
:10032000C5A3B1C6000000000000002008B54FF4CE
:10033000C06002F005FE31208DF8000000208DF82D
:1003400001008DF8020001208DF80300684602F0DC
:10035000FEFD08BD08B54FF4C06002F0F1FD31208C
:100360008DF8000000208DF801008DF802000120BA
:100370008DF80300684602F0EAFDBDE808409C499C
:10038000002004F0E4BDF8B500259AA005F094FE25
:100390004FF4C06002F0D4FD31208DF8000000263B
:1003A0008DF801608DF8026001278DF803706846B2
:1003B00002F0CDFD002005F091FD8D49002004F0F4
:1003C000C6FD062298A19C4804F0D1FD9B4C2070EC
:1003D0009BA005F071FE207850B904F108037A0261
:1003E000191D954805F009F92070934805F0D3FAD6
:1003F00001228DA1904804F0BAFD207097A005F06D
:100400005BFE9FA0C4E9016705F056FE4FF400763D
:100410004FF40071A04805F0EEFD9F499F4B4FF44B
:100420000072A1F50970666004F0F3FF20709A492C
:100430009BA005F041FE20786D1C10B9A068002833
:10044000E6D1294698A005F037FEBDE8F8407A4885
:1004500005F0A1BA70B516468EB00D46024694A1BD
:10046000684605F039FE6249002004F070FD06225E
:100470006946714804F07BFD704C207028B1082853
:1004800018BF4FF0FF300EB070BD844B3246294686
:10049000694805F0B2F82070674805F07CFA0EB0A4
:1004A000002070BD70B516468EB00D46024680A184
:1004B000684605F011FE4E49002004F048FD022276
:1004C00069465D4804F053FD5C4C207028B1042857
:1004D00018BF4FF0FF300EB070BD704B324629464A
:1004E000554805F08AF82070534805F054FA0EB0CC
:1004F000002070BDF0B58FB00E46024600256CA1FD
:10050000684605F0E9FD4FF4C06002F019FD3120A6
:100510008DF8340000208DF835008DF8360001206C
:100520008DF837000DA802F012FD3149002004F0CB
:100530000EFD2F49002004F00AFD012269463E48C5
:1005400004F015FD3D4C002820700FBF4FF40077DC
:100550004FF0FF300FB0F0BD4FF400714E4805F082
:100560004AFD4D494D4B4FF40072A1F5097067608B
:1005700004F04FFF207006EB4520474A4EA105F0DE
:10058000ABFD20786D1C10B9A0680028E4D10FB035
:100590000020F0BD70B5064608784978B038C0EB49
:1005A000001202EB401001EB40004001A0F5A15504
:1005B0000F49002004F0CBFC012240A11E4804F0AA
:1005C000D6FC1E4C002820701CBF4FF0FF3070BDC1
:1005D0002946194805F0E8F9304B202231461648E3
:1005E00004F017FF2070144805F0D5F9002070BD05
:1005F0005C0400200D0A20D5E2CAC7D2BBB8F64D74
:100600006963726F5344BFA8CEC4BCFECFB5CDB3EF
:10061000B2E2CAD4CAB5D1E9284641544653205261
:10062000302E3039290A0000303A2F6D795F5F444F
:10063000656D6F2E54585400BC0800200002002045
:100640000D0A206D795F5F44656D6F2E54585420FC
:1006500020B4B4BDA8B3C9B9A60A00000D0A206D24
:10066000795F5F44656D6F2E54585420D2D1B4E643
:10067000D4DAA3ACB4F2BFAAB3C9B9A60A00000089
:10068000B6C1C8A1B4B4BDA8B5C4545854CEC4BCF6
:10069000FE202D2D2D2D0A00E00A0020080200204A
:1006A0000D0A202573200A000D0A20256420000071
:1006B000303A25730000000025730000303A2F48BF
:1006C0005A4C49422E62696E0000000038B5002085
:1006D00003F088F8002003F088F803F051F80021B7
:1006E0004FF4806002F0EFFF4FF4F850ADF80000D7
:1006F00004248DF803406946F84802F0F0FDADF897
:1007000000406946F64802F0EAFD38BD08B54FF4EE
:10071000C06002F015FC31208DF8000000208DF83B
:1007200001008DF8020001208DF80300684602F0F8
:100730000EFC08BD2DE9F14F002782B0384603F0CA
:100740008BF810F0007F1EBF0E2003B0BDE8F08FC5
:100750000024E44D009708200197286010204FF0F6
:100760004008C5E901084FF48069C5E903792846C6
:1007700003F055F8DC4E706B10F0450FFBD040F2E3
:10078000FF5AC6F838A07069DFF860B300EA0B00C2
:1007900010F0FF001CBF03B0BDE8F08FD4488068A4
:1007A000000428603720C5E90108C5E90379CD4870
:1007B00003F035F8706B10F0450FFBD0C6F838A089
:1007C000706900EA0B0010F0FF001CBF03B0BDE829
:1007D000F08F4FF0FF31C7480160082141603021A0
:1007E00081600221C0E903170121416103F037F85C
:1007F0003320C5E90070C5F81090C5E90287B948F3
:1008000003F00DF8706B10F0450FFBD040F2FF5075
:10081000B063716911F008001CBF03B0BDE8F08F30
:10082000706B40F22A6A10EA0A0F08BFEB460FD13C
:100830004FF4001003F058F830B103F031F84BF8E2
:100840002400641C012C03D8706B10EA0A0FEFD04F
:10085000082003F049F830B1082003F04DF803B048
:100860000420BDE8F08F022003F03EF830B10220F2
:1008700003F042F803B00220BDE8F08F202003F01F
:1008800033F830B1202003F037F803B00620BDE87C
:10089000F08F4FF4007003F027F838B14FF4007078
:1008A00003F02AF803B00720BDE8F08F40F2FF50B4
:1008B00003F022F800980299062400BA012938D0E2
:1008C00010F4803F66D08A48806800042860372092
:1008D000C5E90108C5E90379824802F0A0FF706B01
:1008E00010F0450FFBD040F2FF5AC6F838A07069EF
:1008F000DFF8F8B100EA0B0010F0FF001CBF03B0F6
:10090000BDE8F08FC5E90074C5F81090C5E902870D
:10091000744802F084FF706B10F0450FFBD000BFED
:10092000C6F838A0706903B000EA0B00C0B2BDE899
:10093000F08F10F4802F2DD06D488068000428605F
:100940003720C5E90108C5E90379664802F067FF69
:10095000706B10F0450FFBD040F2FF5AC6F838A07C
:100960007069DFF888B100EA0B0010F0FF001CBFCF
:1009700003B0BDE8F08F0220C5F81090C5E900046F
:10098000C5E90287574802F04AFF706B10F0450F27
:10099000FBD0C5E703B02520BDE8F08F2DE9F0417D
:1009A0000146534800264068032813D000281CBF86
:1009B000012802282BD1B1F5805F0BD0002401273C
:1009C0004D4DB1F5006F08D00020FFF7B3FE0600D3
:1009D00014D01CE02720BDE8F0810120FFF7AAFE1B
:1009E000060014D12F752C604FF400606C60C5E9CF
:1009F000024041482C6102F0D0FE08E02F752C60C7
:100A00006C60AC60EC603C482C6102F0C6FE304685
:100A1000BDE8F081334910B50860072048604020E8
:100A200088600020C8604FF480600861084602F0CA
:100A3000F6FE2D48416B11F0450FFBD040F2FF51FF
:100A40008163406900F0080010BD2DE9F0032849DA
:100A50002A4C4F6880F84E708968A0F84C102168C5
:100A60000A0E93090370C2F38303437002F003027A
:100A700082700A0CC2700A0A02714171D4F804C073
:100A80004FEA1C610901C180C288CCF3074142EAE8
:100A90001112C28001F00F010172CCF30721CA09C3
:100AA0004272C1F380128272C1F34012C272C1F36A
:100AB000001202730026467322460125D2F80880F0
:100AC000002F4FEA1862C8F30743C8F3072918BF7D
:100AD000012F15D0022F40D052E00000001001403D
:100AE00000140140780D00200080014008E0FFFD67
:100AF0000C0400208C0D0020600D0020E00C002074
:100B00008907090D01610CF0FF01D0F810C04CEA13
:100B100081010161016941EA92110161C2F3C201DF
:100B2000017502F00701417559098175C3F382010E
:100B3000C1759907490F0176027E494642EAD112F2
:100B400002760269037E521C9B1C9A40037A05FAC6
:100B500003F35A438364426412E04FEA8C61890ACA
:100B60000161016941EA02210161016919430161E1
:100B700002694946521CD20442644FF400728264F6
:100B8000C1F3801242768906490E8176827E08F092
:100B9000FF0142EAD112827601F07F01C176E2685C
:100BA000110ECB090377C1F341134377C1F38203DD
:100BB00083778907090FC177C37FC2F3074143EAEF
:100BC0009113C377C1F3401380F8203080F821607F
:100BD00001F0010180F82210C2F30721CB0980F84F
:100BE0002330C1F3801380F82430C1F3401380F820
:100BF0002530C1F3001380F82630C1F3810380F85B
:100C0000273001F0030180F82810C2F3460180F874
:100C1000291080F82A50FE4A11680B0E80F82C30FB
:100C2000C1F307431B02C385B0F82EC0C1F30723ED
:100C30004CEA0303C385090601635168D0F830C04C
:100C40000B0E4CEA03430363D0F830C0C1F30743F3
:100C50004CEA03230363D0F830C0C1F307234CEA06
:100C60000303036380F8341091680B0E80F835306D
:100C7000C1F307431B068363D0F838C0C1F30723D1
:100C80004CEA03438363836BC9B243EA0121816366
:100C9000D168836B43EA1162826390F83C30C1F300
:100CA000074243EA121380F83C301207120DC28744
:100CB000C38FC1F307221A43C287C1F3460180F8EC
:100CC000401080F841503046BDE8F00370472DE9F0
:100CD000F84F0120ADF8000002F090FD002804BF9D
:100CE0002520BDE8F88FCB4F7868042800F0CE802F
:100CF000C94C4FF0C00A00260220C4F808A0C4E97D
:100D000000604FF48068C4E90368204602F087FD64
:100D1000C24D686B10F0450F03D1686B10F0450FA2
:100D2000FBD010F0040F7CD110F0010F7AD140F20B
:100D3000FF5002F0E1FD002002F08EFDDFF8D092BE
:100D4000C9F80000042002F087FDC9F8040008205B
:100D500002F082FDC9F808000C2002F07DFDC9F800
:100D60000C007868002818BF012803D0062818BF97
:100D7000022847D10320C4E900604020C4F8108055
:100D8000C4E90206A44802F04AFD686B4FF0030B69
:100D9000E94610F0450F03D1686B10F0450FFBD00A
:100DA00010F0040F1CBF0324042002D002F0A4FDA5
:100DB00020E010F0010F1CBF01242046F6D102F004
:100DC00047FD584515D140F2FF5002F095FD002037
:100DD00002F042FD10F4604F04BF000CA9F80000BF
:100DE00010D010F4005F18BF132403D110F4804F0B
:100DF00003D010242046BDE8F88F10F4004F18BF30
:100E00000F24F7D17868042840D0BDF80000B860FE
:100E1000000420600920C4E9010AC4E903687E488F
:100E200001E00DE016E002F0FAFC686B10F0450FEF
:100E300003D1686B10F0450FFBD010F0040F06D003
:100E40000324042002F058FD2046BDE8F88F10F07E
:100E5000010F06D00124204602F04EFD2046BDE8D9
:100E6000F88F40F2FF5002F047FD002002F0F4FC42
:100E70006B4C2060042002F0EFFC6060082002F060
:100E8000EBFCA0600C2002F0E7FCE0600020BDE875
:100E9000F88F2DE9F05F4FF000096248B2214F460C
:100EA0000175C0F80090C0F80490C0F80890C0F830
:100EB0000C90CB464D46C0F8109002F06EFC03201B
:100EC00002F093FC012002F08DFC534C4FF4806A39
:100ED000204625606560A560C4E9035A02F09FFCC6
:100EE0004FF48036802002F0FFFC00284ED0002E08
:100EF0004ED040F2FF5002F0FFFC4FF4D57020605E
:100F000008204026C4E90106C4E9035A424802F019
:100F100086FCDFF80881B002D8F8341011F0450FD4
:100F200039D010B111F0040F3AD0042002F0E4FCE3
:100F30003720C4E90050C4F810A0C4E9026536485F
:100F400002F06DFCD8F8340010F0450FFAD040F2F2
:100F5000FF50C8F83800D8F814002F483724C0E9EB
:100F60000054C0F810A0C0E9026502F058FC4046E9
:100F7000416B11F0450FFBD040F2FF528263436991
:100F800029490B4013F0FF086BD05AE0761EA9D117
:100F90000320BDE8F09F002818BF401EBCD1C4E765
:100FA00011F0400F1CBF402002F0A6FC012119489F
:100FB0004FF0804B4160D0E74FF000083720C5E983
:100FC00000804FF48069C5F81090C5E902681248A6
:100FD00002F025FC606B10F0450FFBD040F2FF5093
:100FE000A063616911F0080018BFBDE8F09F2920D7
:100FF000291DC5F800B0A1E84103074802F00FFC25
:10100000606B4FF0000810F0450F12D1606B0DE0DF
:10101000F00C00200C040020780D0020008001401E
:10102000E00C0020600D002008E0FFFD10F0450FEF
:10103000ECD010F0040F07D04FF00308042002F0AA
:101040005BFC4046BDE8F09F40F2FF5002F054FCCC
:10105000002002F001FC8146C00F07F1010708D013
:1010600009E0FE4D4BF4801B4BF0004B04464FF65D
:10107000FF7A5745A0D3574524BF1B20BDE8F09FFA
:1010800019F0804FDDD0F64802214160D9E738B52C
:101090000121302002F020FB4FF4F850ADF80000A1
:1010A00003208DF8020018208DF803006946ED48F2
:1010B00002F015F90420ADF800006946EA4802F094
:1010C0000EF90121880202F0FEFA0121022002F04D
:1010D000FAFA02F055FBFFF7DCFE002818BF38BD16
:1010E000FFF7F5FD002818BF38BD0121DF480024B7
:1010F0000175046044608460C460046102F04DFBCB
:10110000DB48FFF7A2FC002818BF38BDD848B0F86C
:101110004C000104D1480160072141604021C0E931
:1011200002140901016102F07AFBD248416B11F00F
:10113000450FFBD040F2FF518163406910F0080079
:1011400018BF38BD4FF40060BDE8384026E40246C1
:10115000C348C84980680004886040F24D40C860B8
:10116000486B10F0450FFBD040F2FF508863486990
:1011700010F0080004BF496911607047B8488068E2
:101180000104BC48816040F24D41C160416B11F0E7
:10119000450FFBD040F2FF518163416911F0080F08
:1011A00012BFFF204069C0F343207047AC488068FD
:1011B0000104B048816040F24D41C160416B11F0C3
:1011C000450FFBD040F2FF518163416911F0080FD8
:1011D0000AD14069C0F34320042804BF00207047AF
:1011E000FF281CBF012070470220704710B5002463
:1011F000204602F0FAFA204610BD2DE9F05F0446C1
:10120000002002F029FB10F0007F1CBF0E20BDE87B
:10121000F09F4027914E10204FF4806AC6E900707D
:101220004FF00008C6F810A0C6E90278304602F078
:10123000F6FA904D686B10F0450FFBD040F2FF5B63
:10124000C5F838B06869DFF8309200EA090010F09C
:10125000FF0018BFBDE8F09F8148311D8068000481
:1012600030603720A1E881057C4802F0D8FA686B2D
:1012700010F0450FFBD0C5F838B0686900EA0900E6
:1012800010F0FF0018BFBDE8F09F4FF0FF317B4822
:10129000C0E90017602181600221C0E90318012123
:1012A000416102F0DCFA0D20C6E90080C6F810A00A
:1012B000C6E90278694802F0B2FA686B10F0450F8F
:1012C000FBD0C5F838B0686900EA090010F0FF07E4
:1012D0001CBF3846BDE8F09F686B40F22A6810EAF0
:1012E000080F13D14FF4004002F0FEFA002818BF97
:1012F000002607D002F0D4FA44F82600761C082E07
:10130000F8D32034686B10EA080FEBD0082002F005
:10131000EBFA28B1082002F0EFFA0420BDE8F09FB4
:10132000022002F0E1FA28B1022002F0E5FA0220E0
:10133000BDE8F09F202002F0D7FA28B1202002F06B
:10134000DBFA0620BDE8F09F4FF4007002F0CCFA03
:1013500030B14FF4007002F0CFFA0720BDE8F09FE3
:101360004FF4001002F0C0FA20B102F099FA44F8EC
:10137000040BF5E740F2FF5002F0BEFA3846BDE834
:10138000F09F10B504463E48FFF737FF010018BF35
:1013900010BD3B480278920922700278C2F34012D5
:1013A0006270827812026280C27863881A43628017
:1013B0000279120662604279636843EA024262601F
:1013C0008279636843EA02226260C27963681A43E1
:1013D0006260027A2272427A6272827A1209A27280
:1013E000C27A1202A281027BA3891A43A281427BA4
:1013F0009208A273407B00F00300E073084610BD22
:101400002DE9F74F16488CB0002588461746057021
:101410000561C560174CE5624068022804BF4FF4BF
:1014200000774FEA51280D4E4FF0400B1020C6F8C0
:1014300008B0C6E900708001C6E90350304602F0EA
:10144000EEF9606B10F0450FFBD040F2FF59C4F885
:1014500038906069DFF820A014E00000780D0020CB
:101460000C0400200010014000140140600D002019
:10147000100D00200080014008E0FFFD8C0D0020D1
:10148000000D002000EA0A0010F0FF001CBF0FB0A2
:10149000BDE8F08F4FF0FF31FE48C0E90017902102
:1014A00081600221C0E903150121416102F0D7F9F1
:1014B0001120C6F808B0C6E900804FF48060C6E984
:1014C0000350F54802F0ABF9606B10F0450FFBD00C
:1014D000C4F83890606900EA0A0010F0FF001CBFF1
:1014E0000FB0BDE8F08F0121080202F08CF9012055
:1014F00002F092F9E9480C9C01F040FEE84E002110
:10150000304601F018FEE748CDE90004B808CDE9FF
:1015100002508020CDE90450800006908000CDE983
:1015200007058000CDE909056946304601F0CDFD8B
:101530000121304601F0FFFD0FB02846BDE8F08FD5
:101540002DE9FF4FD8488BB0002588461746057017
:1015500005614FF0010AC0F80CA0D44CE562406868
:10156000022804BF4FF400774FEA5128CA4E1020DA
:101570004FF4806BC6E900704020C6F810B0C6E991
:101580000205304602F04BF9606B10F0450FFBD0BE
:1015900040F2FF50A0636069DFF8149300EA09008D
:1015A00010F0FF001CBF0FB0BDE8F08F4FF0FF310F
:1015B000B84801600E994F439021C0E901710221A2
:1015C000C0F814A0C0E9031502F049F91220C6E9D9
:1015D00000804020C6F810B0C6E90205AE4802F00F
:1015E0001EF9606B10F0450FFBD040F2FF50A06376
:1015F000606900EA090010F0FF001CBF0FB0BDE8F1
:10160000F08F0121080202F0FEF8012002F004F937
:10161000A2480B9C01F0B2FDA14E0021304601F022
:101620008AFDA048CDE90004B808CDE90250802029
:10163000CDE90450800006908000CDE907058000C8
:10164000CDE909056946304601F03FFD01213046EC
:1016500001F071FD0FB02846BDE8F08F70B5954ED2
:10166000914C0025304601F07DFD002801BF206926
:10167000002820780028F5D02078002814BF207892
:10168000284670BD2DE9F74F87488CB00025884665
:10169000174605700561C560844CE5624068022804
:1016A00004BF4FF400774FEA51287B4E4FF4806B14
:1016B0001020C6F810B0C6E900704FF0400AC6E925
:1016C00002A5304602F0ABF8606B10F0450FFBD07E
:1016D00040F2FF59C4F83890616911F008001CBF4E
:1016E0000FB0BDE8F08F1820C6F810B0C6E9008032
:1016F000C6E902A5684802F092F8616B11F0450F47
:10170000FBD0C4F83890616911F008001CBF0FB01D
:10171000BDE8F08F4FF0FF315E48C0E9001790211F
:10172000C0E902150121C0E9045102F098F8012135
:10173000080202F068F859480C9C01F01FFD584E51
:101740000021304601F0F7FC5648CDE90004102096
:101750000290B808CDE9030580200590800006902E
:101760008000CDE907058000CDE9090569463046CE
:1017700001F0ABFC0121304601F0DDFC012002F05C
:101780004BF80FB02846BDE8F08F2DE9FF4FDFF88A
:1017900018818BB000268B4691469A4688F80060E7
:1017A000C8F810600120C8F80C00404CE662D8F878
:1017B0000400022804BF4FF400794FEA512B364D44
:1017C0001020C5E90090402007012F61C5E90206FD
:1017D000284602F024F8606B10F0450FFBD040F271
:1017E000FF50A063616911F008001CBF0FB0BDE895
:1017F000F08FD8F808004FF0400800042860372028
:10180000C5E901084FF48060C5E90360224802F091
:1018100006F8606B10F0450FFBD040F2FF50A0635C
:101820006069234F384010F0FF001CBF0FB0BDE8C7
:10183000F08F1720C5F800A0C5E901084FF48060BB
:10184000C5E90360144801F0EAFF606B10F0450F32
:10185000FBD040F2FF50A0636069384010F0FF00F9
:101860001CBF0FB0BDE8F08F1920C5F800B0C5E966
:1018700001084FF48060C5E90360074801F0CFFF1D
:10188000616B11F0450FFBD040F2FF50A06360691F
:10189000384011E08C0D0020780D002000F0001081
:1018A00044040240808001400C040020008001407C
:1018B00008E0FFFD0020001010F0FF001CBF0FB07B
:1018C000BDE8F08F4FF0FF31FA480AFB09F4C0E998
:1018D00000149021C0E902160121C0E9046101F061
:1018E000BEFF0121080201F08EFF012001F094FFEC
:1018F000F1480B9D01F042FCF04F0021384601F009
:101900001AFCEF48CDE9000510200290A008CDE9AF
:10191000030680200590800006908000CDE9070630
:101920008000CDE909066946384601F0CEFB012169
:10193000384601F000FC0FB03046BDE8F08F70B5BE
:10194000E04EE14C0025304601F00CFC002801BFC0
:101950002069002820780028F5D0207800281CBFB6
:10196000207870BD40F2FF5001F0C6FF284670BDE0
:10197000D648406B10F4405018BF0120704700213A
:10198000D248816040F24C41C160416B11F0450F7B
:10199000FBD040F2FF518163406900F008007047BE
:1019A0002DE9F84F8346CA4800278DF8007040683B
:1019B0004FF0200A89461AEA105F04BF2520BDE8CF
:1019C000F88FC24E7068C349C0B2801CB1FBF0F4FE
:1019D000002001F041FF10F0007F1CBF0E20BDE889
:1019E000F88FB948BC4D4FF040084068022804BF4A
:1019F0004FEA5B2B4FEA592904D000281CBF01286D
:101A0000022834D1C5F800B0C5E901A84FF4806AB6
:101A1000C5E9037AB04801F002FF706B10F0450F82
:101A2000FBD040F2FF50B0637069DFF8B0B200EA5B
:101A30000B0010F0FF0018BFBDE8F88F2120C5F89B
:101A40000090C5E90108C5E9037AA34801F0E7FE63
:101A5000706B10F0450FFBD040F2FF50B06370691F
:101A600000EA0B0010F0FF0018BFBDE8F88F262039
:101A7000C5E900704FF48069C5F81090C5E9028788
:101A8000954801F0CCFE706B10F0450FFBD040F292
:101A9000FF50B0637069DFF844A200EA0A0010F05A
:101AA000FF0018BFBDE8F88FA04238BF401CFBD331
:101AB000684600F0DBF84FF00D0B002818BFBDE8BA
:101AC000F88F99E080486C464FF0000A8068C5F8AE
:101AD00010900004C5E9000BC5E902877E4801F0BB
:101AE0009EFE706B10F0450F03D1706B10F0450F28
:101AF000FBD010F0040F05D00324042007E020469B
:101B0000BDE8F88F10F0010F04D00124204601F049
:101B1000F3FEF4E701F09CFE0D2838D140F2FF50AF
:101B200001F0EAFE002001F097FEC0F3432121708E
:101B30006A4908425FD010F0004F01D01C24DEE754
:101B400010F0804F01D00924D9E710F0005F01D0D8
:101B50000A24D4E710F0805F01D00B24CFE710F007
:101B6000006F01D00C24CAE710F0806F02D05846F5
:101B7000BDE8F88F10F0807F01D00E24BFE710F48D
:101B8000000F01D00F24BAE710F4800F01D0102409
:101B9000B5E710F4001F01D01124B0E710F4801F46
:101BA00001D01224ABE710F4002F01D01324A6E7D4
:101BB00010F4802F01D01424A1E710F4003F01D0CD
:101BC00015249CE710F4803F01D0162497E710F409
:101BD000004F01D0172492E710F4804F01D0182451
:101BE0008DE710F4005F01D0192488E710F0080F8A
:101BF00001D01A2483E750469DF80010072918BF2A
:101C000006293FF45FAFBDE8F88F10B52E4CE068B1
:101C10000021012818BF21700DD000BF4FF4807043
:101C200001F075FE00214FF4807001F0ECFD012001
:101C30002061207810BD2548816040F24C41C16090
:101C4000416B11F0450FFBD040F2FF5181634069B9
:101C500000F008002070E1E70021012804D0491CB1
:101C60004008C9B20128FAD10846704770B5044649
:101C70001548002580680104174801600D21416066
:101C80004021C56081600901016101F0C8FD0F4973
:101C9000486B10F0450F03D1486B10F0450FFBD097
:101CA00010F0040F1CD00324042001F025FE204670
:101CB00070BD00008C0D002000F0001044040240B4
:101CC00080800140002000100C04002000800140B2
:101CD000E00C0020C0D40100780D002008E0FFFDDA
:101CE00010F0010F05D00124204601F005FE20462A
:101CF00070BD01F0ADFD0D2837D140F2FF5001F06D
:101D0000FBFD002001F0A8FDC0F343212170324902
:101D100008425ED010F0004F1CBF1C2070BD10F0B8
:101D2000804F1CBF092070BD10F0005F1CBF0A204F
:101D300070BD10F0805F1CBF0B2070BD10F0006FF5
:101D40001CBF0C2070BD10F0806F1CBF0D2070BD3B
:101D500010F0807F1CBF0E2070BD10F4000F1CBF60
:101D60000F2070BD10F4800F01D0102070BD10F452
:101D7000001F1CBF112070BD10F4801F1CBF12205B
:101D800070BD10F4002F1CBF132070BD10F4802F05
:101D90001CBF142070BD10F4003F1CBF152070BD87
:101DA00010F4803F1CBF162070BD10F4004F1CBF04
:101DB000172070BD10F4804F1CBF182070BD10F4A8
:101DC000005F1CBF192070BD10F0080F1CBF1A2047
:101DD00070BD284670BD000008E0FFFD7047FEE7BB
:101DE000FEE7FEE7FEE770477047704700F015B862
:101DF000FFF70BBF4FF0E02040F2CF2141610B4ACB
:101E0000F0211170002181610721016170470849AB
:101E1000086008680028FCD170470548016800295F
:101E200008BF70470168491E0160704723ED00E05C
:101E30002004002010B586B0012144F2040001F016
:101E40004BFC4FF40070ADF8100018208DF8130013
:101E500003206C4C8DF8120004A9204601F03FFAD3
:101E60002015ADF8100004208DF8130004A92046B9
:101E700001F035FA4FF4E13000900020ADF8040095
:101E8000ADF80600ADF80800ADF80C000C205E4C73
:101E9000ADF80A006946204601F0AAFD012120465E
:101EA00001F020FE06B010BD70B5574C0546C1B21A
:101EB000204601F06AFE208810F0800FFBD02846F3
:101EC00070BD0FB42DE9F04784B081460D980EAC7B
:101ED0000078002802BF04B0BDE8F0075DF814FBED
:101EE00030274A4E4FF02D0800250D9801785C29C7
:101EF00016D000F1010025290D9025D0484601F0AB
:101F000044FE4021484601F09BFE0028F9D00D9880
:101F100000780028E9D104B0BDE8F0075DF814FBB3
:101F2000401C0D9001786E2906D0722909D10D212F
:101F3000484601F02AFE60E00A21484601F025FEED
:101F40005BE0401C0D90DCE70178642916D0732912
:101F5000F7D154F804AB9AF8000000284DD0C1B274
:101F6000484601F012FE4021484601F069FE002873
:101F7000F9D01AF8010F0028F1D13EE054F8040B13
:101F800069464FF0000C002804BF8DF800708DF8F2
:101F900001501ED005DC8DF8008001F10101C0F177
:101FA000000042F2107200BF90FBF2F353EA0C0AF9
:101FB00007D003F1300C01F801CB03FB12004FF006
:101FC000010C86FB02329310A3EBE272002AEBDCD9
:101FD0000D709DF80000EA4678B100BF9AF8001035
:101FE000484601F0D2FD4021484601F029FE002874
:101FF000F9D01AF8010F0028F0D10D98401C0D906F
:102000007FE700000008014000380140676666660F
:1020100070B5FEF7BAF8FF4C0221204601F0D5F961
:10202000FD4D284600F087FF0221204601F0CBF944
:10203000284600F080FF00210846FEF799F80021AD
:102040000846FEF795F800210846FEF791F80021B2
:102050000846FEF78DF84FF4C4412015FEF788F8C6
:1020600040F608010820FEF783F84FF4406188101D
:10207000FEF77EF845F60B2140F20130FEF778F8C6
:1020800040F6061140F20230FEF772F841F21701F5
:1020900040F20330FEF76CF84FF40C514FF44170EE
:1020A000FEF766F84FF4B85140F20530FEF760F8DD
:1020B00046F2093140F20630FEF75AF840F609417F
:1020C00040F20730FEF754F841F20C014FF4427031
:1020D000FEF74EF842F2322140F20930FEF748F89E
:1020E00016211020FEF744F840F201111120FEF7EE
:1020F0003FF800211220FEF73BF801211320FEF7E4
:1021000037F84FF44C71A015FEF732F840F2372142
:1021100040F20110FEF72CF84FF4706140F203100A
:10212000FEF726F84FF4C2414FF42070FEF720F876
:102130004CF2B0114FF48170FEF71AF8A11501208E
:10214000FEF716F8A1150220FEF712F841F2300151
:102150000320FEF70DF801210920FEF709F8002100
:102160000C20FEF705F84FF400419020FEF700F830
:1021700000210F20FDF7FCFF00214FF40470FDF754
:10218000F7FFEF2140F21120FDF7F2FF002140F2AE
:102190001220FDF7EDFF40F28F1140F21320FDF702
:1021A000E7FF00214FF4A060FDF7E2FF002140F2BD
:1021B0000150FDF7DDFF5F2140F20250FDF7D8FF2F
:1021C000012140F20140FDF7D3FF002140F204401D
:1021D000FDF7CEFFA1150720FDF7CAFF002160150E
:1021E000FDF7C6FF002140F20120FDF7C1FF0021ED
:1021F0006015FDF7BDFF002140F20120FDF7B8FF9B
:10220000A10440F202200880844D00244FF6FF70A4
:10221000FDF7B8FF641CAC42F8D381490020086088
:1022200070BD70B57B4C0221204601F0CEF87D4D8B
:10223000284600F080FE0221204601F0C4F828461E
:10224000BDE8704000F077BE2DE9F84F0746002446
:102250000B988946904626462546022850D00328EA
:1022600055D009EB030107EB080B08FB03FA0091BB
:10227000002853D0012818BFBDE8F88F41F218019B
:102280000320FDF775FF49464FF40470FDF770FF1A
:102290000098411E40F21120FDF76AFFCBF5C8718E
:1022A00040F21220FDF764FF40F28F1BABEB0700FA
:1022B0000146009040F21320FDF75AFF49464FF4C3
:1022C0000070FDF755FF40F201200099FDF750FF27
:1022D00040F20220FDF748FFCDF800A0BAF1000F50
:1022E00098BFBDE8F88F0C984FF0000B10F801ABC9
:1022F000CDF830001AF0800F18BF0A987DD16DE03C
:10230000BDE8F84F41F210010320FDF731BFBDE8F1
:10231000F84F41F228010320FDF72ABF41F23001B6
:102320000320FDF725FF39464FF40470FDF720FF29
:10233000ABF1010140F21120FDF71AFF494640F2CE
:102340001220FDF715FF0098411E40F21320FDF703
:102350000FFF39464FF40070FDF70AFF494640F27F
:102360000120FDF705FF40F20220FDF7FDFECDF84C
:1023700000A0BAF1000F98BFBDE8F88F0C984FF09D
:10238000000B10F801AB0C901AF0800F18BF0A98E0
:1023900010D139194FF40070FDF7EAFE09EB060180
:1023A00040F20120FDF7E4FE40F20220FDF7DCFEE2
:1023B000FDF7E4FEFDF7E6FE641C4FEA4A0A4445D9
:1023C00024BF0024761C6D1C0BF1010BBBF1080F20
:1023D000DAD300988542D1D3BDE8F88F09EB060126
:1023E0004FF40070FDF7C4FE391940F28F10411A06
:1023F00040F20120FDF7BCFE00E005E040F20220C3
:10240000FDF7B2FEFDF7BAFEFDF7BCFE4FEA4A0A41
:10241000641C09E000180140FFAF010000770100D3
:1024200024040020FFFFAF00444524BF0024761C95
:102430006D1C0BF1010BBBF1080FFFF45BAF0098B3
:102440008542FFF450AFBDE8F88F0A2818D2DFE8C4
:1024500000F0170507090B0D0F111315F948704708
:10246000F9487047F9487047F9487047F94870478C
:10247000F9487047F9487047F9487047F94870477C
:10248000F9487047F0B5FA4C83B001222068F7494B
:1024900080B2CDE900020291002120234FF48C721A
:1024A0000846FFF7D1FE206842F21076B0FBF6F046
:1024B000FFF7CBFF2168002589B2CDE90015029016
:1024C000202318221E213220FFF7BEFE20684FF481
:1024D0007A77B0FBF6F106FB1100B0FBF7F0FFF7DF
:1024E000B4FF2168029089B2CDE90015202318229B
:1024F0001E214A20FFF7A8FE2068B0FBF6F106FB7C
:102500001100B0FBF7F107FB110000EBC00101EB7C
:102510004010000BFFF799FF2168029089B2CDE9C6
:102520000015202318221E216220FFF78DFE20684F
:10253000B0FBF6F106FB1100B0FBF7F107FB110051
:10254000CC49CD4EA1FB002149096FF0180251433F
:1025500000EB8100A6FB0010C008FFF776FF2168A2
:10256000029089B2CDE90015202318221E217A207D
:10257000FFF76AFE2068A6FB0021C908494201EB6B
:10258000810100EB4100FFF760FF2168029089B2F2
:10259000CDE90015202318221E219220FFF754FEBA
:1025A0002068401C2060B0F5803F28BF2560B348FC
:1025B00003B0BDE8F04000F0BEBC4FF0C0424FF4A5
:1025C00000731380AE4B198040F20121118040F25C
:1025D0008F11081A1880704710B44FF0C04C4FF498
:1025E0000474ACF80040A64C218040F21121ACF8F4
:1025F00000102280491CACF8001040F28F11081A1C
:10260000208040F21320ACF80000238010BC7047FB
:1026100010B5FDF7B3FD80B210BD10B54FF0C0424C
:102620004FF400731380964B198040F20121118002
:1026300040F28F11081A188040F202201080FDF736
:102640009DFD80B210BD4FF0C0434FF4007CA3F855
:1026500000C0DFF82CC2ACF8001040F20121198054
:1026600040F28F11081AACF8000040F202201880E6
:10267000ACF8002070472DE9FF4F81B00024110114
:10268000A1F500710E9E7E4D4FF4007B4FF0C04CC3
:1026900040F2012840F28F1940F2022E0091009979
:1026A0000A19784911F802A0029A002102EB0402EB
:1026B000C1F107072AFA07F717F0010F00EB01072E
:1026C000ACF800B02A80ACF80080A9EB07072F8097
:1026D000ACF800E014BF2B802E80491C89B2082979
:1026E000E6D3611C8CB2102CD9D305B0BDE8F08FB5
:1026F0002DE9FF4F82B004990978002904BF06B084
:10270000BDE8F08F4FF400785D4B4FF0C04240F2CF
:10271000012940F28F1740F2022E00BFB0F59C7FD6
:1027200098BF039904D903990020103189B203910D
:10273000E02901D900200390039900910499002415
:102740000F9E0978059D0901A1F50071CDF80410CF
:1027500001EB040C4B4911F80CB0DDF800C000216E
:102760000CEB040CC1F1070A2BFA0AFA1AF0010F5C
:1027700000EB010AA2F80080A3F800C0A2F80090C4
:10278000A7EB0A0AA3F800A0A2F800E014BF1D807E
:102790001E80491C89B20829E4D3611C8CB2102C1C
:1027A00038BF0199D4D304990830491C04910978A1
:1027B00080B20029B2D106B0BDE8F08F2DE9FF4FFD
:1027C00089B0074611461E466846DDF85880FDF779
:1027D000E1FE2B4C00254FF4007B4FF0C04C40F243
:1027E000012340F28F1940F2022E684600EB4500AB
:1027F0001DF81510407840EA012A0A980021421974
:10280000C1F10F002AFA00F010F0010F07EB0100F0
:10281000ACF800B02280ACF80030A9EB00002080BA
:10282000ACF800E014BF2680A4F80080481CC1B2B8
:102830001029E5D3681CC5B2102DD6D30DB0BDE864
:10284000F08F000042630008A263000802640008E1
:1028500062640008C26400082265000882650008FE
:10286000E265000842660008E2620008A26600080D
:10287000240400201F85EB51CDCCCCCCFFFFAF0052
:1028800000000260026B00082DE9FF4F93B015981D
:102890000078002804BF17B0BDE8F08F4FF0C045A6
:1028A000514C40F2012B40F28F191398B0F5987FEC
:1028B00098BF149805D9002013901498103080B256
:1028C0001490E02802D9002014901390DDE91380C1
:1028D0000390DDE9151604A8209FFDF75BFE00229A
:1028E0004FF4007340F2022C04A911F8120001EB1E
:1028F0004201497841EA002A0399002001EB0201D4
:10290000C0F10F0E2AFA0EFE1EF0010F08EB000EAA
:102910002B802180A5F800B0A9EB0E0EA4F800E0F2
:10292000A5F800C014BF26802780401CC0B2102824
:10293000E6D3501CC2B2102AD6D31598801C15902D
:102940001398103080B21390159800780028ACD1FD
:1029500017B0BDE8F08F2DE9FF4F89B0074611464B
:102960001E466846FDF716FE1F4C0022EE464FF449
:1029700000794FF0C04C40F2012A40F28F1840F22B
:10298000022B00BF0EEB42011EF8120049780A9B91
:1029900041EA002000219D18C1F10F0320FA03F342
:1029A00013F0010F0BD07B18ACF800902580ACF829
:1029B00000A0A8EB03032380ACF800B02680491CDC
:1029C000C9B21029E8D3501CC2B2102ADAD30DB014
:1029D000BDE8F08FC0F34511C20AC00200EB411000
:1029E000104480B27047000000000260C0F3C402CF
:1029F000C0F38521C0F3C440C00200EB4110104475
:102A000080B270472DE9F84F0746DDE90A988A46FB
:102A100015461E1E4FF0000498BFBDE8F88F00BF9A
:102A2000CDF8008007EBC40015F8012B80B24B46AF
:102A30005146FFF720FE601CC4B2A642F0D8BDE8A4
:102A4000F88F2DE9F05F144640F28F173A1A1D46B1
:102A50004FF0C04C4FF4047B4FF0000E1FFA82F889
:102A6000A4EB0009A3EB010AFE4B0A9EA94240D148
:102A70004FF00300ACF8000041F218001880ACF8E9
:102A800000B0A3F800E040F21120ACF800004FF0D5
:102A9000EF00188040F21220ACF80000A3F800E02C
:102AA00040F21320ACF800001F804FF40070ACF827
:102AB0000000198040F20120ACF80000A3F800806B
:102AC00040F20220ACF8000019F1010108BFBDE896
:102AD000F09F01F00100012808BF1E80884228BF36
:102AE000BDE8F09F1E801E80801C8842FAD3BDE89E
:102AF000F09F92BF1FFA8AF24A1B92B2A04240D1C5
:102B00004FF00300ACF8000041F210001880ACF860
:102B100000B0A3F800E040F21120ACF800004FF044
:102B2000EF00188040F21220ACF80000A3F800E09B
:102B300040F21320ACF800001F804FF40070ACF896
:102B40000000198040F20120ACF80000A3F80080DA
:102B500040F20220ACF800001AF1010108BFBDE804
:102B6000F09F01F00100012808BF1E80884228BFA5
:102B7000BDE8F09F1E801E80801C8842FAD3BDE80D
:102B8000F09F06D3031BA0462F469BB204460D467A
:102B900003E01FFA89F380460F46934216D1A04501
:102BA00088BFBDE8F09F00BF08F101001FFA80F860
:102BB000AF428CBF781E781C87B2324639464046F9
:102BC000FFF741FDA045EFD9BDE8F09FBD4245D9D3
:102BD000934223D9C3EB420005B250000FFA80F9AB
:102BE000D01A40000FFA80FA444598BFBDE8F09F24
:102BF00008F101001FFA80F8002DB1BF05EB0900B4
:102C0000781C87B205EB0A0005B2324639464046C9
:102C1000FFF719FDA045EBD3BDE8F09FC2EB4300E1
:102C200004B258000FFA80F9981A40000FFA80FA9F
:102C3000781C87B2002CB1BF04EB090008F1010039
:102C40001FFA80F804EB0A0004B2324639464046C7
:102C5000FFF7F9FCAF42EBD3BDE8F09F9A4223D2D5
:102C6000C3EB420005B250000FFA80F9D01A4000C1
:102C70000FFA80FAA04528BFBDE8F09F08F10100D7
:102C80001FFA80F8002DB1BF05EB0900781E87B24E
:102C900005EB0A0005B2324639464046FFF7D3FC41
:102CA000A045EBD3BDE8F09FC2EB430004B258004F
:102CB0000FFA80F9981A40000FFA80FABD4228BF37
:102CC000BDE8F09F781E87B2002CB1BF04EB09006D
:102CD00008F101001FFA80F804EB0A0004B2324642
:102CE00039464046FFF7AFFCBD42EBD3BDE8F09F4D
:102CF0002DE9F04F83B006460025141E4FF0030067
:102D0000DDF830A0A0EB44000F4698460FFA80F99A
:102D10009CBF03B0BDE8F08FBAF1000F30D0381976
:102D200083B281B27019CDE90080A6EB050B1FFAC2
:102D30008BF280B2FFF785FE381B83B281B2019817
:102D40001FFA8BF2CDF8008080B2FFF77AFE781977
:102D500083B281B23019CDE90080A6EB040B1FFAD3
:102D60008BF280B2FFF76DFE781B83B281B20198BF
:102D70001FFA8BF2CDF8008080B2FFF762FE43E0CD
:102D8000701907EB040B00901FFA8BF180B24246DA
:102D9000FFF759FC1FFA8BF1A6EB050B1FFA8BF01E
:102DA0004246FFF750FC381B81B201900098424622
:102DB00080B2FFF748FC0198424681B21FFA8BF0BF
:102DC000FFF741FC301907EB050B00901FFA8BF160
:102DD00080B24246FFF737FC1FFA8BF1A6EB040BDB
:102DE0001FFA8BF04246FFF72EFC781B81B2019050
:102DF0000098424680B2FFF726FC0198424681B215
:102E00001FFA8BF0FFF71FFC681C85B2B9F1000FA9
:102E1000BCBF09EB8500801D06DB601E84B2A800E4
:102E2000A0EB840048440A300FFA80F9AC423FF628
:102E300073AF03B0BDE8F08F2DE9F8438146DDE9BB
:102E400008600F4615469846C0B1A94586BF14468E
:102E50004D464C46AC4288BFBDE8F8834346224607
:102E6000394601E00000026010460096FFF7E9FDD8
:102E7000601C84B2AC42F1D9BDE8F8834A461046E2
:102E80000096FFF7DEFD43462A461946484600965F
:102E9000FFF7D7FD2A463B46414610460096FFF70E
:102EA000D0FD3B464A46194628460096FFF7C9FD25
:102EB000BDE8F8832DE9F84394460646604485B2A0
:102EC00001EB0C00089A88461FFA80F91F46AAB148
:102ED000AE4286BF2C4635463446AC4288BFBDE87C
:102EE000F8834B462246414610460097FFF7A9FD5E
:102EF000601C84B2AC42F4D9BDE8F88332464B463C
:102F000010460097FFF79DFD4B462A46194630466E
:102F10000097FFF796FD2A4643464946104600971C
:102F2000FFF78FFD43463246194628460097FFF7C4
:102F300088FDBDE8F883002818BF401EFBD170470C
:102F40002A4940F0FD7040F080600860704730B45E
:102F5000C278017801234FF0E02C02B3234A1268B3
:102F60000F2502F4E062C2F5E062120AC2F1040425
:102F700025FA02F2457805FA04F485782A402243BE
:102F80001B4C12010A55007800F01F0103FA01F1F1
:102F900040090CEB8000C0F8001130BC704701F014
:102FA0001F0003FA00F049090CEB8101C1F8800110
:102FB00030BC704721F07F0121F0604108430D498A
:102FC000086070470C4A0029116814BF084321EAC1
:102FD0000000106070474FF0E021042808690CBF22
:102FE00040F0040020F00400086170470CED00E0A0
:102FF00000E400E008ED00E010ED00E001684FF6AD
:10300000FE72114001600021016041608160C16079
:10301000684A6949904204BF486840F00F0022D0D6
:10302000664A904204BF486840F0F0001BD0644AF2
:10303000904204BF486840F4706014D0614A9042E6
:1030400004BF486840F470400DD05F4A904204BF0E
:10305000486840F4702006D05C4A904204BF48683B
:1030600040F4700001D148607047594A904204D141
:10307000486840F0706048607047564A111F90429F
:1030800004BF086840F00F0014D0534A904204BFB8
:10309000086840F0F0000DD0504A904204BF086824
:1030A00040F4706006D04E4A904204BF086840F475
:1030B000704001D1086070474A4A904218BF70477B
:1030C000086840F470200860704710B40268D1F8B6
:1030D00020C08B686FF30E1243EA0C03D1E904C4DD
:1030E0004CEA040C43EA0C03D1F818C043EA0C0381
:1030F000D1F81CC043EA0C03D1F824C043EA0C0306
:10310000D1F828C043EA0C031A430260CA6842603F
:103110000A6882604968C16010BC70470021016084
:1031200041608160C160016141618161C161016291
:103130004162816270470029016812BF41F00101BC
:103140004FF6FE72114001607047002A026814BFFA
:10315000114322EA010101607047416070474068F5
:1031600080B27047002110F0805F14BF1E4A124ADF
:103170001268024218BF01210846704710F0805FB4
:1031800019BF1A4908600C4948607047002110F0C7
:10319000805F14BF144A084A1268024218BF012116
:1031A0000846704710F0805F19BF10490860024957
:1031B0004860704708000240000002401C000240C6
:1031C0003000024044000240580002406C000240BF
:1031D00080000240080402401C0402403004024007
:1031E0004404024058040240000402400404024027
:1031F00010B5A0F18041B1F5843109D1012104203D
:1032000000F07CFA0021BDE81040042000F076BAFE
:10321000A0F18041B1F5863109D10121082000F0EB
:103220006DFA0021BDE81040082000F067BAA0F157
:103230008041B1F5883109D10121102000F05EFAFA
:103240000021BDE81040102000F058BAA0F18041E4
:10325000B1F58A3109D10121202000F04FFA002177
:10326000BDE81040202000F049BAA0F18041B1F53E
:103270008C3109D10121402000F040FA0021BDE845
:103280001040402000F03ABAA0F18041B1F58E31F3
:1032900009D10121802000F031FA0021BDE8104061
:1032A000802000F02BBAA0F18041B1F5903118BF19
:1032B00010BD0121080200F021FABDE810400021F4
:1032C0004FF4807000F01ABA10B50121084600F0E2
:1032D00015FA0021BDE81040012000F00FBA2DE9D9
:1032E000F001CB78002203F00F0C13F0100F1CBF7D
:1032F0008B7843EA0C0C0B884FF00F0613F0FF0F8E
:103300004FF0010518BF04681AD000BF0F8805FAF6
:1033100002F31F409F420FD1970006FA07F824EAF4
:1033200008040CFA07F73C43CF78282F08BF436105
:1033300002D0482F08BF0361521C082AE6D304605C
:103340000A88FF2A87BF44680022BDE8F001704761
:1033500002F108030F8805FA03F31F409F420FD1C3
:10336000970006FA07F824EA08040CFA07F73C432A
:10337000CF78282F08BF4361CF78482F08BF03615B
:10338000521C082AE4D34460BDE8F00170474FF6B0
:10339000FF710180022181700421C17070470246D3
:1033A000002092680A4218BF01207047806880B2EE
:1033B000704702460020D2680A4218BF01207047B9
:1033C000C06880B270470161704741617047002A50
:1033D00014BF016141617047C160704741F48032A0
:1033E0008261816182618169806970472B4A1368BB
:1033F0004FF6807C03EA0C0343EA00100843106098
:1034000070472749C861704770B4244A10F0004FD4
:1034100014BFD3695368C0F303444FF4401C3CEA23
:1034200000054FEA505C4FEA0C1C86B206FA0CFC11
:1034300016D010F4801F08BF23EA0C0303D0032525
:1034400005FA04F4A34343F07063002918BF4CEA63
:10345000030310F0004F14BFD361536070BC70477A
:10346000546823F0706324F070645460EDE78A07B9
:1034700021F0030101F1804101F58031120F0F238A
:10348000D1F808C093402CEA03038B608B6890400E
:103490001843886070470349086070470000014086
:1034A00000002042DC002042AA48016841F00101EE
:1034B00001604168A84A11404160016821F410216F
:1034C00021F080710160016821F480210160416870
:1034D00021F4FE0141604FF41F01816070479D4956
:1034E0000A6822F480320A600A6822F480220A60A4
:1034F000B0F5803F04BF086840F4803006D0B0F5D6
:10350000802F06BF086840F4A0207047086070470D
:10351000002243098F49012B08BF096803D0022B01
:103520000CBF096A496A00F01F00012303FA00F08A
:10353000084218BF012210467047864A0020002129
:10354000136813F4003F18BF0121401CB0F5A06FB1
:1035500001D00029F3D0106810F4003018BF01200A
:1035600070477C490A6822F0F80242EAC00008600D
:1035700070477A4908607047764A5368084323F4D5
:103580007C1318435060704774490866704771494E
:103590004A6822F003021043486070476D48406853
:1035A00000F00C0070476B494A6822F0F0021043AB
:1035B0004860704767494A6822F4E06210434860F7
:1035C000704764494A6822F4605242EAC000486089
:1035D0007047604A0029517A14BF084321EA00006D
:1035E000507270475E49086070475A494A6822F431
:1035F00040421043486070475649002281F820201D
:1036000081F82020012803D004280CBF0520704732
:1036100081F8200070475349086070474D490A6A95
:1036200010430862704750490860704749494A682A
:1036300012F00C034D4A18BF042B01D0082B01D007
:10364000026015E04A684B6802F470124FF0020CF9
:1036500013F4803F0CEB924203D04B6813F4003F0D
:1036600003D0434B5A43026002E0404B5A4302608E
:103670004A68404B02F0F00212099A5CD0F800C090
:103680002CFA02F24260D1F804C00CF4E06C4FEA6C
:103690001C2C13F80CC022FA0CFCC0F808C0D1F89E
:1036A00004C00CF4605C4FEADC2C13F80C30DA40F8
:1036B000C2604968304B01F44041890B595CB2FB50
:1036C000F1F101617047234A0029516914BF084391
:1036D00021EA0000506170471E4A0029916914BF19
:1036E000084321EA0000906170471A4A0029D16915
:1036F00014BF084321EA0000D0617047154A002931
:10370000D16814BF084321EA0000D0607047114A15
:103710000029116914BF084321EA000010617047B5
:103720001649086070470D49C86470470949C87157
:1037300070470848416A41F0807141627047054A0C
:103740000146002092680A4218BF012070470149D3
:1037500088727047001002400000FFF800004242EB
:10376000D8004242800442423C04424200127A00A5
:1037700000093D002C04002028040020400442429F
:1037800064480021016041608160C16041628162E2
:10379000C162614A8263C16370475E4910B44A687E
:1037A000037DD0F808C0C46843EA0C03D0F804C015
:1037B00022F0FF024CEA040C43EA0C03D0F800C0EC
:1037C000006943EA0C0322F4FC42184310434860AA
:1037D00010BC704700210175016041608160C160CB
:1037E000016170474D49086070474A490A6822F0F4
:1037F00003020A600A681043086070474548006881
:1038000000F003007047434A0029D16B14BF0843FE
:1038100021EA0000D06370474149086070473D4984
:1038200002688A60CA68D0E9013C43EA0C03D0E927
:1038300003C04CEA00006FF30A0218431043C8604B
:1038400070470021016041608160C1600161704783
:1038500030480069C0B270473249405870472D491E
:1038600002684A6242688A62CA6AD0E9023C43EA54
:103870000C03D0E904C04CEA000022F0F702184320
:103880001043C86270474FF0FF3101600021416072
:103890008160C1600161416170471E48006B7047E3
:1038A0002148006870472049086070471948806CBB
:1038B00070471E49086070471D49086070471D49E0
:1038C000086070471C49086070471C4908607047D1
:1038D0001B4908607047012121EA0000194908606E
:1038E00070471949086070470A4A01460020526B28
:1038F0000A4218BF01207047064988637047054A8D
:1039000001460020526B0A4218BF0120704701494E
:103910008863704700800140FF07C000A00030426C
:103920008C0530421480014080800140A005304267
:10393000A4053042A8053042AC053042AC0130420B
:10394000B0013042B4013042B801304210B5A0F1AC
:103950008041B1F59C310AD101218803FFF7CEFEE9
:10396000BDE8104000214FF48040FFF7C7BEA0F132
:103970008041B1F588410AD101214804FFF7C7FE13
:10398000BDE8104000214FF40030FFF7C0BEA0F1A9
:103990008041B1F590410AD101218804FFF7B7FEBB
:1039A000BDE8104000214FF48020FFF7B0BEA0F129
:1039B0008041B1F598410AD10121C804FFF7A7FE63
:1039C000BDE8104000214FF40020FFF7A0BEA0F199
:1039D0008041B1F5A04118BF10BD01210805FFF7D6
:1039E00096FEBDE8104000214FF48010FFF78FBE17
:1039F00030B50446008A85B00D464CF6FF7108408C
:103A0000E98808432082A0894EF6F3110840A9886E
:103A10002A8911436A8910430843A081A08A4FF67E
:103A2000FF410840A9890843A0826846FFF7FEFDD0
:103A3000A4F18040B0F59C300CBF03980298A18996
:103A400011F4004F00EBC00101EB0010296814BF16
:103A500049008900B0FBF1F0954A6FF0180CA2FB09
:103A60000031490909010B0903FB0CF300EB83004A
:103A7000A38913F4004F4FF0320314BF03EBC000CF
:103A800003EB0010A2FB00204FEA501014BF00F01F
:103A9000070000F00F000843208105B030BD4FF44F
:103AA0001651016000218180C18001810C22428178
:103AB00081817047028A4FF2FF031A400B88B1F8E8
:103AC00002C043EA0C03B1F804C0C9884CEA010102
:103AD0001943114301827047002101804180818098
:103AE000C18070470029818914BF41F4005121F43D
:103AF000005181817047C1F3421301F01F014FF063
:103B0000010C0CFA01F1012B08BF0C3003D0022B81
:103B10000CBF10301430002A026814BF114322EA8F
:103B2000010101607047002A828A14BF114322EA12
:103B3000010181827047028A22F00F020282028A0A
:103B4000114301827047828922F400628281828956
:103B50001143818170470029818914BF41F002011E
:103B600021F0020181817047028A22F02002028244
:103B7000028A1143018270470029018A14BF41F46F
:103B8000804121F4804101827047C1F308018180A6
:103B900070478088C0F308007047818941F00101B7
:103BA00081817047028BD2B20283028B42EA0121EB
:103BB00001837047028B02F47F420283028B114320
:103BC000018370470029818A14BF41F0200121F050
:103BD0002001818270470029818A14BF41F01001C1
:103BE00021F01001818270470029818A14BF41F0C1
:103BF000080121F00801818270470029818914BFE2
:103C000041F40041C1F30E01818170470029818A8E
:103C100014BF41F4006121F4006181827047828AFF
:103C200022F004028282828A114381827047002935
:103C3000818A14BF41F0020121F0020181827047A4
:103C40000246002012880A4218BF01207047C9436B
:103C50000180704710B401F01F0201240023C1F35A
:103C6000421C04FA02F2BCF1010F04BFB0F80CC010
:103C70000CEA020208D0BCF1020F0CBFB0F810C071
:103C8000B0F814C00CEA0202090A008804FA01F133
:103C90000840002A1CBF00280123184610BC7047AA
:103CA000090A012202FA01F1C943018070470000AC
:103CB0001F85EB514FF0204202EB8001002807BF27
:103CC00043F2DB00106043F2D20008606FF07040F6
:103CD0004860C1F80401704740234FF0180C4FF0C2
:103CE00020414FF0FC32102808D0C1F880C0C1F844
:103CF0008430C1F88820C1F88C207047C1F860C0BA
:103D00004B668A66CA667047FA48182101604FF010
:103D1000000141604FF0FC318160C160016170477A
:103D200010B4D0E901121143D0E903231A4311431F
:103D300042690368114382691143C2691143026AEF
:103D40001143426A1143826A1143C26A1143026BF2
:103D500011434FF0204242F823108168082906D110
:103D6000016802EB81010B6843F040030B60416B7B
:103D7000D1E9003C43EA0C13D1F808C0CC684FEA03
:103D80000C2C4CEA044C43EA0C03D1F810C043EA73
:103D90000C53D1F814C0896943EA0C6319430368D2
:103DA00002EB83035960C16AB1F5804F08D0006807
:103DB0006FF0704102EB8000C0F8041110BC704736
:103DC000816B0068D1E9003C43EA0C13D1F808C0CC
:103DD0000C694FEA0C2C4CEA045C43EA0C03D1F862
:103DE00014C0896943EA0C6302EB80001943C0F8F0
:103DF000041110BC704710B4D0E901121143D0E98E
:103E000003231A431143426941EA4221826941EA8C
:103E1000423141F00802C169D1E9003C43EA0C2378
:103E2000D1F808C0C9684FEA0C4C4CEA01610B4359
:103E3000016AD1E900C44CEA042C8C68C9682404E6
:103E400044EA01614CEA0101D0F800C04FF0204083
:103E5000BCF1100F07D0C0F88020C0F88830C0F83F
:103E60008C1010BC704702668366C16610BC704738
:103E7000D0E9001241EA42218268102343EA42322B
:103E80000A439C490A60C268D2E9003C43EA0C2319
:103E9000D2F808C0D2684FEA0C4C4CEA026243EAFE
:103EA00002028A600269D2E9003C43EA0C23D2F89C
:103EB00008C0D2684FEA0C4C4CEA026243EA0202A4
:103EC000CA604069D0E9002342EA03228368C068DF
:103ED0004FEA034343EA006042EA0000086170478A
:103EE00000210222C0E900128160C16001614161CC
:103EF0008161D202C161C0E908125200C0E90A2101
:103F00000163436B0F221A60436B5A60D0F834C0D0
:103F1000FF23CCF80830D0F834C0CCF80C20D0F80F
:103F200034C0CCF81020D0F834C0CCF81420D0F82D
:103F300034C0CCF81810D0F838C0CCF80020D0F835
:103F400038C0CCF80420D0F838C0CCF80830836BE7
:103F5000DA60836B1A61836B5A61806B8161704791
:103F600010210160002141608160C16001614161F7
:103F70008161C269FC211160C2695160C2699160AE
:103F8000C269D160026A1160026A5160026A91607E
:103F9000006AC16070470021016041608160C268B1
:103FA000FC211160C2685160C2689160C268D16032
:103FB0000269116002695160026991600269D16011
:103FC0004269116042695160426991604069C16013
:103FD00070474FF0204202EB80000029016812BFB9
:103FE00041F00101444A1140016070474FF0204206
:103FF00059B110280CBF106ED2F8800040F00400B8
:104000000CD000BFC2F8800070473C49102814BF94
:10401000D2F88000106E00EA0100F3D110667047FC
:104020004FF020410028D1F8A00012BF40F004005A
:10403000324A1040C1F8A00070474FF0204251B101
:1040400010280CBF106ED2F8800040F040000BD05A
:10405000C2F8800070472A49102814BFD2F88000A7
:10406000106E00EA0100F3D1106670474FF0204156
:1040700010280CBF486FD1F8940070474FF02043D0
:104080008AB1102804BF586E08431ED0B0F5807F57
:104090000CBFD3F88400D3F8A40040EA010011D08B
:1040A000C3F8A4007047102804BF586E88430CD092
:1040B000B0F5807F0CBFD3F88400D3F8A40020EAC9
:1040C0000100EDD1C3F884007047586670470023A3
:1040D0004FF02042102808BF506E06D0B0F5807F08
:1040E0000CBFD2F88400D2F8A400084218BF012304
:1040F00018467047A00000A0FEFF0F00FBFF0F0056
:10410000BFFF0F004FF02042102808D0B0F5807F8D
:1041100009D0D2F8A4008843C2F8A4007047506EBA
:10412000884350667047D2F884008843C2F8840000
:10413000704700224FF02043102808BF586E06D069
:10414000B0F5807F0CBFD3F88400D3F8A4000842F8
:1041500000EAD1001CBF00280122104670474FF032
:104160002042102809D0B0F5807F0BD0D2F8A400EF
:1041700020EAD100C2F8A4007047506E20EAD100B6
:1041800050667047D2F8840020EAD100C2F884005B
:10419000704700004749086840F00100086048681F
:1041A000454A10404860086820F4102020F08070D4
:1041B0000860086820F480200860486820F4FE0049
:1041C00048604FF41F0088600A68002042F4803283
:1041D0000A600A6800F1010012F4003F02D1B0F554
:1041E000A06FF6D1086810F4003F31D03348026860
:1041F00042F010020260026822F0030202600268CC
:1042000042F00202026048684860486848604868B6
:1042100040F480604860486820F47C10486048683A
:1042200040F4E8104860086840F080700860086852
:1042300010F0007FFBD0486820F003004860486819
:1042400040F002004860486800F00C000828FAD1ED
:104250001B494FF000600860704716494868194ACA
:1042600010F00C03184818BF042B01D0082B01D004
:10427000026015E04A684B6802F470124FF0020CBD
:1042800013F4803F0CEB924203D04B6813F4003FD1
:1042900003D00E4B5A43026002E00A4B5A430260BD
:1042A00049680B4AC1F30311515C026822FA01F11B
:1042B00001607047001002400000FFF8002002403B
:1042C00008ED00E000127A003C04002000093D00E7
:1042D000400400202DE9F041C56A0F460446BD4266
:1042E0002FD02079F0B1607801232A4604F1300103
:1042F00001F01AFE10BB00202071D4E90710084419
:10430000A84284BFE678012E0CD9E0690123054458
:1043100060782A4604F1300101F006FE701EC6B234
:10432000012EF2D86FB1607801233A4604F13001D2
:1043300001F0DFFD002808BFE76202D00120BDE8E0
:10434000F0810020BDE8F0818269891E921E8A42B8
:104350009CBF00207047826A807801FB0020704774
:104360002DE9F04104460D46022924BFA069A84268
:104370009CBF0120BDE8F0812078012806D040F2E2
:10438000FF16022827D0032839D131E0206A05EB37
:10439000550600EB56212046FFF79CFF78BBC6F37D
:1043A00008002044761C90F83070206A00EB5621FB
:1043B0002046FFF78FFF10BBC6F30800204415F01E
:1043C000010F90F8300047EA002014BF0009C0F345
:1043D0000B00BDE8F081206A00EB15212046FFF7B5
:1043E00079FF60B906EA45002044008EBDE8F081FF
:1043F000206A00EBD5112046FFF76CFF18B14FF093
:10440000FF30BDE8F08106EA8500204410F8301F37
:10441000D0F8010041EA002020F07040BDE8F081B2
:104420002DE9F04104460D461646022924BFA06935
:10443000A8429CBF0220BDE8F08120780127012816
:104440000AD040F2FF1802283BD0032818BF0220F0
:1044500047D02771BDE8F081206A05EB550800EBD5
:1044600058212046FFF736FF0028F2D1C8F3080094
:10447000204400F1300115F0010FF0B203D00246E4
:10448000087862F31F1008702771206A08F101088C
:1044900000EB58212046FFF71DFF0028D9D1C8F3B3
:1044A00008012144303115F0010F18BFC6F307127F
:1044B00005D10A78C6F3032302F0F0021A430A700A
:1044C000C7E7206A00EB15212046FFF703FF00280D
:1044D000BFD108EA45012144320A01F8306F4A7021
:1044E000B7E7206A00EBD5112046FFF7F3FE00285E
:1044F000AFD108EA8501214401F13002D1F8311031
:104500004FF0704303EA0121314311700B0A5370DD
:104510000B0C9370090ED1709BE72DE9F041064614
:104520000F000DD0FFF71CFF02283CBF0120BDE8A3
:10453000F081B16988422CBF3C46BDE8F08106E0BD
:10454000F468002C1CBFB069A04298BF0124254626
:10455000B0696D1CA8429CBF0225022C0BD32946D2
:104560003046FFF7FDFE48B1411C14BF0128BDE8ED
:10457000F081A542ECD10020BDE8F0816FF07042DF
:1045800029463046FFF74CFF30B96FB12A4639460D
:104590003046FFF745FF38B101280CBF4FF0FF351B
:1045A00001252846BDE8F081F5603069411CF8D04E
:1045B000401E306101207071F3E770B50D46C18077
:1045C00081680446012914D0206882698A4210D982
:1045D00089B180780601AE4223D82068FFF7C0FE7B
:1045E0000146401C17D0022903D320688069884205
:1045F00013D8022070BD0278032A08D0E160018937
:10460000A942F6D9406A00EB1510206118E0416A12
:104610000029DED1F2E7012070BDA81B85B2AE42B1
:10462000DBD9E1602068891E8269921E8A4291BFAF
:104630000020826A807801FB002000EB15102061C9
:1046400005F00F013022206802EB4111084460613F
:10465000002070BD2DE9F0410446C0880F46401C83
:104660000604360C1CBF206900282FD016F00F0F4F
:1046700077D1401C2061E168206829B18278521E00
:1046800012EA161F04D06CE00089B0421ED968E01F
:10469000FFF766FE054601281BD9681C43D0206839
:1046A0008169A94250D88FB1E168FFF736FF050054
:1046B00004BF0720BDE8F081012D0AD0681C32D06C
:1046C00000212068FFF706FE30B12CE00420BDE891
:1046D000F0810220BDE8F08120684FF0010800F170
:1046E0002F014FF4807000224A7001F8022F401E03
:1046F000FAD12068A91E8269921E8A4298BF0021C1
:1047000003D98278836A01FB0231C16220680027E5
:104710008078002814D92068002180F8048020685F
:10472000FFF7D8FD10B10120BDE8F0812068C16A13
:10473000491CC162781CC7B220688078B842EAD8A8
:104740002068C16AC91BC162E5602068A91E826930
:10475000921E8A4291BF0020826A807801FB00206D
:104760002061E68006F00F013022206802EB411143
:10477000084460610020BDE8F08170B5154682B044
:1047800006461C460B2201F07DFB052C09D960086A
:1047900035F8021B00EBC430084484B22888002896
:1047A000F5D107214FEA0D0304F00F0000F13002AC
:1047B000392A84BFD01DC2B25A54491E2409F3D1EC
:1047C0004FF07E0C002203F801C04C1E07E0813838
:1047D0007D2803D8A24218BF521C05D0521C8A4221
:1047E00002D2B05C2028F2D1082934BF491C4FF016
:1047F000200C06F802C0501CB0F1004F24BF02B0DC
:1048000070BDC0F10802002ADCBF02B070BD3044A8
:10481000401E12F0010F08D008293ABF13F801C05A
:10482000491C4FF0200C00F801CF521004BF02B019
:1048300070BD08293ABF13F801C0491C4FF0200C85
:1048400080F801C008293ABF13F801C0491C4FF095
:10485000200C00F802CF521EEBD102B070BD2DE942
:10486000F04F83B005460021FFF7A7FE00281CBFCC
:1048700003B0BDE8F08FFF20DFF8DCB501904FF604
:10488000FF7A009029692868FFF724FD06007DD192
:104890006C69207858B1E17AE52801F03F0104D035
:1048A00011F0080F05D00F2909D0FF204FE0042692
:1048B0008FE00F2903D0009900294AD06CE0D5F889
:1048C0001C90B9F1000F7DD010F0400F06D0617B35
:1048D00020F04000CDE90001E98829840099884250
:1048E00033D1617B019881422FD120784FF00008AD
:1048F00020F04000401E00EB800101EBC0060127C4
:104900001BF808002044008867B101F054FB0746FB
:10491000322E1AD239F81600761C01F04CFBB84240
:1049200013D101E0504510D108F10108B8F10D0F85
:10493000E6D3207810F0400F1DBF002F39F8160085
:104940000028009808BF401E00D0FF20C0B2009091
:1049500038E00B27A4F101024FF005034FEA51089C
:1049600008EBC1110844C1B212F802CF4FEA510856
:1049700008EBC11150786144C9B25B1EEED1781EBC
:1049800007D44A0802EBC112205C00E021E0104489
:10499000C1B2019881421CD0FF200090A5F820A050
:1049A000A869C17A11F0010F08BF0A220AD101E0FB
:1049B000521E06D314F8011B10F8013BC91A01D18D
:1049C000F6E731B100212846FFF744FE06003FF428
:1049D00059AF03B03046BDE8F08F2DE9F84F81465E
:1049E00008780D462F2814BF5C284D1C0024C9F8F8
:1049F00008402978202907D200214846FFF7DDFD2D
:104A0000C9F81440BDE8F88F28782F2814BF5C2817
:104A10006D1CF9D00024D9F81C702646A85D761CC0
:104A200020282CD32F2818BF5C286CD0322C73D2AE
:104A3000C0B2A0F181017D290CD8A95D761CA1F13D
:104A400040023F2A27BFA1F180027F2A01EB00200C
:104A500080B261D2012101F087FA03005CD0802B83
:104A60003CBFFEA01A4606D2017821B1914218BF80
:104A7000401CF9D150E027F81430641CCEE73544CF
:104A80004FF00408002C45D007EB440030F8020C2E
:104A9000202818BF2E283BD0002C3DD0002227F81C
:104AA0001420D9F818002023411E052001F8013FE9
:104AB0001A464A7001F8022F401EFAD15FF0000634
:104AC00037F81600202814BF2E28761CF8D0002EA8
:104AD00018BF48F003083CB107EB440030F8020C63
:104AE0002E2818BF641EF6D14FF0000A4FF0080BB5
:104AF000CDF800A037F81620761C7AB3202A10D003
:104B00002E2A0CD010E035444FF00008BAE703E03D
:104B1000641EB9D1062098E00620BDE8F88FA642B1
:104B200002D048F00308E5E7DA4501D2A64221D1D8
:104B3000BBF10B0F10D0A64218BF48F003080DD8E8
:104B4000009826464FEA80604FEA10604FF0080A4E
:104B50004FF00B0B0090CDE748F00308D9F8180090
:104B60000178E52904BF05210170BBF1080F009809
:104B70004AD146E0802A08D3104601F01CFA0021F1
:104B800001F0F2F9024648F00208B2F5807F0FD337
:104B9000ABF10100824524BF48F00308DA46A9D2F0
:104BA000D9F81810100A01F80A000AF1010A21E0E8
:104BB000002A18BFACA005D0017839B1914218BFC6
:104BC000401CF9D15F2248F0030813E0A2F1410034
:104BD000192804D8009840F0020000900AE0A2F1E1
:104BE0006100192806D8009840F001000090A2F159
:104BF000200082B2D9F8180000F80A200AF1010A50
:104C000078E78006000E00900C2131EA000004D005
:104C10000098032131EA000001D148F0020818F0A1
:104C2000020F0DD1009800F00300012808BF48F0E2
:104C30001008009800F00C00042808BF48F008088D
:104C4000D9F8180080F80B800020002818BFBDE8B4
:104C5000F88F4846FFF703FED9F81810C97A40B11B
:104C600004280CBF11F0040FBDE8F88F0520BDE843
:104C7000F88F11F0040F18BFBDE8F88FD9F81400B1
:104C8000C17A11F0100FF1D0818A408B61F31F407F
:104C9000C9F80800B8E62DE9F047036815461A7808
:104CA000303A092A9CBF93F801C0BCF13A0F23D0D7
:104CB0006F4804680C60002C04BF0C20BDE8F0872E
:104CC000207828B1607801F012F910F0010F1BD0A4
:104CD000002727703846677001F000F910F0010FC7
:104CE0001CBF0320BDE8F087002D18BF10F0040F93
:104CF00012D00A20BDE8F0879B1C0360002A1CBF6D
:104D00000B20BDE8F087D3E7002D12BF10F0040F91
:104D10000020BDE8F087ECE700252A4660780123F3
:104D200004F1300101F0E5F868BBB4F82E024AF650
:104D3000552840457ED194F86610D4F867004D4E52
:104D400041EA002020F07F40B04237D094F8821032
:104D5000D4F8830041EA002020F07F40B0422DD0FB
:104D600094F8F21104F5F770002963D0017AD0F8B5
:104D70000900012341EA00221546607804F1300160
:104D800001F0B7F810B10120BDE8F087B4F82E02A9
:104D900040454FD194F86610D4F8670041EA0020EE
:104DA00020F07F40B04209D094F88210D4F88300FC
:104DB00041EA002020F07F40B04278D1B4F83B00B7
:104DC000B0F5007F73D1B4F8460028B994F85400C8
:104DD000D4F8551040EA0120E06194F84010E170E9
:104DE000012918BF022962D100FB01F994F83D1096
:104DF000A170F9B14B1E194259D1B4F8412022815A
:104E000012F00F0F53D1B4F843302BB994F850304F
:104E1000D4F851C043EA0C23B4F83EA0BAF1000F15
:104E200045D00AEB090C0CEB121C9C453FD8A3EBB8
:104E30000C0300E03BE0B3FBF1F1C1B3012640F607
:104E4000F6738B4298BF02264FF6F673994228BF3D
:104E50000326891C10E0000002710008222A3A3C57
:104E60003E3F7C7F000000002B2C3B3D5B5D000043
:104E7000540400204641540005EB0C03A362A161D9
:104E800005EB0A032362032E14D082B103EB09025F
:104E90006262022E0FBF490001F0010201EB4101E5
:104EA00002EB510101F2FF11B0EB512F0DD20D2099
:104EB000BDE8F087002AFAD194F85C20D4F85D3080
:104EC000890042EA03226262ECE74FF0FF30C4E956
:104ED0000370032E30D16771B4F8600001234219CA
:104EE0006261607804F1300101F003F8002804BF2A
:104EF000B4F82E0240451FD194F83000D4F8311098
:104F000040EA0120FE49884216D194F81402D4F8F0
:104F1000151240EA0120FB4988420DD194F81C0289
:104F2000D4F81D1240EA0120E06094F81802D4F889
:104F3000191240EA01202061F34826700188491CBB
:104F40000180E180E76227710020BDE8F08700283A
:104F50001CBF0B207047ED4A00231068002818BFC3
:104F60000370002918BF0B700020116070472DE9F5
:104F7000F74FB6B00020369902F01F0B2BF001025C
:104F8000086009A937A8FFF786FE050032A80F9030
:104F900015A8109004D109A83799FFF71EFD054602
:104FA0000E9C002D04BF002C06251BF01C0F00F0EA
:104FB000F781002D00F08481042D40F07C8109A848
:104FC0000590DDE90F670C22314612A800F05AFF68
:104FD0009DF8530010F0010F7ED00020F0724FF0CA
:104FE00001084FF07E0A0DF1C009109012A93D464C
:104FF00044460B22304600F045FF052C09D96008D5
:1050000000EBC43135F8020B084484B2288800282C
:10501000F5D1072004F00F013031392984BFC91DB3
:10502000C9B209F80010401E2409F3D1002109F883
:1050300000A0421E07E0813B7D2B03D8914218BFA0
:10504000491C05D0491C814202D2735C202BF2D14D
:1050500008283ABF5246401C20227254491CB1F124
:10506000004F23D2C1F10802002A1FDD3144491E3E
:1050700012F0010F07D008283ABF19F80030401C81
:10508000202301F8013F521010D008283ABF19F828
:105090000030401C20234B7008283ABF19F800301C
:1050A000401C202301F8023F521EEED10598FFF765
:1050B000D6FB050006D108F101001FFA80F8B8F10F
:1050C000640F93D3B8F1640F08BF072500F0F38095
:1050D000042D40F0F08000E003E09DF85300F072F2
:1050E00010979DF8530010F0020F14BF0020012408
:1050F0000CD000BF37F8101000291CBF401C80B234
:10510000F8D1193044F6C5614843840C0021059854
:10511000FFF753FA050004BF00273E4640F0CB805E
:105120000D990998FFF7D6F805007CD10E98007804
:10513000E5280AD0002818BF002606D001210598CE
:10514000FFF788FA0500EBD0B5E0002E04BF059804
:10515000C788701C86B2A642F0D1012C7DD9394691
:105160000598FFF72AFA05005DD10F9E00210B2557
:105170003378A6F101004FF0050200BF4FEA510855
:1051800008EBC111194410F8027FC9B24FEA510867
:1051900008EBC11143783944C9B2521EEED1681EE2
:1051A00005D44A08305C02EBC1110844C1B2601E4C
:1051B00080B2574C30914FF6FF7603900D990998C5
:1051C000FFF788F8050076D103980E9900F0FF0AE2
:1051D0003098109D48730F20C8720020087388769D
:1051E000C876AAF1010000EB800202EBC00223782E
:1051F00035F812004F1CC85494F800C0030A521C22
:105200000CF80730002808BF4FF6FF704FF0010C74
:105210006346CCF10E08B0421CBF35F81200521C98
:1052200014F80C9000E046E001F8090014F80CE0D6
:105230004FEA102900280EF8079008BF4FF6FF70BC
:105240000CF1010C5B1C9845E5DCB04202D035F84E
:10525000120008B94AF0400A00E010E081F800A00E
:1052600009990120087100210598FFF7F3F905005D
:1052700021D10398401E0004000C03909ED10D998B
:105280000998FFF727F8050015D10E9C0126611E2D
:10529000102000224A7001F8022F401EFAD10B2282
:1052A00020460F9900F0EEFD0F98C07A00F018002C
:1052B0002073099806710E9C4BF0080B5DB170E0ED
:1052C000E07A10F0110F01D007256AE01BF0040FFF
:1052D00018BF082565D11BF0080F77D000F042FEFB
:1052E000A073010AE173010C2174000E60740020A8
:1052F000E07220776077A077E077A18A678B09E07A
:1053000052526141727241615004002054040020E5
:1053100002710008A076E0762075607509984FF05C
:10532000010961F31F4780F80490C7B309983D460F
:105330008046D0F82CA0022F24BFD8F81800A8422D
:1053400011D929464046FFF70BF806001DD0012E63
:1053500009D0701C09D0002229464046FFF760F8AA
:10536000050004D01DE002251BE0012519E0D8F856
:105370001000411C04D0401CC8F8100088F80590AB
:10538000D8F818003546A842DBD80999781EC860BD
:1053900051460998FEF79EFF050012D001E013E088
:1053A0001DB139B02846BDE8F08FE07A10F0100F3B
:1053B00018BF0425F5D11BF0020F18BF10F0010F24
:1053C00082D11BF0080F01D04BF0200B0998C16A65
:1053D0003698C16136980462369880F806B0A18A82
:1053E000608B61F31F4036990861207FD4F81D104F
:1053F00040EA01213698C1603699002088603699CC
:1054000088613698099901600998C1883698818029
:10541000C7E72DE9F0470446002018600F462068D2
:10542000A1881646984600281CBF0278002A02D0A0
:10543000C2888A4202D00920BDE8F087407800F097
:1054400056FD10F0010F1CBF0320BDE8F087A079C6
:1054500010F0800F1CBF0220BDE8F08710F0010F94
:1054600004BF0720BDE8F087D4E90210401A864245
:1054700088BF0646002E00F0BD80A068C105C90D9A
:105480007BD122689178491E01EA502111F0FF0971
:105490001ED0206861698269891E921E8A4226D9BF
:1054A0008278836A01FB023109B301EB090A750AAC
:1054B0003ED009EB0501914288BFA2EB0905407877
:1054C000EBB25246394600F014FD00284BD115E0EE
:1054D000002808BF206903D010466169FEF740FF2D
:1054E000022804D3411C18BF60613CD0D1E7A079E9
:1054F00040F08000A0710220BDE8F087A07910F094
:10550000400F13D0A069A0EB0A0085420ED907EB2B
:105510004020421E04F123014FF480704B785370F9
:1055200011F8023F02F8023F401EF7D16A0255E02F
:10553000A26952451FD0A17911F0400F0AD04078DE
:10554000012304F1240100F0EFFC60B9A07920F000
:105550004000A071206801235246407804F12401E4
:1055600000F0C7FC38B1A07940F08000A0710120A4
:10557000BDE8F08701E0C4F818A0A068C0F30800F7
:10558000C0F50072B24288BF32463D462044243006
:10559000B2F1004FA2F1010107D300BF10F8013BA7
:1055A00005F8013B491EF9D218E04B1C002B15DD14
:1055B000401EA7F1010C11F0010F03D110F8013FBB
:1055C0000CF8013F491C491008D043788CF8013091
:1055D00010F8023F0CF8023F491EF6D1A0681744AC
:1055E0001044A060D8F80000B61A1044C8F80000B3
:1055F0007FF443AF0020BDE8F0872DE9F047044673
:10560000002018600F462068A1881646984600289A
:105610001CBF0278002A02D0C2888A4202D0092028
:10562000BDE8F087407800F062FC10F0010F1CBF6D
:105630000320BDE8F087A07910F0800F1CBF022086
:10564000BDE8F08710F0020F04BF0720BDE8F08727
:10565000E0688119884200F2D480002E00F0D180E9
:10566000A068C105C90D70D122689178491E01EA70
:10567000502111F0FF090ED0A07910F0400F25D075
:105680002068012304F124014078A26900F04CFC59
:1056900000286AD116E060B110466169FEF73DFF4F
:1056A00000287CD001282FD0411C18BF60615CD03D
:1056B000E2E720690028F5D100211046FEF72DFF12
:1056C0002061EDE7A07920F04000A07120686169B9
:1056D0008269891E921E8A4216D98278836A01FBEA
:1056E000023189B101EB090A750A2FD009EB0501D6
:1056F000914288BFA2EB09054078EBB25246394689
:1057000000F012FC88BB06E0A07940F08000A07198
:105710000220BDE8F087A069A0EB0A01A94212D2DD
:1057200007EB4121491E04F123024FF480704B78AE
:10573000537011F8023F02F8023F401EF7D1A079E2
:1057400020F04000A0716A024FE017E0A1695145C6
:105750001CBFD4E902128A420ED940780123524676
:1057600004F1240100F0C5FB30B1A07940F08000C5
:10577000A0710120BDE8F087C4F818A0A068C0F3AC
:105780000800C0F50072B24288BF3246204424307F
:105790003D46B2F1004FA2F1010108D300E030E034
:1057A00015F8013B00F8013B491EF7D219E04B1CEC
:1057B000002B16DD401EA7F1010C11F0010F03D1E3
:1057C0001CF8013F00F8013F491C491009D000BFF7
:1057D0009CF8013043701CF8023F00F8023F491E5C
:1057E000F6D1A07940F04000A071A06817441044A1
:1057F000A060D8F80000B61A1044C8F800007FF482
:105800002FAFD4E90201884298BF0846E060A07932
:1058100040F02000A0710020BDE8F08770B504467C
:105820000068A18800281CBF0278002A02D0C28824
:105830008A4201D0092070BD407800F058FB10F07A
:1058400001001CBF032070BDA17911F0200F08BF1B
:1058500070BD11F0400F0FD02068012304F1240126
:105860004078A26900F060FB00281CBF012070BDD9
:10587000A07920F04000A071E1692068FEF72AFDC0
:10588000002818BF70BD256AE87A40F02000E87251
:10589000E0682877E068000A6877E068000CA8777D
:1058A000E068000EE8772069A8762069000AE876AB
:1058B0002069000C28752069000E687500F052FB05
:1058C000A875010AE975010C2976000E6876A079A1
:1058D00020F02000A07121680120087124680021B7
:1058E0002046FEF7F7FC050053D12078032848D165
:1058F0006079002845D0002604F12F014FF4807014
:105900003246E6624A7001F8022F401EFAD1552055
:1059100084F82E02AA2084F82F02522084F8300046
:1059200084F83100612084F83200412184F833107A
:10593000722284F8142284F8152284F8161284F84E
:105940001702206984F81802010A84F81912010C60
:1059500084F81A12000E84F81B02E06884F81C0216
:10596000010A84F81D12010C84F81E12000E84F83E
:105970001F026078012304F13001626900F0D4FA5B
:10598000667100226078114600F0EAFA002818BF1C
:105990000125284670BD10B50446FFF73FFF0028DB
:1059A00004BF0021216010BD2DE9F04104460D46E1
:1059B0000068A18800281CBF0278002A02D0C28893
:1059C0008A4202D04FF0090808E0407800F08FFAD0
:1059D00010F0010F18BF4FF0030802D04046BDE899
:1059E000F081A1794FF0000811F0800F1CBF022058
:1059F000BDE8F081E068A84203D211F0020F08BFB1
:105A000005460027A068A760002D57D0226891782E
:105A10004E0268B1691E401EB1FBF6F1B0FBF6F311
:105A20008B4205D8711E8843A0602D1A616902E07F
:105A3000216971B16161002940D0B54229D9A079AD
:105A400010F0020F206812D0FEF767FD01000CD0A5
:105A500010E000211046FEF760FD0146012841D00C
:105A6000481C18BF216154D0E4E7354611E0FEF729
:105A700077FC0146481C4CD0012933D92068806945
:105A800088422FD96161A068AD1B3044A060B54247
:105A9000D5D8A0682844A060E805C00D0ED02068C5
:105AA000891E8269921E8A421CD9826A807801FB13
:105AB0000020002818BF00EB552713D0A068C005B0
:105AC000C00D1CBFA269BA422AD0A07910F0400FC5
:105AD00013D02068012304F12401407800F024FA57
