:020000040800F2
:10000000F0EE0020450100088D2400088F24000830
:1000100091240008932400089524000800000000A3
:10002000000000000000000000000000972400080D
:1000300099240008000000009B2400089D2400086B
:100040005F0100085F0100085F0100085F01000810
:100050005F0100085F0100085F0100085F01000800
:100060005F0100085F010008D52400085F01000857
:100070005F0100085F0100085F0100085F010008E0
:100080005F0100085F0100085F0100085F010008D0
:100090005F0100085F0100085F010008A12400085B
:1000A0005F0100085F0100085F0100085F010008B0
:1000B0005F0100085F0100085F0100085F010008A0
:1000C0005F0100085F0100085F0100085F01000890
:1000D0005F0100085F0100085F0100085F01000880
:1000E0005F0100085F0100085F0100085F01000870
:1000F0005F0100085F0100085F0100085F01000860
:100100005F0100080F2500085F0100085F0100087B
:100110005F0100085F0100085F0100085F0100083F
:100120005F0100085F0100085F0100085F0100082F
:10013000DFF80CD008F010FA004800474F04000820
:10014000F0EE00200648804706480047FEE7FEE73D
:10015000FEE7FEE7FEE7FEE7FEE7FEE7FEE7FEE777
:1001600059600008310100084FF0C0410880704715
:100170004FF0C04210806D48018070476B48018885
:10018000008870476949088070472DE9F04F40F2B8
:10019000112400236549EF25661C4FF0030E4FF034
:1001A000C0404FF4047CA71C40F28F184FF4007934
:1001B00040F2012A40F2022BE2B1012A18BFBDE849
:1001C000F08FA0F800E041F208020A80A0F800C019
:1001D0000B8004800D8006800B800780A1F80080D2
:1001E000A0F800900B80A0F800A00B80A0F800B051
:1001F000BDE8F08FA0F800E041F230020A80A0F8DC
:1002000000C00B8004800D8006800B800780A1F861
:100210000080A0F800900B80A0F800A00B80A0F850
:1002200000B0BDE8F08F2DE9F041012198B008023F
:1002300005F029F901217C2005F02EF94FF400503A
:10024000ADF8580003253A4F8DF85A5010248DF818
:100250005B4016A9384604F022FFDFF8D88002265A
:10026000ADF8586016A9404604F019FF4CF23370FF
:10027000ADF858008DF85A5018208DF85B0016A97B
:10028000384604F00CFF4FF68070ADF8580016A900
:10029000404604F004FF8020ADF8580016A9384607
:1002A00004F0FDFEE001ADF8580016A9384604F050
:1002B000F6FE6102384604F066FF00200521CDE914
:1002C00010012106CDE9140112901390082100902D
:1002D000CDE90101CDE90340069049020790CDE93F
:1002E00008010A900B900C900FA8CDE90E060D9016
:1002F000684605F0F5FB0121002005F04AFD18B025
:10030000BDE8F08170B50B4C0221204604F03DFFA2
:10031000094D284603F00FFA0221204604F033FF6E
:100320002846BDE8704003F006BA000000000260F5
:100330000014014000180140FFFFAF0010B505F0A8
:100340008BFE0121084605F0A7F80121BDE8104009
:100350007C2005F0A1B810B541F218010320FFF789
:1003600007FF00214FF40470FFF702FFEF2140F276
:100370001120FFF7FDFE282140F21220FFF7F8FEC2
:1003800040F2671140F21320FFF7F2FE00214FF414
:100390000070FFF7EDFE40F2671140F20120FFF719
:1003A000E7FEBDE8104040F20220FFF7DDBE10B5C9
:1003B00005F052FE0121084605F06EF801217C206F
:1003C00005F06AF804F0D6F9C648016821F0010189
:1003D0000160016841F001010160C349202008600B
:1003E00004F042FA0128FBD104F018FA002002F0D0
:1003F000B0FABE490020087041F218010320FFF74F
:10040000B7FE00214FF40470FFF7B2FEEF2140F277
:100410001120FFF7ADFE282140F21220FFF7A8FEC1
:1004200040F2671140F21320FFF7A2FE00214FF4C3
:100430000070FFF79DFE40F2671140F20120FFF7C8
:1004400097FEBDE8104040F20220FFF78DBE82B05B
:1004500002F088F802F066F802F072F900F0AEF9E6
:1004600000F0C5F904F0F2F84FF6FF744FF0000AFF
:10047000CDE900A40F239EA21E21142002F0C2FE8B
:1004800000239FA26421C820009402F095FD4CF245
:10049000186400239BA2C8216420009402F0F4FD9C
:1004A0009EA000210090F0234FF4C872084603F08C
:1004B00003FE4FF48260009000239B4A3C213220CF
:1004C00002F014FD0021012398A2084603F042F92E
:1004D0000023994A50213220009402F007FD0021A8
:1004E000012396A2084603F035F90021012395A2C5
:1004F000084603F02FF905F0AFFD0121084604F08E
:10050000CBFF01217C2004F0C7FF04F033F97548CC
:10051000016821F001010160016841F00101016001
:10052000DFF8C4B12020CBF8000000BF04F09CF934
:100530000128FBD104F072F9002002F00AFA6B489E
:1005400041F2180180F800A00320FFF711FE0021FE
:100550004FF40470FFF70CFEEF2140F21120FFF77B
:1005600007FE282140F21220FFF702FE40F2671139
:1005700040F21320FFF7FCFD00214FF40070FFF75D
:10058000F7FD40F2671140F20120FFF7F1FD40F264
:100590000220FFF7E9FD6D4D6D4FDFF8B891DFF8F0
:1005A0004CA14FF480542E1F4FF47F489AF800005E
:1005B00002281CD16849402008602C603460CBF8C8
:1005C00000002C60346000202C60B968346008EAB8
:1005D00001212C60BA683460D2B21143A9F800102E
:1005E000401CB0F5963FEFD300208AF8000041F29E
:1005F00018010320FFF7BCFD00214FF40470FFF742
:10060000B7FDEF2140F21120FFF7B2FD282140F2A3
:100610001220FFF7ADFD40F2671140F21320FFF703
:10062000A7FD00214FF40070FFF7A2FD40F2671113
:1006300040F20120FFF79CFD40F20220FFF794FDFD
:10064000B4E710B50021012338A2084603F082F870
:10065000424C204601F073FF0021012337A20846D7
:1006600003F078F8204601F06AFF0021012335A24B
:10067000084603F06FF8204601F061FF00210123D6
:1006800037A2084603F066F8204601F058FF002123
:10069000012335A2084603F05DF8204601F04FFF24
:1006A0000021012332A2084603F054F8204601F04D
:1006B00046FF0021012330A2084603F04BF82046F4
:1006C00001F03DFF002101232DA2084603F042F86E
:1006D0002046BDE8104001F032BF2D4908600028D7
:1006E000FDD170470C180140101801403C0A002051
:1006F000414141414141414141414141412000008D
:10070000BAC30000BAC7BAC7A3ACF1D2CDA4C7BF61
:10071000C4E3D5E6C5A3B1C6000000002F6D795330
:10072000637265656E000000040000202F7069632D
:10073000332E626D70000000040200202F312E6203
:100740006D7000002F322E626D7000001414014095
:10075000001001400000026014180140E093040002
:100760002F332E626D7000002F342E626D700000EA
:100770002F352E626D7000002F362E626D700000D6
:100780002F6D7953637265656E2E626D7000000087
:100790000000002008B54FF4C06004F0B1FA312029
:1007A0008DF8000000208DF8010001208DF8020076
:1007B0008DF80300684604F0AAFA08BD08B54FF4A6
:1007C000C06004F09DFA31208DF8000000208DF803
:1007D000010001208DF802008DF80300684604F046
:1007E00096FABDE80840E549002006F00FBDF8B5CF
:1007F0000025E3A007F0EEFE4FF4C06004F080FA9D
:1008000031208DF8000000278DF8017001268DF849
:1008100002608DF80360684604F079FA002007F062
:10082000EBFDD649002006F0F1FC0622E1A1E548E7
:1008300006F0FCFCE44C2070E4A007F0CBFE20782E
:1008400050B904F108037202191DDE4806F066FE75
:100850002070DC4806F0A9FF0122D6A1D94806F095
:10086000E5FC2070E0A007F0B5FEC4E90176E7A042
:1008700007F0B0FE4FF400764FF40071E94807F03E
:1008800048FEE849E84B4FF40072A1F50970666034
:1008900006F06AFD2070E349E4A007F09BFE207893
:1008A0006D1C10B9A0680028E6D12946E1A007F028
:1008B00091FEBDE8F840C34806F077BF70B5164614
:1008C0008EB00D460246DDA1684607F093FEAB49A7
:1008D000002006F09BFC06226946BA4806F0A6FCFA
:1008E000B94C207028B1082818BF4FF0FF300EB067
:1008F00070BDCD4B32462946B24806F00FFE20703F
:10090000B04806F052FF0EB0002070BD70B516461C
:100910008EB00D460246C9A1684607F06BFE9749A6
:10092000002006F073FC02226946A64806F07EFC11
:10093000A54C207028B1042818BF4FF0FF300EB02E
:1009400070BDB94B324629469E4806F0E7FD20703F
:100950009C4806F02AFF0EB0002070BDF0B58FB0A5
:100960000E4602460025B5A1684607F043FE4FF447
:10097000C06004F0C5F931208DF8340000208DF8F6
:10098000350001208DF836008DF837000DA804F0F1
:10099000BEF97A49002006F039FC7849002006F0BB
:1009A00035FC01226946874806F040FC864C002849
:1009B00020700FBF4FF400774FF0FF300FB0F0BD45
:1009C0004FF40071974807F0A4FD9649964B4FF4F9
:1009D0000072A1F50970676006F0C6FC207006EB96
:1009E0004520904A97A107F005FE20786D1C10B9AC
:1009F000A0680028E4D10FB00020F0BD70B5064615
:100A000008784978B038C0EB001202EB401001EBD7
:100A100040004001A0F5A1555849002006F0F6FB22
:100A2000012289A1674806F001FC674C002820706C
:100A30001CBF4FF0FF3070BD2946624806F0BEFE75
:100A4000794B202231465F4806F08EFC20705D48CD
:100A500006F0ABFE002070BD10B57F4B84B00FCB0D
:100A60008DE80F007DA007F0B5FD4449002006F099
:100A7000CDFB554C0100207004D085A007F0AAFDE5
:100A800004B010BD684607F0AEF8207001000FD02A
:100A9000042908BF88A00FD0052908BF8DA00BD05E
:100AA00081A007F097FD474806F07FFE04B010BD17
:100AB0008CA007F08FFDF6E707F08CFDF3E730B56B
:100AC000002493B02D49204606F0A0FB010004D07D
:100AD0006FA007F07FFD13B030BD59A10AA806F042
:100AE00034FF01006D4610D085A007F073FD54A1BE
:100AF0000AA806F02AFF010031D081A007F06AFDA4
:100B0000304806F052FE13B030BD89A007F062FDF8
:100B10000BE000BF9DF8080010F0100F05D0641C1A
:100B200005F109018CA007F055FD69460AA806F0F9
:100B30003AFF0028DBD19DF809000028EAD1D6E76A
:100B40009DF8080010F0100F09D10098641C00F502
:100B50000070820A05F1090181A007F03BFD69469A
:100B60000AA806F020FF18B99DF809000028E7D16F
:100B7000002C04BF7EA007F02DFDC1E7740A002001
:100B80000D0A20D5E2CAC7D2BBB8F64D6963726FB1
:100B90005344BFA8CEC4BCFECFB5CDB3B2E2CAD4D5
:100BA000CAB5D1E92846415446532052302E303937
:100BB000290A0000303A2F6D795F5F44656D6F2E12
:100BC00054585400D40E0020040400200D0A206D57
:100BD000795F5F44656D6F2E5458542020B4B4BDC6
:100BE000A8B3C9B9A60A00000D0A206D795F5F4459
:100BF000656D6F2E54585420D2D1B4E6D4DAA3AC2C
:100C0000B4F2BFAAB3C9B9A60A000000B6C1C8A110
:100C1000B4B4BDA8B5C4545854CEC4BCFE202D2DC8
:100C20002D2D0A00F81000200C0400200D0A2025AC
:100C300073200A000D0A202564200000303A257335
:100C40000000000025730000303A2F485A4C4942FA
:100C50002E62696E00000000B4910008706C65613E
:100C6000736520696E707574207468652066696CA0
:100C700065206E616D65207468617420796F7520E0
:100C800077616E7420746F2064656C6574650A000A
:100C90006D6F6E742066696C652073797374656D11
:100CA000206572726F722C206572726F7220636F92
:100CB00064653A2025750A006E6F2073756368209D
:100CC00066696C65206F72206469726563746F7207
:100CD000790A00006E6F2073756368207061746814
:100CE0000A00000066696C652064656C6574656463
:100CF000207375636365737366756C6C79210A0084
:100D00006661696C656420746F206F70656E207217
:100D10006F6F74206469726563746F72792C2065DB
:100D200072726F7220636F64653A2025750A000045
:100D30002D2D2D2D2D2D2D2D2D2D2D2D2066696C3C
:100D400065206C697374202D2D2D2D2D2D2D2D2DAD
:100D50002D2D2D0A000000002F25730A0000000031
:100D60002F2E2531327325376C64204B42200A0028
:100D70006E6F2066696C65210A00000038B500209E
:100D800004F010FC002004F010FC04F0D9FB00215A
:100D90004FF4806004F077FB4FF4F850ADF800009A
:100DA00004248DF803406946F84804F078F9ADF85A
:100DB00000406946F64804F072F938BD08B54FF4B2
:100DC000C06003F09DFF31208DF8000000208DF8F9
:100DD00001008DF8020001208DF80300684603F041
:100DE00096FF08BD2DE9F14F002782B0384604F088
:100DF00013FC10F0007F1EBF0E2003B0BDE8F08F83
:100E00000024E44D009708200197286010204FF03F
:100E10004008C5E901084FF48069C5E9037928460F
:100E200004F0DDFBDC4E706B10F0450FFBD040F2A0
:100E3000FF5AC6F838A07069DFF860B300EA0B000B
:100E400010F0FF001CBF03B0BDE8F08FD4488068ED
:100E5000000428603720C5E90108C5E90379CD48B9
:100E600004F0BDFB706B10F0450FFBD0C6F838A046
:100E7000706900EA0B0010F0FF001CBF03B0BDE872
:100E8000F08F4FF0FF31C7480160082141603021E9
:100E900081600221C0E903170121416104F0BFFB19
:100EA0003320C5E90070C5F81090C5E90287B9483C
:100EB00004F095FB706B10F0450FFBD040F2FF5033
:100EC000B063716911F008001CBF03B0BDE8F08F7A
:100ED000706B40F22A6A10EA0A0F08BFEB460FD186
:100EE0004FF4001004F0E0FB30B104F0B9FB4BF814
:100EF0002400641C012C03D8706B10EA0A0FEFD099
:100F0000082004F0D1FB30B1082004F0D5FB03B079
:100F10000420BDE8F08F022004F0C6FB30B10220AF
:100F200004F0CAFB03B00220BDE8F08F202004F0DB
:100F3000BBFB30B1202004F0BFFB03B00620BDE8AE
:100F4000F08F4FF4007004F0AFFB38B14FF4007035
:100F500004F0B2FB03B00720BDE8F08F40F2FF5071
:100F600004F0AAFB00980299062400BA012938D09F
:100F700010F4803F66D08A488068000428603720DB
:100F8000C5E90108C5E90379824804F028FB706BC4
:100F900010F0450FFBD040F2FF5AC6F838A0706938
:100FA000DFF8F8B100EA0B0010F0FF001CBF03B03F
:100FB000BDE8F08FC5E90074C5F81090C5E9028757
:100FC000744804F00CFB706B10F0450FFBD000BFB1
:100FD000C6F838A0706903B000EA0B00C0B2BDE8E3
:100FE000F08F10F4802F2DD06D48806800042860A9
:100FF0003720C5E90108C5E90379664804F0EFFA2E
:10100000706B10F0450FFBD040F2FF5AC6F838A0C5
:101010007069DFF888B100EA0B0010F0FF001CBF18
:1010200003B0BDE8F08F0220C5F81090C5E90004B8
:10103000C5E90287574804F0D2FA706B10F0450FEB
:10104000FBD0C5E703B02520BDE8F08F2DE9F041C6
:101050000146534800264068032813D000281CBFCF
:10106000012802282BD1B1F5805F0BD00024012785
:101070004D4DB1F5006F08D00020FFF7B3FE06001C
:1010800014D01CE02720BDE8F0810120FFF7AAFE64
:10109000060014D12F752C604FF400606C60C5E918
:1010A000024041482C6104F058FA08E02F752C608A
:1010B0006C60AC60EC603C482C6104F04EFA304649
:1010C000BDE8F081334910B5086007204860402032
:1010D00088600020C8604FF480600861084604F012
:1010E0007EFA2D48416B11F0450FFBD040F2FF51C5
:1010F0008163406900F0080010BD2DE9F003284924
:101100002A4C4F6880F84E708968A0F84C1021680E
:101110000A0E93090370C2F38303437002F00302C3
:1011200082700A0CC2700A0A02714171D4F804C0BC
:101130004FEA1C610901C180C288CCF3074142EA31
:101140001112C28001F00F010172CCF30721CA090C
:101150004272C1F380128272C1F34012C272C1F3B3
:10116000001202730026467322460125D2F8088039
:10117000002F4FEA1862C8F30743C8F3072918BFC6
:10118000012F15D0022F40D052E000000010014086
:1011900000140140901300200080014008E0FFFD92
:1011A00010060020A413002078130020F81200205D
:1011B0008907090D01610CF0FF01D0F810C04CEA5D
:1011C00081010161016941EA92110161C2F3C20129
:1011D000017502F00701417559098175C3F3820158
:1011E000C1759907490F0176027E494642EAD1123C
:1011F00002760269037E521C9B1C9A40037A05FA10
:1012000003F35A438364426412E04FEA8C61890A13
:101210000161016941EA022101610169194301612A
:1012200002694946521CD20442644FF4007282643F
:10123000C1F3801242768906490E8176827E08F0DB
:10124000FF0142EAD112827601F07F01C176E268A5
:10125000110ECB090377C1F341134377C1F3820326
:1012600083778907090FC177C37FC2F3074143EA38
:101270009113C377C1F3401380F8203080F82160C8
:1012800001F0010180F82210C2F30721CB0980F898
:101290002330C1F3801380F82430C1F3401380F869
:1012A0002530C1F3001380F82630C1F3810380F8A4
:1012B000273001F0030180F82810C2F3460180F8BE
:1012C000291080F82A50FE4A11680B0E80F82C3045
:1012D000C1F307431B02C385B0F82EC0C1F3072337
:1012E0004CEA0303C385090601635168D0F830C096
:1012F0000B0E4CEA03430363D0F830C0C1F307433D
:101300004CEA03230363D0F830C0C1F307234CEA4F
:101310000303036380F8341091680B0E80F83530B6
:10132000C1F307431B068363D0F838C0C1F307231A
:101330004CEA03438363836BC9B243EA01218163AF
:10134000D168836B43EA1162826390F83C30C1F349
:10135000074243EA121380F83C301207120DC2878D
:10136000C38FC1F307221A43C287C1F3460180F835
:10137000401080F841503046BDE8F00370472DE939
:10138000F84F0120ADF8000004F018F9002804BF60
:101390002520BDE8F88FCB4F7868042800F0CE8078
:1013A000C94C4FF0C00A00260220C4F808A0C4E9C6
:1013B00000604FF48068C4E90368204604F00FF928
:1013C000C24D686B10F0450F03D1686B10F0450FEC
:1013D000FBD010F0040F7CD110F0010F7AD140F255
:1013E000FF5004F069F9002004F016F9DFF8D092FC
:1013F000C9F80000042004F00FF9C9F8040008201F
:1014000004F00AF9C9F808000C2004F005F9C9F83D
:101410000C007868002818BF012803D0062818BFE0
:10142000022847D10320C4E900604020C4F810809E
:10143000C4E90206A44804F0D2F8686B4FF0030B2D
:10144000E94610F0450F03D1686B10F0450FFBD053
:1014500010F0040F1CBF0324042002D004F02CF968
:1014600020E010F0010F1CBF01242046F6D104F04B
:10147000CFF8584515D140F2FF5004F01DF9002077
:1014800004F0CAF810F4604F04BF000CA9F8000083
:1014900010D010F4005F18BF132403D110F4804F54
:1014A00003D010242046BDE8F88F10F4004F18BF79
:1014B0000F24F7D17868042840D0BDF80000B86048
:1014C000000420600920C4E9010AC4E903687E48D9
:1014D00001E00DE016E004F082F8686B10F0450FB3
:1014E00003D1686B10F0450FFBD010F0040F06D04D
:1014F0000324042004F0E0F82046BDE8F88F10F043
:10150000010F06D00124204604F0D6F82046BDE89D
:10151000F88F40F2FF5004F0CFF8002004F07CF880
:101520006B4C2060042004F077F86060082004F021
:1015300073F8A0600C2004F06FF8E0600020BDE8B4
:10154000F88F2DE9F05F4FF000096248B2214F4655
:101550000175C0F80090C0F80490C0F80890C0F879
:101560000C90CB464D46C0F8109003F0F6FF0320D8
:1015700004F01BF8012004F015F8534C4FF4806A76
:10158000204625606560A560C4E9035A04F027F889
:101590004FF48036802004F087F800284ED0002ECB
:1015A0004ED040F2FF5004F087F84FF4D570206021
:1015B00008204026C4E90106C4E9035A424804F061
:1015C0000EF8DFF80881B002D8F8341011F0450F9A
:1015D00039D010B111F0040F3AD0042004F06CF8A7
:1015E0003720C4E90050C4F810A0C4E902653648A9
:1015F00003F0F5FFD8F8340010F0450FFAD040F2B0
:10160000FF50C8F83800D8F814002F483724C0E934
:101610000054C0F810A0C0E9026503F0E0FF4046A6
:10162000416B11F0450FFBD040F2FF5282634369DA
:1016300029490B4013F0FF086BD05AE0761EA9D160
:101640000320BDE8F09F002818BF401EBCD1C4E7AE
:1016500011F0400F1CBF402004F02EF80121194862
:101660004FF0804B4160D0E74FF000083720C5E9CC
:1016700000804FF48069C5F81090C5E902681248EF
:1016800003F0ADFF606B10F0450FFBD040F2FF5050
:10169000A063616911F0080018BFBDE8F09F292020
:1016A000291DC5F800B0A1E84103074803F097FFE2
:1016B000606B4FF0000810F0450F12D1606B0DE029
:1016C0000813002010060020901300200080014025
:1016D000F81200207813002008E0FFFD10F0450FFD
:1016E000ECD010F0040F07D04FF00308042003F0F3
:1016F000E3FF4046BDE8F09F40F2FF5003F0DCFFFF
:10170000002003F089FF8146C00F07F1010708D0D0
:1017100009E0FE4D4BF4801B4BF0004B04464FF6A6
:10172000FF7A5745A0D3574524BF1B20BDE8F09F43
:1017300019F0804FDDD0F64802214160D9E738B575
:101740000121302003F0A8FE4FF4F850ADF800005E
:1017500003208DF8020018208DF803006946ED483B
:1017600003F09DFC0420ADF800006946EA4803F050
:1017700096FC0121880203F086FE0121022003F07D
:1017800082FE03F0DDFEFFF7DCFE002818BF38BD47
:10179000FFF7F5FD002818BF38BD0121DF48002400
:1017A0000175046044608460C460046103F0D5FE88
:1017B000DB48FFF7A2FC002818BF38BDD848B0F8B6
:1017C0004C000104D1480160072141604021C0E97B
:1017D00002140901016103F002FFD248416B11F0CC
:1017E000450FFBD040F2FF518163406910F00800C3
:1017F00018BF38BD4FF40060BDE8384026E402460B
:10180000C348C84980680004886040F24D40C86001
:10181000486B10F0450FFBD040F2FF5088634869D9
:1018200010F0080004BF496911607047B84880682B
:101830000104BC48816040F24D41C160416B11F030
:10184000450FFBD040F2FF518163416911F0080F51
:1018500012BFFF204069C0F343207047AC48806846
:101860000104B048816040F24D41C160416B11F00C
:10187000450FFBD040F2FF518163416911F0080F21
:101880000AD14069C0F34320042804BF00207047F8
:10189000FF281CBF012070470220704710B50024AC
:1018A000204603F082FE204610BD2DE9F05F04467D
:1018B000002003F0B1FE10F0007F1CBF0E20BDE839
:1018C000F09F4027914E10204FF4806AC6E90070C7
:1018D0004FF00008C6F810A0C6E90278304603F0C1
:1018E0007EFE904D686B10F0450FFBD040F2FF5B21
:1018F000C5F838B06869DFF8309200EA090010F0E6
:10190000FF0018BFBDE8F09F8148311D80680004CA
:1019100030603720A1E881057C4803F060FE686BE9
:1019200010F0450FFBD0C5F838B0686900EA09002F
:1019300010F0FF0018BFBDE8F09F4FF0FF317B486B
:10194000C0E90017602181600221C0E9031801216C
:10195000416103F064FE0D20C6E90080C6F810A0C6
:10196000C6E90278694803F03AFE686B10F0450F4B
:10197000FBD0C5F838B0686900EA090010F0FF072D
:101980001CBF3846BDE8F09F686B40F22A6810EA39
:10199000080F13D14FF4004003F086FE002818BF53
:1019A000002607D003F05CFE44F82600761C082EC3
:1019B000F8D32034686B10EA080FEBD0082003F04E
:1019C00073FE28B1082003F077FE0420BDE8F09FE5
:1019D000022003F069FE28B1022003F06DFE022010
:1019E000BDE8F09F202003F05FFE28B1202003F027
:1019F00063FE0620BDE8F09F4FF4007003F054FE34
:101A000030B14FF4007003F057FE0720BDE8F09F9F
:101A10004FF4001003F048FE20B103F021FE44F81B
:101A2000040BF5E740F2FF5003F046FE3846BDE8F0
:101A3000F09F10B504463E48FFF737FF010018BF7E
:101A400010BD3B480278920922700278C2F340121E
:101A50006270827812026280C27863881A43628060
:101A60000279120662604279636843EA0242626068
:101A70008279636843EA02226260C27963681A432A
:101A80006260027A2272427A6272827A1209A272C9
:101A9000C27A1202A281027BA3891A43A281427BED
:101AA0009208A273407B00F00300E073084610BD6B
:101AB0002DE9F74F16488CB000258846174605706B
:101AC0000561C560174CE5624068022804BF4FF409
:101AD00000774FEA51280D4E4FF0400B1020C6F80A
:101AE00008B0C6E900708001C6E90350304603F033
:101AF00076FD606B10F0450FFBD040F2FF59C4F843
:101B000038906069DFF820A014E0000090130020F6
:101B1000100600200010014000140140781300203E
:101B2000281300200080014008E0FFFDA4130020DE
:101B30001813002000EA0A0010F0FF001CBF0FB0CD
:101B4000BDE8F08F4FF0FF31FE48C0E9001790214B
:101B500081600221C0E903150121416103F05FFDAD
:101B60001120C6F808B0C6E900804FF48060C6E9CD
:101B70000350F54803F033FD606B10F0450FFBD0C8
:101B8000C4F83890606900EA0A0010F0FF001CBF3A
:101B90000FB0BDE8F08F0121080203F014FD012011
:101BA00003F01AFDE9480C9C03F0C8F9E84E002147
:101BB000304603F0A0F9E748CDE90004B808CDE9C4
:101BC00002508020CDE90450800006908000CDE9CD
:101BD00007058000CDE909056946304603F055F94F
:101BE0000121304603F087F90FB02846BDE8F08F99
:101BF0002DE9FF4FD8488BB0002588461746057061
:101C000005614FF0010AC0F80CA0D44CE5624068B1
:101C1000022804BF4FF400774FEA5128CA4E102023
:101C20004FF4806BC6E900704020C6F810B0C6E9DA
:101C30000205304603F0D3FC606B10F0450FFBD07B
:101C400040F2FF50A0636069DFF8149300EA0900D6
:101C500010F0FF001CBF0FB0BDE8F08F4FF0FF3158
:101C6000B84801600E994F439021C0E901710221EB
:101C7000C0F814A0C0E9031503F0D1FC1220C6E996
:101C800000804020C6F810B0C6E90205AE4803F057
:101C9000A6FC606B10F0450FFBD040F2FF50A06334
:101CA000606900EA090010F0FF001CBF0FB0BDE83A
:101CB000F08F0121080203F086FC012003F08CFC68
:101CC000A2480B9C03F03AF9A14E0021304603F0E4
:101CD00012F9A048CDE90004B808CDE902508020EF
:101CE000CDE90450800006908000CDE90705800012
:101CF000CDE909056946304603F0C7F801213046B1
:101D000003F0F9F80FB02846BDE8F08F70B5954E96
:101D1000914C0025304603F005F9002801BF2069E9
:101D2000002820780028F5D02078002814BF2078DB
:101D3000284670BD2DE9F74F87488CB000258846AE
:101D4000174605700561C560844CE562406802284D
:101D500004BF4FF400774FEA51287B4E4FF4806B5D
:101D60001020C6F810B0C6E900704FF0400AC6E96E
:101D700002A5304603F033FC606B10F0450FFBD03A
:101D800040F2FF59C4F83890616911F008001CBF97
:101D90000FB0BDE8F08F1820C6F810B0C6E900807B
:101DA000C6E902A5684803F01AFC616B11F0450F03
:101DB000FBD0C4F83890616911F008001CBF0FB067
:101DC000BDE8F08F4FF0FF315E48C0E90017902169
:101DD000C0E902150121C0E9045103F020FC0121F2
:101DE000080203F0F0FB59480C9C03F0A7F8584E8A
:101DF0000021304603F07FF85648CDE9000410205A
:101E00000290B808CDE90305802005908000069077
:101E10008000CDE907058000CDE909056946304617
:101E200003F033F80121304603F065F8012003F098
:101E3000D3FB0FB02846BDE8F08F2DE9FF4FDFF848
:101E400018818BB000268B4691469A4688F8006030
:101E5000C8F810600120C8F80C00404CE662D8F8C1
:101E60000400022804BF4FF400794FEA512B364D8D
:101E70001020C5E90090402007012F61C5E9020646
:101E8000284603F0ACFB606B10F0450FFBD040F22E
:101E9000FF50A063616911F008001CBF0FB0BDE8DE
:101EA000F08FD8F808004FF0400800042860372071
:101EB000C5E901084FF48060C5E90360224803F0DA
:101EC0008EFB606B10F0450FFBD040F2FF50A0631B
:101ED0006069234F384010F0FF001CBF0FB0BDE811
:101EE000F08F1720C5F800A0C5E901084FF4806005
:101EF000C5E90360144803F072FB606B10F0450FF6
:101F0000FBD040F2FF50A0636069384010F0FF0042
:101F10001CBF0FB0BDE8F08F1920C5F800B0C5E9AF
:101F200001084FF48060C5E90360074803F057FBE0
:101F3000616B11F0450FFBD040F2FF50A063606968
:101F4000384011E0A41300209013002000F000108E
:101F500044040240808001401006002000800140BF
:101F600008E0FFFD0020001010F0FF001CBF0FB0C4
:101F7000BDE8F08F4FF0FF31FA480AFB09F4C0E9E1
:101F800000149021C0E902160121C0E9046103F0A8
:101F900046FB0121080203F016FB012003F01CFBA5
:101FA000F1480B9D02F0CAFFF04F0021384602F0C5
:101FB000A2FFEF48CDE9000510200290A008CDE96E
:101FC000030680200590800006908000CDE907067A
:101FD0008000CDE909066946384602F056FF012126
:101FE000384602F088FF0FB03046BDE8F08F70B57C
:101FF000E04EE14C0025304602F094FF002801BF7E
:102000002069002820780028F5D0207800281CBFFF
:10201000207870BD40F2FF5003F04EFB284670BDA3
:10202000D648406B10F4405018BF01207047002183
:10203000D248816040F24C41C160416B11F0450FC4
:10204000FBD040F2FF518163406900F00800704707
:102050002DE9F84F8346CA4800278DF80070406884
:102060004FF0200A89461AEA105F04BF2520BDE818
:10207000F88FC24E7068C349C0B2801CB1FBF0F447
:10208000002003F0C9FA10F0007F1CBF0E20BDE84D
:10209000F88FB948BC4D4FF040084068022804BF93
:1020A0004FEA5B2B4FEA592904D000281CBF0128B6
:1020B000022834D1C5F800B0C5E901A84FF4806A00
:1020C000C5E9037AB04803F08AFA706B10F0450F47
:1020D000FBD040F2FF50B0637069DFF8B0B200EAA5
:1020E0000B0010F0FF0018BFBDE8F88F2120C5F8E5
:1020F0000090C5E90108C5E9037AA34803F06FFA27
:10210000706B10F0450FFBD040F2FF50B063706968
:1021100000EA0B0010F0FF0018BFBDE8F88F262082
:10212000C5E900704FF48069C5F81090C5E90287D1
:10213000954803F054FA706B10F0450FFBD040F255
:10214000FF50B0637069DFF844A200EA0A0010F0A3
:10215000FF0018BFBDE8F88FA04238BF401CFBD37A
:10216000684600F0DBF84FF00D0B002818BFBDE803
:10217000F88F99E080486C464FF0000A8068C5F8F7
:1021800010900004C5E9000BC5E902877E4803F002
:1021900026FA706B10F0450F03D1706B10F0450FED
:1021A000FBD010F0040F05D00324042007E02046E4
:1021B000BDE8F88F10F0010F04D00124204603F091
:1021C0007BFAF4E703F024FA0D2838D140F2FF50EF
:1021D00003F072FA002003F01FFAC0F343212170CC
:1021E0006A4908425FD010F0004F01D01C24DEE79E
:1021F00010F0804F01D00924D9E710F0005F01D022
:102200000A24D4E710F0805F01D00B24CFE710F050
:10221000006F01D00C24CAE710F0806F02D058463E
:10222000BDE8F88F10F0807F01D00E24BFE710F4D6
:10223000000F01D00F24BAE710F4800F01D0102452
:10224000B5E710F4001F01D01124B0E710F4801F8F
:1022500001D01224ABE710F4002F01D01324A6E71D
:1022600010F4802F01D01424A1E710F4003F01D016
:1022700015249CE710F4803F01D0162497E710F452
:10228000004F01D0172492E710F4804F01D018249A
:102290008DE710F4005F01D0192488E710F0080FD3
:1022A00001D01A2483E750469DF80010072918BF73
:1022B00006293FF45FAFBDE8F88F10B52E4CE068FB
:1022C0000021012818BF21700DD000BF4FF480708D
:1022D00003F0FDF900214FF4807003F074F9012040
:1022E0002061207810BD2548816040F24C41C160DA
:1022F000416B11F0450FFBD040F2FF518163406903
:1023000000F008002070E1E70021012804D0491CFA
:102310004008C9B20128FAD10846704770B5044692
:102320001548002580680104174801600D214160AF
:102330004021C56081600901016103F050F90F4936
:10234000486B10F0450F03D1486B10F0450FFBD0E0
:1023500010F0040F1CD00324042003F0ADF9204634
:1023600070BD0000A413002000F0001044040240DF
:1023700080800140002000101006002000800140F5
:10238000F8120020C0D401009013002008E0FFFDE7
:1023900010F0010F05D00124204603F08DF92046EE
:1023A00070BD03F035F90D2837D140F2FF5003F02E
:1023B00083F9002003F030F9C0F343212170324942
:1023C00008425ED010F0004F1CBF1C2070BD10F002
:1023D000804F1CBF092070BD10F0005F1CBF0A2099
:1023E00070BD10F0805F1CBF0B2070BD10F0006F3F
:1023F0001CBF0C2070BD10F0806F1CBF0D2070BD85
:1024000010F0807F1CBF0E2070BD10F4000F1CBFA9
:102410000F2070BD10F4800F01D0102070BD10F49B
:10242000001F1CBF112070BD10F4801F1CBF1220A4
:1024300070BD10F4002F1CBF132070BD10F4802F4E
:102440001CBF142070BD10F4003F1CBF152070BDD0
:1024500010F4803F1CBF162070BD10F4004F1CBF4D
:10246000172070BD10F4804F1CBF182070BD10F4F1
:10247000005F1CBF192070BD10F0080F1CBF1A2090
:1024800070BD284670BD000008E0FFFD7047FEE704
:10249000FEE7FEE7FEE770477047704700F055B86B
:1024A00010B5202003F0BEFD002808BF10BD20217C
:1024B000184C204602F05DFEC0F10100C2B220219E
:1024C000204602F064FE02F077F8BDE810402020BC
:1024D00003F0B4BD10B5102003F0A4FD002808BF20
:1024E00010BD0D482021027812B1012A06D009E062
:1024F0000A4A116001230370116003E0084A116069
:1025000002210170BDE81040102003F097BDFFF7D5
:10251000D4BE0000000C01403C0A0020101801400D
:10252000141801404FF0E02040F2CF2141610B4AE6
:10253000F021117000218161072101617047084974
:10254000086008680028FCD1704705480168002928
:1025500008BF70470168491E0160704723ED00E025
:102560002406002010B586B0012144F2040002F0D8
:1025700093FF4FF40070ADF8100018208DF8130091
:1025800003206C4C8DF8120004A9204602F087FD50
:102590002015ADF8100004208DF8130004A9204682
:1025A00002F07DFD4FF4E13000900020ADF8040012
:1025B000ADF80600ADF80800ADF80C000C205E4C3C
:1025C000ADF80A006946204603F0F2F801212046E2
:1025D00003F068F906B010BD70B5574C0546C1B29E
:1025E000204603F0B2F9208810F0800FFBD0284677
:1025F00070BD0FB42DE9F04784B081460D980EAC44
:102600000078002802BF04B0BDE8F0075DF814FBB5
:1026100030274A4E4FF02D0800250D9801785C298F
:1026200016D000F1010025290D9025D0484603F071
:102630008CF94021484603F0E3F90028F9D00D98C1
:1026400000780028E9D104B0BDE8F0075DF814FB7C
:10265000401C0D9001786E2906D0722909D10D21F8
:10266000484603F072F960E00A21484603F06DF92C
:102670005BE0401C0D90DCE70178642916D07329DB
:10268000F7D154F804AB9AF8000000284DD0C1B23D
:10269000484603F05AF94021484603F0B1F90028B2
:1026A000F9D01AF8010F0028F1D13EE054F8040BDC
:1026B00069464FF0000C002804BF8DF800708DF8BB
:1026C00001501ED005DC8DF8008001F10101C0F140
:1026D000000042F2107200BF90FBF2F353EA0C0AC2
:1026E00007D003F1300C01F801CB03FB12004FF0CF
:1026F000010C86FB02329310A3EBE272002AEBDCA2
:102700000D709DF80000EA4678B100BF9AF80010FD
:10271000484603F01AF94021484603F071F90028B1
:10272000F9D01AF8010F0028F0D10D98401C0D9037
:102730007FE70000000801400038014067666666D8
:1027400070B5FDF770FDFF4C0221204602F01DFD23
:10275000FD4D284600F0EFFF0221204602F013FD58
:10276000284600F0E8FF00210846FDF701FD0021A2
:102770000846FDF7FDFC00210846FDF7F9FC0021A5
:102780000846FDF7F5FC4FF4C4412015FDF7F0FCB9
:1027900040F608010820FDF7EBFC4FF4406188107B
:1027A000FDF7E6FC45F60B2140F20130FDF7E0FCB9
:1027B00040F6061140F20230FDF7DAFC41F2170153
:1027C00040F20330FDF7D4FC4FF40C514FF441704C
:1027D000FDF7CEFC4FF4B85140F20530FDF7C8FCD0
:1027E00046F2093140F20630FDF7C2FC40F60941DD
:1027F00040F20730FDF7BCFC41F20C014FF442708F
:10280000FDF7B6FC42F2322140F20930FDF7B0FC90
:1028100016211020FDF7ACFC40F201111120FDF74C
:10282000A7FC00211220FDF7A3FC01211320FDF7D6
:102830009FFC4FF44C71A015FDF79AFC40F2372134
:1028400040F20110FDF794FC4FF4706140F2031068
:10285000FDF78EFC4FF4C2414FF42070FDF788FC69
:102860004CF2B0114FF48170FDF782FCA1150120EC
:10287000FDF77EFCA1150220FDF77AFC41F2300144
:102880000320FDF775FC01210920FDF771FC0021F3
:102890000C20FDF76DFC4FF400419020FDF768FC23
:1028A00000210F20FDF764FC00214FF40470FDF7B8
:1028B0005FFCEF2140F21120FDF75AFC002140F2AD
:1028C0001220FDF755FC40F28F1140F21320FDF766
:1028D0004FFC00214FF4A060FDF74AFC002140F2BC
:1028E0000150FDF745FC5F2140F20250FDF740FC2E
:1028F000012140F20140FDF73BFC002140F2044081
:10290000FDF736FCA1150720FDF732FC002160150C
:10291000FDF72EFC002140F20120FDF729FC0021EB
:102920006015FDF725FC002140F20120FDF720FC99
:10293000A10440F202200880844D00244FF6FF706D
:10294000FDF720FC641CAC42F8D3814900200860EC
:1029500070BD70B5064641F230010320FDF708FC5A
:1029600000214FF40470FDF703FCEF2140F2112029
:10297000FDF7FEFB002140F21220FDF7F9FB40F2CB
:102980008F1140F21320FDF7F3FB00214FF400708C
:10299000FDF7EEFB002140F20120FDF7E9FB40F2DC
:1029A0000220FDF7E1FB40F28F1500243046FDF7D1
:1029B000E9FB641CF02CF9D36D1EF6D270BD10B586
:1029C00041F230010320FDF7D3FB00214FF40470E6
:1029D000FDF7CEFBEF2140F21120FDF7C9FB0021EE
:1029E00040F21220FDF7C4FB40F28F1140F2132099
:1029F000FDF7BEFB00214FF40070FDF7B9FB00218D
:102A000040F20120FDF7B4FBBDE8104040F2022087
:102A1000FDF7AABB4F49088070472DE9F84F0746DC
:102A200000240B98894690462646254602284FD01A
:102A3000032854D009EB030107EB080B08FB03FA4A
:102A40000091002852D0012818BFBDE8F88F41F24C
:102A500018010320FDF78CFB49464FF40470FDF785
:102A600087FB0098411E40F21120FDF781FBCBF55A
:102A7000C87140F21220FDF77BFB40F28F1BABEBDD
:102A800007000146009040F21320FDF771FB494614
:102A90004FF40070FDF76CFB40F201200099FDF748
:102AA00067FB40F20220FDF75FFBCDF800A0BAF112
:102AB000000F98BFBDE8F88F0C984FF0000B10F88E
:102AC00001AB0C901AF0800F18BF0A987AD17AE007
:102AD000BDE8F84F41F210010320FDF749BBBDE806
:102AE000F84F41F228010320FDF742BB41F23001CB
:102AF0000320FDF73DFB39464FF40470FDF738FB2A
:102B0000ABF1010140F21120FDF732FB494640F2E2
:102B10001220FDF72DFB0098411E40F21320FDF717
:102B200027FB39464FF40070FDF722FB494640F27F
:102B30000120FDF71DFB40F20220FDF715FBCDF84B
:102B400000A009E000180140FFAF0100007701007C
:102B50002806002000000260BAF1000F98BFBDE80F
:102B6000F88F0C984FF0000B10F801ABCDF8300047
:102B70001AF0800F18BF0A9810D139194FF400705D
:102B8000FDF7F6FA09EB060140F20120FDF7F0FA35
:102B900040F20220FDF7E8FAFDF7F0FAFDF7F2FA4D
:102BA000641C4FEA4A0A444524BF0024761C6D1C6D
:102BB0000BF1010BBBF1080FDAD300988542D0D39B
:102BC000BDE8F88F13E009EB06014FF40070FDF744
:102BD000CFFA391940F28F10411A40F20120FDF767
:102BE000C7FA40F20220FDF7BFFAFDF7C7FAFDF77A
:102BF000C9FA641C4FEA4A0A444524BF0024761CE3
:102C00006D1C0BF1010BBBF1080FFFF45BAF0098DB
:102C10008542FFF451AFBDE8F88F0A2818D2DFE8EB
:102C200000F0170507090B0D0F111315FE4870472B
:102C3000FE487047FE487047FE487047FE487047A0
:102C4000FE487047FE487047FE487047FE48704790
:102C5000FE487047F0B5FF4C83B001222068FC4964
:102C600080B2CDE900020291002120234FF48C7242
:102C70000846FFF7D2FE206842F21076B0FBF6F06D
:102C8000FFF7CBFF2168002589B2CDE9001502903E
:102C9000202318221E213220FFF7BFFE20684FF4A8
:102CA0007A77B0FBF6F106FB1100B0FBF7F0FFF707
:102CB000B4FF2168029089B2CDE9001520231822C3
:102CC0001E214A20FFF7A9FE2068B0FBF6F106FBA3
:102CD0001100B0FBF7F107FB110000EBC00101EBA5
:102CE0004010000BFFF799FF2168029089B2CDE9EF
:102CF0000015202318221E216220FFF78EFE206877
:102D0000B0FBF6F106FB1100B0FBF7F107FB110079
:102D1000D149D24EA1FB002149096FF0180251435D
:102D200000EB8100A6FB0010C008FFF776FF2168CA
:102D3000029089B2CDE90015202318221E217A20A5
:102D4000FFF76BFE2068A6FB0021C908494201EB92
:102D5000810100EB4100FFF760FF2168029089B21A
:102D6000CDE90015202318221E219220FFF755FEE1
:102D70002068401C2060B0F5803F28BF2560B8481F
:102D800003B0BDE8F04000F0D6BC4FF0C0424FF4B5
:102D900000731380B34B198040F20121118040F27F
:102DA0008F11081A1880704710B44FF0C04C4FF4C0
:102DB0000474ACF80040AB4C208040F21120ACF819
:102DC00000002280401CACF800002180401CACF8C0
:102DD0000000238010BC704730B44FF0C04C4FF45B
:102DE0000474ACF800409F4C208040F21125ACF8F0
:102DF000005010442080681CACF800002180401C6A
:102E0000ACF800005818208030BC704710B5FDF7B2
:102E1000B5F980B210BD10B54FF0C0424FF4007349
:102E20001380904B198040F20121118040F28F11E4
:102E3000081A188040F202201080FDF79FF980B236
:102E400010BD4FF0C0434FF4007CA3F800C0DFF882
:102E500014C2ACF8001040F20121198040F28F1129
:102E6000081AACF8000040F202201880ACF80020EC
:102E700070472DE9FF4F81B000241101A1F50071C9
:102E80000E9E784D4FF4007B4FF0C04C40F201286D
:102E900040F28F1940F2022E009100990A197249EE
:102EA00011F802A0029A002102EB0402C1F1070707
:102EB0002AFA07F717F0010F00EB0107ACF800B092
:102EC0002A80ACF80080A9EB07072F80ACF800E05F
:102ED00014BF2B802E80491C89B20829E6D3611CBF
:102EE0008CB2102CD9D305B0BDE8F08F2DE9FF4F7F
:102EF00082B004990978002904BF06B0BDE8F08FBC
:102F00004FF40078574B4FF0C04240F2012940F295
:102F10008F1740F2022E00BFB0F59C7F98BF039937
:102F200004D903990020103189B20391E02901D915
:102F30000020039003990091049900240F9E0978C2
:102F4000059D0901A1F50071CDF8041001EB040CF9
:102F5000454911F80CB0DDF800C000210CEB040C61
:102F6000C1F1070A2BFA0AFA1AF0010F00EB010A65
:102F7000A2F80080A3F800C0A2F80090A7EB0A0A0C
:102F8000A3F800A0A2F800E014BF1D801E80491C19
:102F900089B20829E4D3611C8CB2102C38BF019986
:102FA000D4D304990830491C0491097880B20029CF
:102FB000B2D106B0BDE8F08F2DE9FF4F89B00746CA
:102FC00011461E466846DDF85880FDF717FD254C72
:102FD00000254FF4007B4FF0C04C40F2012340F23B
:102FE0008F1940F2022E684600EB45001DF81510BF
:102FF000407840EA012A0A9800214219C1F10F00E5
:103000002AFA00F010F0010F07EB0100ACF800B055
:103010002280ACF80030A9EB00002080ACF800E082
:1030200018BF268022E00000F2890008528A0008BA
:10303000B28A0008128B0008728B0008D28B00083D
:10304000328C0008928C0008F28C000892890008EB
:10305000528D0008280600201F85EB51CDCCCCCC2A
:10306000FFFFAF0000000260C491000808BFA4F891
:103070000080481CC1B21029C0D3681CC5B2102DF5
:10308000B1D30DB0BDE8F08F2DE9FF4F93B0159887
:103090000078002804BF17B0BDE8F08F4FF0C0459E
:1030A000514C40F2012B40F28F191398B0F5987FE4
:1030B00098BF149805D9002013901498103080B24E
:1030C0001490E02802D9002014901390DDE91380B9
:1030D0000390DDE9151604A8209FFDF78FFC002260
:1030E0004FF4007340F2022C04A911F8120001EB16
:1030F0004201497841EA002A0399002001EB0201CC
:10310000C0F10F0E2AFA0EFE1EF0010F08EB000EA2
:103110002B802180A5F800B0A9EB0E0EA4F800E0EA
:10312000A5F800C014BF26802780401CC0B210281C
:10313000E6D3501CC2B2102AD6D31598801C159025
:103140001398103080B21390159800780028ACD1F5
:1031500017B0BDE8F08F2DE9FF4F89B00746114643
:103160001E466846FDF74AFC1F4C0022EE464FF40F
:1031700000794FF0C04C40F2012A40F28F1840F223
:10318000022B00BF0EEB42011EF8120049780A9B89
:1031900041EA002000219D18C1F10F0320FA03F33A
:1031A00013F0010F0BD07B18ACF800902580ACF821
:1031B00000A0A8EB03032380ACF800B02680491CD4
:1031C000C9B21029E8D3501CC2B2102ADAD30DB00C
:1031D000BDE8F08FC0F34511C20AC00200EB4110F8
:1031E000104480B27047000000000260C0F3C402C7
:1031F000C0F38521C0F3C440C00200EB411010446D
:1032000080B270472DE9F84F0746DDE90A988A46F3
:1032100015461E1E4FF0000498BFBDE8F88F00BF92
:10322000CDF8008007EBC40015F8012B80B24B46A7
:103230005146FFF71EFE601CC4B2A642F0D8BDE89E
:10324000F88F2DE9F05F144640F28F173A1A1D46A9
:103250004FF0C04C4FF4047B4FF0000E1FFA82F881
:10326000A4EB0009A3EB010AFE4B0A9EA94240D140
:103270004FF00300ACF8000041F218001880ACF8E1
:1032800000B0A3F800E040F21120ACF800004FF0CD
:10329000EF00188040F21220ACF80000A3F800E024
:1032A00040F21320ACF800001F804FF40070ACF81F
:1032B0000000198040F20120ACF80000A3F8008063
:1032C00040F20220ACF8000019F1010108BFBDE88E
:1032D000F09F01F00100012808BF1E80884228BF2E
:1032E000BDE8F09F1E801E80801C8842FAD3BDE896
:1032F000F09F92BF1FFA8AF24A1B92B2A04240D1BD
:103300004FF00300ACF8000041F210001880ACF858
:1033100000B0A3F800E040F21120ACF800004FF03C
:10332000EF00188040F21220ACF80000A3F800E093
:1033300040F21320ACF800001F804FF40070ACF88E
:103340000000198040F20120ACF80000A3F80080D2
:1033500040F20220ACF800001AF1010108BFBDE8FC
:10336000F09F01F00100012808BF1E80884228BF9D
:10337000BDE8F09F1E801E80801C8842FAD3BDE805
:10338000F09F06D3031BA0462F469BB204460D4672
:1033900003E01FFA89F380460F46934216D1A045F9
:1033A00088BFBDE8F09F00BF08F101001FFA80F858
:1033B000AF428CBF781E781C87B2324639464046F1
:1033C000FFF73FFDA045EFD9BDE8F09FBD4245D9CD
:1033D000934223D9C3EB420005B250000FFA80F9A3
:1033E000D01A40000FFA80FA444598BFBDE8F09F1C
:1033F00008F101001FFA80F8002DB1BF05EB0900AC
:10340000781C87B205EB0A0005B2324639464046C1
:10341000FFF717FDA045EBD3BDE8F09FC2EB4300DB
:1034200004B258000FFA80F9981A40000FFA80FA97
:10343000781C87B2002CB1BF04EB090008F1010031
:103440001FFA80F804EB0A0004B2324639464046BF
:10345000FFF7F7FCAF42EBD3BDE8F09F9A4223D2CF
:10346000C3EB420005B250000FFA80F9D01A4000B9
:103470000FFA80FAA04528BFBDE8F09F08F10100CF
:103480001FFA80F8002DB1BF05EB0900781E87B246
:1034900005EB0A0005B2324639464046FFF7D1FC3B
:1034A000A045EBD3BDE8F09FC2EB430004B2580047
:1034B0000FFA80F9981A40000FFA80FABD4228BF2F
:1034C000BDE8F09F781E87B2002CB1BF04EB090065
:1034D00008F101001FFA80F804EB0A0004B232463A
:1034E00039464046FFF7ADFCBD42EBD3BDE8F09F47
:1034F0002DE9F04F83B006460025141E4FF003005F
:10350000DDF830A0A0EB44000F4698460FFA80F992
:103510009CBF03B0BDE8F08FBAF1000F30D038196E
:1035200083B281B27019CDE90080A6EB050B1FFABA
:103530008BF280B2FFF785FE381B83B281B201980F
:103540001FFA8BF2CDF8008080B2FFF77AFE78196F
:1035500083B281B23019CDE90080A6EB040B1FFACB
:103560008BF280B2FFF76DFE781B83B281B20198B7
:103570001FFA8BF2CDF8008080B2FFF762FE43E0C5
:10358000701907EB040B00901FFA8BF180B24246D2
:10359000FFF757FC1FFA8BF1A6EB050B1FFA8BF018
:1035A0004246FFF74EFC381B81B20190009842461C
:1035B00080B2FFF746FC0198424681B21FFA8BF0B9
:1035C000FFF73FFC301907EB050B00901FFA8BF15A
:1035D00080B24246FFF735FC1FFA8BF1A6EB040BD5
:1035E0001FFA8BF04246FFF72CFC781B81B201904A
:1035F0000098424680B2FFF724FC0198424681B20F
:103600001FFA8BF0FFF71DFC681C85B2B9F1000FA3
:10361000BCBF09EB8500801D06DB601E84B2A800DC
:10362000A0EB840048440A300FFA80F9AC423FF620
:1036300073AF03B0BDE8F08F2DE9F8438146DDE9B3
:1036400008600F4615469846C0B1A94586BF144686
:103650004D464C46AC4288BFBDE8F88343462246FF
:10366000394601E00000026010460096FFF7E9FDD0
:10367000601C84B2AC42F1D9BDE8F8834A461046DA
:103680000096FFF7DEFD43462A4619464846009657
:10369000FFF7D7FD2A463B46414610460096FFF706
:1036A000D0FD3B464A46194628460096FFF7C9FD1D
:1036B000BDE8F8832DE9F84394460646604485B298
:1036C00001EB0C00089A88461FFA80F91F46AAB140
:1036D000AE4286BF2C4635463446AC4288BFBDE874
:1036E000F8834B462246414610460097FFF7A9FD56
:1036F000601C84B2AC42F4D9BDE8F88332464B4634
:1037000010460097FFF79DFD4B462A461946304666
:103710000097FFF796FD2A46434649461046009714
:10372000FFF78FFD43463246194628460097FFF7BC
:1037300088FDBDE8F883002818BF401EFBD1704704
:1037400008B50178009143788278E2A1E448FEF759
:1037500050FF08BD2DE9F04794B01D46E1A10EA829
:1037600004F048FFE149002003F050FD01220EA9BA
:10377000DF4803F05BFDDF4C00212A46207008463D
:10378000FCF703FD2178D648002918BFDAA104D040
:10379000FEF72FFF14B0BDE8F087DCA18246FEF7EC
:1037A00028FF13AB022203A9D14803F0DDFDBDF8C9
:1037B0000C00A0F59A41423906D0DAA15046FEF736
:1037C00018FF14B0BDE8F087DDA15046FEF711FFE9
:1037D00013AB0C226946C64803F0C6FDDEA1504675
:1037E000FEF707FFE0A15046009AFEF702FFBDF882
:1037F0000420E1A15046FEF7FCFEBDF80620DEA144
:103800005046FEF7F6FEDFA15046029AFEF7F1FEA3
:10381000D0A15046FEF7EDFE13AB282204A9B44810
:1038200003F0A2FDDFA15046FEF7E3FEE1A1504602
:10383000049AFEF7DEFEE4A15046059AFEF7D9FE93
:10384000E4A15046069AFEF7D4FEBDF81C20E4A180
:103850005046FEF7CEFEBDF81E20E6A15046FEF70C
:10386000C8FEEBA15046089AFEF7C3FEECA15046F5
:10387000099AFEF7BEFEF5A150460A9AFEF7B9FE78
:10388000F7A150460B9AFEF7B4FEFAA150460C9AE7
:10389000FEF7AFFEFCA150460D9AFEF7AAFEADA1C1
:1038A0005046FEF7A6FEDDE90559BDF81E1001FBE6
:1038B00005F01F30C21700EBD26040118600B6F54C
:1038C000966F06DDF4A15046FEF793FE14B0BDE8F6
:1038D000F08718293CBFFAA15046FFF459AF0027E2
:1038E000B9F1000FC8BFDFF8048428DD0024002EE2
:1038F0000ADD00BF08EB040113AB01227C4803F092
:1039000033FD641CA642F5DC0024002D14DD00BF4D
:1039100004EB440008EB000118F800008A784978AD
:10392000D208D202890842EA411141EAD000FFF7E9
:1039300071F8641CA542EBDC7F1C4F45D6DBFFF71A
:103940003EF8EBA15046FEF754FE694803F02DFF08
:1039500014B0BDE8F0872DE9F04F06461746ECA0FD
:103960000C461A4699B090E82A108DE82A1000F10A
:1039700010010DF1100891E82A10A8E82A1000F1B2
:10398000200191E82A1088E82A10D0E90C10CDE92E
:103990000C1000201890E01704EB907020F0030A40
:1039A00004FB07F0A4EB0A0100EB40000E91A245D6
:1039B0000FBF363000F136010E9807FB00108DF86E
:1039C0000200010A8DF80310010C8DF80410000E9E
:1039D0008DF805008DF81240200A8DF81300200C98
:1039E0008DF81400200E8DF815008DF81670380A29
:1039F0008DF81700380C8DF81800380E8DF8190066
:103A0000D1A10FA804F0F6FD3849002003F0FEFB19
:103A100006220FA9364803F009FCDFF8D89089F890
:103A2000000030B1082818BF4FF0FF3019B0BDE8D2
:103A3000F08F17AB362269462D4803F06FFD89F8E9
:103A400000004FF00008002F3DDDA2454FF00005BB
:103A500016D1002CC4BF08FB04F000EB400B2EDD98
:103A600005EB4500304400EB0B0117AB0322204867
:103A700003F054FD6D1C89F80000AC42F0DC1EE040
:103A8000002CC4BF08FB04F000EB400B0FDD00BFAF
:103A900005EB4500304400EB0B0117AB0322144843
:103AA00003F03CFD6D1C89F80000AC42F0DC17AB64
:103AB00018A90F480E9A03F031FD89F8000008F1AB
:103AC00001084745C1DC0A4803F06FFE19B0002029
:103AD000BDE8F08F2825642D25642D25642920005C
:103AE00000380140303A2573000000006C180020B7
:103AF000CC1C00202C06002066696C65206F706568
:103B00006E206661696C210D0A0000000D204F7067
:103B1000656E2066696C6520737563636573730DEC
:103B20000A00000066696C65206973206E6F74205E
:103B30002E626D702066696C65210D0A0000000020
:103B40004F6B2074686973206973202E626D70203A
:103B500066696C650D0A0000CEBBCDBCCEC4BCFE50
:103B6000CDB73A0D0A000000CEC4BCFEB4F3D0A11C
:103B70003A25640D0A000000B1A3C1F4D7D63A2556
:103B8000640D0A00CAB5BCCACEBBCDBCCAFDBEDD41
:103B9000B5C4C6ABD2C6D7D6BDDACAFD3A25640DC8
:103BA0000A000000CEBBCDBCD0C5CFA2CDB73A0D28
:103BB0000A000000BDE1B9B9CCE5B5C4B3A4B6C8EC
:103BC0003A25640D0A000000CEBBCDBCBFED3A25FE
:103BD000640D0A00CEBBCDBCB8DF3A25640D0A00E7
:103BE0006269506C616E6573C6BDC3E6CAFD3A2555
:103BF000640D0A006269426974436F756E74B2C9DC
:103C0000D3C3D1D5C9ABCEBBCAFD3A25640D0A00DA
:103C1000D1B9CBF5B7BDCABD3A25640D0A00000085
:103C2000626953697A65496D616765CAB5BCCACE78
:103C3000BBCDBCCAFDBEDDD5BCD3C3B5C4D7D6BDD4
:103C4000DACAFD3A25640D0A0000000058B7BDCF5E
:103C5000F2B7D6B1E6C2CA3A25640D0A00000000E8
:103C600059B7BDCFF2B7D6B1E6C2CA3A25640D0A3C
:103C700000000000CAB9D3C3B5C4D1D5C9ABCAFDD1
:103C80003A25640D0A000000D6D8D2AAD1D5C9AB16
:103C9000CAFD3A25640D0A000A534F5252592C208E
:103CA00050494320495320544F4F20424947202830
:103CB0003C3D4C43445F5853495A45290A00000093
:103CC000534F5252592C20544849532050494320B5
:103CD0004953204E4F5420412032344249545320FE
:103CE0005245414C20434F4C4F520A00BC13002018
:103CF000446973706C617920686173206265656ED8
:103D00002066696E6973686564210A0A0000000014
:103D1000424D0000000000000000360000002800B6
:103D2000000000000000000000000100180000007A
:103D30000000000000000000000000000000000083
:103D40000000000000000000303A25732E626D7004
:103D5000000000002DE9F04F164699B082460C464F
:103D60001A46AFF2540090E82A108DE82A1000F1AC
:103D7000100104AF91E82A10A7E82A1000F12001F1
:103D800091E82A1087E82A10D0E90C10CDE90C1030
:103D900000201890E01704EB907020F0030904FB5A
:103DA00006F0A4EB090100EB40000E91A1450FBF06
:103DB000363000F136010E9806FB00108DF8020037
:103DC000010A8DF80310010C8DF80410000E8DF817
:103DD00005008DF81240200A8DF81300200C8DF894
:103DE0001400200E8DF815008DF81660300A8DF83D
:103DF0001700300C8DF81800300E8DF81900AFF256
:103E0000B8010FA804F0F6FBFE49002003F0FEF90C
:103E100006220FA9FC4803F009FADFF8F08388F8BE
:103E2000000030B1082818BF4FF0FF3019B0BDE8CE
:103E3000F08F17AB36226946F34803F06FFB88F822
:103E4000000022463146F2A004F0C4FB0027002EF9
:103E50003DDDA1454FF0000517D1002C34DD07FBF7
:103E600004F000EB400000EB0A0B00BF05EB45003F
:103E70000BEB000117AB0322E34803F04FFB6D1C73
:103E800088F80000A542F1DB1EE0002C14DD07FBE2
:103E900004F000EB400000EB0A0B00BF05EB45000F
:103EA0000BEB000117AB0322D74803F037FB6D1C67
:103EB00088F80000A542F1DB17AB18A9D2480E9A8A
:103EC00003F02CFB88F800007F1CBE42C1DCCE480A
:103ED00003F06BFC19B00020BDE8F08F2DE9F04F26
:103EE00090469DB082460C461A46AFF2DC1090E830
:103EF0002A108DE82A1000F1100104AE91E82A1072
:103F0000A6E82A1000F1200191E82A1086E82A107C
:103F1000D0E90C10CDE90C1000201B90E01704EB49
:103F2000907020F0030904FB08F0A4EB090100EBFA
:103F300040000E91A1450FBF363000F136010E98BA
:103F400008FB00108DF80200010A8DF80310010C27
:103F50008DF80410000E8DF805008DF81240200A2F
:103F60008DF81300200C8DF81400200E8DF815002C
:103F70008DF816804FEA18208DF817004FEA184088
:103F80008DF818004FEA18608DF81900AFF248213B
:103F90000FA804F02FFB9B49002003F037F90622FD
:103FA0000FA9994803F042F9984F387030B10828AA
:103FB00018BF4FF0FF301DB0BDE8F08F17AB3622B1
:103FC0006946914803F0AAFA00263870B8F1000F4C
:103FD0006BDDA1454FF000052ED1002CC4BF06FBC0
:103FE00004F00AEB400B5DDD0BEB450017AB0088DE
:103FF0000122C10AC9008DF86010C0F34511890083
:10400000C0008DF864108DF868001AA97E4803F08E
:1040100085FA387017AB012219A97B4803F07EFAA4
:10402000387017AB012218A9774803F077FA6D1C96
:104030003870AC42D8DC35E0002CC4BF06FB04F07D
:104040000AEB400B27DD00BF0BEB450017AB0088E8
:104050000122C10AC9008DF86010C0F34511890022
:10406000C0008DF864108DF868001AA9664803F046
:1040700055FA387017AB012219A9634803F04EFABC
:10408000387017AB012218A95F4803F047FA6D1C7E
:104090003870AC42D8DC17AB1BA95B480E9A03F012
:1040A0003DFA3870761CB04593DC574803F07DFB31
:1040B0001DB00020BDE8F08F2DE9F04F9BB0834686
:1040C0000E4614469846AFF2B83090E82A10249A6B
:1040D0008DE82A1000F1100104AF91E82A10A7E83A
:1040E0002A1000F1200191E82A1087E82A10D0E96F
:1040F0000C10CDE90C1000201A9004FB08F000EB26
:104100004000363004F0030108FB01008DF8020086
:10411000010A8DF80310010C8DF80410000E8DF8C3
:1041200005008DF81240200A8DF81300200C8DF840
:104130001400200E8DF815008DF816804FEA182017
:104140008DF817004FEA18408DF818004FEA1860F4
:104150008DF81900AFF210410EA804F04BFA29496E
:10416000002003F053F806220EA9274803F05EF85A
:10417000264F387030B1082818BF4FF0FF301BB001
:10418000BDE8F08F16AB362269461F4803F0C6F92A
:1041900038704FF00009B8F1000F4FDD14F0030F35
:1041A0004FF0000551D0002C3BDDA8EB090058442E
:1041B000A0F1010AA8191FFA8AF180B2FEF72BFEBE
:1041C000C10AC9008DF85C10C0F345118900C00018
:1041D0008DF860108DF8640016AB012219A90A4809
:1041E00003F09CF9387016AB012218A9064803F0B9
:1041F00095F9387016AB012217A9034803F08EF920
:1042000038700BE06C180020CC1C00202C0600201D
:104210002530642D2530640A000000006D1CA54285
:10422000C8DB04F0030216AB1AA9AC4803F076F918
:1042300087F8000009F10109C845AFDCA74803F081
:10424000B4FA1BB00020BDE8F08F002CF2DDA8EB23
:1042500009005844A0F1010AA8191FFA8AF180B296
:10426000FEF7D9FDC10AC9008DF85C10C0F34511F5
:104270008900C0008DF860108DF8640016AB012233
:1042800019A9964803F04AF9387016AB012218A90B
:10429000924803F043F9387016AB012217A98F48F2
:1042A00003F03CF96D1C3870A542D5DBC2E72DE95F
:1042B000FF4F9BB01446AFF2A85090E82A10289AFE
:1042C0008DE82A1000F1100104AE91E82A10A6E84A
:1042D0002A1000F1200191E82A1086E82A10D0E97E
:1042E0000C10CDE90C1000201A901E9804F0030366
:1042F000604300EB400000F136011E988DF812403B
:1043000000FB03108DF80200010A8DF80310010C68
:104310008DF80410000E8DF80500200A8DF81300AA
:10432000200C8DF81400200E8DF815001E988DF8C5
:104330001600010A8DF81710010C8DF81810000EE8
:104340008DF81900AFF200610EA804F053F964492A
:10435000002002F05BFF06220EA9604802F066FF13
:10436000604D287030B1082818BF4FF0FF301FB0E3
:10437000BDE8F08F16AB36226946584803F0CEF8F8
:10438000287059480078022864D1584940200860B4
:10439000DFF85C818701C8F80070A8F10409C9F84A
:1043A0000070091F0860C8F80070C9F800701E98F6
:1043B0004FF0000A00284ADD14F0030F4FF000060A
:1043C0004FD0002CC8BF4FF47F4B32DDC8F80070CF
:1043D00048488168C9F800700BEA0121C8F80070EC
:1043E0008068C9F80070C0B20843C10AC9008DF8DE
:1043F0005C10C0F345118900C0008DF860108DF885
:10440000640016AB012219A9344803F087F828701C
:1044100016AB012218A9314803F080F8287016ABBA
:10442000012217A92D4803F079F8761C2870B442B0
:10443000CCDC04F0030216AB1AA9284803F06EF88E
:1044400085F800001E980AF1010A5045B4DC26499F
:1044500000200870214803F0A8F91FB00020BDE833
:10446000F08F002CC8BFDFF88CB0EBDDC8F800700F
:10447000DBF808104FF47F4000EA0120C9F8007013
:10448000C8F80070DBF80810C9F80070C9B208431A
:10449000C10AC9008DF85C10C0F345118900C00045
:1044A0008DF860108DF8640016AB012219A90B4835
:1044B00003F034F8287016AB012218A9074803F05E
:1044C0002DF8287016AB012217A9044803F026F82E
:1044D000761C2870B442C9DCB4E70000CC1C002074
:1044E0006C1800202C0600203C0A00201418014003
:1044F0001414014000100140F8B50121202000F003
:10450000CBFF4820ADF800001024834E8DF8034007
:1045100003258DF802506946304600F0C0FD482161
:10452000304600F030FE0121082000F0B5FF2020C9
:10453000ADF800008DF80340784C8DF802506946C4
:10454000204600F0ACFD2021204600F01CFEF8BD06
:1045500030B585B00121052000F09EFF4FF4C0600A
:1045600000F0CEFB17208DF8080001248DF80940DB
:1045700002208DF80A008DF80B4002A800F0C7FB5E
:104580002025ADF80C5028208DF80F0003A96448B1
:1045900000F085FD0521002000F049FE00208DF887
:1045A00004000C208DF8050000958DF80640684643
:1045B00001F0DDFC05B030BD38B55A4C2078182824
:1045C00002BF0020207038BD401C5749C0B2207087
:1045D0000A1801F5007562602A18A260095C53A0F0
:1045E00003F0F8FF6068017854A003F0F3FF20782F
:1045F000295C57A003F0EEFFA068017858A003F0F3
:10460000E9FF454D4021284600F0BFFD60680021CC
:104610000090F0234FF4C8720846FFF74DFD40218B
:10462000284600F0B0FD0821284600F0AEFDA06845
:1046300000210090F0234FF4A0720846FFF737FEE8
:104640002846BDE83840082100F09DBD70B584B013
:104650000121202000F020FF4820ADF800001025A7
:104660002D4C8DF8035003268DF8026069462046D4
:1046700000F015FD4821204600F085FD01210820AD
:1046800000F00AFF2024ADF800408DF80350234DC0
:104690008DF802606946284600F001FD2021284679
:1046A00000F071FD2021284600F06FFD012105205A
:1046B00000F0F2FE700200F023FB17208DF80800D6
:1046C00001258DF8095002208DF80A008DF80B5055
:1046D00002A800F01CFBADF80C4028208DF80F005C
:1046E00003A90F4800F0DBFC0521002000F09FFD2E
:1046F00000208DF804000C208DF8050000948DF842
:104700000650684601F033FC04B070BD002818BFA5
:10471000401EFBD17047000000140140000C014016
:1047200000080140300600203C060020D7D6B7FB29
:10473000B4AECEAA3A2025630A000000D6B8D5EB65
:10474000D6B8CFF2D4AACBD83A2025630A0000000D
:10475000D7D6B7FBB4AE32CEAA3A2025630A000002
:10476000D6B8D5EB32D6B8CFF2D4AACBD83A2025DA
:10477000630A00002DE9F8434FF48050ADF80000C3
:1047800010258DF8035003248DF8024069465048E7
:1047900000F085FC4020ADF800004E4F8DF803502E
:1047A0008DF802406946384600F079FC2020ADF8CB
:1047B00000006946384600F072FC7F20ADF800002A
:1047C0000426DFF814818DF803608DF802406946F5
:1047D000404600F064FC8020ADF800008DF80360D6
:1047E0008DF802406946404600F059FCADF8005093
:1047F00048208DF803008DF802406946384600F0E5
:104800004EFC0120ADF800008DF803508DF80240F9
:104810006946384600F043FCBDE8F88330B583B004
:104820004FF4C06000F06CFA0A208DF808000024F4
:104830008DF809408DF80A4001258DF80B5002A82B
:1048400000F065FA0421084600F0F1FC1020009009
:104850008DF804400C208DF805008DF80650684650
:1048600001F085FB03B030BD38B500248DF8004061
:1048700000F036F842228021122000F0B2F8002821
:1048800008BF38BD40F2DC50FEF755FF42230B2233
:104890000121684600F0FDF8002808BF38BD9DF8EA
:1048A000000073280EBF0D4D002038BD05EB4400FD
:1048B0004222417815F8140000F093F8002808BF50
:1048C00038BD601C84B2722CF0D3012038BD0000CA
:1048D000001401400018014000100140C497000876
:1048E000F8B50121402000F0D7FD0420ADF800000C
:1048F0000324FF4E8DF8024010258DF803506946C1
:10490000304600F0CCFB0820ADF800008DF80240E6
:104910008DF803506946304600F0C1FBF8BD08B57C
:104920000121402000F0B8FD0820ADF8000014205F
:104930008DF8030003208DF802006946EC4800F072
:10494000AEFB08BD08B50820ADF8000003208DF8C7
:10495000020010208DF803006946E54800F09FFB37
:1049600008BDF8B50121402000F096FD0824ADF8FF
:10497000004014208DF80300DD4E03258DF8025011
:104980006946304600F08BFBC821481E0104090C23
:10499000FBD1D84804220260C821481E0104090C3A
:1049A000FBD1D548006810F0080FD448026016BF4C
:1049B0000020C821F8BD481E0104090CFBD1ADF848
:1049C00000408DF8025010208DF8030069463046F3
:1049D00000F065FBC820401E0004000CFBD1012044
:1049E000F8BD70B5DFF80CC30C4608210546CCF8BD
:1049F0000010C820401E0004000CFBD10423CCF89A
:104A00000030C820401E0004000CFBD1DFF8ECC2CF
:104A1000CCF80010C820401E0004000CFBD1CCF8DC
:104A20000030C820401E0004000CFBD1C820401EEE
:104A30000004000CFBD1104600F030F9FFF791FFA5
:104A4000002818BFC82020D0401E0004000CFBD155
:104A5000E8B200F023F9FFF784FFC820401E0004ED
:104A6000000CFBD1204600F019F9FFF77AFFC820AF
:104A7000401E0004000CFBD100F0F9F8C820401ED5
:104A80000004000CFBD1012070BD00F0F0F8002004
:104A900070BD2DE9FF4FDFF85C9281B04FF0080840
:104AA0008A4615461C46C9F80080C820401E0004EE
:104AB000000CFBD10426C9F80060C820401E000489
:104AC000000CFBD18D4FC7F80080C820401E0004A9
:104AD000000CFBD13E60C820401E0004000CFBD13E
:104AE000184600F0DBF8FFF73CFF00287ED0284690
:104AF00000F0D4F8FFF735FF00F0B9F8C9F80080EE
:104B0000C820401E0004000CFBD1C9F80060C8207A
:104B1000401E0004000CFBD1C7F80080C820401ED6
:104B20000004000CFBD13E60C820401E0004000CB5
:104B3000FBD1601CC0B200F0B1F8FFF712FF0028F3
:104B400075D0BAF1000F18BF4FF0030B69D00024E5
:104B5000C9F8008007256006040E3E60C820401E8C
:104B60000004000CFBD1C9F800600121402000F0D6
:104B700093FCADF8008014208DF803008DF802B08E
:104B800069465B4800F08BFAC820401E0004000C08
:104B9000FBD15948006810F0080F18BF44F0010419
:104BA0002800A5F10101CDB2D5D13E60ADF800805D
:104BB0008DF802B010208DF8030069464C4800F0D3
:104BC0006EFA0198BAF1010F04701ABF31463E60C7
:104BD000C9F800804FF0C8002FD0401E0004000C20
:104BE000FBD1C7F80080C820401E00E01FE0000491
:104BF000000CF9D1C9F80010C820401E0004000CB8
:104C0000FBD13960C820401E0004000CFBD1019884
:104C1000401C0190AAF101001FFA80FABAF1000FBE
:104C200095D100F024F805B00120BDE8F08F00F028
:104C30001EF805B00020BDE8F08F401E0004000CF7
:104C4000FBD13146C9F80060C820401E0004000CAA
:104C5000FBD13960C820401E0004000CFBD1C7F80E
:104C60000080C820401E0004000CFBD1CFE7234881
:104C700008210160C820401E0004000CFBD11D4A21
:104C800004201060C820401E0004000CFBD11160FD
:104C9000C820401E0004000CFBD1704730B4DFF880
:104CA00054C0072208250CF10404042310F0800FDF
:104CB00014BFCCF8005025604006000EC821491EE4
:104CC0000904090CFBD1CCF80030C821491E0904A5
:104CD000090CFBD12360C821491E0904090CFBD132
:104CE0001100A2F10102D2B2E0D130BC7047000045
:104CF0000018014010180140081801401418014024
:104D00002A4940F0FD7040F080600860704730B480
:104D1000C278017801234FF0E02C02B3234A1268D5
:104D20000F2502F4E062C2F5E062120AC2F1040447
:104D300025FA02F2457805FA04F485782A402243E0
:104D40001B4C12010A55007800F01F0103FA01F113
:104D500040090CEB8000C0F8001130BC704701F036
:104D60001F0003FA00F049090CEB8101C1F8800132
:104D700030BC704721F07F0121F0604108430D49AC
:104D8000086070470C4A0029116814BF084321EAE3
:104D90000000106070474FF0E021042808690CBF44
:104DA00040F0040020F00400086170470CED00E0C2
:104DB00000E400E008ED00E010ED00E001684FF6CF
:104DC000FE72114001600021016041608160C1609C
:104DD000684A6949904204BF486840F00F0022D0F9
:104DE000664A904204BF486840F0F0001BD0644A15
:104DF000904204BF486840F4706014D0614A904209
:104E000004BF486840F470400DD05F4A904204BF30
:104E1000486840F4702006D05C4A904204BF48685D
:104E200040F4700001D148607047594A904204D163
:104E3000486840F0706048607047564A111F9042C1
:104E400004BF086840F00F0014D0534A904204BFDA
:104E5000086840F0F0000DD0504A904204BF086846
:104E600040F4706006D04E4A904204BF086840F497
:104E7000704001D1086070474A4A904218BF70479D
:104E8000086840F470200860704710B40268D1F8D8
:104E900020C08B686FF30E1243EA0C03D1E904C4FF
:104EA0004CEA040C43EA0C03D1F818C043EA0C03A3
:104EB000D1F81CC043EA0C03D1F824C043EA0C0328
:104EC000D1F828C043EA0C031A430260CA68426062
:104ED0000A6882604968C16010BC704700210160A7
:104EE00041608160C160016141618161C1610162B4
:104EF0004162816270470029016812BF41F00101DF
:104F00004FF6FE72114001607047002A026814BF1C
:104F1000114322EA01010160704741607047406817
:104F200080B27047002110F0805F14BF1E4A124A01
:104F30001268024218BF01210846704710F0805FD6
:104F400019BF1A4908600C4948607047002110F0E9
:104F5000805F14BF144A084A1268024218BF012138
:104F60000846704710F0805F19BF10490860024979
:104F70004860704708000240000002401C000240E8
:104F80003000024044000240580002406C000240E1
:104F900080000240080402401C0402403004024029
:104FA0004404024058040240000402400404024049
:104FB00010B5A0F18041B1F5843109D1012104205F
:104FC00000F07CFA0021BDE81040042000F076BA21
:104FD000A0F18041B1F5863109D10121082000F00E
:104FE0006DFA0021BDE81040082000F067BAA0F17A
:104FF0008041B1F5883109D10121102000F05EFA1D
:105000000021BDE81040102000F058BAA0F1804106
:10501000B1F58A3109D10121202000F04FFA002199
:10502000BDE81040202000F049BAA0F18041B1F560
:105030008C3109D10121402000F040FA0021BDE867
:105040001040402000F03ABAA0F18041B1F58E3115
:1050500009D10121802000F031FA0021BDE8104083
:10506000802000F02BBAA0F18041B1F5903118BF3B
:1050700010BD0121080200F021FABDE81040002116
:105080004FF4807000F01ABA10B50121084600F004
:1050900015FA0021BDE81040012000F00FBA2DE9FB
:1050A000F001CB78002203F00F0C13F0100F1CBF9F
:1050B0008B7843EA0C0C0B884FF00F0613F0FF0FB0
:1050C0004FF0010518BF04681AD000BF0F8805FA19
:1050D00002F31F409F420FD1970006FA07F824EA17
:1050E00008040CFA07F73C43CF78282F08BF436128
:1050F00002D0482F08BF0361521C082AE6D304607F
:105100000A88FF2A87BF44680022BDE8F001704783
:1051100002F108030F8805FA03F31F409F420FD1E5
:10512000970006FA07F824EA08040CFA07F73C434C
:10513000CF78282F08BF4361CF78482F08BF03617D
:10514000521C082AE4D34460BDE8F00170474FF6D2
:10515000FF710180022181700421C17070470246F5
:10516000002092680A4218BF01207047806880B210
:10517000704702460020D2680A4218BF01207047DB
:10518000C06880B270470161704741617047002A72
:1051900014BF016141617047C160704741F48032C2
:1051A0008261816182618169806970472B4A1368DD
:1051B0004FF6807C03EA0C0343EA001008431060BA
:1051C00070472749C861704770B4244A10F0004FF7
:1051D00014BFD3695368C0F303444FF4401C3CEA46
:1051E00000054FEA505C4FEA0C1C86B206FA0CFC34
:1051F00016D010F4801F08BF23EA0C0303D0032548
:1052000005FA04F4A34343F07063002918BF4CEA85
:10521000030310F0004F14BFD361536070BC70479C
:10522000546823F0706324F070645460EDE78A07DB
:1052300021F0030101F1804101F58031120F0F23AC
:10524000D1F808C093402CEA03038B608B68904030
:1052500018438860704703490860704700000140A8
:1052600000002042DC002042AA48016841F0010110
:1052700001604168A84A11404160016821F4102191
:1052800021F080710160016821F480210160416892
:1052900021F4FE0141604FF41F01816070479D4978
:1052A0000A6822F480320A600A6822F480220A60C6
:1052B000B0F5803F04BF086840F4803006D0B0F5F8
:1052C000802F06BF086840F4A02070470860704730
:1052D000002243098F49012B08BF096803D0022B24
:1052E0000CBF096A496A00F01F00012303FA00F0AD
:1052F000084218BF012210467047864A002000214C
:10530000136813F4003F18BF0121401CB0F5A06FD3
:1053100001D00029F3D0106810F4003018BF01202C
:1053200070477C490A6822F0F80242EAC00008602F
:1053300070477A4908607047764A5368084323F4F7
:105340007C13184350607047744908667047714970
:105350004A6822F003021043486070476D48406875
:1053600000F00C0070476B494A6822F0F0021043CD
:105370004860704767494A6822F4E0621043486019
:10538000704764494A6822F4605242EAC0004860AB
:105390007047604A0029517A14BF084321EA00008F
:1053A000507270475E49086070475A494A6822F453
:1053B00040421043486070475649002281F820203F
:1053C00081F82020012803D004280CBF0520704755
:1053D00081F8200070475349086070474D490A6AB8
:1053E00010430862704750490860704749494A684D
:1053F00012F00C034D4A18BF042B01D0082B01D02A
:10540000026015E04A684B6802F470124FF0020C1B
:1054100013F4803F0CEB924203D04B6813F4003F2F
:1054200003D0434B5A43026002E0404B5A430260B0
:105430004A68404B02F0F00212099A5CD0F800C0B2
:105440002CFA02F24260D1F804C00CF4E06C4FEA8E
:105450001C2C13F80CC022FA0CFCC0F808C0D1F8C0
:1054600004C00CF4605C4FEADC2C13F80C30DA401A
:10547000C2604968304B01F44041890B595CB2FB72
:10548000F1F101617047234A0029516914BF0843B3
:1054900021EA0000506170471E4A0029916914BF3B
:1054A000084321EA0000906170471A4A0029D16937
:1054B00014BF084321EA0000D0617047154A002953
:1054C000D16814BF084321EA0000D0607047114A38
:1054D0000029116914BF084321EA000010617047D8
:1054E0001649086070470D49C86470470949C8717A
:1054F00070470848416A41F0807141627047054A2F
:105500000146002092680A4218BF012070470149F5
:1055100088727047001002400000FFF8000042420D
:10552000D8004242800442423C04424200127A00C7
:1055300000093D00410A00203D0A0020400442428B
:1055400064480021016041608160C1604162816204
:10555000C162614A8263C16370475E4910B44A68A0
:10556000037DD0F808C0C46843EA0C03D0F804C037
:1055700022F0FF024CEA040C43EA0C03D0F800C00E
:10558000006943EA0C0322F4FC42184310434860CC
:1055900010BC704700210175016041608160C160ED
:1055A000016170474D49086070474A490A6822F016
:1055B00003020A600A6810430860704745480068A3
:1055C00000F003007047434A0029D16B14BF084321
:1055D00021EA0000D06370474149086070473D49A7
:1055E00002688A60CA68D0E9013C43EA0C03D0E94A
:1055F00003C04CEA00006FF30A0218431043C8606E
:1056000070470021016041608160C16001617047A5
:1056100030480069C0B270473249405870472D4940
:1056200002684A6242688A62CA6AD0E9023C43EA76
:105630000C03D0E904C04CEA000022F0F702184342
:105640001043C86270474FF0FF3101600021416094
:105650008160C1600161416170471E48006B704705
:105660002148006870472049086070471948806CDD
:1056700070471E49086070471D49086070471D4902
:10568000086070471C49086070471C4908607047F3
:105690001B4908607047012121EA00001949086090
:1056A00070471949086070470A4A01460020526B4A
:1056B0000A4218BF01207047064988637047054AAF
:1056C00001460020526B0A4218BF01207047014971
:1056D0008863704700800140FF07C000A00030428F
:1056E0008C0530421480014080800140A00530428A
:1056F000A4053042A8053042AC053042AC0130422E
:10570000B0013042B4013042B801304210B5A0F1CE
:105710008041B1F59C310AD101218803FFF7CEFE0B
:10572000BDE8104000214FF48040FFF7C7BEA0F154
:105730008041B1F588410AD101214804FFF7C7FE35
:10574000BDE8104000214FF40030FFF7C0BEA0F1CB
:105750008041B1F590410AD101218804FFF7B7FEDD
:10576000BDE8104000214FF48020FFF7B0BEA0F14B
:105770008041B1F598410AD10121C804FFF7A7FE85
:10578000BDE8104000214FF40020FFF7A0BEA0F1BB
:105790008041B1F5A04118BF10BD01210805FFF7F8
:1057A00096FEBDE8104000214FF48010FFF78FBE39
:1057B00030B50446008A85B00D464CF6FF710840AE
:1057C000E98808432082A0894EF6F3110840A98891
:1057D0002A8911436A8910430843A081A08A4FF6A1
:1057E000FF410840A9890843A0826846FFF7FEFDF3
:1057F000A4F18040B0F59C300CBF03980298A189B9
:1058000011F4004F00EBC00101EB0010296814BF38
:1058100049008900B0FBF1F0954A6FF0180CA2FB2B
:105820000031490909010B0903FB0CF300EB83006C
:10583000A38913F4004F4FF0320314BF03EBC000F1
:1058400003EB0010A2FB00204FEA501014BF00F041
:10585000070000F00F000843208105B030BD4FF471
:105860001651016000218180C18001810C2242819A
:1058700081817047028A4FF2FF031A400B88B1F80A
:1058800002C043EA0C03B1F804C0C9884CEA010124
:1058900019431143018270470021018041808180BA
:1058A000C18070470029818914BF41F4005121F45F
:1058B000005181817047C1F3421301F01F014FF085
:1058C000010C0CFA01F1012B08BF0C3003D0022BA4
:1058D0000CBF10301430002A026814BF114322EAB2
:1058E000010101607047002A828A14BF114322EA35
:1058F000010181827047028A22F00F020282028A2D
:10590000114301827047828922F400628281828978
:105910001143818170470029818914BF41F0020140
:1059200021F0020181817047028A22F02002028266
:10593000028A1143018270470029018A14BF41F491
:10594000804121F4804101827047C1F308018180C8
:1059500070478088C0F308007047818941F00101D9
:1059600081817047028BD2B20283028B42EA01210D
:1059700001837047028B02F47F420283028B114342
:10598000018370470029818A14BF41F0200121F072
:105990002001818270470029818A14BF41F01001E3
:1059A00021F01001818270470029818A14BF41F0E3
:1059B000080121F00801818270470029818914BF04
:1059C00041F40041C1F30E01818170470029818AB1
:1059D00014BF41F4006121F4006181827047828A22
:1059E00022F004028282828A114381827047002958
:1059F000818A14BF41F0020121F0020181827047C7
:105A00000246002012880A4218BF01207047C9438D
:105A10000180704710B401F01F0201240023C1F37C
:105A2000421C04FA02F2BCF1010F04BFB0F80CC032
:105A30000CEA020208D0BCF1020F0CBFB0F810C093
:105A4000B0F814C00CEA0202090A008804FA01F155
:105A50000840002A1CBF00280123184610BC7047CC
:105A6000090A012202FA01F1C943018070470000CE
:105A70001F85EB514FF0204202EB8001002807BF49
:105A800043F2DB00106043F2D20008606FF0704018
:105A90004860C1F80401704740234FF0180C4FF0E4
:105AA00020414FF0FC32102808D0C1F880C0C1F866
:105AB0008430C1F88820C1F88C207047C1F860C0DC
:105AC0004B668A66CA667047FA48182101604FF033
:105AD000000141604FF0FC318160C160016170479D
