:020000040800F2
:10000000E8E70020F5300008B1020008B30200085C
:10001000B5020008B7020008B9020008000000009D
:10002000000000000000000000000000BB0200080B
:10003000BD02000800000000BF020008C102000865
:100040000F3100080F3100080F3100080F31000890
:100050000F3100080F3100080F3100080F31000880
:100060000F3100080F3100080F3100080F31000870
:100070000F3100080F3100080F3100080F31000860
:100080000F3100080F3100080F3100080F31000850
:100090000F3100080F3100080F3100080F31000840
:1000A0000F3100080F3100080F3100080F31000830
:1000B0000F3100080F3100080F3100080F31000820
:1000C0000F3100080F3100080F3100080F31000810
:1000D0000F3100080F3100080F3100080F31000800
:1000E0000F3100080F3100080F3100080F310008F0
:1000F0000F3100080F3100080F3100080F310008E0
:100100000F310008C50200080F3100080F31000848
:100110000F3100080F3100080F3100080F310008BF
:100120000F3100080F3100080F3100080F310008AF
:10013000DFF80CD005F006FD004800474501000837
:10014000E8E7002008B501F0B7F902F0B1FF02F0CE
:1001500019FB01F093FA00212FA2084601F018FCC8
:10016000002331A20A21142002F0F8FC4FF6FF749C
:10017000002330A21E211420009402F0CDFE0023A3
:100180002CA23221142002F014FF00232246462123
:10019000142002F086FD00232BA25A21142002F025
:1001A000B2FD00232BA20A214FF4967002F058FDF5
:1001B000FF232AA20A214FF48C70009402F0D3FE90
:1001C00000231CA20A214FF4827002F019FF0023C1
:1001D0001DA20A21F02002F0B7FD002325A20A216A
:1001E000DC2002F02FFF002328A296211420009487
:1001F00002F092FE28A3009300214FF4A073F02296
:10020000084601F091FF002326A2962114200094B5
:1002100002F082FEFEE700002F77696C6466697267
:10022000652E626D700000006C43445F44454D4F85
:1002300000000000B0A2C4AAC2DBCCB3D2B0BBF0B5
:10024000D7A8C7F8000000004C4F56452053544D26
:100250003332000052756E696E670000B0A2C4AA06
:10026000C2DBCCB3D2B0BBF0D7A8C7F8BBB6D3AD16
:10027000C4E30000BBB6D3ADCAB9D3C3D2B0BBF0A0
:1002800073746D3332BFAAB7A2B0E500D5FDD4DADE
:10029000BDD8CDBC000000002F6D79536372656539
:1002A0006E000000BDD8CDBCCDEAB3C9000000008F
:1002B0007047FEE7FEE7FEE7FEE7704770477047CE
:1002C00002F00BBF01F080B838B5002003F020FB2E
:1002D000002003F020FB03F0F3FA00214FF48060CC
:1002E00003F08EFA4FF4F850ADF8000004248DF8B6
:1002F00003406946FB4803F0A4F8ADF800406946A6
:10030000F94803F09EF838BD08B54FF4C06002F01C
:1003100003FF31208DF8000000208DF801008DF8DA
:10032000020001208DF80300684602F0FAFE08BDC5
:1003300070B505468CB00C46EC4803F008F8EC4E5E
:100340000021304602F0DEFFEA48CDE9000500203A
:10035000A108CDE902018021CDE9040189000691BF
:100360008900CDE907108900CDE9091069463046BA
:1003700002F09EFF0121304602F0C4FF0CB070BDB8
:1003800070B504468CB00D46D84802F0E0FFD84E58
:100390000021304602F0B6FFD648CDE90004102017
:1003A0000290A808039000208021CDE90401890073
:1003B00006918900CDE907108900CDE90910694649
:1003C000304602F075FF0121304602F09BFFD5E771
:1003D0002DE9FC470026C84C00964FF0080A01960C
:1003E00010204FF04008C4F800A0C4E901084FF401
:1003F0008069C4E903690F463546204603F0A5FA33
:10040000102001F009F8002840D1BC4880680004A1
:1004100020603720C4E90108C4E90359204603F0ED
:1004200094FA372000F0F8FF00282FD1411E04F184
:100430001400C0E9001A302181600221C0E90315CF
:100440000121416103F0A1FA3320C4E90050C4F84E
:100450001090C4E90285204603F077FA332000F0BB
:10046000DBFF040012D1A34D4FF4001AE946803D92
:1004700040F22A68686B10EA080F09D0082003F0E0
:10048000C7FA90B1082003F0CBFA0420BDE8FC873E
:10049000504603F0BDFA0028ECD003F096FA49F874
:1004A0002600761C012EE5D9E8E7022003F0B0FA19
:1004B00020B1022003F0B4FA0220E7E7202003F085
:1004C000A7FA20B1202003F0ABFA0620DEE74FF4B4
:1004D0000075284603F09CFA20B1284603F0A0FAE4
:1004E0000720D3E740F2FF5003F09AFA009800BAD1
:1004F0007860019800BA38602046C7E72DE9FC47CC
:100500000025804600952846019503F03AFA8001BF
:1005100001D50E20BAE7794F6946B86880B2FFF777
:1005200057FF0028B2D13720734C01994FF0060ACB
:100530004FF040094FF48066B8F1010F1FD0C90396
:1005400035D5B968C4F808900904C4E90010C4E9B5
:100550000356204603F0F9F9372000F05DFF00282C
:1005600094D1C4F80890C4E9005A00BFC4E9035606
:10057000614803F0EAF9062000F04EFF86E74903E0
:1005800015D5B968C4F808900904C4E90010C4E995
:100590000356594803F0D9F9372000F03DFF0028F1
:1005A000B8D10220C4F80890C4E9000ADEE725208B
:1005B0006CE72DE9F04101465048002640680328C9
:1005C00015D018B1012801D0022828D1B1F5805FDB
:1005D0000DD0494C4FF4006800250127183C4145D7
:1005E0000ED10120FFF78AFF060003D017E0272075
:1005F000BDE8F081277525606560C4E9025809E00F
:100600000020FFF77BFF060009D127752560656094
:10061000A560E56038482561183803F05EF930467A
:10062000E6E7354910B5086007204860402088603B
:100630000020C8604FF480600861084603F085F927
:10064000BDE81040072000F0E7BE2DE9F0432B493C
:10065000DFF8A4904D6880F84E508968A9F1980998
:10066000A0F84C10D9F800100A0E94090470C2F3D7
:100670008304447002F0030282700A0CC2700A0AFA
:1006800002714171D9F80440210E0901C180C2886C
:10069000C4F3074101F00F0342EA1111C180037254
:1006A000C4F30721CA094272C1F380128272C1F3F6
:1006B0004012C272C1F3001202734FF0000C80F8B6
:1006C0000DC04A464FF001089668C6F30742C6F3CC
:1006D00007274FEA16639DB1012D11D0022D3AD0A4
:1006E0004BE00000001001400014014000F0001039
:1006F0004404024080800140F402002000000020F9
:100700008907090D0161E1B2046944EA81010161CF
:100710000469C3F3C20544EA93140461057503F048
:100720000701417551098175C2F38201C1759107B5
:10073000490F0176027E394642EAD71202760269F3
:10074000047E037A521CA41CA24008FA03F35A4305
:10075000C0E9112311E0A106890A0161016941EA9A
:100760000321016103693946134303610269521C85
:10077000D20442644FF40072826400F11800C1F3A5
:10078000801242704FEA81614FEA51618170837833
:10079000F1B243EAD113837001F07F01C170D9F83F
:1007A0000C204FEA12614FEAD1130371C1F34113D8
:1007B0004371C1F3820383714FEA81714FEA117172
:1007C000C171C379C2F3074143EA9113C371C1F305
:1007D0004013037280F809C001F001018172C2F375
:1007E00007214FEAD113C372C1F380130373C1F31E
:1007F00040134373C1F300138373C1F38103C373C5
:1008000001F003010174C2F34601417480F81280C3
:10081000FF4A11684FEA11630375C1F307434FEABA
:100820000323C382C48AC1F3072344EA0304C482B6
:100830004FEA01618161516884694FEA116344EABA
:10084000034383618469C1F3074344EA032383615B
:100850008469C1F3072344EA030484610177916842
:100860004FEA11634377C1F307434FEA036303621F
:10087000046AC1F3072344EA03430362036AC9B26B
:1008800043EA01210162D168036A43EA116303620A
:1008900090F82430C1F3074243EA121380F8243061
:1008A0004FEA02724FEA1252C284C38CC1F307228C
:1008B00043EA0203C384C1F3460180F8281080F89C
:1008C00029806046BDE8F08310B5D2480024416B12
:1008D00011F0450FFBD0480702D50324042003E0A4
:1008E000C80705D00124204603F09AF8204610BD21
:1008F00040F2FF50F8E72DE9F84F01200025ADF850
:10090000000003F011F8A8B3DFF80C93D9F8040045
:1009100004286BD0BE4C4FF0C00A88340026022059
:10092000C4F808A0C4E900604FF48068C4E9036813
:10093000204603F00AF8FFF7C7FF05001CD103F0BB
:1009400020F8B34F3860042003F01BF878600820CB
:1009500003F017F8B8600C2003F013F8F860D9F82A
:1009600004004F4650B1012808D0062806D00228BE
:1009700004D015E0FFE72520BDE8F88F0320C4E987
:10098000006004F108014020A1E84101A04888303E
:1009900002F0DBFF6946032000F04BFD0500EBD1C0
:1009A0007868042822D0BDF80000B86000042060F8
:1009B0000920C4E9010AC4E903689548883002F0B7
:1009C000C4FFFFF781FF0500D6D102F0DAFF904C9B
:1009D000103C2060042002F0D4FF6060082002F088
:1009E000D0FFA0600C2002F0CCFFE0602846C3E7F7
:1009F0002DE9F05F86484FF0000A7030B221017592
:100A0000C0F800A0C0F804A0C0F808A0C0F80CA06E
:100A1000564657465446C0F810A002F05EFF032029
:100A200002F079FF012002F073FFDFF8E4814FF458
:100A3000806908F188084046C8F80040C8F80440BA
:100A4000C8F80840C8E9034902F07FFF4FF4803B33
:100A50005D4601E06D1E1DD0802002F0D9FF002808
:100A6000F8D0BDB140F2FF5002F0DAFF4FF4D5707C
:100A7000C8F80000454608204FF04008C5E90108C5
:100A80006348C5E90349883002F05FFF614A584670
:100A9000516B07E00320BDE8F09F00BF5D49A0F166
:100AA0000100496B11F0450F14D008B1480714D567
:100AB000042002F0B5FF3720C5E90040C5F81090CA
:100AC0005348C5E90284883002F03FFF372000F028
:100AD000A3FC0BE00028E1D1EAE7480602D540205C
:100AE00002F09EFF4C4801218F0741600021372210
:100AF00085E806014648C5E90319AB46883002F08F
:100B000024FF372000F088FC05003CD049E0002598
:100B10003721CBE90051CBE902853D48CBF8109055
:100B2000883002F012FF372000F076FC0028B2D1A6
:100B30003A4847EA0001CBF800102921CBF80C50C5
:100B40005846CBE901183248CBF81090883002F0B3
:100B5000FCFE3049486B10F0450FFBD0400705D52F
:100B60000324042002F05CFF204694E740F2FF508B
:100B700002F056FF002002F004FF8246C00F06F18B
:100B8000010602D003E04FF6FF74A642BFD3A6428F
:100B900001D31B207FE71AF0804F02D01E480221AC
:100BA0004160284677E708B50121302002F031FE88
:100BB0004FF4F850ADF8000003208DF80200182023
:100BC0008DF803006946164802F03BFC0420ADF89E
:100BD00000006946134802F034FC0121880202F04B
:100BE0000FFE0121022002F00BFE02F069FEFFF76A
:100BF000FFFE00282ED1FFF77EFE00282AD10448F0
:100C000001217030017500210160416081600BE0BD
:100C10006C020020008001400000002000001080D5
:100C20000010014000140140C160016102F055FE56
:100C3000FF48FFF70AFD00280CD1FD48B0F84C0032
:100C40000004FFF7EEFC002804D1BDE808404FF493
:100C50000060AEE408BD70B50546F648F64C806805
:100C60000004A06040F24D40E0600D2000F0D4FB95
:100C7000002801D16169296070BD08B5002000908D
:100C80006846FFF7E8FF08B1FF2008BD0098C0F3F1
:100C9000432008BD10B5FFF7F0FF042803D0FF285C
:100CA00003D0012010BD002010BD022010BD10B5E2
:100CB0000024204602F02FFE204610BD2DE9F0470B
:100CC0000446002002F05DFE800102D50E20BDE842
:100CD000F087D74D402668351020C5E9006005F142
:100CE000080100274FF48068A1E8C001284602F0FF
:100CF0002CFE102000F090FB0028E8D1CD48291DE3
:100D00008068000428603720A1E8C101284602F06D
:100D10001CFE372000F080FB0028D8D1411E05F1D1
:100D20001400C0E90016602181600221C0E90317A8
:100D30000121416102F029FE0D20C5E9007008354E
:100D4000BB48A5E8C001683002F0FFFD0D2000F0AF
:100D500063FB0600BBD1B84F4FF4004940F22A684C
:100D6000786B10EA080F08D0082002F051FEA0B1FD
:100D7000082002F055FE0420A9E7484602F048FE8C
:100D80000028EDD05FF0000502F01FFE44F82500BA
:100D90006D1C082DF8D32034E2E7022002F038FE63
:100DA00020B1022002F03CFE022090E7202002F059
:100DB0002FFE20B1202002F033FE062087E74FF4FB
:100DC0000075284602F024FE40B1284602F028FEB5
:100DD00007207CE702F0F9FD01C401E04FF40015A3
:100DE000284602F015FE0028F4D140F2FF5002F030
:100DF00017FE30466BE710B504468D481038FFF7F4
:100E00005DFF010036D18A481038027892092270BD
:100E10000278C2F340126270827812026280C27855
:100E200063881343638002791206626042796368C3
:100E300043EA024262608279636843EA02226260A6
:100E4000C279636813436360027A2272427A6272E3
:100E5000827A1209A272C27A1202A281027BA3894B
:100E60001343A381427B9208A273407B00F00300EE
:100E7000E073084610BD2DE9F04782466D48002515
:100E80000F46164605700561C5606B49CD62406826
:100E9000022801D106027F0A654C4FF040096834F0
:100EA0001020C4F80890C4E900604FF48068C4E9D9
:100EB0000358204602F049FD102000F0ADFA00284A
:100EC00028D1411E04F11400C0E900169021816070
:100ED0000221C0E903150121416102F056FD1120F4
:100EE000C4F80890C4E90070C4E90358204602F031
:100EF0002CFD112000F090FA04000BD10121080212
:100F000002F017FD012002F01DFD31465046FFF7AB
:100F10000FFA2046DBE62DE9FF5F464800250E4626
:100F200017469846057005614FF0010AC0F80CA0FD
:100F30004149CD624068022801D10702760A3C4C43
:100F40004FF4806B68341020C4F810B0C4E900700E
:100F50004FF04009C4E90295204602F0F6FC10204B
:100F600000F05AFA00282BD1411E04F1140008FBAE
:100F700007F8C0E90018902181600C300221A0E838
:100F8000220404F1140002F000FD1220C4F810B095
:100F9000C4E90060C4E90295204602F0D6FC1220A4
:100FA00000F03AFA04000BD10121080202F0C1FC62
:100FB000012002F0C7FC41460098FFF7B9F920462E
:100FC00004B068E570B51B4C002500BF00F021FAA5
:100FD00020B9206910B920780028F7D0207808B10E
:100FE000207870BD284670BD2DE9F0478246114833
:100FF00000250F46164605700561C5600E49CD6295
:101000004068022801D106027F0A094C4FF480692A
:1010100068341020C4F81090C4E900604FF0400814
:10102000C4E90285204602F090FC102006E0000092
:101030008C020020000000200080014000F0ECF94C
:10104000002827D11820C4F81090C4E90070C4E922
:101050000285204602F079FC182000F0DDF9002816
:1010600018D1411E04F11400C0E900169021C0E916
:1010700002150121C0E9045102F087FC0121080298
:1010800002F057FC31465046FFF77AF9012002F092
:1010900059FC28461BE62DE9FF5FDFF8F8A3002482
:1010A0000E4617461D468AF80040CAF81040012136
:1010B000CAF80C10F849CC62DAF80400022801D111
:1010C0000702760ADFF8D4B310214FF04008CBE9CD
:1010D0000071CBE902844FF480695846CBF8109038
:1010E00002F033FC102000F097F9002851D1DAF813
:1010F0000800DA4601045846CBF800103721C0E951
:101100000118C0E90349A346E44802F01EFC372059
:1011100000F082F900283CD15446CAF8005017204C
:10112000C4E90108C4E903B9C246D846DB4802F065
:101130000CFC172000F070F900282AD11920C4F8FF
:1011400008A0C4E900604646C4E90389D34802F018
:10115000FCFB192000F060F900281AD1CF4A401E8C
:1011600014327D43C2E900059020C2E90206012045
:10117000C2E90460104602F008FC0121080202F0F6
:10118000D8FB012002F0DEFB29460098FFF7F8F8B3
:10119000304615E770B5BF4C002500BF00F039F9A7
:1011A00020B9206910B920780028F7D0207808B13C
:1011B000207870BD40F2FF5002F032FC284670BD2E
:1011C000B548406B10F4405000D001207047B24841
:1011D0000021816040F24C41C1600C2000F01CB93C
:1011E00070B50446AB48002580680104AB48016037
:1011F0000D2141604021C0E902150901016102F0A1
:10120000A4FBA549486B10F0450FFBD0410702D560
:101210000324042003E0C00705D00124204602F087
:10122000FFFB204670BD02F0A8FB0D282ED140F236
:10123000FF5002F0F5FB002002F0A3FBC0F34321B6
:101240002170974908424BD0002801DA1C2070BD5C
:10125000410001D5092070BD810001D50A2070BD73
:10126000C10001D50B2070BD010101D50C2070BD5E
:10127000410101D50D2070BDC10101D50E2070BD09
:10128000010201D50F2070BD410201D5102070BDB3
:10129000810201D5112070BDC10201D5122070BD9F
:1012A000010301D5132070BD410301D5142070BD89
:1012B000810301D5152070BDC10301D5162070BD75
:1012C000010401D5172070BD410401D5182070BD5F
:1012D000810401D5192070BD000701D51A2070BD09
:1012E000284670BD2DE9F84F05466C480024983813
:1012F0008DF8004040680E464FEA1050A046800628
:1013000002D42520BDE8F88F634840686549C0B223
:10131000801CB1FBF0F7002002F033FB800101D507
:101320000E20EFE75B48DFF874914FF0400B406808
:101330004FF4806A022805D030B1012804D0022879
:1013400002D023E06D0A760A2021C9E90051C9E9DB
:1013500002B848465D465148C9F810A002F0F5FAB7
:10136000202000F059F80028CCD109F104002121F7
:10137000C9F80060A0E822014848C9F810A002F0AE
:10138000E4FA212000F048F80028BBD1414626228B
:1013900089E80608C9E9038A404802F0D6FA2620FF
:1013A00000F03AF80028ADD100E0641CBC42FCD348
:1013B0006846FFF715FF0028A4D19DF80010072903
:1013C000F6D00629F4D09DE770B5324CE1680020D4
:1013D000012907D13049886040F24C40C8600C2098
:1013E00000F01AF820704FF48075284602F023FBB5
:1013F0000021284602F09DFA01202061207870BD6E
:10140000002102E04008491CC9B20128FAD108466F
:101410007047254801F08EBF1F48416B11F0450F02
:10142000FBD040F2FF518163406908210840C0B2FF
:10143000704770B50C46184906460025486B10F0F9
:10144000450FFBD0410702D50324042003E0C00769
:1014500005D00124204602F0E3FA204670BD02F0D8
:101460008CFAB04213D140F2FF5002F0D9FA0020BA
:1014700002F087FA10F4604F03D0810405D51320E1
:1014800070BD4FEA1040208014E041040ED51020BA
:1014900070BD00000000002000800140F402002028
:1014A00008E0FFFDC0D4010000200010000401D5B9
:1014B0000F20EDE72846EBE710B586B0012144F296
:1014C000040002F0A6F94FF40070ADF810001820E7
:1014D0008DF8130003205C4C8DF8120004A92046FF
:1014E00001F0AFFF2015ADF8100004208DF81300B7
:1014F00004A9204601F0A5FF4FF4E1300090002040
:10150000ADF80400ADF80600ADF80800ADF80C0029
:101510000C204E4CADF80A006946204602F0D8FA7D
:101520000121204602F04CFB06B010BD10B5044668
:10153000C1B2464802F09AFB454800BFB0F8001817
:101540000906FBD5204610BD0FB42DE9FF478146A3
:101550000EAC4FF000080FE05C2915D000F101003F
:1015600025290D901ED0484602F080FB40214846B8
:1015700002F0DDFB0028F9D00D9801780029EBD1AD
:10158000BDE8FF075DF814FB401C0D9001786E2943
:1015900003D072291BD10D2100E00A21484602F038
:1015A00065FB13E00178642914D073290FD120CC96
:1015B00009E0484602F05AFB4021484602F0B7FBDA
:1015C0000028F9D06D1C29780029F2D10D98401C13
:1015D0000D90CBE701CC00256A46002820D007DA21
:1015E0004FF02D018DF8001002F10102C0F1000052
:1015F00042F210735FF00A0690FBF3F151EA05071F
:1016000006D001F1300502F8015B01FB1300012552
:1016100093FBF6F3002BEFDC82F800806D460FE0C1
:1016200030208DF800008DF80180F7E7484602F081
:101630001DFB4021484602F07AFB0028F9D06D1CC2
:1016400029780029F2D1C1E70008014000380140A3
:101650000030014008B54FF4C06001F05DFD31205D
:101660008DF8000000208DF801008DF802000120A7
:101670008DF80300684601F054FD08BD10B5FFF772
:10168000E9FFBDE810408949002003F086BD2DE93F
:10169000F0470025FFF7DEFF002004F0ABF9834997
:1016A000002003F07AFD022281A1854803F082FD2B
:1016B000844C4FF40078207050B904F1080342467E
:1016C000191D7F4803F0F4FE20707D4804F008F8EF
:1016D000012277A17A4803F06DFD207001200027D8
:1016E000C4E90170784E06F500793946384642461D
:1016F00067603154401C9042FBDB724B60600833E2
:1017000071496F4803F02CFE207009EB45206E4AAA
:101710006EA104F067FA20786D1C10B9A06800284B
:10172000E3D1674803F0DCFFBDE8F047002000F09C
:10173000D4BE70B516468EB00D46024664A168460A
:1017400004F050FA5949002003F027FD06226946AB
:101750005B4803F02FFD5B4C207028B1082801D0B6
:101760004FF0FF300EB070BD564B3246083329465D
:10177000534803F09DFE2070514803F0B1FF002054
:10178000F0E770B516468EB00D46024650A1684689
:1017900004F028FA4549002003F0FFFC02226946C4
:1017A000474803F007FD474C207020B10428D9D0EA
:1017B0004FF0FF30D6E7434B3246083329464048C6
:1017C00003F076FE20703E4803F08AFF0020C9E750
:1017D0002DE9F0438DB00F46024600253CA1684636
:1017E00004F000FAFFF74AFF3049002003F0D5FC6F
:1017F00001226946324803F0DDFC324C207018B1FA
:10180000681E0DB0BDE8F0832F4E4FF000084FF476
:101810000079434640464A46C4F804803354401C8D
:101820009042FBDB274B606008332749244803F0D4
:1018300097FD207007EB4520234A24A104F0D2F93C
:1018400020786D1C10B9A0680028E2D10020D8E7EC
:1018500070B5064608784978B038C0EB001202EB44
:10186000401001EB40004501A5F5A1550F490020AE
:1018700003F093FC012218A1114803F09BFC114CCA
:10188000207010B14FF0FF3070BD29460C4803F0B6
:1018900030FF0C4B202208333146094803F060FD2D
:1018A0002070074803F01CFF002070BD20030020BB
:1018B000303A2F6D795F5F44656D6F2E5458540038
:1018C0008007002014000020A409002025730000D8
:1018D000303A257300000000303A2F485A4C4942F4
:1018E0002E62696E0000000010B50446DBA004F013
:1018F00069F9DEA0216804F065F9E1A0616804F0EF
:1019000061F9E2A0A16804F05DF9A189E2A004F008
:1019100059F9E189E5A004F055F9EBA0216904F03B
:1019200051F9EDA0616904F04DF9F6A0A16904F048
:1019300049F9F9A0E16904F045F9FCA0216A04F035
:1019400041F9616ABDE81040FDA004F03BB903789D
:1019500042788178FEA004F035B970B536242507A9
:101960002C80FE4D28242C8000F0EEFDBDE8704058
:1019700000F045BE002000F0B0BD10B501231A46AE
:1019800000F0E2FD00F03BFEBDE8104000F094BD29
:101990002DE9F04395B080460D46F1A10BA804F067
:1019A00021F9F149002003F0F8FBF0A004F00AF956
:1019B00001220BA9F24803F0FDFBF24C207000203D
:1019C00000F08BFD207808B1EFA07EE0F3A004F0DA
:1019D000F9F813AB02220AA9E94803F0C1FCBDF8EB
:1019E0002800A0F59A41423901D0F1A06DE0F7A09E
:1019F00004F0E8F813AB0C2210A9E14803F0B0FCA6
:101A000010A800F07AFCF6A004F0DCF813AB282252
:101A10006946DB4803F0A4FC6846FFF765FFF0A0C9
:101A200004F0D0F8DDE90147BDF80E00014660433F
:101A30001F30C21700EBD26040118600B6F5707FF0
:101A400001DDE8A041E018293ED3C5F1F000C01B3C
:101A500081B2BBB2A2B24046FFF77FFF0025DFF89C
:101A6000A49307F1010824E0002707E009EB070130
:101A700013AB0122C24803F073FC7F1CB742F5DBB5
:101A800000204946DFF8D4C210E000BF00EB40025E
:101A90008F188A5CBB787F78DB08DB02BF0843EADB
:101AA000471343EAD202ACF80020401CA042EDDB11
:101AB0006D1C4545D8DB002000F00FFDB04803F059
:101AC0000FFE15B0BDE8F083CFA004F07BF8F8E777
:101AD0002DE9F04F99B080460C4616461D46382237
:101AE000D4A1684604F006F8002017904FEAE4718C
:101AF00004FB06F004EB917100EB400021F00301C0
:101B0000A20700F13600A4EB010901D006FB090091
:101B10008DF80200010A8DF80310010C8DF80410F5
:101B2000000E8DF805008DF81240200A8DF8130084
:101B3000200C8DF81400200E8DF815008DF816601D
:101B4000300A8DF81700300C8DF81800300E8DF823
:101B500019002A46C5A10EA804F044F882490020C5
:101B600003F01BFB06220EA9854803F023FB854DDD
:101B7000287030B1082801D04FF0FF3019B0BDE80F
:101B8000F08F16AB362269467D4803F091FCAB46D8
:101B90002870002533E0A0074FF0000713D105FBA4
:101BA00004F000EB400A0BE007EB470141445144CD
:101BB00016AB0322724803F07BFC8BF800007F1CFD
:101BC000A742F1DB1AE005FB04F000EB400A0BE052
:101BD00007EB47014144514416AB0322684803F028
:101BE00067FC8BF800007F1CA742F1DB16AB4A466E
:101BF00017A9634803F05CFC8BF800006D1CB5422C
:101C0000C9DB5F4803F06CFD0020B7E72DE9F04F1A
:101C100099B083460C4615461E46382285A1684673
:101C200003F068FF002017904FEAE47104FB05F011
:101C300004EB917100EB400021F00301A20700F1D9
:101C40003600A4EB010801D005FB08008DF8020066
:101C5000010A8DF80310010C0EE10000CEBBCDBCD3
:101C6000D0C5CFA2CDB73A0D0A000000BDE1B9B989
:101C7000CCE5B5C4B3A4B6C83A25640D0A0000008B
:101C8000CEBBCDBCBFED3A25640D0A00CEBBCDBCAA
:101C9000B8DF3A25640D0A006269506C616E6573A5
:101CA000C6BDC3E6CAFD3A25640D0A0062694269F1
:101CB00074436F756E74B2C9D3C3D1D5C9ABCEBBF3
:101CC000CAFD3A25640D0A00D1B9CBF5B7BDCABD2E
:101CD0003A25640D0A000000626953697A65496D0E
:101CE000616765CAB5BCCACEBBCDBCCAFDBEDDD579
:101CF000BCD3C3B5C4D7D6BDDACAFD3A25640D0A34
:101D00000000000058B7BDCFF2B7D6B1E6C2CA3A5C
:101D100025640D0A0000000059B7BDCFF2B7D6B157
:101D2000E6C2CA3A25640D0A00000000CAB9D3C34E
:101D3000B5C4D1D5C9ABCAFD3A25640D0A0000006F
:101D4000D6D8D2AAD1D5C9ABCAFD3A25640D0A00AE
:101D50002825642D25642D256429200000000260BB
:101D6000303A2573000000006411002066696C653C
:101D7000206D6F756E74206F6B200D0A00000000DF
:101D8000C41500202002002066696C65206F706514
:101D90006E206661696C210D0A0000004F70656E4F
:101DA0002066696C6520737563636573730D0A0043
:101DB00066696C65206973206E6F74202E626D7089
:101DC0002066696C65210D0A000000004F6B2074CD
:101DD000686973206973202E626D702066696C6576
:101DE0000D0A00000A534F5252592C2050494320EB
:101DF000495320544F4F2042494720283C3D33321D
:101E000030290A00A40D0020534F5252592C20545F
:101E100048495320504943204953204E4F542041B4
:101E200020323442495453205245414C20434F4CB8
:101E30004F520000424D000000000000000036003C
:101E40000000280000000000000000000000010069
:101E5000180000000000000000000000000000006A
:101E6000000000000000000000000000303A257370
:101E70002E626D70000000008DF80410000E8DF8C9
:101E800005008DF81240200A8DF81300200C8DF803
:101E90001400200E8DF815008DF81650280A8DF8C4
:101EA0001700280C8DF81800280E8DF819003246FE
:101EB000AFF248010EA803F095FEFF49002003F0A1
:101EC0006CF906220EA9FD4803F074F9FC4E30703F
:101ED00020B1082801D04FF0FF304FE616AB362274
:101EE0006946F64803F0E4FA3070B24622462946C5
:101EF000F4A003F067FE002636E0A0074FF00007CD
:101F000014D106FB04F000EB400000EB0B090AE0E3
:101F100007EB4701494416AB0322E84803F0C8FA2F
:101F20008AF800007F1CA742F2DB1CE006FB04F0ED
:101F300000EB400000EB0B090BE000BF07EB470193
:101F4000494416AB0322DD4803F0B2FA8AF80000D8
:101F50007F1CA742F2DB16AB424617A9D74803F015
:101F6000A7FA8AF80000761CAE42C6DBD34803F01D
:101F7000B7FB002002E62DE9F04715469CB08146EC
:101F80000C461E463822AFF25411684603F0B2FDEB
:101F900000201A904FEAE47104FB05F004EB917104
:101FA00000EB400021F00301A20700F13600A4EB92
:101FB000010A01D005FB0A008DF80200010A8DF824
:101FC0000310010C8DF80410000E8DF805008DF83B
:101FD0001240200A8DF81300200C8DF81400200EFA
:101FE0008DF815008DF81650280A8DF81700280C6A
:101FF0008DF81800280E8DF819003246AFF29411B2
:102000000EA803F0EFFDAC49002003F0C6F806224D
:102010000EA9AA4803F0CEF8A94E307030B10828B6
:1020200001D04FF0FF301CB0BDE8F08716AB362270
:102030006946A24803F03CFAB046307000266CE0D6
:10204000A0074FF000072DD05CE000BF06FB04F0B6
:1020500009EB400000EB470016AB00880122C10AE3
:10206000C9008DF85C10C0F345118900C0008DF8DF
:1020700060108DF8640019A9904803F019FA88F8E7
:10208000000016AB012218A98C4803F011FA88F859
:10209000000016AB012217A9884803F009FA88F856
:1020A00000007F1CA742D1DB36E000BF06FB04F036
:1020B00009EB400000EB470016AB00880122C10A83
:1020C000C9008DF85C10C0F345118900C0008DF87F
:1020D00060108DF8640019A9784803F0E9F988F8D0
:1020E000000016AB012218A9744803F0E1F988F842
:1020F000000016AB012217A9704803F0D9F988F83F
:1021000000007F1CA742D1DB16AB52461AA96B48D0
:1021100003F0CEF988F80000761CAE4290DB6748E9
:1021200003F0DEFA00207EE72DE9F04F1446A1B05F
:1021300081468A461D463822AFF2083105A82A9EFC
:1021400003F0D8FC00201E9004FB05F000EB4001DA
:10215000363104F0030B05FB0B108DF81600010A55
:102160008DF81710010C8DF81810000E8DF819005D
:102170008DF82640200A8DF82700200C8DF82800C5
:10218000200E8DF829008DF82A50280A8DF82B0092
:10219000280C8DF82C00280E8DF82D003246AFF259
:1021A000343113A803F01EFD4349002002F0F5FF6F
:1021B000062213A9414802F0FDFF414E30703F480E
:1021C00003F08EFA022213A93C4802F0F3FF3070AC
:1021D00028B1082801D04FF0FF3021B0CFE41CAB6C
:1021E000362205A9354803F063F9B0463070002661
:1021F0007CE0A0074FF000072ED06CE007EB0A0050
:1022000081B2AA1B02EB090080B2FFF7B6FBC10A3C
:10221000C9008DF80C10C0F3451189008DF810101D
:10222000C0008DF874001CAB01221DA9234803F0E7
:102230003FF988F800001CAB012204A91F4803F0F5
:1022400037F988F800001CAB012203A91B4803F0F2
:102250002FF988F800007F1CA742CFDB45E000BFC4
:1022600007EB0A0081B2AA1B02EB090080B2FFF75C
:1022700084FBC10AC9008DF80C10C0F34511890018
:102280008DF81010C0008DF874001CAB01221DA940
:102290000A4803F00DF988F800001CAB012204A9DC
:1022A000064803F005F988F800001CAB012203A9D9
:1022B000024803F0FDF80BE064110020C415002073
:1022C000200200202530642D2530640A0000000023
:1022D00088F800007F1CA742C2DB1CAB5A461EA92F
:1022E000114803F0E5F888F80000761CAE4280DB68
:1022F0000D4803F0F5F900206FE710B504460BA078
:1023000003F060FC0DA0216803F05CFCA1880FA025
:1023100003F058FCE1880DA003F054FCA168BDE86F
:1023200010400DA003F04EBCC4150020CEBBCDBCA8
:10233000CEC4BCFECDB73A0D0A000000CEC4BCFE30
:10234000B4F3D0A13A25640D0A000000B1A3C1F492
:10235000D7D63A25640D0A00CAB5BCCACEBBCDBCDF
:10236000CAFDBEDDB5C4C6ABD2C6D7D6BDDACAFD7E
:102370003A25640D0A0000002DE9F8430121080206
:1023800001F03EFA0121602001F043FA10248DF89B
:1023900003400325DFF8DC838DF802506602ADF8B8
:1023A00000606946404601F04CF80220F24FADF85B
:1023B00000006946384601F044F88DF802501820B4
:1023C0008DF803004CF20370ADF8000069464046FA
:1023D00001F037F84FF68070ADF8000069463846D6
:1023E00001F02FF8ADF800406946404601F029F8A9
:1023F0002020ADF800006946404601F022F8802018
:10240000ADF800006946404601F01BF8E001ADF868
:1024100000006946404601F014F83146404601F09C
:102420007FF80221384601F079F80821404601F092
:1024300077F84021404601F071F8BDE8F88300B517
:1024400097B002200F9000200521CDE910014FF038
:102450008051CDE914011290139008210090CDE92C
:1024600001011021CDE90310069009020790CDE982
:1024700008010A900B900C900FA80D900E906846E2
:1024800001F0C0FC0121002001F0EEFD17B000BDFD
:1024900010B5B94C0221204601F042F842F210700A
:1024A00000F015FE0221204601F038F8BDE810408A
:1024B00042F6E06000F00BBE4FF0C0412E200880D5
:1024C000AE4801880188028800886FF30A01800AFB
:1024D00041EA401040EAD22070472DE9F04336250A
:1024E000002201242B07A5492A26DFF894924FF0F9
:1024F0003F082B274FF0EF0CA0B1012810D11D8011
:10250000482008801E800A800A800A80A1F800C046
:102510001F800A800A800C80A1F8008089F80040A2
:10252000BDE8F0831D80682008801E800A800A8034
:102530000C80A1F800801F800A800A800A80A1F820
:1025400000C089F80020EBE72DE9F04F8C4C26788D
:1025500020F0FF05451B040A8718781EC0F30F22E0
:1025600020F0FF0CA7EB0C00401E87B221F0FF000B
:10257000081A4FEA112B1FFA80FA1944481EC0F3BB
:102580000F2320F0FF0CA1EB0C00DFF8F0E1401E60
:102590004FF02A08ADB24FF02B0980B24FF0C04C7B
:1025A000C6B1ACF80090AEF80040AEF80050AEF8FE
:1025B0000020AEF80070ACF80080AEF800B0AEF8C5
:1025C00000A0AEF80030AEF800002C21ACF80010EE
:1025D000BDE8F08FACF80080AEF80040AEF80050D7
:1025E000AEF80020AEF80070ACF80090AEF800B085
:1025F000AEF800A0AEF80030AEF80000E5E72C2001
:10260000C106088070472DE9F0474FF0C044CF2045
:1026100020805A48002101808122028030220280DD
:10262000ED22228064220280032202801222028094
:1026300081220280E82222808522028010220280EC
:1026400078230380CB2323804FF0390CA0F800C0FF
:102650004FF02C09A0F8009001803423038002235E
:102660000380F723238020230380EA232380018033
:102670000180B123238001801B230380B6252580A0
:102680000A250580A2250580C026268035260680DD
:10269000C12626804FF01108A0F80080C5262680AC
:1026A000452606800680C72626800580F2252580DF
:1026B00001802626268001250580E02727800F2718
:1026C00007800680242606800B2606800E260680BC
:1026D0000926068054270780A827078046270780F9
:1026E0000C2707801727078006800F2606800726FD
:1026F00006800180E1272780018019270780038059
:1027000004230380028006802A220280472303805C
:10271000A0F800C003230380062303800380302336
:102720000380382303800F2303803623238068230C
:10273000038022800180018005803F2202802B22BD
:102740002280018001800180EF2101803A212180D7
:1027500055210180A4F800804FF4966000F0B7FC8A
:10276000292020800020FFF7B8FEA4F80090BDE8E3
:10277000F0870000001401400018014000000260D2
:102780002102002010B5FFF7F7FDFFF758FEFFF715
:102790007FFEFFF738FFFFF732FF00204FF478424B
:1027A000FF494FF496330A80401C9842FBD310BD7A
:1027B0002DE9F04106460F4614461D460020DDF87F
:1027C0001880FFF78AFE2B46224639463046FFF72F
:1027D000BBFE6C430020F24903E000BFA1F800807B
:1027E000401CA042FAD3BDE8F08110B501231A467F
:1027F000FFF7AAFEEB48EA490088088010BD10B533
:10280000144601231A46FFF79FFEE548048010BDD9
:102810002DE9F04705460C4616461F460020FFF7F7
:102820005CFEB54206D1BC4204D121462846BDE833
:10283000F047DAE7391BA6EB050000D5494200282E
:1028400000DA404281421FDDBC4205D920463C46A9
:102850000746284635460646A046761BA7EB0409E0
:102860000EE000BFA8EB04007043B0FBF9F0284471
:1028700080B24146FFF7B9FF08F101001FFA80F866
:10288000B845EFD3BDE8F087B54205D920463C46B0
:102890000746284635460646A846A6EB05093F1BCF
:1028A0000EE000BFA8EB05007843B0FBF9F0204430
:1028B00081B24046FFF799FF08F101001FFA80F846
:1028C000B045EFD3DEE72DE9F05F14469B46814625
:1028D0000E46B0F59D7F38D8E42E36D80C2306225C
:1028E000FFF732FE203CE0B2AF4900EB4000DFF8DA
:1028F000B0A2002401EB8008002518F80470F80746
:102900000CD045B9C4F10C0083B2301981B2062253
:102910004846FFF719FEAAF800B00DE0052D16D0C5
:10292000C5F1060082B2301981B209EB0500401CE6
:1029300080B20123FFF708FE6D1C7F08EDB2062D63
:10294000DDD3641CE4B20C2CD6D3BDE8F09FC4F1F7
:102950000B0083B23019401C81B206224846E9E7D9
:102960002DE9FF5F07468A461446B0F59A7F46D8A0
:10297000EA2944D806230C2251463846FFF7E4FDE5
:10298000203CE0B28849DFF8249200EB4000DFF8F9
:1029900010B2002401EB800899F8000040B1C4F1A6
:1029A0000C0118F801600025F00711D01DB10BE0F3
:1029B00018F80460F7E7C4F10C0082B2381980B24D
:1029C00006235146FFF7C0FD0398ABF800000DE069
:1029D000052D16D0C5F1060083B20AEB0500401C98
:1029E00081B2381980B20122FFF7AEFD6D1C760866
:1029F000EDB2062DD8D3641CE4B20C2CCCD3BDE8C8
:102A0000FF9FC4F10B0082B23819401C80B206232C
:102A10005146E9E72DE9FF5F82460E461546B0F5BF
:102A20009C7FECD8E02EEAD810230822FFF78CFD1B
:102A30004FEA0510DFF87891DFF864B10024A0F5C3
:102A4000007800BF08EB04014FF0000519F8017091
:102A500038060DD545B9C4F1100083B2301981B2E2
:102A600008225046FFF770FD0398ABF800000DE018
:102A7000072D16D0C5F1080082B2301981B20AEBD9
:102A80000500401C80B20123FFF75EFD78066D1C37
:102A9000070EEDB2082DDBD3641CE4B2102CD1D3A9
:102AA000ADE7C4F10F0083B23019401C81B2082297
:102AB0005046E9E72DE9FF5F06468A461546B0F520
:102AC000987F9CD8E8299AD808231022514630468E
:102AD000FFF73AFD4FEA0510DFF8D490DFF8C0B0F9
:102AE0000024A0F5007800BFA8EB040101EB090069
:102AF0004FF00005077C38060DD545B9C4F110002C
:102B000082B2301980B208235146FFF71DFD0398A9
:102B1000ABF800000EE0072D17D0C5F1080083B216
:102B20000AEB0500401C81B2301980B25FF001024F
:102B3000FFF70AFD78066D1C070EEDB2082DDAD3FB
:102B4000641CE4B2102CCFD359E7C4F10F0082B259
:102B50003019401C80B208235146E9E72DE9F041C5
:102B600004460D46164698460020FFF7B6FC4FF483
:102B70009C7710E0BC4202D900241035ADB2E02DA4
:102B800001D900242546434629462046FFF742FF47
:102B90000834A4B2761C3278002AEBD123E6000078
:102BA0000000026022020020EA5D000821020020ED
:102BB0005E6200082DE9F0411446069F9846B0F584
:102BC0009C7F22D8E02920D810230822FFF7BCFCE4
:102BD0004FEA0412FD4EFE4C0020A2F5007200BF29
:102BE00002EB0001735C4FF000011D0602D5A4F852
:102BF000008000E027805B06491C1B0EC9B2082933
:102C0000F3D3401CC0B21028EAD3ECE52DE9F84F0D
:102C10000746DDE90AAB0025894616469846012499
:102C20002846FFF75AFC01E06D1CADB2705D00282C
:102C3000FAD10FE0604207EBC00080B2534649462C
:102C4000CDF800B0FFF7B6FF641CA4B2444505D22E
:102C5000AC4203D8281B325C002AEBD1BDE8F88FC8
:102C60002DE9F04105460C46164698460120FFF72F
:102C700034FC4FF4987710E0E82C02D90024103D82
:102C8000ADB2BD4201D9002425464346214628461F
:102C9000FFF710FF761C0834A4B23278002AEBD17B
:102CA000A1E52DE9F0470746002589469A461446D6
:102CB00016462846FFF711FC4FF00A0854B9534650
:102CC00049463846BDE8F0473022FCE5B6FBF8F649
:102CD0006D1CEDB2002EF9D112E000BFB4FBF8F686
:102CE00005EB450008FB164207EB4000801F6D1EF8
:102CF0003032EDB280B253464946FFF7E4FD344628
:102D0000002CEBD1BEE52DE9F04104460D461646F8
:102D100098460020FFF7E1FB4FF49D7710E0BC429E
:102D200002D900240C35ADB2E42D01D9002425468A
:102D3000434629462046FFF7C6FDA41DA4B2761CD3
:102D40003278002AEBD14EE52DE9F04105460C46DC
:102D5000164698460120FFF7C0FB4FF49A7710E023
:102D6000EA2C02D900240C3DADB2BD4201D90024A9
:102D70002546434621462846FFF7F2FDA41DA4B28E
:102D8000761C3278002AEBD12DE52DE9F04F89B081
:102D90008046894611469B466846FEF759FD002548
:102DA0004FEA0D0A0AEB45011AF815004E78002487
:102DB00046EA002609EB0507C4F10F0026FA00F0E9
:102DC000C00708EB0400B9B280B201D05A4600E057
:102DD000129AFFF714FD641CE4B2102CECD36D1CA6
:102DE000EDB2102DDED309B0BDE8F08F2DE9F04F24
:102DF000814689B0884614469B460120FFF76DFB4B
:102E000021466846FEF724FD0025EA460AEB450107
:102E10001AF815004F780024A9EB050647EA0027A9
:102E200016F11006C4F10F0027FA00F0C00708EBF6
:102E3000040081B2B0B201D05A4600E0129AFFF706
:102E4000DEFC641CE4B2102CECD36D1CEDB2102D32
:102E5000DCD3C8E72DE9F04F824689B08846144696
:102E60009B460020FFF739FB21466846FEF7F0FC41
:102E70000024E94609EB440119F814004E780025B6
:102E800046EA002608EB0407C5F10F0026FA00F019
:102E9000C00706D00AEB0500B9B280B25A46FFF768
:102EA000AEFC6D1CEDB2102DEED3641CE4B2102C00
:102EB000E0D398E72DE9F04F804689B08A46144662
:102EC0009B460120FFF709FB21466846FEF7C0FC40
:102ED0000024E94609EB440119F814004F78002555
:102EE000A8EB040647EA002716F11006C5F10F000B
:102EF00027FA00F0C00706D00AEB050081B2B0B295
:102F00005A46FFF77CFC6D1CEDB2102DEED3641C0D
:102F1000E4B2102CDED366E72DE9F84304460D46F3
:102F2000164698460020DDF82090FFF7D6FA4FF4B9
:102F3000987713E0BC4202D900241035ADB2E02DE1
:102F400001D900252C464346324629462046CDF875
:102F50000090FFF71AFFB61C1034A4B23078002896
:102F6000E8D1BDE8F8832DE9F84305460C4616463E
:102F700098460120DDF82090FFF7AFFA4FF49877DC
:102F800013E0E02C02D90024103DADB2BD4201D9BE
:102F9000002425464346324621462846CDF8009077
:102FA000FFF724FFB61C1034A4B230780028E8D113
:102FB000D7E72DE9F04104460D4616469846002015
:102FC000FFF78BFA4FF4987716E000005E62000876
:102FD00000000260BC4202D900241035ADB2E02DE1
:102FE00001D900252C464346324629462046FFF7A4
:102FF00031FFB61C1034A4B230780028EAD1CDE5F8
:103000002DE9F04105460C46164698460120FFF78B
:1030100064FA4FF4987711E0E02C02D90024103DB7
:10302000ADB2BD4201D90024254643463246214671
:103030002846FFF73FFFB61C1034A4B230780028B2
:10304000EAD1ABE52DE9F04105460C4616461F4690
:103050000120FFF742FA27E07D2A0CD2E82C02D9A2
:103060000024103DADB23B4621462846FFF722FD25
:10307000761C083417E0A32A08D13B4620222146BB
:103080002846FFF717FDB61C0835ADB2E02C02D973
:103090000024103DADB23B46324621462846FFF79C
:1030A00009FFB61C1034A4B23278002AD4D175E5D9
:1030B0004FF0E02040F2CF2141610C4AF021117025
:1030C0004FF0000181614FF007010161704708492D
:1030D000086008680028FCD170470548016800298D
:1030E00002D00168491E01607047000023ED00E036
:1030F000240200200648804706480047FEE7FEE716
:10310000FEE7FEE7FEE7FEE7FEE7FEE7FEE7FEE797
:103110002542000831010008284908432849086071
:103120007047F0B50F22C57803784FF0E0210124F5
:10313000E5B1D1F80C5D467805F4E065C5F5E065CC
:103140002D0AC5F10407EA408578BE401540354395
:103150000B442A0183F800240078420900F01F0084
:10316000844001EB8200C0F80041F0BD03F01F0075
:103170008440580901EB8000C0F88041F0BD114A3D
:10318000114001431048016070474FF0E0220029D0
:10319000D2F8101D01D0014300E08143C2F8101D98
:1031A00070474FF0E0210428086903D020F00400A4
:1031B0000861704740F00400FAE700000000FA05DB
:1031C0000CED00E080FFFF1F08ED00E002684FF605
:1031D000FE7300211A400260016041608160C1609D
:1031E0006949694A0839904203D1486840F00F00A4
:1031F00006E0654A1432904204D1486840F0F0007D
:1032000048607047604A2832904203D1486840F4D1
:103210007060F5E75C4A3C32904203D1486840F464
:103220007040EDE7584A5032904203D1486840F46C
:103230007020E5E7544A6432904203D1486840F474
:103240007000DDE7504A7832904203D1486840F080
:103250007060D5E74D4A904204D1D1F8040440F0A3
:103260000F0007E0494A1432904206D1D1F8040415
:1032700040F0F000C1F804047047444A28329042FC
:1032800004D1D1F8040440F47060F3E73F4A3C32C3
:10329000904204D1D1F8040440F47040EAE73B4A7C
:1032A00050329042E8D1D1F8040440F47020E1E7B4
:1032B00070B5036847F6F0729343D1E904460D6A8E
:1032C0008A6834432A432243D1E906542A432243DD
:1032D000D1E909542A4322431A430260CA68426072
:1032E0000A6882604968C16070BD00210160416068
:1032F0008160C160016141618161C16101624162BE
:10330000816270470029016802D041F0010102E0AA
:103310004FF6FE72114001607047002A026801D02A
:103320000A4300E08A43026070474160704740688A
:1033300080B2704701460020154ACB0002D5D2F872
:10334000002400E012680A4200D0012070471049B2
:10335000C20002D5C1F804047047486070470146B6
:1033600000200B4ACB0002D5D2F8002400E01268FE
:103370000A4200D0012070470549C20002D5C1F8B9
:103380000404704748607047080002400804024087
:1033900000000240904910B5884206D10121042066
:1033A00000F049FA002104203BE08C49884206D114
:1033B0000121082000F03FFA0021082031E088496F
:1033C000884206D10121102000F035FA002110209A
:1033D00027E08449884206D10121202000F02BFA01
:1033E000002120201DE08049884206D10121402093
:1033F00000F021FA0021402013E07C49884206D1E8
:103400000121802000F017FA0021802009E078498E
:1034100088420AD184150121204600F00CFA0021CF
:103420002046BDE8104000F006BA10BD10B50121DD
:10343000084600F000FA0021BDE81040012000F02D
:10344000FAB92DE9F041CA780025D30602F00F023F
:1034500001D58B781A430B884FF00F084FF0010C01
:1034600013F0FF0F1BD004680E880CFA05F31E4002
:103470009E4210D1AF0008FA07F624EA060602FAC7
:1034800007F43443CE78282E02D0482E02D002E032
:10349000436100E003616D1C082DE5D304600B88D7
:1034A000FF2B1DD94468002505F108060CFA06F328
:1034B0000E881E409E420FD1AF0008FA07F624EA9C
:1034C000060602FA07F43443CE78282E00D1436171
:1034D000CE78482E00D103616D1C082DE4D34460E2
:1034E000BDE8F0814FF6FF71018002218170042157
:1034F000C17070470246002092680A4200D0012045
:103500007047806880B2704702460020D2680A4245
:1035100000D001207047C06880B2704701617047D9
:10352000416170470AB10161704741617047C160F4
:10353000704741F480328261816182618169806972
:1035400070472C4B10B51A684FF68074224042EA3F
:1035500000100843186010BD2749C8617047F0B5D6
:10356000244C002801DAE36900E06368420D12018F
:1035700085B2C0F301579540C0F30346032F05D031
:10358000C2020AD50322B240934307E023F07062DF
:10359000636823F07063636002E0AB4343F07062E2
:1035A00001B12A43002801DAE261F0BD6260F0BD9A
:1035B00010B58A0721F003040E49130F21440F228E
:1035C0008C689A4094438C608A68984002438A6071
:1035D00010BD0A490860704700080140000C014016
:1035E000001001400014014000180140001C01407F
:1035F000002001400000014000002042DC00204289
:10360000A348016841F0010101604168A14A1140ED
:1036100041600168A04A11400160016821F48021E5
:10362000016042684FF41F0122F4FE024260816093
:10363000704797490A6822F480320A600A68B0F538
:10364000803F22F480220A6007D0B0F5802F03D19A
:10365000086840F4A02008607047086840F4803093
:10366000F9E70246002053098949012B0AD0022BB1
:103670000AD0496A02F01F02012393400B4200D096
:10368000012070470968F5E7096AF3E730B50024BF
:103690004FF4A0653120FFF7E4FF641CAC4201D079
:1036A0000028F7D03120FFF7DCFF002800D00120F0
:1036B00030BD77490A6822F0F80242EAC00008608B
:1036C0007047764908607047714A5368084323F48D
:1036D0007C131843506070477049086670476C4A05
:1036E000516821F003010143516070476848406808
:1036F00000F00C007047664A516821F0F001014368
:1037000051607047624A516821F4E06101435160A1
:1037100070475F494A6822F4605242EAC00048603C
:1037200070475B4A0029517A01D0014300E0814390
:10373000517270475A4908607047554A516821F4E0
:103740004041014351607047564900220A7001F818
:103750002029012802D0042802D1052081F8200068
:10376000704751490860704749490A6A02430A6232
:1037700070474E4908607047454910B54B684C4A40
:1037800013F00C0303D0042B01D0082B26D00260C9
:103790004A68484B02F0F00212099C5C0268E24061
:1037A00042604C6804F4E064240A1C5D22FA04F4CC
:1037B00084604C6804F460544FEAD4241B5D22FA00
:1037C00003F2C26049683B4B01F440414FEA91313A
:1037D0001B1F595CB2FBF1F1016110BD4A684B68D7
:1037E000022402F4701204EB924213F4803F02D0E0
:1037F0004B689B0301D5304B00E02D4B5A43C6E785
:10380000234A0029516901D0014300E081435161FD
:1038100070471F4A0029916901D0014300E08143AC
:10382000916170471A4A0029D16901D0014300E033
:103830008143D1617047164A0029D16801D0014304
:1038400000E08143D1607047114A0029116901D01D
:10385000014300E0814311617047184908607047D7
:103860000E49C86470470A49C87170470848416AE0
:1038700041F0807141627047054A0146002092681C
:103880000A4200D001207047014988727047000049
:10389000001002400000FFF8FFFFF6FE0000424269
:1038A000D800424220100240800442423C0442427E
:1038B00000127A002C02002000093D004004424220
:1038C0005E480021016041608160C16041628162A7
:1038D000C1625B4A8263C163704770B5574B5A68D7
:1038E000041D47F6FF6170CC8A43017D34432943B0
:1038F000056821430069294301431143596070BDA4
:1039000000210175016041608160C1600161704703
:103910004C490860704749490A6822F003020A606E
:103920000A6802430A6070474448006800F00300D8
:103930007047424A0029D16B01D0014300E0814326
:10394000D163704740490860704730B53B4A016811
:103950009160D168CB0AD0E90115D0E90340294331
:103960000443DB0221431943D16030BD00210160D3
:1039700041608160C1600161704730480069C0B238
:1039800070472E4914314058704730B52B490268B2
:103990004A6242688A62CA6A22F0F703D0E90225C5
:1039A000D0E904402A43044322431A43CA6230BD8B
:1039B0004FF0FF310160002141608160C160016111
:1039C000416170471D48006B704720480068704790
:1039D0001E49086070471948806C70471C49086090
:1039E00070471C49086070471B49086070471B49B5
:1039F000086070471A49086070471A4908607047A4
:103A000001218143184801607047184908607047D8
:103A10000A4A01460020526B0A4200D0012070473A
:103A2000064988637047054A01460020526B0A42E6
:103A300000D0012070470149886370470080014031
:103A4000FF07C000A00030428C053042808001405A
:103A5000A0053042A4053042A8053042AC053042F2
:103A6000AC013042B0013042B4013042B8013042C2
:103A7000C64910B588420AD101218C032046FFF7C0
:103A8000DAFE2046BDE810400021FFF7D4BEC04951
:103A9000884202D101214C0410E0BE49884202D183
:103AA00001218C040AE0BC49884202D10121CC04E6
:103AB00004E0BA4988420AD101210C052046FFF7EB
:103AC000C3FE2046BDE810400021FFF7BDBE10BD7B
:103AD00030B50446008A85B00D464CF6FF710840AB
:103AE000E98801432182A1894EF6F3100140A8889C
:103AF0002A8910436A890A431043A081A08A4FF69D
:103B0000FF410840A9890143A1826846FFF734FEBE
:103B10009E48844201D1039800E00298A1890904DB
:103B2000002900EBC00101EB0010296802DA4FEA1E
:103B3000410101E04FEA8101B0FBF1F06422B0FBEA
:103B4000F2F14FEA01114FEA11136FF018056B43C0
:103B5000A58900EB83004FF032032D0406D503EB5B
:103B6000C000B0FBF2F000F0070005E003EB00102E
:103B7000B0FBF2F000F00F000843208105B030BD2B
:103B80004FF41651016000218180C18001810C2217
:103B900042818181704730B5038A4FF2FF021340A2
:103BA0000A884D888C88C9882A430C4322431A43CB
:103BB000028230BD0021018041808180C180704738
:103BC0000029818902D041F4005101E021F4005123
:103BD0008181704710B5C1F3421301F01F04012128
:103BE000A140012B07D0022B07D01430002A026815
:103BF00005D00A4304E00C30F8E71030F6E78A43BA
:103C0000026010BD002A828A01D00A4300E08A4384
:103C100082827047028A22F00F020282028A0A43DD
:103C200002827047828922F40062828182890A437B
:103C3000828170470029818902D041F0020101E0B0
:103C400021F0020181817047028A22F02002028263
:103C5000028A0A43028270470029018A02D041F495
:103C6000804101E021F4804101827047C1F30801E5
:103C7000818070478088C0F308007047818941F0D7
:103C8000010181817047028BD2B20283028B42EA2A
:103C9000012101837047028B02F47F420283028B71
:103CA0000A43028370470029818A02D041F0200133
:103CB00001E021F02001818270470029818A02D031
:103CC00041F0100101E021F01001818270470029CC
:103CD000818A02D041F0080101E021F008018182CF
:103CE00070470029818902D041F4004101E0C1F30D
:103CF0000E01818170470029818A02D041F4006160
:103D000001E021F4006181827047828A22F004027E
:103D10008282828A0A43828270470029818A02D085
:103D200041F0020101E021F0020181827047024668
:103D3000002012880A4200D001207047C943018048
:103D4000704770B501F01F0601220025C1F3421330
:103D500002FA06F4012B0FD0022B0FD0838A4FEA10
:103D600011210088234202FA01F200EA020001D088
:103D700000B10125284670BD8389F0E7038AEEE78C
:103D80000A0A01219140C94301807047003801406F
:103D90000044004000480040004C004000500040FB
:103DA0004FF0204202EB800140B143F2D2000860A4
:103DB0006FF070404860C1F80401704743F2DB00C7
:103DC0001060F5E710B5182440234FF020414FF064
:103DD000FC32102805D041F8804F4B608A60CA60E1
:103DE00010BD0C664B668A66CA6610BDFD48182178
:103DF00001604FF0000141604FF0FC318160C16013
:103E000001617047F0B5D0E9011400F10C022143C3
:103E10001CCA1A431143D0E9062321431143194315
:103E2000D0E9082311431943D0E90A231143194368
:103E3000026B036811434FF0204242F8231081685F
:103E4000082906D1016802EB81010B6843F04003A9
:103E50000B60416BD1E901431D020B68D1E9036797
:103E600043EA041345EA06452B4343EA0755D1E9E3
:103E7000054345EA04610468194302EB8403596071
:103E8000C16AB1F5804F07D000686FF0704102EB56
:103E90008000C0F80411F0BD816BD1E901431D021F
:103EA0000B68D1E9046743EA041345EA0654006845
:103EB0008969234343EA076302EB80000B43C0F8A0
:103EC0000431F0BD70B5D0E9011400F10C022143BA
:103ED0001CCA1A431143D0E9063241EA442141EA9F
:103EE000433141F0080492E82A0041EA0321D668F0
:103EF0002D04036A45EA0665294393E8640042EA13
:103F000005223504DE68036845EA06652A434FF05A
:103F10002040102B04D040F8804F8160C26070BDFB
:103F200004668166C26670BD70B590E80E0041EA15
:103F300042221024AB4944EA43331A430A60C26860
:103F4000D2E901341568D6684FEA044445EA0322F1
:103F500044EA066342EA03028A600269D2E9013454
:103F60001568D6684FEA044445EA032244EA06632A
:103F700042EA0302CA604069D0E901230468C568C7
:103F80004FEA034344EA022043EA056240EA0200A2
:103F9000086170BD10B500220221C0E900218260D5
:103FA000C260026142618261C902C261C0E9082146
:103FB0004900C0E90A120263446B0F21FF2321600C
:103FC000446B6160446BA360446BE160446B2161AE
:103FD000446B6161446BA261846B2160846B61609E
:103FE000846BA360836BD960836B1961836B5961A8
:103FF000806B826110BD10210160002141608160F1
:10400000C160016141618161C269FC211160C269C5
:104010005160C2699160C269D160026A1160026A2E
:104020005160026A9160006AC160704700210160BE
:1040300041608160C268FC211160C2685160C26841
:104040009160C268D16002691160026951600269C1
:1040500091600269D16042691160426951604269B0
:1040600091604069C16070474FF0204202EB8000D0
:104070000029016802D041F0010101E05A4A1140D3
:10408000016070474FF0204251B1102804D052F81F
:10409000800F40F004000AE0106E40F004000AE0D7
:1040A0005149C91E102804D052F8800F08401060F2
:1040B0007047106E0840106670474A49002808682B
:1040C00002D040F0040002E0474AD21E10400860CF
:1040D00070474FF0204251B1102804D052F8800FA1
:1040E00040F040000AE0106E40F040000AE03E4917
:1040F0003F39102804D052F8800F084010607047F4
:10410000106E0840106670474FF02041102802D012
:10411000D1F894007047486F704710B54FF4807421
:104120004FF0204382B1102804D0A04205D103F102
:10413000840304E0586E08430FE003F1A4031868F9
:1041400040EA0100186010BD102804D0A04206D13A
:1041500003F1840305E0586E8843586610BD03F1EF
:10416000A403186820EA0100ECE7024600204FF0A3
:104170002043102A08D0B2F5807F07D0D3F8A420BE
:104180000A4200D0012070475A6EF9E7D3F8842024
:10419000F6E74FF02042102809D0B0F5807F0AD012
:1041A00002F1A402106820EA010010607047506E0E
:1041B00088435066704702F18402F3E7024600200C
:1041C0004FF02043102A11D0B2F5807F10D0D3F8E1
:1041D000A4200A4202EAD10102D0002900D0012025
:1041E00070470000A00000A0FEFF0F005A6EF0E72D
:1041F000D3F88420EDE74FF02042102809D0B0F525
:10420000807F0BD002F1A402106820EAD100106078
:10421000E6E7506E20EAD1005066E1E702F1840241
:10422000F2E70000464810B5016841F00101016065
:104230004168444A114041600168434A11400160AD
:10424000016821F480210160416821F4FE01416090
:104250004FF41F01816000F02FF83C494FF00060DF
:10426000086010BD364910B54B68394A394813F01B
:104270000C0303D0042B01D0082B0BD002604A683A
:104280003449C2F30312091D895C026822FA01F263
:10429000026010BD4A684B68022402F4701204EBFD
:1042A000924213F4803F02D04B689B0301D52A4B06
:1042B00000E0274B5A43E1E721480021026842F41D
:1042C000803202604FF4A0630268491C12F4003F80
:1042D00001D19942F8D10168890330D51F490A6894
:1042E00042F010020A600A6822F003020A600A68BB
:1042F00042F002020A6041684160416841604168E1
:1043000041F480614160416821F47C114160416861
:1043100041F4E8114160016841F080710160016879
:104320008901FCD5416821F003014160416841F0F9
:10433000020141604168C1F381010229FAD170474D
:10434000001002400000FFF8FFFFF6FE08ED00E05D
:1043500000127A003C02002000093D0000200240CB
:104360002DE9F041C56A04460F468D422BD02179D4
:1043700004F13008D9B1607801232A46414601F0A2
:104380005FFBE0B900202071D4E907100844A8427F
:104390000DD9E67809E0E0690123054460782A46F2
:1043A000414601F04DFB761EF6B2012EF3D857B10F
:1043B000607801233A46414601F026FB10B1012006
:1043C000BDE8F081E7620020FAE78269891E921E4B
:1043D0008A4201D800207047826A807801FB002061
:1043E00070472DE9F04104460D46022902D3A06929
:1043F000A84201D80120E3E72078012804D0022850
:1044000025D0032836D12EE0206A05EB550600EBB7
:1044100056212046FFF7A4FF60BBC6F308002044E6
:10442000761C90F83070206A00EB56212046FFF78A
:1044300097FFF8B9C6F30800204490F8300047EA27
:1044400000210809EA07BBD1C1F30B00B8E7206AD5
:1044500000EB15212046FFF783FF58B9E8B204EBC3
:104460004000008EACE7206A00EBD5112046FFF734
:1044700077FF10B14FF0FF30A2E740F2FF1000EAE3
:104480008500204410F8301FD0F8010041EA0020D8
:1044900020F0704094E72DE9F04104460D461646A1
:1044A000022902D3A069A84201D8022088E7207817
:1044B0004FF00108012808D0022839D0032847D03E
:1044C0005FF0020084F804807AE7206A05EB550764
:1044D00000EB57212046FFF743FF0028F2D1C7F336
:1044E000080001193031F0B2EA0703D0024608781B
:1044F00062F31F10087084F80480206A7F1C00EBB0
:1045000057212046FFF72CFF0028DBD1C7F3080115
:1045100021443031EA0702D0C6F3071206E00A78D8
:10452000330AC3F3030302F0F0021A430A70C9E727
:10453000206A00EB15212046FFF712FF0028C1D1A9
:10454000E9B204EB4101320A01F8306F4A70B9E771
:10455000206A00EBD5112046FFF702FF0028B1D1F9
:1045600040F2FF1101EA85010A1930324FF0704321
:10457000D2F8011003EA0121314311700B0A537084
:104580000B0C9370090ED1709CE72DE9F0410646A3
:104590000F0005D0FFF725FF022808D201200FE702
:1045A000F46814B1B069A04205D8012403E0B169F0
:1045B0008142F4D83C462546B0696D1CA84202D819
:1045C0000225022C0AD329463046FFF70AFF38B1EC
:1045D000411CE4D00128E2D0A542EDD10020EFE655
:1045E0006FF0704229463046FFF755FF30B967B18A
:1045F0002A4639463046FFF74EFF30B14FF0FF35BF
:10460000012800D001252846DAE6F5603069411C12
:10461000F9D0401E306101207071F4E770B50D468D
:10462000C1808168044601291ED0206882698A42BF
:104630001AD921B90278032A04D1416A11B18078CC
:10464000060117E0E1600189A9420DD9406A17E02F
:104650002068FFF7C6FE0146401C07D0022903D39D
:1046600020688069884203D8022070BD012070BD97
:10467000A81B85B2B542EBD2E1602068FFF7A5FE2A
:1046800000EB1510206105F00F013022206802EBCD
:10469000411108446061002070BD2DE9F0410446DD
:1046A000C0880F46401C0604360C2DD0206958B334
:1046B00031075DD1401C2061E168206829B1827812
:1046C000521E12EA161F04D052E00089B0421BD9D4
:1046D0004EE0FFF786FE0546012819D9681C32D046
:1046E00020688169A9423DD877B1E168FFF74DFFA5
:1046F00005000BD0012D0BD0681C24D000212068B0
:10470000FFF72EFEF8B905E0042059E6072057E62A
:10471000022055E620684FF400723030002101F08D
:10472000E1F829462068FFF750FE216800274FF086
:104730000108C8620FE000BF80F8048000212068F3
:10474000FFF70EFE08B101203AE620687F1CFFB299
:10475000C16A491CC16220688178B942ECD8C16A3B
:10476000C91BC162E56029462068FFF72EFE206163
:10477000E68006F00F013022206802EB4111084468
:10478000606100201CE67CB5164605461C460B22DF
:1047900001F09EF8052C09D936F8021B600800EBE1
:1047A000C4303288084484B2002AF5D107216B4610
:1047B00004F00F003030392801D9C01DC0B2585460
:1047C000491E2409F4D17E2058540022481E06E0D8
:1047D000813C7D2C02D8824206D0521C521C8A4257
:1047E00002D2AC5C202CF3D120200446082901D24F
:1047F0005C5C491CAC54521C082AF6D37CBD2DE9E4
:10480000F84F05460021FFF709FF002878D14FF047
:10481000FF0AD14629692868FFF7A2FD06000ED1DC
:104820006C69207850B1E17AE52801F03F0103D0AE
:104830000A0705D50F2909D0FF204CE0042671E0B6
:104840000F2903D0B9F1000F4AD04EE0E96981B3D6
:10485000420606D594F80DA020F04000EB88814672
:104860002B84484535D1627B524532D10091207866
:10487000002720F04000401E00EB8001DFF8A4B6C6
:1048800001EBC008012600BF1BF807002044008888
:1048900086B101F017F90646B8F1320F19D2009827
:1048A00030F8180008F1010801F00CF9B04210D1FD
:1048B00004E02EE0A0F57F41FF390AD17F1C0D2FC7
:1048C000E2D32078400608D53EB1009830F81800B1
:1048D00018B1FF20C0B281461DE0A9F10100F9E73F
:1048E000204601F069F850451CD04FF6FF7028842F
:1048F000A8694FF0FF09C17AC9070CD10A2102E06B
:1049000011E0491E06D314F8012B10F8013BD21A0E
:10491000F7D000E032B100212846FFF7BEFE0600C6
:104920003FF478AF3046BDE8F88F2DE9F047FF241B
:104930000546A14604264FF6FF774FF0000A60E0D7
:104940002868FFF70DFD06005FD16869017861B145
:10495000C27AE52902F03F0205D02E2903D01307C1
:1049600005D50F2A07D0FF243EE004264DE00F2A8C
:1049700001D0B4BB3FE04A0606D590F80D9021F077
:104980004001EB880C462B84A1422BD1427B4A4547
:1049900028D10178002301F03F01491E01EB81027B
:1049A00002EBC101DFF87C85EE69012218F803C033
:1049B0008444BCF800C032B1322913D226F811C0A9
:1049C0006246491C01E0BC450CD15B1C0D2BEDD3AC
:1049D0000078400603D5322904D226F811A0641EBF
:1049E00001E00CE0FF24E4B200212846FFF755FE69
:1049F000060006D009E000F0DFFF484507D02F840D
:104A000005E0296900299BD10EB1C5F810A03046F8
:104A1000BDE8F0872DE9FF5FD0E9067604460C2259
:104A20003946684600F054FF9DF80B00C00719D0C6
:104A30000020F8720125E0612B463246694638466F
:104A4000FFF7A1FE2046FFF7DAFE18B96D1CADB2E4
:104A5000642DF1D3642D0BD004280AD19DF80B00EE
:104A6000F872E6619DF80B00800711D5002005E083
:104A7000072004B0BDE8F09F401C80B236F810104B
:104A80000029F9D119300D21B0FBF1F087B200E017
:104A9000012700212046FFF7C1FD0028E9D10026AB
:104AA000B04621692068FFF75BFC05000BD1606907
:104AB0000078E52808D038B1002601212046FFF70C
:104AC000ECFD0500EDD078E00EB9B4F80680761C58
:104AD000B6B2BE42F1D1012F56D941462046FFF76A
:104AE0009DFD050069D1A06900F066FF7F1E1FFAD9
:104AF00087FB039021692068FFF732FC05005CD139
:104B00006069D4F81C90039941730F21C172002190
:104B1000017381760BF0FF0AC176AAF1010101EB66
:104B2000810202EBC10300224FF6FF7EFD4D471CC0
:104B300001E0414503D039F813105B1CF046AE5C30
:104B4000815515F802C00E0A0CF8076001B94146FC
:104B5000521C0D2AEDD3714502D039F8131009B952
:104B60004AF0400A80F800A0216801200871002165
:104B70002046FFF792FD05001FD1ABF101001FFA9F
:104B800080FBBBF1000FB5D121692068FFF7E8FB7E
:104B9000050012D1666920220021304600F0A2FEF5
:104BA0000B223046A16900F093FEA069C07A00F0A4
:104BB00018003073216801200871284659E72DE953
:104BC000F84F824688460E6800E0761C30782F2821
:104BD000FBD05C28F9D00024DAF81C702546705D03
:104BE0006D1C202828D32F2826D05C2824D0322CD6
:104BF00041D2C0B2A0F181017D290BD8715D6D1C3D
:104C0000A1F140023F2A02D3403A7F2A33D201EB7E
:104C1000002080B2012100F033FF5FEA00092AD0B2
:104C2000B9F1800F04D20146BFA000F062FE10BBB4
:104C300027F81490641CD2E772190425C8F80020E4
:104C4000202816D3002514E007EB440030F8020CAE
:104C500020280DD02E280BD06CB1002027F814008E
:104C60000B222021DAF8180000F03CFE002605E0B7
:104C7000641E002CE8D1062055E6761C37F8160095
:104C80002028FAD02E28F8D01EB145F0030500E008
:104C9000641E2CB107EB440030F8020C2E28F7D12B
:104CA000002081464FF0080BCDF8000037F8168041
:104CB000761CB8F1000F24D0B8F1200F04D0B8F161
:104CC0002E0F04D1A64202D045F00305EEE700986E
:104CD0005946584501D2A64219D10B290FD0A642F8
:104CE00001D045F003050CD84FF0080000904FEAC2
:104CF000896026464FF00B0B4FEA1069D6E745F066
:104D00000305DAF818000178E52947D048E0404665
:104D1000B8F1800F07D300F0D5FE002100F0B0FEFF
:104D2000804645F00205B8F1FF0F12D90099ABF1AA
:104D30000100814204D345F00305CDF800B0B5E78A
:104D4000DAF8182000984FEA1821431C11540093F8
:104D50001CE0B8F1000F04D0014676A000F0C9FDB8
:104D600020B14FF05F0845F003050FE0A8F14100C6
:104D7000192802D849F0020908E0A8F161001928B1
:104D800004D8413049F001091FFA80F8DAF81820F8
:104D90000098431C02F80080009387E7052101700A
:104DA000BBF1080F03D14FEA89604FEA1069C9F3DC
:104DB0008100032803D06FEA0901890701D145F07A
:104DC0000205A90709D409F00301012901D145F021
:104DD0001005012801D145F00805DAF81800C57260
:104DE0000020A0E52DE9F0410D4601F1090401691B
:104DF000C1B3416900230E7BCA5C202A0FD0052A6B
:104E000000D1E522370705D5A2F14107192F01D8B6
:104E10002032D2B25B1C04F8012B082BECD30A7AA7
:104E2000202A13D02E2204F8012B0823CA5C202A42
:104E30000CD0F70605D5A2F14107192F01D8203271
:104E4000D2B25B1C04F8012B0B2BEFD3CA7A2A7267
:104E50000A7FD1F81D3042EA03222A600A8BAA8019
:104E6000C98AE9804FF0000884F80080AE69002EFE
:104E700023D0E969002920D001690024D9B1018C2F
:104E8000A1F57F42FF3A16D0C76910E0002100F07B
:104E9000F7FD40B1FF2802D9010A3155641CE969C8
:104EA000491EA14201D8002405E03055641C37F8A2
:104EB000020B0028EAD106F8048026E473B5044604
:104EC000019801782F2901D05C2901D1401C019063
:104ED0000025A56001980078202805D200212046F1
:104EE000FFF79CFB65617CBD01A92046FFF767FECB
:104EF0000028F8D12046FFF782FCA169C97A28B1C1
:104F00000428F0D14907EED405207CBD4907FCD424
:104F10006069C17AC906F7D5818A408B61F31F4069
:104F2000A060E1E75E680008222A3A3C3E3F7C7FB1
:104F3000000000002B2C3B3D5B5D000010B50446DB
:104F40000A464078012304F1300100F05DFD08B10C
:104F5000032010BDB4F82E02A0F52A41553901D026
:104F6000022010BD94F86610D4F86720F84841EA92
:104F70000221B0EB012F08D094F88210D4F88320DE
:104F800041EA0221B0EB012F01D1002010BD012028
:104F900010BD2DE9F0470B46016815460A78303AF6
:104FA000092A07D84C783A2C04D1891C01600AB12F
:104FB0000B202DE5E74804681C609CB1207820B1E7
:104FC000607800F01FFDC1070ED04FF0000984F893
:104FD0000090484684F8019000F00CFDC10708D00D
:104FE000032015E50C2013E50DB1400704D4002083
:104FF0000EE51DB1400701D50A2009E500210E4646
:105000002046FFF79BFF01280CD104F5F7700179CA
:10501000E9B3017AD0F8090041EA0026314620467A
:10502000FFF78CFF032801D088BB01E00120EFE4EB
:10503000B4F83B00B0F5007F5DD1B4F84680B8F11C
:10504000000F05D194F85400D4F8551040EA012817
:10505000C4F81C8094F84000E070012801D00228B8
:1050600049D194F83D5008FB00FCA5707DB1691E44
:105070000D4240D1B4F84110218108073BD1B4F86A
:10508000430038B994F85000D4F8512000E032E0E1
:1050900040EA0220E38F73B303EB0C0202EB111220
:1050A000904228D3801AB0FBF5F020B3012540F6DA
:1050B000F677B84200D302254FF6F677B84200D310
:1050C00003253244A262801CF218A0612262032DE3
:1050D00013D081B102EB0C016162022D18D000F0F7
:1050E000010100EB400001EB500000BF00F2FF1097
:1050F000B8EB502F0ED20D208AE40029FBD194F892
:105100005C10D4F85D20800041EA02216162EDE785
:105110004000EBE74FF0FF30C4E903904F46032D0A
:1051200031D16771B4F8600001238219626160783F
:1051300004F1300100F068FC28BBB4F82E02A0F5A1
:105140002A4155391FD194F83000D4F831208249D2
:1051500040EA0220884216D194F81402D4F81522AD
:105160007E4940EA022088420DD194F81C02D4F80E
:105170001D1240EA0120E06094F81802D4F81912D8
:1051800040EA0120206173492570091F0888401CEE
:105190000880E080E762277129E708B10B2070479B
:1051A0006C4A0023106800B1037001B10B7000203D
:1051B000116070472DE9F74FACB04FF0000B074678
:1051C00002F01F06C0F800B026F0010203A92DA8C6
:1051D000FFF7DFFE040029A809900EA80A9004D169
:1051E00003A82D99FFF76AFE0446089D0CB905B97E
:1051F000062416F01C0F7FD054B1042C03D103A851
:10520000FFF708FC0446089D46F0080644B19BE001
:10521000E87A10F0110F79D1700701D5082493E0D6
:10522000300779D500F02AFCA873010AE973010C54
:105230002974000E687485F80BB085F81CB085F8E9
:105240001DB085F81EB085F81FB0AA8A698B85F855
:105250001AB085F81BB062F31F4185F814B05FEAFD
:10526000010985F815B003994FF00100087151D07C
:105270000399DDF80C804C46C96A0191B9F1020F1F
:1052800019D3D8F81810A14215D923E02146404679
:10529000FFF7A7F85FEA000A20D0BAF1010F0AD0A1
:1052A0001AF1010009D0002221464046FFF7F3F829
:1052B000040049D103E0022446E0012444E0D8F888
:1052C0001000411C05D0401CC8F81000012088F8CF
:1052D00005005446D8F81800A042D7D80399A9F180
:1052E0000100C86001990398FFF73AF804000FD055
:1052F0002AE001E00AE00FE034BBE87AC10601D5FC
:10530000042421E0B10703D5C00701D007241BE026
:10531000300701D546F020060398C06AC7E90705A3
:10532000BE71A98A688B61F31F403861297FD5F867
:105330001D2041EA0221C7E902B1C7F818B003985D
:1053400038600398C088B8802FB02046BDE8F08F41
:105350000046415454020020525261417272416130
:105360002DE9F05F0F46002119600446818815463B
:105370009846006800F02DFB002803D1A0790106B3
:1053800002D50220BDE8F09FC00708D0D4E9021280
:10539000501A04F12409854200D9054683E007200C
:1053A000F0E7A068C10566D122689178491E01EA3C
:1053B000502111F0FF0609D118B310466169FFF7BB
:1053C00010F802281FD3411C4DD06061616920682C
:1053D000FEF7FBFFB8B100EB060B5FEA552A29D0B8
:1053E000216806EB0A028878824201D9A0EB060AFE
:1053F00048780AF0FF035A46394600F005FB90BB97
:1054000006E02069DDE7A07940F08000A071B8E7F0
:10541000A07940060BD5A169A1EB0B00504506D23F
:1054200007EB40204FF40072494600F051FA4FEA72
:105430004A262EE0A2695A451BD0A07940060AD51B
:10544000206801234946407800F0FAFA58B9A0795B
:1054500020F04000A071206801235A464078494658
:1054600000F0D2FA28B1A07940F08000A0710120AC
:1054700088E7C4F818B0A068C0F30800C0F500764B
:10548000AE4200D92E46011924313246384600F08A
:105490001FFAA16837443144A160D8F80010AD1B51
:1054A0003144C8F80010002D7FF47BAF002069E77D
:1054B0002DE9F05F0F4600211960044681881646E9
:1054C0009846006800F085FA002803D1A07901060B
:1054D00001D5022056E7800701D4072052E7E16892
:1054E00004F124098A198A427AD399E0A068C10597
:1054F0007AD122689178491E01EA502111F0FF0506
:105500000BD1B0B110466169FFF73FF8002867D0B2
:10551000012836D0411C5DD06061A079400615D5C8
:105520002068012349464078A26900F089FAF0BB5F
:1055300008E020690028EBD100211046FFF725F88C
:105540002061E3E7A07920F04000A0716169206844
:10555000FEF73BFFA8B100EB050B5FEA562A2AD005
:10556000206805EB0A0281788A4201D9A1EB050A7D
:1055700040780AF0FF035A46394600F061FAB0B9A4
:1055800004E0A07940F08000A071A2E7A169A1EB3E
:105590000B0050450AD207EB40214FF400724846F9
:1055A00000F096F9A07920F04000A07100E011E031
:1055B0004FEA4A252AE0A169594513D0D4E90201EE
:1055C00088420FD2206801235A464078494600F0AD
:1055D0001BFA38B1A07940F08000A0710120D1E61B
:1055E00021E001E0C4F818B0A068C0F30800C0F5DD
:1055F0000075B54200D93546204424302A46394644
:1056000000F066F9A07940F04000A071A1682F4435
:105610002944A160D8F80010761B2944C8F800106E
:10562000002E7FF463AFD4E90201884200D9E06024
:10563000A07940F02000A0710020A3E670B50446D8
:105640008188006800F0C5F900280ED1A1798A068A
:105650000BD548060ED52068012304F124014078BB
:10566000A26900F0EDF908B1012070BDA07920F029
:105670004000A071E1692068FEF772FE0028F4D1B5
:10568000256AE87A40F02000E872E0682877E06850
:10569000000A6877E068000CA877E068000EE877F9
:1056A0002069A8762069000AE8762069000C287530
:1056B0002069000E687500F0E1F9A875010AE97526
:1056C000010C2976000E6876A07920F02000A071E8
:1056D0002168012008712068BDE8704000F011B910
:1056E00010B50446FFF7AAFF002801D10021216070
:1056F00010BD2DE9F0410D4604468188006800F098
:1057000068F95FEA000803D1A179080602D50220F2
:10571000BDE8F081E068A84202D2890700D40546BE
:105720000027A068A76005B3226891784FEA412658
:1057300068B1691E401EB1FBF6F1B0FBF6F3994269
:1057400005D3711E8843A0602D1A61690CE02169A0
:1057500049B900211046FEF718FF014601283FD045
:10576000481C4ED021616161D1B926E0A079800743
:10577000206805D5FEF709FF010004D1354611E088
:10578000FEF72FFE0146481C3BD0012928D920688E
:105790008069884224D96161A068AD1B3044A06053
:1057A000B542E3D8A068EA052844A06005D0206887
:1057B000FEF70BFEA0B100EB5527A068C00527D06F
:1057C000A269BA4224D0A07904F12405400610D57C
:1057D000206801232946407800F032F988B904E0B6
:1057E000A07940F08000A07191E7A07920F04000FE
:1057F000A071206801233A464078294600F004F958
:1058000028B1A07940F08000A071012080E7A76155
:10581000D4E90201884204D9E060A07940F0200078
:10582000A071404674E713B59EB0044601460022BD
:105830001FA8FFF7AEFB00281CD11AA8A061C4F86E
:105840001CD020461F99FFF739FB80B9606938B139
:10585000C17AC9060DD5818A408B61F31F40A060D3
:1058600020680021C088A0802046FEF7D7FE0428CB
:1058700000D1052020B010BD70B50E4604468188C9
:105880009EB0006800F0A5F8002818D1CEB11AA883
:10589000A061C4F81CD02046FFF747F80025042873
:1058A00014D000280BD131462046FFF79BFA002187
:1058B0002046FEF7F2FE042801D1002025611EB02B
:1058C00070BD00212046FEF7A9FEF8E72561EAE752
:1058D00010B504E011F8013B441C03702046521E31
:1058E000F8D210BDC9B201E000F8011B521EFBD274
:1058F000704700E0401C02780AB18A42FAD1D0B267
:1059000070472DE9F04104460021FEF729FD05000E
:1059100050D12078032846D16079F0B3002604F1F5
:1059200030004FF4007231460746E662FFF7DAFFB7
:10593000552084F82E02AA2084F82F02522084F8E1
:10594000300084F83100612084F83200412184F86D
:105950003310722284F8142284F8152284F8161267
:1059600084F81702206984F81802010A84F81912D1
:10597000010C84F81A12000E84F81B02E06884F807
:105980001C02010A84F81D12010C000E84F81E127C
:1059900084F81F026078012300E004E03946626960
:1059A00000F04EF8667100226078114600F064F84D
:1059B00000B101252846ABE6014600200B22430832
:1059C00003EBC01011F8013B521E1844C0B2F6D1CF
:1059D000704710B520B1027812B1C2888A4201D056
:1059E000092010BD407800F00DF8C007F9D0032061
:1059F00010BD000010B518B9FBF7D5F8002800D08D
:105A0000012010BD0020704710B5084651024FF428
:105A10000074012B224608D9FBF77DFAFBF7D2FA76
:105A2000FBF738F90028FBD108E0FBF724FAFBF775
:105A3000C9FA00BFFBF72EF90028FBD1002010BDEA
:105A400010B5084651024FF40074012B224608D9C4
:105A5000FBF721FBFBF79EFBFBF71CF90028FBD1B2
:105A600008E0FBF7C1FAFBF795FB00BFFBF712F963
:105A70000028FBD1002010BD002070470020704797
:105A800070B580281BD345F2205309B1154C00E0B6
:105A9000154C002510215A1B02EBD27205EB620255
:105AA00034F82260864206D001D2154600E0134643
:105AB000491EF0D104E019B104EB8200408870BDAA
:105AC000002070BD0021094A00E0491C32F8113065
:105AD0000BB18342F9D11A04120C02D0044830F8F9
